{
  "contractName": "Administrable",
  "abi": [
    {
      "constant": true,
      "inputs": [],
      "name": "owner",
      "outputs": [
        {
          "name": "",
          "type": "address"
        }
      ],
      "payable": false,
      "stateMutability": "view",
      "type": "function"
    },
    {
      "constant": false,
      "inputs": [
        {
          "name": "_newAdministratorAddress",
          "type": "address"
        }
      ],
      "name": "setPrimaryAdministrator",
      "outputs": [
        {
          "name": "result",
          "type": "uint8"
        }
      ],
      "payable": false,
      "stateMutability": "nonpayable",
      "type": "function"
    },
    {
      "constant": false,
      "inputs": [
        {
          "name": "_newAdministratorAddress",
          "type": "address"
        }
      ],
      "name": "setAdministrator",
      "outputs": [
        {
          "name": "result",
          "type": "uint8"
        }
      ],
      "payable": false,
      "stateMutability": "nonpayable",
      "type": "function"
    },
    {
      "constant": false,
      "inputs": [
        {
          "name": "_revokeAdministratorAddress",
          "type": "address"
        }
      ],
      "name": "revokeAdministrator",
      "outputs": [
        {
          "name": "result",
          "type": "uint8"
        }
      ],
      "payable": false,
      "stateMutability": "nonpayable",
      "type": "function"
    }
  ],
  "bytecode": "0x608060405234801561001057600080fd5b506109d7806100206000396000f300608060405260043610610062576000357c0100000000000000000000000000000000000000000000000000000000900463ffffffff168063064ad7c2146100675780634402bba3146100c45780638da5cb5b14610121578063df8089ef14610178575b600080fd5b34801561007357600080fd5b506100a8600480360381019080803573ffffffffffffffffffffffffffffffffffffffff1690602001909291905050506101d5565b604051808260ff1660ff16815260200191505060405180910390f35b3480156100d057600080fd5b50610105600480360381019080803573ffffffffffffffffffffffffffffffffffffffff1690602001909291905050506102f6565b604051808260ff1660ff16815260200191505060405180910390f35b34801561012d57600080fd5b50610136610482565b604051808273ffffffffffffffffffffffffffffffffffffffff1673ffffffffffffffffffffffffffffffffffffffff16815260200191505060405180910390f35b34801561018457600080fd5b506101b9600480360381019080803573ffffffffffffffffffffffffffffffffffffffff1690602001909291905050506104a7565b604051808260ff1660ff16815260200191505060405180910390f35b60008060009054906101000a900473ffffffffffffffffffffffffffffffffffffffff1673ffffffffffffffffffffffffffffffffffffffff163373ffffffffffffffffffffffffffffffffffffffff1614156102ec576000600360009054906101000a900460ff1660ff1614156102e3576001600260008473ffffffffffffffffffffffffffffffffffffffff1673ffffffffffffffffffffffffffffffffffffffff16815260200190815260200160002060006101000a81548160ff021916908360028111156102a357fe5b02179055506003600081819054906101000a900460ff168092919060010191906101000a81548160ff021916908360ff16021790555050600290506102f1565b600190506102f1565b600090505b919050565b6000806000610304336105d2565b15610476576001600281111561031657fe5b600260008673ffffffffffffffffffffffffffffffffffffffff1673ffffffffffffffffffffffffffffffffffffffff16815260200190815260200160002060009054906101000a900460ff16600281111561036e57fe5b141561046d5760405180807f61646d696e697374726174696f6e5265766f636174696f6e566f746500000000815250601c019050604051809103902091506103b582610652565b9050600260ff168161ffff161015156104645760028060008673ffffffffffffffffffffffffffffffffffffffff1673ffffffffffffffffffffffffffffffffffffffff16815260200190815260200160002060006101000a81548160ff0219169083600281111561042357fe5b02179055506003600081819054906101000a900460ff16809291906001900391906101000a81548160ff021916908360ff160217905550506003925061047b565b6002925061047b565b6001925061047b565b600092505b5050919050565b6000809054906101000a900473ffffffffffffffffffffffffffffffffffffffff1681565b60006104b2336105d2565b156105c857600160028111156104c457fe5b600260008473ffffffffffffffffffffffffffffffffffffffff1673ffffffffffffffffffffffffffffffffffffffff16815260200190815260200160002060009054906101000a900460ff16600281111561051c57fe5b1415156105bf576001600260008473ffffffffffffffffffffffffffffffffffffffff1673ffffffffffffffffffffffffffffffffffffffff16815260200190815260200160002060006101000a81548160ff0219169083600281111561057f57fe5b02179055506003600081819054906101000a900460ff168092919060010191906101000a81548160ff021916908360ff16021790555050600290506105cd565b600190506105cd565b600090505b919050565b6000600160028111156105e157fe5b600260008473ffffffffffffffffffffffffffffffffffffffff1673ffffffffffffffffffffffffffffffffffffffff16815260200190815260200160002060009054906101000a900460ff16600281111561063957fe5b1415610648576001905061064d565b600090505b919050565b600061065d336105d2565b156109a157600760ff1660046000846000191660001916815260200190815260200160002060020160009054906101000a900460ff1660ff161080156107a95750600060038111156106ab57fe5b60046000846000191660001916815260200190815260200160002060000160003373ffffffffffffffffffffffffffffffffffffffff1673ffffffffffffffffffffffffffffffffffffffff16815260200190815260200160002060009054906101000a900460ff16600381111561071f57fe5b14806107a8575060038081111561073257fe5b60046000846000191660001916815260200190815260200160002060000160003373ffffffffffffffffffffffffffffffffffffffff1673ffffffffffffffffffffffffffffffffffffffff16815260200190815260200160002060009054906101000a900460ff1660038111156107a657fe5b145b5b1561096b57600460008360001916600019168152602001908152602001600020600201600081819054906101000a900460ff168092919060010191906101000a81548160ff021916908360ff16021790555050600160046000846000191660001916815260200190815260200160002060000160003373ffffffffffffffffffffffffffffffffffffffff1673ffffffffffffffffffffffffffffffffffffffff16815260200190815260200160002060006101000a81548160ff0219169083600381111561087457fe5b02179055506004600083600019166000191681526020019081526020016000206001013390806001815401808255809150509060018203906000526020600020016000909192909190916101000a81548173ffffffffffffffffffffffffffffffffffffffff021916908373ffffffffffffffffffffffffffffffffffffffff16021790555050600560003373ffffffffffffffffffffffffffffffffffffffff1673ffffffffffffffffffffffffffffffffffffffff1681526020019081526020016000208290806001815401808255809150509060018203906000526020600020016000909192909190915090600019169055505b60046000836000191660001916815260200190815260200160002060020160009054906101000a900460ff1660ff1690506109a6565b600090505b9190505600a165627a7a72305820eb8e87e673984d466cd63e221aef353337672ed3cecb1f712f961feab91e48cb0029",
  "source": "pragma solidity ^0.4.19;\n\n// Administrable Contract:\n//\n// The basic keyed permission access is done with a multiple signing & revocation certificiate mechanism.\n// Built to be as light-weight as possible and still provide the flexibility required to manage full stack\n// dapp integrations.\n//\n// Maximum capacity is 7 administrators. Threshold is at 2/7(max). Expectations are 2 out of 3.\n// @note:@todo set up option for changing the threshold. would need to be very careful about promote/Revoked\n//  steps.\n\n// @note:@security:@safety: This function needs to be fully vetted and edge cases examined & documented.\n\ncontract Administrable {\n    enum AdministratorAccess { Unknown, Promoted, Demoted }\n    enum KeyPermissionAccess { Unknown, Signed, Revoked, Reset }\n    \n    uint8 constant maxAdministrators = 7;\n    uint8 constant maxThreshold = 2;\n\n    struct keyPermissions {\n        mapping(address => KeyPermissionAccess) administratorSignatures;\n        address[] administrators;\n\n        uint8 permissionLevel;\n    }\n\n    address public owner;\n\n    //administrators\n    mapping (address => uint8) administrationRevocationVoting;\n    mapping (address => AdministratorAccess) administrators;\n    uint8 numAdministrators;\n\n    mapping (bytes32 => keyPermissions) administratorMultisignPermissionedKeys;\n    mapping (address => bytes32[]) administrator_to_multisignPermissionedKeysArray;\n\n    // ** administrator management ** //\n\n    //result:\n    // 0 = not owner\n    // 1 = already set first administrator\n    // 2 = setup first administrator\n\n    function setPrimaryAdministrator(address _newAdministratorAddress) public returns (uint8 result) {\n        if (msg.sender == owner) {\n            if (numAdministrators == 0)\n            {\n                administrators[_newAdministratorAddress] = AdministratorAccess.Promoted;\n                numAdministrators++;\n\n                //setup first administrator\n                return 2;\n            } else {\n\n                //already set first administrator\n                return 1;\n            }\n        } else {\n\n            //not owner\n            return 0;\n        }\n    }\n\n    //result:\n    // 0 = not administrator\n    // 1 = administrator already set\n    // 2 = new administrator set\n\n    function setAdministrator(address _newAdministratorAddress) public returns (uint8 result) {\n        if (isAdministrator(msg.sender)) {\n            if (administrators[_newAdministratorAddress] != AdministratorAccess.Promoted) {\n                administrators[_newAdministratorAddress] = AdministratorAccess.Promoted;\n                numAdministrators++;\n\n                //new administrator set\n                return 2;\n            } else {\n                //administrator already set\n                return 1;\n            }\n        } else {\n            //not administrator\n            return 0;\n        }\n    }\n\n    //result:\n    // 0 = not owner\n    // 1 = administrator already inactive\n    // 2 = added vote to revoke administrator\n    // 3 = revoked administrator\n\n    function revokeAdministrator(address _revokeAdministratorAddress) public returns (uint8 result) {\n        if (isAdministrator(msg.sender)) {\n            if (administrators[_revokeAdministratorAddress] == AdministratorAccess.Promoted) {\n                bytes32 keyKeccak = keccak256(\"administrationRevocationVote\");\n                \n                //@note: @here: admin consensus set at maxThreshold minimum\n                uint16 multisignResult = adminApplyAndGetPermissionsForMultisignKey(keyKeccak);\n                \n                if (multisignResult >= maxThreshold) {\n                    administrators[_revokeAdministratorAddress] = AdministratorAccess.Demoted;\n                    numAdministrators--;\n                    \n                    //revoked administrator\n                    return 3;\n                } else {\n                    //added vote to revoke administrator\n                    return 2;\n                }\n            } else {\n                //administrator already inactive\n                return 1;\n            }\n        } else {\n            //not administrator\n            return 0;\n        }\n    }\n    \n    function checkForCleanupAfterRevocation(address _revokeAdministratorAddress) internal view returns (uint8 result) {\n        if (isAdministrator(msg.sender)) {\n            if  (administrators[_revokeAdministratorAddress] == AdministratorAccess.Demoted) {\n                //check for permission level decreases across all permissioned keys\n                for (uint i = 0; i < administrator_to_multisignPermissionedKeysArray[_revokeAdministratorAddress].length; i++) {\n                    bytes32 keyKeccack = administrator_to_multisignPermissionedKeysArray[_revokeAdministratorAddress][i];\n                    \n                    //permission levels will decrease if it's below or at the maximum threshold level.\n                    if (administratorMultisignPermissionedKeys[keyKeccack].permissionLevel <= maxThreshold) {\n                        //cannot be cleaned up without disrupting permissioned keys\n                        return 3;\n                    } \n                }\n                \n                //can be cleaned up without disrupting permissioned keys\n                return 2;\n            } else {\n                //administrator not revoked\n                return 1;\n            }\n        } else {\n            //not administrator\n            return 0;\n        }\n    }\n    \n    function cleanupAfterRevocation(address _revokeAdministratorAddress) internal returns (uint8 result) {\n        if (isAdministrator(msg.sender)) {\n            if  (administrators[_revokeAdministratorAddress] == AdministratorAccess.Demoted) {\n                for (uint i = 0; i < administrator_to_multisignPermissionedKeysArray[_revokeAdministratorAddress].length; i++) {\n                    bytes32 keyKeccack = administrator_to_multisignPermissionedKeysArray[_revokeAdministratorAddress][i];\n                    \n                    administratorMultisignPermissionedKeys[keyKeccack].administratorSignatures[_revokeAdministratorAddress] = KeyPermissionAccess.Revoked;\n                    administratorMultisignPermissionedKeys[keyKeccack].permissionLevel--;\n                }\n                \n                //cleaned up\n                return 2;\n            } else {\n                //cannot clean up\n                return 1;\n            }\n        } else {\n            //not administrator\n            return 0;\n        }\n    }\n\n    //result\n    // 0 = not administrator\n    // 1 to maxAdministrators = #confirmations\n\n    function adminGetPermissionsForMultisignKey(bytes32 _keyKeccak) internal view returns (uint16 result) {\n        if (isAdministrator(msg.sender)) {\n            //(one to the maxAdministrators) #confirmations\n            return administratorMultisignPermissionedKeys[_keyKeccak].permissionLevel;\n        } else {\n            //not administrator\n            return 0;\n        }\n    }  \n\n    //result\n    // 0 = not administrator\n    // 1 = signature not found\n    // 2 = signature found\n    // 3 = access revoked\n\n    function adminGetSelfConfirmedFromMultisignKey(bytes32 _keyKeccak) internal view returns (uint16 result) {\n        if (isAdministrator(msg.sender)) {\n            if (administratorMultisignPermissionedKeys[_keyKeccak].administratorSignatures[msg.sender] == KeyPermissionAccess.Revoked) {\n                //access revoked\n                return 3;\n            } else if (administratorMultisignPermissionedKeys[_keyKeccak].administratorSignatures[msg.sender] == KeyPermissionAccess.Signed) {\n                //signature found\n                return 2;\n            } else {\n                //signature not found\n                return 1;\n            }\n        } else {\n            //not administrator\n            return 0;\n        }\n    }\n    \n    \n    //result\n    // 0 = not administrator\n    // 1 to maxAdministrators = #confirmations\n\n    function adminApplyAndGetPermissionsForMultisignKey(bytes32 _keyKeccak) internal returns (uint16 result) {\n        if (isAdministrator(msg.sender)) {\n            if (administratorMultisignPermissionedKeys[_keyKeccak].permissionLevel < maxAdministrators &&\n                (administratorMultisignPermissionedKeys[_keyKeccak].administratorSignatures[msg.sender] == KeyPermissionAccess.Unknown ||\n                administratorMultisignPermissionedKeys[_keyKeccak].administratorSignatures[msg.sender] == KeyPermissionAccess.Reset)) {\n                // increase permission level of the key, apply signature.\n                administratorMultisignPermissionedKeys[_keyKeccak].permissionLevel++;\n                administratorMultisignPermissionedKeys[_keyKeccak].administratorSignatures[msg.sender] = KeyPermissionAccess.Signed;\n\n                administratorMultisignPermissionedKeys[_keyKeccak].administrators.push(msg.sender);\n                administrator_to_multisignPermissionedKeysArray[msg.sender].push(_keyKeccak);\n            }\n            \n            //(one to the maxAdministrators) #confirmations\n            return administratorMultisignPermissionedKeys[_keyKeccak].permissionLevel;\n        } else {\n            //not administrator\n            return 0;\n        }\n    }\n    \n    //result\n    // 0 = not administrator\n    // 1 = already reset\n    // 2 = reset correctly\n\n    function adminResetPermissionsForMultisignKey(bytes32 _keyKeccak) internal returns (uint8 result) {\n        if (isAdministrator(msg.sender)) {\n            if (administratorMultisignPermissionedKeys[_keyKeccak].permissionLevel != 0) {\n                //remove administrator references\n                for (uint i = 0; i < administratorMultisignPermissionedKeys[_keyKeccak].administrators.length; i++) {\n                    administratorMultisignPermissionedKeys[_keyKeccak].administratorSignatures[administratorMultisignPermissionedKeys[_keyKeccak].administrators[i]] = KeyPermissionAccess.Reset;\n                }\n\n                \n                //delete the main holding array\n                // delete administratorMultisignPermissionedKeys[_keyKeccak].administrators;\n                administratorMultisignPermissionedKeys[_keyKeccak].administrators.length = 0;\n\n                //and reset the permission level\n                // delete administratorMultisignPermissionedKeys[_keyKeccak].permissionLevel;\n                administratorMultisignPermissionedKeys[_keyKeccak].permissionLevel = 0;\n\n                //reset correctly\n                return 2;\n            } else {\n                //already reset\n                return 1;\n            }\n        } else {\n            //not administrator\n            return 0;\n        }\n    }\n    \n    //returns:\n    // false = not over threshold\n    // true = is over threshold\n    \n    function isConfirmationsIsOverThreshold(uint8 _confirmationNumber) internal pure returns (bool result) {\n        if (_confirmationNumber >= maxThreshold) {\n            //is over threshold\n            return true;\n        } else {\n            //not over threshold\n            return false;\n        }\n    }\n\n    //result: (internal because any derived contracts would probably want this.)\n    // true = is administrator\n    // false = either administrator unset or demoted\n    \n    function isAdministrator(address _administratorAddress) internal view returns (bool result) {\n        if (administrators[_administratorAddress] == AdministratorAccess.Promoted) {\n            //is administrator\n            return true;\n        } else {\n            // either administrator unset or demoted\n            return false;\n        }\n    }\n}",
  "sourcePath": "/Users/jaypersanchez/KYCAML/contracts/Administrable.sol",
  "compiler": {
    "name": "solc",
    "version": "0.4.24+commit.e67f0147.Emscripten.clang"
  },
  "schemaVersion": "2.0.1",
  "updatedAt": "2018-10-11T00:10:45.162Z"
}