{
  "contractName": "BioData",
  "abi": [
    {
      "constant": true,
      "inputs": [
        {
          "name": "",
          "type": "uint256"
        }
      ],
      "name": "biodatalist",
      "outputs": [
        {
          "name": "id",
          "type": "uint256"
        },
        {
          "name": "contractOwner",
          "type": "address"
        },
        {
          "name": "firstName",
          "type": "string"
        },
        {
          "name": "middleName",
          "type": "string"
        },
        {
          "name": "lastName",
          "type": "string"
        }
      ],
      "payable": false,
      "stateMutability": "view",
      "type": "function"
    },
    {
      "inputs": [],
      "payable": false,
      "stateMutability": "nonpayable",
      "type": "constructor"
    },
    {
      "anonymous": false,
      "inputs": [
        {
          "indexed": true,
          "name": "_id",
          "type": "uint256"
        },
        {
          "indexed": true,
          "name": "_contractOwner",
          "type": "address"
        },
        {
          "indexed": false,
          "name": "_firstName",
          "type": "string"
        },
        {
          "indexed": false,
          "name": "_middleName",
          "type": "string"
        },
        {
          "indexed": false,
          "name": "_lastName",
          "type": "string"
        }
      ],
      "name": "LogSetBioData",
      "type": "event"
    },
    {
      "constant": false,
      "inputs": [
        {
          "name": "_firstName",
          "type": "string"
        },
        {
          "name": "_middleName",
          "type": "string"
        },
        {
          "name": "_lastName",
          "type": "string"
        }
      ],
      "name": "setBioData",
      "outputs": [],
      "payable": false,
      "stateMutability": "nonpayable",
      "type": "function"
    },
    {
      "constant": true,
      "inputs": [],
      "name": "getNumberOfBioDataItems",
      "outputs": [
        {
          "name": "",
          "type": "uint256"
        }
      ],
      "payable": false,
      "stateMutability": "view",
      "type": "function"
    },
    {
      "constant": true,
      "inputs": [],
      "name": "getBioData",
      "outputs": [
        {
          "name": "",
          "type": "uint256[]"
        }
      ],
      "payable": false,
      "stateMutability": "view",
      "type": "function"
    }
  ],
  "bytecode": "0x608060405234801561001057600080fd5b50610a6e806100206000396000f300608060405260043610610062576000357c0100000000000000000000000000000000000000000000000000000000900463ffffffff1680632623ec3614610067578063c0356e30146100d3578063d87d8bb41461028b578063d9adf7ec146102b6575b600080fd5b34801561007357600080fd5b5061007c6103ab565b6040518080602001828103825283818151815260200191508051906020019060200280838360005b838110156100bf5780820151818401526020810190506100a4565b505050509050019250505060405180910390f35b3480156100df57600080fd5b506100fe600480360381019080803590602001909291905050506104cf565b604051808681526020018573ffffffffffffffffffffffffffffffffffffffff1673ffffffffffffffffffffffffffffffffffffffff168152602001806020018060200180602001848103845287818151815260200191508051906020019080838360005b8381101561017e578082015181840152602081019050610163565b50505050905090810190601f1680156101ab5780820380516001836020036101000a031916815260200191505b50848103835286818151815260200191508051906020019080838360005b838110156101e45780820151818401526020810190506101c9565b50505050905090810190601f1680156102115780820380516001836020036101000a031916815260200191505b50848103825285818151815260200191508051906020019080838360005b8381101561024a57808201518184015260208101905061022f565b50505050905090810190601f1680156102775780820380516001836020036101000a031916815260200191505b509850505050505050505060405180910390f35b34801561029757600080fd5b506102a06106ed565b6040518082815260200191505060405180910390f35b3480156102c257600080fd5b506103a9600480360381019080803590602001908201803590602001908080601f0160208091040260200160405190810160405280939291908181526020018383808284378201915050505050509192919290803590602001908201803590602001908080601f0160208091040260200160405190810160405280939291908181526020018383808284378201915050505050509192919290803590602001908201803590602001908080601f01602080910402602001604051908101604052809392919081815260200183838082843782019150505050505091929192905050506106f7565b005b606080600080606060006001546040519080825280602002602001820160405280156103e65781602001602082028038833980820191505090505b50945060009350600192505b600154831115156104445760008084815260200190815260200160002060000154858581518110151561042157fe5b9060200190602002018181525050838060010194505082806001019350506103f2565b836040519080825280602002602001820160405280156104735781602001602082028038833980820191505090505b509150600090505b838110156104c457848181518110151561049157fe5b9060200190602002015182828151811015156104a957fe5b9060200190602002018181525050808060010191505061047b565b819550505050505090565b60006020528060005260406000206000915090508060000154908060010160009054906101000a900473ffffffffffffffffffffffffffffffffffffffff1690806002018054600181600116156101000203166002900480601f0160208091040260200160405190810160405280929190818152602001828054600181600116156101000203166002900480156105a75780601f1061057c576101008083540402835291602001916105a7565b820191906000526020600020905b81548152906001019060200180831161058a57829003601f168201915b505050505090806003018054600181600116156101000203166002900480601f0160208091040260200160405190810160405280929190818152602001828054600181600116156101000203166002900480156106455780601f1061061a57610100808354040283529160200191610645565b820191906000526020600020905b81548152906001019060200180831161062857829003601f168201915b505050505090806004018054600181600116156101000203166002900480601f0160208091040260200160405190810160405280929190818152602001828054600181600116156101000203166002900480156106e35780601f106106b8576101008083540402835291602001916106e3565b820191906000526020600020905b8154815290600101906020018083116106c657829003601f168201915b5050505050905085565b6000600154905090565b60016000815480929190600101919050555060a06040519081016040528060015481526020013373ffffffffffffffffffffffffffffffffffffffff1681526020018481526020018381526020018281525060008060015481526020019081526020016000206000820151816000015560208201518160010160006101000a81548173ffffffffffffffffffffffffffffffffffffffff021916908373ffffffffffffffffffffffffffffffffffffffff16021790555060408201518160020190805190602001906107ca92919061099d565b5060608201518160030190805190602001906107e792919061099d565b50608082015181600401908051906020019061080492919061099d565b509050503373ffffffffffffffffffffffffffffffffffffffff166001547f4024ff6832499e428332fac2de5712f6ae65e523b2eee17350b944c1429d4afe85858560405180806020018060200180602001848103845287818151815260200191508051906020019080838360005b8381101561088e578082015181840152602081019050610873565b50505050905090810190601f1680156108bb5780820380516001836020036101000a031916815260200191505b50848103835286818151815260200191508051906020019080838360005b838110156108f45780820151818401526020810190506108d9565b50505050905090810190601f1680156109215780820380516001836020036101000a031916815260200191505b50848103825285818151815260200191508051906020019080838360005b8381101561095a57808201518184015260208101905061093f565b50505050905090810190601f1680156109875780820380516001836020036101000a031916815260200191505b50965050505050505060405180910390a3505050565b828054600181600116156101000203166002900490600052602060002090601f016020900481019282601f106109de57805160ff1916838001178555610a0c565b82800160010185558215610a0c579182015b82811115610a0b5782518255916020019190600101906109f0565b5b509050610a199190610a1d565b5090565b610a3f91905b80821115610a3b576000816000905550600101610a23565b5090565b905600a165627a7a7230582071166ba09323c78edb6098d53f85a39ca3d267650e1097771ca9cd55b9a4fa570029",
  "source": "pragma solidity ^0.4.19;\n\ncontract BioData {\n    struct BioDataObj {\n        uint id;\n        address contractOwner;\n        string firstName;\n        string middleName;\n        string lastName;\n    }\n\n    mapping(uint => BioDataObj) public biodatalist;\n    uint recordCounter;\n    \n    constructor() public {\n        //BioDataObj.contractOwner = msg.sender;\n    }\n\n    event LogSetBioData(uint indexed _id, address indexed _contractOwner, string _firstName, string _middleName, string _lastName);\n\n    function setBioData(string _firstName, string _middleName, string _lastName) public {\n        /*contractOwner = msg.sender;\n        firstName = _firstName;\n        lastName = _lastName;\n        middleName = _middleName;*/\n        //increment counter\n        recordCounter++;\n        //store BioData\n        biodatalist[recordCounter] = BioDataObj(recordCounter,msg.sender,_firstName, _middleName, _lastName);\n        //triger set event\n        emit LogSetBioData(recordCounter,msg.sender, _firstName, _middleName, _lastName);\n    }\n\n    //fetch number of bio data items\n    function getNumberOfBioDataItems() public view returns (uint) {\n        return recordCounter;\n    }\n\n    //fetch and return all bio data that is saved\n    function getBioData() public view returns (uint[]) {\n        //prepare output array\n        uint[] memory bioDataIds = new uint[](recordCounter);\n        uint numberOfSavedBioData = 0;\n        //itirate over biodatalist\n        for(uint i = 1; i <= recordCounter; i++) {\n            //show bio data item\n            bioDataIds[numberOfSavedBioData] = biodatalist[i].id;\n            numberOfSavedBioData++;\n        }\n        //copy bioDataIds array just get ids pertaining to contractOwner\n        uint[] memory owneddata = new uint[](numberOfSavedBioData);\n        for(uint j = 0; j < numberOfSavedBioData; j++) {\n            owneddata[j] = bioDataIds[j];\n        }\n\n        return owneddata;\n    }\n\n    /*function getBioData(uint _id) public view returns(uint, address, string, string, string) {\n            require(recordCounter > 0);\n            //check that _id exist in the biodatalist\n            require(_id > 0 && _id <= recordCounter);\n            //retrieve bio data from mapping\n            BioDataObj storage bioDataItem = biodatalist[_id]; \n            require(msg.sender != bioDataItem.contractOwner);\n            event LogSetBioData(bioDataItem.id, bioDataItem.contractOwner, bioDataItem.firstName, bioDataItem.middleName, bioDataItem.lastName);\n            return(_id, bioDataItem.contractOwner, bioDataItem.firstName, bioDataItem.middleName, bioDataItem.lastName);\n    }*/\n\n}",
  "sourcePath": "/Users/jaypersanchez/KYCAML/contracts/BioData.sol",
  "compiler": {
    "name": "solc",
    "version": "0.4.28+commit.2fcccea1.Emscripten.clang"
  },
  "schemaVersion": "2.0.3",
  "updatedAt": "2018-10-20T14:37:51.413Z"
}