{
  "contractName": "DebroujinBitUtils",
  "abi": [
    {
      "constant": false,
      "inputs": [],
      "name": "setupDebroujinTable",
      "outputs": [
        {
          "name": "result",
          "type": "bool"
        }
      ],
      "payable": false,
      "stateMutability": "nonpayable",
      "type": "function"
    },
    {
      "constant": true,
      "inputs": [
        {
          "name": "b",
          "type": "uint32"
        }
      ],
      "name": "rightmost_index",
      "outputs": [
        {
          "name": "result",
          "type": "uint32"
        }
      ],
      "payable": false,
      "stateMutability": "view",
      "type": "function"
    },
    {
      "constant": true,
      "inputs": [
        {
          "name": "n",
          "type": "uint32"
        }
      ],
      "name": "reverse_bits",
      "outputs": [
        {
          "name": "result",
          "type": "uint32"
        }
      ],
      "payable": false,
      "stateMutability": "pure",
      "type": "function"
    },
    {
      "constant": true,
      "inputs": [
        {
          "name": "i",
          "type": "uint32"
        }
      ],
      "name": "numberOfSetBits",
      "outputs": [
        {
          "name": "result",
          "type": "uint32"
        }
      ],
      "payable": false,
      "stateMutability": "pure",
      "type": "function"
    }
  ],
  "bytecode": "0x608060405263077cb5316000806101000a81548163ffffffff021916908363ffffffff16021790555034801561003457600080fd5b506103fb806100446000396000f300608060405260043610610062576000357c0100000000000000000000000000000000000000000000000000000000900463ffffffff1680630a361678146100675780633b23d423146100ba57806345e0972c1461010d578063b459b9de1461013c575b600080fd5b34801561007357600080fd5b50610098600480360381019080803563ffffffff16906020019092919050505061018f565b604051808263ffffffff1663ffffffff16815260200191505060405180910390f35b3480156100c657600080fd5b506100eb600480360381019080803563ffffffff1690602001909291905050506101fb565b604051808263ffffffff1663ffffffff16815260200191505060405180910390f35b34801561011957600080fd5b50610122610264565b604051808215151515815260200191505060405180910390f35b34801561014857600080fd5b5061016d600480360381019080803563ffffffff1690602001909291905050506102fd565b604051808263ffffffff1663ffffffff16815260200191505060405180910390f35b6000635555555560018363ffffffff169060020a90041682039150633333333360028363ffffffff169060020a9004166333333333831601915060186301010101630f0f0f0f60048563ffffffff169060020a90048501160263ffffffff169060020a90049050919050565b600081600003821691506000809054906101000a900463ffffffff1682029150601b8263ffffffff169060020a9004915060018263ffffffff1660208110151561024157fe5b600891828204019190066004029054906101000a900463ffffffff169050919050565b600080600090505b60208160ff1610156102f5578060ff166001601b8360ff166000809054906101000a900463ffffffff1663ffffffff169060020a0263ffffffff169060020a900463ffffffff166020811015156102bf57fe5b600891828204019190066004026101000a81548163ffffffff021916908363ffffffff160217905550808060010191505061026c565b600191505090565b6000635555555560018363ffffffff169060020a90041660016355555555841663ffffffff169060020a02179150633333333360028363ffffffff169060020a90041660026333333333841663ffffffff169060020a02179150630f0f0f0f60048363ffffffff169060020a9004166004630f0f0f0f841663ffffffff169060020a0217915060188263ffffffff169060020a02600861ff00841663ffffffff169060020a0261ff0060088563ffffffff169060020a90041660188563ffffffff169060020a900417171790509190505600a165627a7a7230582027f614d9dc44ea70298faf57b3da3d70f02fb286956319676fc5394f7407faa00029",
  "source": "pragma solidity ^0.4.19;\n\n// 2018 Shyft Inc.\n// Author: Chris F.\n//\n//\n// This contract is solidity translated from I believe C, from a source on the internet\n// discovered whilst searching for bit hacks.\n// this clever Debroujin Sequence is something like \"for every three bit sliding window\n// the pattern does not equal the binary equivalent of another three bit sliding window\"\n// ...\n// the cool part is, this seemingly random string of logic strung together actually is a\n// completely valid mathematical marvel that allows us to create a lookup table of this\n// string of 1's and 0's, and with one AND, one multiply, one right shift, and 3 assignments\n// into memory, we can get the rightmost bit (lower endian systems).\n//\n// shifting is defined in solidity as:\n// \"case Token::SHL:\n//\t\tm_context << Instruction::SWAP1 << u256(2) << Instruction::EXP << Instruction::MUL;\"\n// (https://github.com/ethereum/solidity/pull/1487/commits/b8b4f5e9f9a89eac1218551b5da322b41c7813f4)\n// and EXP is defined in the evm gas cost manual as:\n// \"If exponent is 0, gas used is 10. If exponent is greater than 0, gas used is 10 plus 10\n//  times a factor related to how large the log of the exponent is.\"\n// (https://docs.google.com/spreadsheets/d/1n6mRqkBz3iWcOlRem_mO09GtSKEKrAsfO7Frgx18pNU/edit#gid=0)\n//\n// so the total cost is 3 + 5 + ( 10 + (0 ..> 4 * 10) ) for an average cost of 8 + 30 = 38 gas.\n// not bad!!\n// the general strategy afterwards is to AND the resultant bit with the field set to zero and\n// each of the other 31 bits set to 1, to reduce that bit out of the field. then this operation\n// can be ran again to find the next rightmost bit set.\n//\n// clever use of this allows for a very large field size, and when properly pre-calculated\n// (say for example in the Shyft KYC smart contract) sparse fields can be compared with very\n// little cost compared to direct array iteration.\n//\n//\n// To reverse a 32 bit string (sometimes necessary depending on other operations) we can do\n// 10 shifts, 8 ANDs, and 6 ors, with 3 assignments into memory.\n//\n// one more assignment can be used (which is not to allow for in-solidity debugging.\n\ncontract DebroujinBitUtils {\n    uint32 debruijn32 = 0x077CB531;\n    /* debruijn32 = 0000 0111 0111 1100 1011 0101 0011 0001 */\n    /* table to convert debruijn index to standard index */\n    uint32[32] index32;\n    /* routine to initialize index32 */\n\n    //returns:\n    // true\n\n    function setupDebroujinTable() public returns (bool result){\n        for (uint8 i = 0; i < 32; i++) {\n            index32[ (debruijn32 << i) >> 27 ] = i;\n        }\n\n        return true;\n    }\n    \n    /* compute index of rightmost 1 */\n    function rightmost_index(uint32 b) public view returns (uint32 result)\n    {\n        b &= -b;\n        b *= debruijn32;\n        b >>= 27;\n        // uint32 value = b;\n        return index32[b];\n    }\n    \n    function reverse_bits(uint32 n) public pure returns (uint32 result) {\n        // note: mutating formal parameter\n        n = ((n & uint32(0x55555555)) << 1) | ((n >> 1) & 0x55555555);\n        n = ((n & 0x33333333) << 2) | ((n >> 2) & 0x33333333);\n        n = ((n & 0x0F0F0F0F) << 4) | ((n >> 4) & 0x0F0F0F0F);\n\n//        uint32 value = (n >> 24) | ((n >> 8) & 0xFF00) | ((n & 0xFF00) << 8) | (n << 24);\n        return (n >> 24) | ((n >> 8) & 0xFF00) | ((n & 0xFF00) << 8) | (n << 24);\n    }\n\n    function numberOfSetBits(uint32 i) public pure returns (uint32 result) {\n        // note: mutating formal parameter\n        i = i - ((i >> 1) & 0x55555555);\n        i = (i & 0x33333333) + ((i >> 2) & 0x33333333);\n        return (((i + (i >> 4)) & 0x0F0F0F0F) * 0x01010101) >> 24;\n    }\n}\n",
  "sourcePath": "/Users/jaypersanchez/KYCAML/contracts/DebroujinBitUtils.sol",
  "compiler": {
    "name": "solc",
    "version": "0.4.24+commit.e67f0147.Emscripten.clang"
  },
  "schemaVersion": "2.0.1",
  "updatedAt": "2018-10-11T00:10:45.133Z"
}