{
  "contractName": "RLPEncode",
  "abi": [
    {
      "constant": true,
      "inputs": [
        {
          "name": "x",
          "type": "uint256"
        }
      ],
      "name": "getLengthBytes",
      "outputs": [
        {
          "name": "b",
          "type": "bytes"
        }
      ],
      "payable": false,
      "stateMutability": "view",
      "type": "function"
    }
  ],
  "bytecode": "0x610207610030600b82828239805160001a6073146000811461002057610022565bfe5b5030600052607381538281f3007300000000000000000000000000000000000000003014608060405260043610610058576000357c0100000000000000000000000000000000000000000000000000000000900463ffffffff168063b19df14f1461005d575b600080fd5b61007b600480360381019080803590602001909291905050506100f6565b6040518080602001828103825283818151815260200191508051906020019080838360005b838110156100bb5780820151818401526020810190506100a0565b50505050905090810190601f1680156100e85780820380516001836020036101000a031916815260200191505b509250505060405180910390f35b60606000806001915060ff84111561010d57600291505b816040519080825280601f01601f1916602001820160405280156101405781602001602082028038833980820191505090505b509250600090505b818110156101d45780600183030360080260020a8481151561016657fe5b047f010000000000000000000000000000000000000000000000000000000000000002838281518110151561019757fe5b9060200101907effffffffffffffffffffffffffffffffffffffffffffffffffffffffffffff1916908160001a9053508080600101915050610148565b50509190505600a165627a7a72305820a51202d912d0b8b3016dbaadffe5d590c16f541fe033153a962caa233692052a0029",
  "source": "// Library for RLP encoding a list of bytes arrays.\n// Modeled after ethereumjs/rlp (https://github.com/ethereumjs/rlp)\n// [Very] modified version of Sam Mayo's library.\npragma solidity ^0.4.18;\nimport \"./BytesLib.sol\";\n\nlibrary RLPEncode {\n\n  // Encode an item (bytes)\n\tfunction encodeItem(bytes memory self) internal constant returns (bytes) {\n    bytes memory encoded;\n    if(self.length == 1 && uint(self[0]) < 0x80) {\n      encoded = new bytes(1);\n      encoded = self;\n    } else {\n      encoded = BytesLib.concat(encodeLength(self.length, 128), self);\n\t\t}\n    return encoded;\n  }\n\n  // Encode a list of items\n  function encodeList(bytes[] memory self) internal constant returns (bytes) {\n    bytes memory encoded;\n    for (uint i=0; i < self.length; i++) {\n      encoded = BytesLib.concat(encoded, encodeItem(self[i]));\n    }\n    return BytesLib.concat(encodeLength(encoded.length, 192), encoded);\n  }\n\n\t// Hack to encode nested lists. If you have a list as an item passed here, included\n\t// pass = true in that index. E.g.\n\t// [item, list, item] --> pass = [false, true, false]\n\tfunction encodeListWithPasses(bytes[] memory self, bool[] pass) internal constant returns (bytes) {\n    bytes memory encoded;\n    for (uint i=0; i < self.length; i++) {\n\t\t\tif (pass[i] == true) {\n\t\t\t\tencoded = BytesLib.concat(encoded, self[i]);\n\t\t\t} else {\n\t\t\t\tencoded = BytesLib.concat(encoded, encodeItem(self[i]));\n\t\t\t}\n    }\n    return BytesLib.concat(encodeLength(encoded.length, 192), encoded);\n  }\n\n  // Generate the prefix for an item or the entire list based on RLP spec\n  function encodeLength(uint256 L, uint256 offset) internal constant returns (bytes) {\n    if (L < 56) {\n      bytes memory prefix = new bytes(1);\n      prefix[0] = byte(L + offset);\n      return prefix;\n    } else {\n      // lenLen is the length of the hex representation of the data length\n      uint lenLen;\n      uint i = 0x1;\n      while(L/i != 0) {\n        lenLen++;\n        i *= 0x100;\n      }\n\t\t\tbytes memory prefix0 = getLengthBytes(offset + 55 + lenLen);\n\t\t\tbytes memory prefix1 = getLengthBytes(L);\n      return BytesLib.concat(prefix0, prefix1);\n    }\n  }\n\n\tfunction getLengthBytes(uint256 x) constant returns (bytes b) {\n\t\t// Figure out if we need 1 or two bytes to express the length.\n\t\t// 1 byte gets us to max 255\n\t\t// 2 bytes gets us to max 65535 (no payloads will be larger than this)\n\t\tuint256 nBytes = 1;\n\t\tif (x > 255) { nBytes = 2; }\n\t\tb = new bytes(nBytes);\n\t\t// Encode the length and return it\n\t\tfor (uint i = 0; i < nBytes; i++) {\n      b[i] = byte(uint8(x / (2**(8*(nBytes - 1 - i)))));\n    }\n  }\n}\n",
  "sourcePath": "/Users/jaypersanchez/KYCAML/contracts/Libraries/RLPEncode.sol",
  "compiler": {
    "name": "solc",
    "version": "0.4.24+commit.e67f0147.Emscripten.clang"
  },
  "schemaVersion": "2.0.1",
  "updatedAt": "2018-10-11T00:10:45.139Z"
}