{
  "contractName": "ShyftSafe",
  "abi": [
    {
      "anonymous": false,
      "inputs": [
        {
          "indexed": false,
          "name": "amount",
          "type": "uint256"
        },
        {
          "indexed": false,
          "name": "bip32X_type",
          "type": "uint32"
        },
        {
          "indexed": false,
          "name": "safeExpiryTime",
          "type": "uint256"
        },
        {
          "indexed": false,
          "name": "holdIndex",
          "type": "uint256"
        }
      ],
      "name": "EVT_heldSafeBalanceForType",
      "type": "event"
    },
    {
      "anonymous": false,
      "inputs": [
        {
          "indexed": false,
          "name": "holdIndex",
          "type": "uint256"
        },
        {
          "indexed": false,
          "name": "numRemainingHolds",
          "type": "uint256"
        },
        {
          "indexed": false,
          "name": "holdStatus",
          "type": "uint8"
        },
        {
          "indexed": false,
          "name": "freedAmount",
          "type": "uint256"
        },
        {
          "indexed": false,
          "name": "freedBip32X_type",
          "type": "uint256"
        },
        {
          "indexed": false,
          "name": "currentBlockTime",
          "type": "uint256"
        },
        {
          "indexed": false,
          "name": "safeExpiryTime",
          "type": "uint256"
        }
      ],
      "name": "EVT_freedSafeHold",
      "type": "event"
    },
    {
      "anonymous": false,
      "inputs": [
        {
          "indexed": false,
          "name": "holdIndex",
          "type": "uint256"
        },
        {
          "indexed": false,
          "name": "numRemainingHolds",
          "type": "uint256"
        },
        {
          "indexed": false,
          "name": "currentBlockTime",
          "type": "uint256"
        },
        {
          "indexed": false,
          "name": "safeExpiryTime",
          "type": "uint256"
        }
      ],
      "name": "EVT_safeHoldStillTimelocked",
      "type": "event"
    },
    {
      "constant": true,
      "inputs": [],
      "name": "getShyftTokenType",
      "outputs": [
        {
          "name": "result",
          "type": "uint32"
        }
      ],
      "payable": false,
      "stateMutability": "view",
      "type": "function"
    },
    {
      "constant": true,
      "inputs": [
        {
          "name": "_identifiedAddress",
          "type": "address"
        }
      ],
      "name": "getSafeBalance",
      "outputs": [
        {
          "name": "balance",
          "type": "uint256"
        }
      ],
      "payable": false,
      "stateMutability": "view",
      "type": "function"
    },
    {
      "constant": true,
      "inputs": [
        {
          "name": "_identifiedAddress",
          "type": "address"
        },
        {
          "name": "bip32X_type",
          "type": "uint32"
        }
      ],
      "name": "getSafeBalance",
      "outputs": [
        {
          "name": "balance",
          "type": "uint256"
        }
      ],
      "payable": false,
      "stateMutability": "view",
      "type": "function"
    },
    {
      "constant": false,
      "inputs": [
        {
          "name": "_amount",
          "type": "uint256"
        },
        {
          "name": "_bip32X_type",
          "type": "uint32"
        },
        {
          "name": "_safeExpiryTime",
          "type": "uint256"
        }
      ],
      "name": "holdSafeBalanceForType",
      "outputs": [
        {
          "name": "holdIndex",
          "type": "uint256"
        }
      ],
      "payable": false,
      "stateMutability": "nonpayable",
      "type": "function"
    },
    {
      "constant": false,
      "inputs": [
        {
          "name": "holdIndex",
          "type": "uint32"
        }
      ],
      "name": "freeSafeHold",
      "outputs": [
        {
          "name": "result",
          "type": "uint8"
        }
      ],
      "payable": false,
      "stateMutability": "nonpayable",
      "type": "function"
    },
    {
      "constant": false,
      "inputs": [
        {
          "name": "_identifiedAddress",
          "type": "address"
        },
        {
          "name": "_proofHash",
          "type": "bytes32"
        },
        {
          "name": "_proof",
          "type": "bytes"
        },
        {
          "name": "_publicMetadata",
          "type": "bytes"
        },
        {
          "name": "_encryptedMetadata",
          "type": "bytes"
        },
        {
          "name": "_amount",
          "type": "uint256"
        },
        {
          "name": "_bip32X_type",
          "type": "uint32"
        }
      ],
      "name": "addProof",
      "outputs": [
        {
          "name": "result",
          "type": "uint16"
        }
      ],
      "payable": false,
      "stateMutability": "nonpayable",
      "type": "function"
    },
    {
      "constant": false,
      "inputs": [
        {
          "name": "_identifiedAddress",
          "type": "address"
        }
      ],
      "name": "updateSafe",
      "outputs": [
        {
          "name": "result",
          "type": "uint16"
        }
      ],
      "payable": false,
      "stateMutability": "nonpayable",
      "type": "function"
    },
    {
      "constant": false,
      "inputs": [
        {
          "name": "proof",
          "type": "bytes"
        }
      ],
      "name": "safeProofProver",
      "outputs": [
        {
          "name": "result",
          "type": "bool"
        }
      ],
      "payable": false,
      "stateMutability": "nonpayable",
      "type": "function"
    }
  ],
  "bytecode": "0x6080604052610309600260036101000a81548163ffffffff021916908363ffffffff1602179055506000600260076101000a81548173ffffffffffffffffffffffffffffffffffffffff021916908373ffffffffffffffffffffffffffffffffffffffff16021790555034801561007557600080fd5b5061199b806100856000396000f30060806040526004361061008e576000357c0100000000000000000000000000000000000000000000000000000000900463ffffffff16806304d6a15f146100935780630e97d4c7146101ec578063470413c81461026d57806381bde120146102ba578063df90225d14610319578063e3a8559314610370578063e8c5d843146103cb578063f8c2e26f14610432575b600080fd5b34801561009f57600080fd5b506101ce600480360381019080803573ffffffffffffffffffffffffffffffffffffffff1690602001909291908035600019169060200190929190803590602001908201803590602001908080601f0160208091040260200160405190810160405280939291908181526020018383808284378201915050505050509192919290803590602001908201803590602001908080601f0160208091040260200160405190810160405280939291908181526020018383808284378201915050505050509192919290803590602001908201803590602001908080601f016020809104026020016040519081016040528093929190818152602001838380828437820191505050505050919291929080359060200190929190803563ffffffff169060200190929190505050610469565b604051808261ffff1661ffff16815260200191505060405180910390f35b3480156101f857600080fd5b50610253600480360381019080803590602001908201803590602001908080601f01602080910402602001604051908101604052809392919081815260200183838082843782019150505050505091929192905050506107eb565b604051808215151515815260200191505060405180910390f35b34801561027957600080fd5b5061029e600480360381019080803563ffffffff16906020019092919050505061092a565b604051808260ff1660ff16815260200191505060405180910390f35b3480156102c657600080fd5b506102fb600480360381019080803573ffffffffffffffffffffffffffffffffffffffff169060200190929190505050610e63565b604051808261ffff1661ffff16815260200191505060405180910390f35b34801561032557600080fd5b5061035a600480360381019080803573ffffffffffffffffffffffffffffffffffffffff1690602001909291905050506111b9565b6040518082815260200191505060405180910390f35b34801561037c57600080fd5b506103b560048036038101908080359060200190929190803563ffffffff16906020019092919080359060200190929190505050611231565b6040518082815260200191505060405180910390f35b3480156103d757600080fd5b5061041c600480360381019080803573ffffffffffffffffffffffffffffffffffffffff169060200190929190803563ffffffff16906020019092919050505061160c565b6040518082815260200191505060405180910390f35b34801561043e57600080fd5b50610447611673565b604051808263ffffffff1663ffffffff16815260200191505060405180910390f35b60008060006104773361168d565b806104ad57508973ffffffffffffffffffffffffffffffffffffffff163373ffffffffffffffffffffffffffffffffffffffff16145b156107d95760016000808c73ffffffffffffffffffffffffffffffffffffffff1673ffffffffffffffffffffffffffffffffffffffff168152602001908152602001600020600101805490500191508163ffffffff166000808c73ffffffffffffffffffffffffffffffffffffffff1673ffffffffffffffffffffffffffffffffffffffff1681526020019081526020016000206001018161054f9190611709565b506000808b73ffffffffffffffffffffffffffffffffffffffff1673ffffffffffffffffffffffffffffffffffffffff1681526020019081526020016000206001016001830363ffffffff168154811015156105a757fe5b9060005260206000209060060201905088816000018160001916905550878160010190805190602001906105dc92919061173b565b50868160020190805190602001906105f592919061173b565b508581600301908051906020019061060e92919061173b565b50848160040181905550838160050160006101000a81548163ffffffff021916908363ffffffff16021790555060028081111561064757fe5b600260009054906101000a900460ff16600281111561066257fe5b1415610755576001600260006101000a81548160ff0219169083600281111561068757fe5b0217905550600182036000808c73ffffffffffffffffffffffffffffffffffffffff1673ffffffffffffffffffffffffffffffffffffffff16815260200190815260200160002060020160006101000a81548163ffffffff021916908363ffffffff16021790555060016000808c73ffffffffffffffffffffffffffffffffffffffff1673ffffffffffffffffffffffffffffffffffffffff16815260200190815260200160002060020160046101000a81548163ffffffff021916908363ffffffff1602179055506107d0565b6000808b73ffffffffffffffffffffffffffffffffffffffff1673ffffffffffffffffffffffffffffffffffffffff168152602001908152602001600020600201600481819054906101000a900463ffffffff168092919060010191906101000a81548163ffffffff021916908363ffffffff160217905550505b600192506107de565b600092505b5050979650505050505050565b600080600260079054906101000a900473ffffffffffffffffffffffffffffffffffffffff1690508073ffffffffffffffffffffffffffffffffffffffff1663375bfa5d846040518263ffffffff167c01000000000000000000000000000000000000000000000000000000000281526004018080602001828103825283818151815260200191508051906020019080838360005b8381101561089b578082015181840152602081019050610880565b50505050905090810190601f1680156108c85780820380516001836020036101000a031916815260200191505b5092505050602060405180830381600087803b1580156108e757600080fd5b505af11580156108fb573d6000803e3d6000fd5b505050506040513d602081101561091157600080fd5b8101908080519060200190929190505050915050919050565b6000806000806000806000803273ffffffffffffffffffffffffffffffffffffffff1673ffffffffffffffffffffffffffffffffffffffff16815260200190815260200160002094508663ffffffff1685600301805490501180156109c8575060011515856003018863ffffffff168154811015156109a557fe5b906000526020600020906004020160000160009054906101000a900460ff161515145b15610e5457846003018763ffffffff168154811015156109e457fe5b90600052602060002090600402019350428460030154111515610ddc57610a2384600101548560020160009054906101000a900463ffffffff166116e7565b925060018360ff161415610dd75784600601600081819054906101000a900461ffff16809291906001900391906101000a81548161ffff021916908361ffff160217905550506000856003018863ffffffff16815481101515610a8257fe5b906000526020600020906004020160000160006101000a81548160ff0219169083151502179055508460060160029054906101000a900463ffffffff1663ffffffff168763ffffffff161415610b59578460060160069054906101000a900463ffffffff1663ffffffff168763ffffffff161415610aff57610b54565b8460040160008863ffffffff1663ffffffff16815260200190815260200160002060009054906101000a900463ffffffff168560060160026101000a81548163ffffffff021916908363ffffffff1602179055505b610cc4565b8460060160069054906101000a900463ffffffff1663ffffffff168763ffffffff161415610bda578460050160008863ffffffff1663ffffffff16815260200190815260200160002060009054906101000a900463ffffffff168560060160066101000a81548163ffffffff021916908363ffffffff160217905550610cc3565b8460050160008863ffffffff1663ffffffff16815260200190815260200160002060009054906101000a900463ffffffff1691508460040160008863ffffffff1663ffffffff16815260200190815260200160002060009054906101000a900463ffffffff169050818560050160008363ffffffff1663ffffffff16815260200190815260200160002060006101000a81548163ffffffff021916908363ffffffff160217905550808560040160008463ffffffff1663ffffffff16815260200190815260200160002060006101000a81548163ffffffff021916908363ffffffff1602179055505b5b60008560060160009054906101000a900461ffff1661ffff161415610d0a5760028560090160006101000a81548160ff02191690836002811115610d0457fe5b02179055505b7f9136ca7e005ca6190ef2af52a750e62b7db169b0f696a9fa59eedce71c58cbdc878660060160009054906101000a900461ffff168760090160009054906101000a900460ff1687600101548860020160009054906101000a900463ffffffff16428a60030154604051808863ffffffff1681526020018761ffff168152602001866002811115610d9757fe5b60ff1681526020018581526020018463ffffffff16815260200183815260200182815260200197505050505050505060405180910390a160039550610e59565b600080fd5b7f96e92bea059454ffd6caf596fce58c01caa1e03d961b12ad17c093f58492a242878660060160009054906101000a900461ffff16428760030154604051808563ffffffff1681526020018461ffff16815260200183815260200182815260200194505050505060405180910390a160019550610e59565b600095505b5050505050919050565b600080600080600080610e753361168d565b156111aa57600280811115610e8657fe5b600260009054906101000a900460ff166002811115610ea157fe5b1415156111a157600260079054906101000a900473ffffffffffffffffffffffffffffffffffffffff1694506000808873ffffffffffffffffffffffffffffffffffffffff1673ffffffffffffffffffffffffffffffffffffffff16815260200190815260200160002093508360020160049054906101000a900463ffffffff169150600260019054906101000a900461ffff1661ffff168263ffffffff161115610f6257600260019054906101000a900461ffff1661ffff169150600192505b8360020160009054906101000a900463ffffffff1690505b8163ffffffff168163ffffffff16101561112d578473ffffffffffffffffffffffffffffffffffffffff1663375bfa5d856001018363ffffffff16815481101515610fc157fe5b90600052602060002090600602016001016040518263ffffffff167c010000000000000000000000000000000000000000000000000000000002815260040180806020018281038252838181546001816001161561010002031660029004815260200191508054600181600116156101000203166002900480156110865780601f1061105b57610100808354040283529160200191611086565b820191906000526020600020905b81548152906001019060200180831161106957829003601f168201915b505092505050602060405180830381600087803b1580156110a657600080fd5b505af11580156110ba573d6000803e3d6000fd5b505050506040513d60208110156110d057600080fd5b8101908080519060200190929190505050846001018263ffffffff168154811015156110f857fe5b906000526020600020906006020160050160046101000a81548160ff0219169083151502179055508080600101915050610f7a565b818460020160008282829054906101000a900463ffffffff160192506101000a81548163ffffffff021916908363ffffffff1602179055508215156111985760028060006101000a81548160ff0219169083600281111561118a57fe5b0217905550600395506111af565b600295506111af565b600195506111af565b600095505b5050505050919050565b6000600160008373ffffffffffffffffffffffffffffffffffffffff1673ffffffffffffffffffffffffffffffffffffffff1681526020019081526020016000206000600260039054906101000a900463ffffffff1663ffffffff1663ffffffff168152602001908152602001600020549050919050565b600080600061123e6117bb565b60008061124b89896116f2565b809550819650505060018560ff1614156115fb578883602001818152505087836040019063ffffffff16908163ffffffff16815250508683606001818152505060018360000190151590811515815250506000803273ffffffffffffffffffffffffffffffffffffffff1673ffffffffffffffffffffffffffffffffffffffff1681526020019081526020016000209150888260070160008a63ffffffff1663ffffffff16815260200190815260200160002060008282540192505081905550600182600301805490500190508063ffffffff16826003018161132e91906117ec565b5082826003016001830363ffffffff1681548110151561134a57fe5b906000526020600020906004020160008201518160000160006101000a81548160ff0219169083151502179055506020820151816001015560408201518160020160006101000a81548163ffffffff021916908363ffffffff16021790555060608201518160030155905050600160028111156113c357fe5b8260090160009054906101000a900460ff1660028111156113e057fe5b14151561147e5760018260090160006101000a81548160ff0219169083600281111561140857fe5b0217905550600181038260060160026101000a81548163ffffffff021916908363ffffffff160217905550600181038260060160066101000a81548163ffffffff021916908363ffffffff16021790555060018260060160006101000a81548161ffff021916908361ffff16021790555061158a565b8160060160069054906101000a900463ffffffff168260050160006001840363ffffffff1663ffffffff16815260200190815260200160002060006101000a81548163ffffffff021916908363ffffffff160217905550600181038260040160008460060160069054906101000a900463ffffffff1663ffffffff1663ffffffff16815260200190815260200160002060006101000a81548163ffffffff021916908363ffffffff160217905550600181038260060160066101000a81548163ffffffff021916908363ffffffff16021790555081600601600081819054906101000a900461ffff168092919060010191906101000a81548161ffff021916908361ffff160217905550505b7f1980675a7e914b5789d3d0060483518134b5ea7a0f484a4a2e9e0a2f7065273c8989898560030180549050604051808581526020018463ffffffff1663ffffffff16815260200183815260200182815260200194505050505060405180910390a181600301805490509550611600565b600080fd5b50505050509392505050565b6000600160008473ffffffffffffffffffffffffffffffffffffffff1673ffffffffffffffffffffffffffffffffffffffff16815260200190815260200160002060008363ffffffff1663ffffffff16815260200190815260200160002054905092915050565b6000600260039054906101000a900463ffffffff16905090565b60008173ffffffffffffffffffffffffffffffffffffffff16600260079054906101000a900473ffffffffffffffffffffffffffffffffffffffff1673ffffffffffffffffffffffffffffffffffffffff16149050919050565b600080905092915050565b600080600080819150809050915091509250929050565b81548183558181111561173657600602816006028360005260206000209182019101611735919061181e565b5b505050565b828054600181600116156101000203166002900490600052602060002090601f016020900481019282601f1061177c57805160ff19168380011785556117aa565b828001600101855582156117aa579182015b828111156117a957825182559160200191906001019061178e565b5b5090506117b791906118a8565b5090565b60806040519081016040528060001515815260200160008152602001600063ffffffff168152602001600081525090565b8154818355818111156118195760040281600402836000526020600020918201910161181891906118cd565b5b505050565b6118a591905b808211156118a1576000808201600090556001820160006118459190611927565b6002820160006118559190611927565b6003820160006118659190611927565b60048201600090556005820160006101000a81549063ffffffff02191690556005820160046101000a81549060ff021916905550600601611824565b5090565b90565b6118ca91905b808211156118c65760008160009055506001016118ae565b5090565b90565b61192491905b8082111561192057600080820160006101000a81549060ff021916905560018201600090556002820160006101000a81549063ffffffff02191690556003820160009055506004016118d3565b5090565b90565b50805460018160011615610100020316600290046000825580601f1061194d575061196c565b601f01602090049060005260206000209081019061196b91906118a8565b5b505600a165627a7a723058208d7cd5403bb28ef23900c2655bf6d98563181eaeeb45c36a81ea7d9726083a810029",
  "source": "pragma solidity ^0.4.19;\nimport \"./Interfaces/IShyftBridgeUtilsProver.sol\";\n\n// Shyft Safe is the contract & interface definition to add \"Safe-able\" asset classes to a user's portfolio.\n// This is a data management layer that collates enough data on-chain for the Bridge to prove transferability.\n// All transfers and justification for withdrawal can be proven on-chain.\n//\n// The general condition is that there is a list of unproven proofs, including those that the bridge collates via\n// observation of other blockchains. All cross-blockchain requests are queued in the user's \"safe keeping\" structure\n// and the bridge has the responsibility to process them and approve. All proofs can be proven on the Shyft blockchain's\n// evm architecture.\n\n// the general order of things is that when a block is confirmed by consensus, the bridge will forward a merkle-trie\n// proof block to the ring which is composed of transactions occurring on other blockchains that pertains to Shyft.\n// these are cleared transactions, currently waiting in Shyft escrow systems.\n\n// these transactions are processed in every block, with block times set to enable this behaviour potentially filling\n// up empty space within a block with these transactions at a rate dependant on the user (so users could still \"rush\"\n// a Shyft Safe synchronization block.\n\n// maintenance of the trust channels should be equivalent\n\n//@note:@todo: finish definition\n\ncontract ShyftSafe {\n    event EVT_heldSafeBalanceForType(uint256 amount, uint32 bip32X_type, uint256 safeExpiryTime, uint256 holdIndex);\n    event EVT_freedSafeHold(uint256 holdIndex, uint256 numRemainingHolds, HoldStatus holdStatus, uint256 freedAmount, uint256 freedBip32X_type, uint256 currentBlockTime, uint256 safeExpiryTime);\n    event EVT_safeHoldStillTimelocked(uint256 holdIndex, uint256 numRemainingHolds, uint256 currentBlockTime, uint256 safeExpiryTime);\n\n    enum ProofStatus { Unknown, Dirty, Clean }\n    enum HoldStatus { Unknown, Holding, NoneHeld }\n\n    struct safeProofMap {\n        //hash of RLP\n        bytes32 proofHash;\n\n        //RLP of proof\n        bytes proof;\n\n        bytes publicMetadata;\n        bytes encryptedMetadata;\n\n        uint256 amount;\n        uint32 bip32X_type;\n\n        bool proven;\n    }\n\n    struct safeKeyMap {\n        //key name, key class, key field. RLP encoded.\n        bytes publicMetaData;\n\n    }\n\n    struct safeHold {\n        bool active;\n\n        uint256 amount;\n        uint32 bip32X_type;\n\n        uint256 safeExpiryTime;\n    }\n\n    struct safeKeep {\n        //hash of the public key value pair within the Safe engine, for incoming addresses in the proofs.\n        mapping(bytes32 => safeKeyMap) keyStorageMap;\n\n        //array of all proofs.\n        safeProofMap[] allProofs;\n\n        uint32 indexOfFirstDirtyProof;\n        uint32 numDirtyProofs;\n\n        //@note:@here:@todo:@next:@wallet:\n        //this hold array will grow and be managed by the wallet in terms of releasing funds back into the\n        //main shyft safe pool.\n        //speaking of transiting, the general strategy should be to assign held tokens into transit buckets\n        //on a hold bucket->transit bucket basis. otherwise other sorting and compilation will be needed.\n        safeHold[] holdArray;\n\n        //using a doubly linked list for this, in order to access the previous and next indexes in the linked list.\n        mapping(uint32 => uint32) holdNextLinkMapping;\n        mapping(uint32 => uint32) holdPrevLinkMapping;\n\n        //mapping for checks of whether the trust anchor previously existing for this identifiedAddress.\n//        mapping(uint32 => bool) allTrustAnchorIndexExistsMapping;\n\n        //@note: I'm using underscores because I want to have easily readability when the camel case variable names get\n        // this long.\n\n        uint16 currentHoldLinkedList_length;\n        uint32 currentHoldLinkedList_zeldaIndex;\n        uint32 currentHoldLinkedList_finalIndex;\n\n\n\n        mapping(uint32 => uint256) holdValuationMap;\n\n        uint256 nextHoldExpiry;\n//        uint32 holdArrayNumHolds;\n\n        HoldStatus holdStatus;\n    }\n\n    mapping(address => safeKeep) safeKeeping;\n\n    //@note:@here:@todo: this is erc20/223 stuff\n    // system should be backwards compatible, basic table:\n    //\n    // (all bip32 token types follow)\n    // 0 = Bitcoin\n    // ...\n    // ShyftTokenType = SHYFT\n    // RMTTokenType = RMT\n    // BUAGTokenType = BUAG\n    // ...\n\n    mapping(address => mapping(uint32 => uint256)) safeBalances;\n\n    ProofStatus proofStatus;\n\n    uint16 maxBridgeProcessingLimit;\n\n    uint32 ShyftTokenType = 777;\n\n    //@note:@deploy:\n    //make sure to set this to use the shyft bridge and ring on whatever platform deployed to. might need to\n    //create multiple versions of this file and deploy w/ a script.\n\n    //this is the address of the Shyft bridge on this blockchain. this must be hard-coded.\n    address bridgeAddress = address(0);\n\n    //returns\n    // true = is bridge\n    // false = not bridge\n    function isBridge(address _addressToCheck) internal returns (bool result) {\n        return (bridgeAddress == _addressToCheck);\n    }\n\n    function getShyftTokenType() public view returns (uint32 result) {\n        return ShyftTokenType;\n    }\n\n    function getSafeBalance(address _identifiedAddress) public view returns (uint256 balance)  {\n        return safeBalances[_identifiedAddress][ShyftTokenType];\n    }\n\n    function getSafeBalance(address _identifiedAddress, uint32 bip32X_type) public view returns (uint256 balance)  {\n        return safeBalances[_identifiedAddress][bip32X_type];\n    }\n\n    //@note:@here: the following two functions utilize doubly-linked lists in order to avoid needing to reorder an array.\n\n    //@note:@todo:@next: need to write complete tests for these two functions too see how the doubly-linked list responds\n    // in all cases (1, 2. 3 entries, what happens when first, middle, or last entry are removed from holds.)\n\n    //returns:\n    // n = holdIndex\n\n    function holdSafeBalanceForType(uint256 _amount, uint32 _bip32X_type, uint256 _safeExpiryTime) public returns (uint256 holdIndex) {\n        //@note: this works because functional inheritance overriding works in solidity. thus this will call the\n        // function of the contract that overrides overload_doHoldSafe after inheriting ShyftSafe.\n        uint8 canHoldSafeResult;\n        uint256 remainingBalance;\n        (canHoldSafeResult, remainingBalance) = child_overload_doHoldSafe(_amount, _bip32X_type);\n\n        //@note:@here:@todo: checks for payments pending, allowances, and the like.\n        //if (remainingBalance > )\n\n        //@note: in this context, the inheriting contract overriding function is going to return a 1 for success,\n        // and zero for failure.\n        if (canHoldSafeResult == 1) {\n            safeHold memory newHold;\n            newHold.amount = _amount;\n            newHold.bip32X_type = _bip32X_type;\n            newHold.safeExpiryTime = _safeExpiryTime;\n            newHold.active = true;\n\n            safeKeep storage keep = safeKeeping[tx.origin];\n            keep.holdValuationMap[_bip32X_type] += _amount;\n\n            uint32 holdArrayLength = uint32(keep.holdArray.length + 1);\n            keep.holdArray.length = holdArrayLength;\n\n            keep.holdArray[holdArrayLength - 1] = newHold;\n\n            //set up the linked list to allow for array accessibility without needing to rearrange or delete old\n            // members of the array.\n            if (keep.holdStatus != HoldStatus.Holding) {\n                keep.holdStatus = HoldStatus.Holding;\n\n                //set up the zelda address of the doubly-linked list (the first entry into the doubly-linked list).\n                keep.currentHoldLinkedList_zeldaIndex = holdArrayLength - 1;\n                //and set the final index to this as well for further additions.\n                keep.currentHoldLinkedList_finalIndex = holdArrayLength - 1;\n\n                keep.currentHoldLinkedList_length = 1;\n            } else {\n                //update the prev index of this index in the doubly-linked list to point to this (previously final) index.\n                keep.holdPrevLinkMapping[holdArrayLength - 1] = keep.currentHoldLinkedList_finalIndex;\n                //update the final index in the doubly-linked list to point to this index.\n                keep.holdNextLinkMapping[keep.currentHoldLinkedList_finalIndex] = holdArrayLength - 1;\n                //and set the final index to this as well for further additions.\n                keep.currentHoldLinkedList_finalIndex = holdArrayLength - 1;\n\n                keep.currentHoldLinkedList_length++;\n            }\n\n            EVT_heldSafeBalanceForType(_amount, _bip32X_type, _safeExpiryTime, keep.holdArray.length);\n\n            //hold index\n            return keep.holdArray.length;\n        } else {\n            //must revert here, since values were modified downstream in the inherited contracts.\n            revert();\n        }\n    }\n\n    //returns:\n    // 0 = keep's holds array less than holdIndex\n    // 1 = hold expiry time higher than current block timestamp\n    // 2 = could not free hold @note: reverts, since transactional event has occurred\n    // 3 = freed hold properly\n\n    function freeSafeHold(uint32 holdIndex) public returns (uint8 result) {\n        safeKeep storage keep = safeKeeping[tx.origin];\n\n        //make sure that the holdIndex is within the range of 0->(holdArray.length - 1), and that this hold is active.\n        if (keep.holdArray.length > holdIndex && keep.holdArray[holdIndex].active == true) {\n            safeHold storage hold = keep.holdArray[holdIndex];\n\n            if (hold.safeExpiryTime <= block.timestamp) {\n                uint8 freeSafeResult = child_overload_doFreeSafe(hold.amount, hold.bip32X_type);\n\n                if (freeSafeResult == 1) {\n                    //in both subsequent cases, the total size of the doubly-linked list decreased by one.\n                    keep.currentHoldLinkedList_length--;\n\n                    //and similarly, in both cases this hold is marked inactive.\n                    keep.holdArray[holdIndex].active = false;\n\n                    //check if this hold is the zelda (first) index within the doubly-linked list.\n                    if (holdIndex == keep.currentHoldLinkedList_zeldaIndex) {\n                        //check if this hold is also the final index within the doubly-linked list.\n                        if (holdIndex == keep.currentHoldLinkedList_finalIndex) {\n                            //in this case, no remapping is necessary.\n                        } else {\n                           //otherwise, set the zelda index to be the next index in the doubly-linked list.\n                            keep.currentHoldLinkedList_zeldaIndex = keep.holdNextLinkMapping[holdIndex];\n                        }\n                    } else {\n                        //check if this hold is the final index within the doubly-linked list.\n                        if (holdIndex == keep.currentHoldLinkedList_finalIndex) {\n                            //if so, set final link in the doubly-linked list to be the the previous link of this index.\n                            keep.currentHoldLinkedList_finalIndex = keep.holdPrevLinkMapping[holdIndex];\n                        } else {\n                            //if not, this link is in between the zelda and final index within the doubly-linked list.\n                            // in this case, set the previous link to have its next link to be the next link of the\n                            // current hold. the final index of this doubly-linked list does not change.\n\n                            uint32 prevLink = keep.holdPrevLinkMapping[holdIndex];\n                            uint32 nextLink = keep.holdNextLinkMapping[holdIndex];\n\n                            keep.holdPrevLinkMapping[nextLink] = prevLink;\n                            keep.holdNextLinkMapping[prevLink] = nextLink;\n                        }\n                    }\n\n                    //if there's zero entries left within the doubly-linked list, the keep status is set to NoneHeld.\n                    if (keep.currentHoldLinkedList_length == 0) {\n                        keep.holdStatus = HoldStatus.NoneHeld;\n                    }\n\n\n                    EVT_freedSafeHold(holdIndex, keep.currentHoldLinkedList_length, keep.holdStatus, hold.amount, hold.bip32X_type, block.timestamp, hold.safeExpiryTime);\n\n                    //freed hold properly\n                    return 3;\n                } else {\n                    revert();\n\n                    //could not free hold @note: reverts, since transactional event has occurred\n                    return 2;\n                }\n\n            } else {\n                EVT_safeHoldStillTimelocked(holdIndex, keep.currentHoldLinkedList_length, block.timestamp, hold.safeExpiryTime);\n\n                //hold expiry time higher than current block timestamp\n                return 1;\n            }\n        } else {\n            //keep's holds array less than holdIndex\n            return 0;\n        }\n    }\n\n    //@note:@here: the following two functions are stub functions for contracts inheriting this contract (shyft kyc\n    // contract for example.\n\n    //returns:\n    // 0 = failure\n    // 1 = success\n    function child_overload_doHoldSafe(uint256 amount, uint32 bip32X_type) internal returns (uint8 result, uint256 remainingBalance) {\n        return (0, 0);\n    }\n    //returns:\n    // 0 = could not free\n    // 1 = freed\n    function child_overload_doFreeSafe(uint256 amount, uint32 bip32X_type) internal returns (uint8 result) {\n        return 0;\n    }\n\n\n    //returns:\n    // 0 = not bridge nor proper owner\n    // 1 = proof set\n\n    function addProof(address _identifiedAddress, bytes32 _proofHash, bytes _proof, bytes _publicMetadata, bytes _encryptedMetadata, uint256 _amount, uint32 _bip32X_type) public returns (uint16 result) {\n        if (isBridge(msg.sender) || msg.sender == _identifiedAddress) {\n            uint32 numProofs = uint32(safeKeeping[_identifiedAddress].allProofs.length + 1);\n\n            safeKeeping[_identifiedAddress].allProofs.length = numProofs;\n            safeProofMap storage proofMap = safeKeeping[_identifiedAddress].allProofs[numProofs - 1];\n\n            proofMap.proofHash = _proofHash;\n            proofMap.proof = _proof;\n            proofMap.publicMetadata = _publicMetadata;\n            proofMap.encryptedMetadata = _encryptedMetadata;\n            proofMap.amount = _amount;\n            proofMap.bip32X_type = _bip32X_type;\n\n            if (proofStatus == ProofStatus.Clean) {\n                proofStatus = ProofStatus.Dirty;\n                safeKeeping[_identifiedAddress].indexOfFirstDirtyProof = numProofs - 1;\n                safeKeeping[_identifiedAddress].numDirtyProofs = 1;\n            } else {\n                safeKeeping[_identifiedAddress].numDirtyProofs++;\n            }\n\n            return 1;\n        } else {\n            //not bridge nor proper owner\n            return 0;\n        }\n    }\n\n    //returns:\n    // 0 = not bridge\n    // 1 = proofs not dirty\n    // 2 = some proven, needs to process further\n    // 3 = all proofs are now proven\n    function updateSafe(address _identifiedAddress) public returns (uint16 result) {\n        if (isBridge(msg.sender)) {\n            if (proofStatus != ProofStatus.Clean) {\n                IShyftBridgeUtilsProver prover = IShyftBridgeUtilsProver(bridgeAddress);\n\n                safeKeep storage keep = safeKeeping[_identifiedAddress];\n\n                bool needsToProcessFurther;\n\n                uint32 numToProcess = keep.numDirtyProofs;\n                if (numToProcess > maxBridgeProcessingLimit) {\n                    numToProcess = maxBridgeProcessingLimit;\n                    needsToProcessFurther = true;\n                }\n\n                for (uint32 i = keep.indexOfFirstDirtyProof; i < numToProcess; i++) {\n                    keep.allProofs[i].proven = prover.prove(keep.allProofs[i].proof);\n                }\n\n                keep.indexOfFirstDirtyProof += numToProcess;\n\n                if (!needsToProcessFurther) {\n                    proofStatus = ProofStatus.Clean;\n\n                    //@note: @here: this should be here except for an issue in the ganache-cli vm which\n                    //prevents resets to zero due to some sort of gas estimation issue.\n                    //keep.numDirtyProofs = 0;\n\n                    //all proofs are now proven\n                    return 3;\n                } else {\n                    //some proven, needs to process further\n                    return 2;\n                }\n            } else {\n                //proofs not dirty\n                return 1;\n            }\n        } else {\n            //not bridge\n            return 0;\n        }\n    }\n\n    //returns\n    // true = proof successful\n    // false = proof unsuccessful\n\n    function safeProofProver(bytes proof) public returns (bool result) {\n        IShyftBridgeUtilsProver prover = IShyftBridgeUtilsProver(bridgeAddress);\n\n        return prover.prove(proof);\n    }\n}",
  "sourcePath": "/Users/jaypersanchez/KYCAML/contracts/ShyftSafe.sol",
  "compiler": {
    "name": "solc",
    "version": "0.4.24+commit.e67f0147.Emscripten.clang"
  },
  "schemaVersion": "2.0.1",
  "updatedAt": "2018-10-11T00:10:45.218Z"
}