{
  "contractName": "ShyftConduit",
  "abi": [
    {
      "constant": false,
      "inputs": [
        {
          "name": "_newAdministratorAddress",
          "type": "address"
        }
      ],
      "name": "setPrimaryAdministrator",
      "outputs": [
        {
          "name": "result",
          "type": "uint8"
        }
      ],
      "payable": false,
      "stateMutability": "nonpayable",
      "type": "function"
    },
    {
      "constant": false,
      "inputs": [
        {
          "name": "_revokeAdministratorAddress",
          "type": "address"
        }
      ],
      "name": "revokeAdministrator",
      "outputs": [
        {
          "name": "result",
          "type": "uint8"
        }
      ],
      "payable": false,
      "stateMutability": "nonpayable",
      "type": "function"
    },
    {
      "constant": true,
      "inputs": [],
      "name": "owner",
      "outputs": [
        {
          "name": "",
          "type": "address"
        }
      ],
      "payable": false,
      "stateMutability": "view",
      "type": "function"
    },
    {
      "constant": false,
      "inputs": [
        {
          "name": "_newAdministratorAddress",
          "type": "address"
        }
      ],
      "name": "setAdministrator",
      "outputs": [
        {
          "name": "result",
          "type": "uint8"
        }
      ],
      "payable": false,
      "stateMutability": "nonpayable",
      "type": "function"
    },
    {
      "inputs": [],
      "payable": false,
      "stateMutability": "nonpayable",
      "type": "constructor"
    },
    {
      "constant": false,
      "inputs": [
        {
          "name": "_contermiousAddresses",
          "type": "address[]"
        },
        {
          "name": "_contermiousDistributionPercentages_leftShifted24Bits",
          "type": "uint256[]"
        },
        {
          "name": "_distributionKeyKeccak",
          "type": "bytes32"
        }
      ],
      "name": "setContermiousDistributionAmounts",
      "outputs": [
        {
          "name": "result",
          "type": "uint8"
        }
      ],
      "payable": false,
      "stateMutability": "nonpayable",
      "type": "function"
    },
    {
      "constant": false,
      "inputs": [
        {
          "name": "_contermiousAddress",
          "type": "address"
        }
      ],
      "name": "integrateIndividualContermiousDistribution",
      "outputs": [
        {
          "name": "result",
          "type": "uint256"
        }
      ],
      "payable": false,
      "stateMutability": "nonpayable",
      "type": "function"
    },
    {
      "constant": false,
      "inputs": [
        {
          "name": "_value",
          "type": "uint256"
        }
      ],
      "name": "withdrawIndividualContermiousDistribution",
      "outputs": [],
      "payable": false,
      "stateMutability": "nonpayable",
      "type": "function"
    },
    {
      "constant": true,
      "inputs": [],
      "name": "checkSelfBalance",
      "outputs": [
        {
          "name": "value",
          "type": "uint256"
        }
      ],
      "payable": false,
      "stateMutability": "view",
      "type": "function"
    },
    {
      "constant": true,
      "inputs": [
        {
          "name": "_address",
          "type": "address"
        }
      ],
      "name": "checkContermiusWhiteShyftedBalance",
      "outputs": [
        {
          "name": "balance",
          "type": "uint256"
        }
      ],
      "payable": false,
      "stateMutability": "view",
      "type": "function"
    },
    {
      "constant": true,
      "inputs": [
        {
          "name": "_contermiousAddress",
          "type": "address"
        }
      ],
      "name": "isValidContermiousAddress",
      "outputs": [
        {
          "name": "result",
          "type": "bool"
        }
      ],
      "payable": false,
      "stateMutability": "view",
      "type": "function"
    },
    {
      "constant": false,
      "inputs": [
        {
          "name": "_primeRevocationManagerAddress",
          "type": "address"
        }
      ],
      "name": "setPrimeRevocationManagerAddress",
      "outputs": [
        {
          "name": "result",
          "type": "uint8"
        }
      ],
      "payable": false,
      "stateMutability": "nonpayable",
      "type": "function"
    },
    {
      "constant": false,
      "inputs": [
        {
          "name": "_primeRevocationManagerAddress",
          "type": "address"
        }
      ],
      "name": "isPrimeRevocationManager",
      "outputs": [
        {
          "name": "result",
          "type": "bool"
        }
      ],
      "payable": false,
      "stateMutability": "nonpayable",
      "type": "function"
    }
  ],
  "bytecode": "0x60806040526000600760006101000a81548161ffff021916908361ffff1602179055506000600760026101000a81548173ffffffffffffffffffffffffffffffffffffffff021916908373ffffffffffffffffffffffffffffffffffffffff1602179055506000600960006101000a81548173ffffffffffffffffffffffffffffffffffffffff021916908373ffffffffffffffffffffffffffffffffffffffff1602179055503480156100b257600080fd5b50336000806101000a81548173ffffffffffffffffffffffffffffffffffffffff021916908373ffffffffffffffffffffffffffffffffffffffff16021790555061185e806101026000396000f3006080604052600436106100ba576000357c0100000000000000000000000000000000000000000000000000000000900463ffffffff168063064ad7c2146100bf578063097bf53c1461011c57806318fb57a314610147578063349d060c146101745780634402bba3146101d1578063512f3d651461022e5780638da5cb5b146102895780639bcf08cd146102e0578063d976b9c71461033b578063df8089ef14610392578063e7980872146103ef578063eb679f07146104c0575b600080fd5b3480156100cb57600080fd5b50610100600480360381019080803573ffffffffffffffffffffffffffffffffffffffff169060200190929190505050610517565b604051808260ff1660ff16815260200191505060405180910390f35b34801561012857600080fd5b50610131610638565b6040518082815260200191505060405180910390f35b34801561015357600080fd5b5061017260048036038101908080359060200190929190505050610657565b005b34801561018057600080fd5b506101b5600480360381019080803573ffffffffffffffffffffffffffffffffffffffff169060200190929190505050610724565b604051808260ff1660ff16815260200191505060405180910390f35b3480156101dd57600080fd5b50610212600480360381019080803573ffffffffffffffffffffffffffffffffffffffff1690602001909291905050506108af565b604051808260ff1660ff16815260200191505060405180910390f35b34801561023a57600080fd5b5061026f600480360381019080803573ffffffffffffffffffffffffffffffffffffffff169060200190929190505050610a3b565b604051808215151515815260200191505060405180910390f35b34801561029557600080fd5b5061029e610aa6565b604051808273ffffffffffffffffffffffffffffffffffffffff1673ffffffffffffffffffffffffffffffffffffffff16815260200191505060405180910390f35b3480156102ec57600080fd5b50610321600480360381019080803573ffffffffffffffffffffffffffffffffffffffff169060200190929190505050610acb565b604051808215151515815260200191505060405180910390f35b34801561034757600080fd5b5061037c600480360381019080803573ffffffffffffffffffffffffffffffffffffffff169060200190929190505050610b24565b6040518082815260200191505060405180910390f35b34801561039e57600080fd5b506103d3600480360381019080803573ffffffffffffffffffffffffffffffffffffffff169060200190929190505050610b70565b604051808260ff1660ff16815260200191505060405180910390f35b3480156103fb57600080fd5b506104a460048036038101908080359060200190820180359060200190808060200260200160405190810160405280939291908181526020018383602002808284378201915050505050509192919290803590602001908201803590602001908080602002602001604051908101604052809392919081815260200183836020028082843782019150505050505091929192908035600019169060200190929190505050610c9b565b604051808260ff1660ff16815260200191505060405180910390f35b3480156104cc57600080fd5b50610501600480360381019080803573ffffffffffffffffffffffffffffffffffffffff169060200190929190505050610f64565b6040518082815260200191505060405180910390f35b60008060009054906101000a900473ffffffffffffffffffffffffffffffffffffffff1673ffffffffffffffffffffffffffffffffffffffff163373ffffffffffffffffffffffffffffffffffffffff16141561062e576000600360009054906101000a900460ff1660ff161415610625576001600260008473ffffffffffffffffffffffffffffffffffffffff1673ffffffffffffffffffffffffffffffffffffffff16815260200190815260200160002060006101000a81548160ff021916908360028111156105e557fe5b02179055506003600081819054906101000a900460ff168092919060010191906101000a81548160ff021916908360ff1602179055505060029050610633565b60019050610633565b600090505b919050565b60003073ffffffffffffffffffffffffffffffffffffffff1631905090565b80610660610638565b1015151561066d57600080fd5b8061067733610b24565b1015151561068457600080fd5b6106d981600660003373ffffffffffffffffffffffffffffffffffffffff1673ffffffffffffffffffffffffffffffffffffffff1681526020019081526020016000206002015461102590919063ffffffff16565b503373ffffffffffffffffffffffffffffffffffffffff166108fc829081150290604051600060405180830381858888f19350505050158015610720573d6000803e3d6000fd5b5050565b60008060008060008073ffffffffffffffffffffffffffffffffffffffff168673ffffffffffffffffffffffffffffffffffffffff161415151561076757600080fd5b6107703361103e565b156108a1578560405180807f7072696d655265766f636174696f6e4d616e6167657241646472657373000000815250601d018273ffffffffffffffffffffffffffffffffffffffff1673ffffffffffffffffffffffffffffffffffffffff166c01000000000000000000000000028152601401915050604051809103902093506107f9846110be565b9250600260ff168361ffff161015156108155760019150610837565b61081e8461110e565b9050600260ff168161ffff1610151561083657600191505b5b6001151582151514156108985785600960006101000a81548173ffffffffffffffffffffffffffffffffffffffff021916908373ffffffffffffffffffffffffffffffffffffffff16021790555061088e84611467565b50600294506108a6565b600194506108a6565b600094505b50505050919050565b60008060006108bd3361103e565b15610a2f57600160028111156108cf57fe5b600260008673ffffffffffffffffffffffffffffffffffffffff1673ffffffffffffffffffffffffffffffffffffffff16815260200190815260200160002060009054906101000a900460ff16600281111561092757fe5b1415610a265760405180807f61646d696e697374726174696f6e5265766f636174696f6e566f746500000000815250601c0190506040518091039020915061096e8261110e565b9050600260ff168161ffff16101515610a1d5760028060008673ffffffffffffffffffffffffffffffffffffffff1673ffffffffffffffffffffffffffffffffffffffff16815260200190815260200160002060006101000a81548160ff021916908360028111156109dc57fe5b02179055506003600081819054906101000a900460ff16809291906001900391906101000a81548160ff021916908360ff1602179055505060039250610a34565b60029250610a34565b60019250610a34565b600092505b5050919050565b60008173ffffffffffffffffffffffffffffffffffffffff16600960009054906101000a900473ffffffffffffffffffffffffffffffffffffffff1673ffffffffffffffffffffffffffffffffffffffff161415610a9c5760019050610aa1565b600090505b919050565b6000809054906101000a900473ffffffffffffffffffffffffffffffffffffffff1681565b6000600660008373ffffffffffffffffffffffffffffffffffffffff1673ffffffffffffffffffffffffffffffffffffffff16815260200190815260200160002060000160009054906101000a900460ff169050919050565b6000600660008373ffffffffffffffffffffffffffffffffffffffff1673ffffffffffffffffffffffffffffffffffffffff168152602001908152602001600020600201549050919050565b6000610b7b3361103e565b15610c915760016002811115610b8d57fe5b600260008473ffffffffffffffffffffffffffffffffffffffff1673ffffffffffffffffffffffffffffffffffffffff16815260200190815260200160002060009054906101000a900460ff166002811115610be557fe5b141515610c88576001600260008473ffffffffffffffffffffffffffffffffffffffff1673ffffffffffffffffffffffffffffffffffffffff16815260200190815260200160002060006101000a81548160ff02191690836002811115610c4857fe5b02179055506003600081819054906101000a900460ff168092919060010191906101000a81548160ff021916908360ff1602179055505060029050610c96565b60019050610c96565b600090505b919050565b600080600080600085600260ff16610cb2826110be565b61ffff1610151515610cc357600080fd5b888880518251141515610cd557600080fd5b610cdd61163e565b600095505b8a518661ffff161015610d2c57610d1d8a8761ffff16815181101515610d0457fe5b90602001906020020151886117c390919063ffffffff16565b96508580600101965050610ce2565b60646018889060020a9004111515610f5157600094505b8a518561ffff161015610eb557600660008c8761ffff16815181101515610d6657fe5b9060200190602002015173ffffffffffffffffffffffffffffffffffffffff1673ffffffffffffffffffffffffffffffffffffffff1681526020019081526020016000209350898561ffff16815181101515610dbe57fe5b90602001906020020151846001018190555060018460000160006101000a81548160ff02191690831515021790555060018b51038561ffff161015610e63578a6001860161ffff16815181101515610e1257fe5b906020019060200201518460040160006101000a81548173ffffffffffffffffffffffffffffffffffffffff021916908373ffffffffffffffffffffffffffffffffffffffff160217905550610ea8565b60008460040160006101000a81548173ffffffffffffffffffffffffffffffffffffffff021916908373ffffffffffffffffffffffffffffffffffffffff1602179055505b8480600101955050610d43565b8a51600760006101000a81548161ffff021916908361ffff1602179055508a6000815181101515610ee257fe5b90602001906020020151600760026101000a81548173ffffffffffffffffffffffffffffffffffffffff021916908373ffffffffffffffffffffffffffffffffffffffff160217905550600860008154809291906001019190505550610f4789611467565b5060019750610f56565b600097505b505050505050509392505050565b6000806000600660008573ffffffffffffffffffffffffffffffffffffffff1673ffffffffffffffffffffffffffffffffffffffff168152602001908152602001600020915081600301544303905060008260010154118015610fc75750600081115b1561101957611007606460186722b1c8c1227a000084866001015402029060020a9004811515610ff357fe5b0483600201546117c390919063ffffffff16565b5043826003018190555080925061101e565b600092505b5050919050565b600082821115151561103357fe5b818303905092915050565b60006001600281111561104d57fe5b600260008473ffffffffffffffffffffffffffffffffffffffff1673ffffffffffffffffffffffffffffffffffffffff16815260200190815260200160002060009054906101000a900460ff1660028111156110a557fe5b14156110b457600190506110b9565b600090505b919050565b60006110c93361103e565b156111045760046000836000191660001916815260200190815260200160002060020160009054906101000a900460ff1660ff169050611109565b600090505b919050565b60006111193361103e565b1561145d57600760ff1660046000846000191660001916815260200190815260200160002060020160009054906101000a900460ff1660ff1610801561126557506000600381111561116757fe5b60046000846000191660001916815260200190815260200160002060000160003373ffffffffffffffffffffffffffffffffffffffff1673ffffffffffffffffffffffffffffffffffffffff16815260200190815260200160002060009054906101000a900460ff1660038111156111db57fe5b148061126457506003808111156111ee57fe5b60046000846000191660001916815260200190815260200160002060000160003373ffffffffffffffffffffffffffffffffffffffff1673ffffffffffffffffffffffffffffffffffffffff16815260200190815260200160002060009054906101000a900460ff16600381111561126257fe5b145b5b1561142757600460008360001916600019168152602001908152602001600020600201600081819054906101000a900460ff168092919060010191906101000a81548160ff021916908360ff16021790555050600160046000846000191660001916815260200190815260200160002060000160003373ffffffffffffffffffffffffffffffffffffffff1673ffffffffffffffffffffffffffffffffffffffff16815260200190815260200160002060006101000a81548160ff0219169083600381111561133057fe5b02179055506004600083600019166000191681526020019081526020016000206001013390806001815401808255809150509060018203906000526020600020016000909192909190916101000a81548173ffffffffffffffffffffffffffffffffffffffff021916908373ffffffffffffffffffffffffffffffffffffffff16021790555050600560003373ffffffffffffffffffffffffffffffffffffffff1673ffffffffffffffffffffffffffffffffffffffff1681526020019081526020016000208290806001815401808255809150509060018203906000526020600020016000909192909190915090600019169055505b60046000836000191660001916815260200190815260200160002060020160009054906101000a900460ff1660ff169050611462565b600090505b919050565b6000806114733361103e565b1561163357600060046000856000191660001916815260200190815260200160002060020160009054906101000a900460ff1660ff1614151561162a57600090505b600460008460001916600019168152602001908152602001600020600101805490508110156115bd57600360046000856000191660001916815260200190815260200160002060000160006004600087600019166000191681526020019081526020016000206001018481548110151561152b57fe5b9060005260206000200160009054906101000a900473ffffffffffffffffffffffffffffffffffffffff1673ffffffffffffffffffffffffffffffffffffffff1673ffffffffffffffffffffffffffffffffffffffff16815260200190815260200160002060006101000a81548160ff021916908360038111156115ab57fe5b021790555080806001019150506114b5565b6000600460008560001916600019168152602001908152602001600020600101816115e891906117e1565b50600060046000856000191660001916815260200190815260200160002060020160006101000a81548160ff021916908360ff16021790555060029150611638565b60019150611638565b600091505b50919050565b600080600080600760029054906101000a900473ffffffffffffffffffffffffffffffffffffffff169350600092505b600760009054906101000a900461ffff1661ffff168361ffff1610156117bd57600660008573ffffffffffffffffffffffffffffffffffffffff1673ffffffffffffffffffffffffffffffffffffffff1681526020019081526020016000209150816003015443039050600081111561171e5761171c606460186722b1c8c1227a000084866001015402029060020a900481151561170857fe5b0483600201546117c390919063ffffffff16565b505b6000826001018190555060008260000160006101000a81548160ff0219169083151502179055508160040160009054906101000a900473ffffffffffffffffffffffffffffffffffffffff16935060008260040160006101000a81548173ffffffffffffffffffffffffffffffffffffffff021916908373ffffffffffffffffffffffffffffffffffffffff160217905550828060010193505061166e565b50505050565b60008082840190508381101515156117d757fe5b8091505092915050565b81548183558181111561180857818360005260206000209182019101611807919061180d565b5b505050565b61182f91905b8082111561182b576000816000905550600101611813565b5090565b905600a165627a7a72305820e51a1b5aede656afdf335115d1f8ef6a99915b18d035c261166952598209ee770029",
  "source": "pragma solidity ^0.4.19;\n\nimport \"./Libraries/SafeMath.sol\";\n\nimport \"./Administrable.sol\";\n\n// Shyft Conduit\n// con·duit\n// /känˌd(y)o͞oət/\n// 1. a channel for conveying water or other fluid.\n\n// con·ter·mi·nous\n// /känˈtərmənəs/\n// 1. sharing a common boundary.\n\n// This contract manages the Shyft inflation organization and delegation to an Administrable distribution by value.\n// Because the block reward never changes (only the difficulty parameter), there is no really complex math involved.\n\n// We use linked lists for the Contermious linkages because in the case of a new array, the list can be easily\n// associated with the basic mappings without creating extra storage copies.\n\ncontract ShyftConduit is Administrable {\n    using SafeMath for uint256;\n\n    uint256 constant shyftBlockReward = 2500000000000000000;\n\n    //@note:\n    // this is set up such that the distribution amounts (per block) can be set up with a (whitelisted) address.\n\n\n    struct ContermiousInfo {\n        bool whiteListed;\n\n        uint256 whiteShyftedDistributionPercent_leftShifted24Bits;\n        uint256 whiteShyftedBalance;\n\n        uint256 lastBlockProcessed;\n\n        //@note: forward linked list.\n        address nextLink;\n    }\n\n    modifier checkAddressAndValuesArrayLengthsAreEqual(address[] _addresses, uint256[] _values) {\n        require(_addresses.length == _values.length);\n        _;\n    }\n\n    modifier checkIsAdmin() {\n        require(isAdministrator(msg.sender));\n        _;\n    }\n\n    modifier checkForAdminMultisigPermissionsAtOrAboveThreshold(bytes32 _keyKeccak) {\n        require(adminGetPermissionsForMultisignKey(_keyKeccak) >= maxThreshold);\n        _;\n    }\n\n    mapping(address => ContermiousInfo) allContermiousInfo;\n\n    uint16 contermiousCount = 0;\n\n    //@note: contermious address for first of the forward linked list.\n    address contermiousZeldaAddress = address(0);\n    //@note: nonce for the \"setContermiousDistributionAmounts\" \"_distributionKeyKeccak\" input.\n    uint256 contermiousGeneration;\n\n    address primeRevocationManagerAddress = address(0);\n\n    function ShyftConduit() public {\n        owner = msg.sender;\n    }\n\n    //@note: this function takes in values (n/100%) that are shifted to the left by 24. (2 ^ 24 - 1) = 16777215.\n    // this is to apply granularity to the distribution values of 1 in (2 ^ 24) wei equivalents.\n    // http://x86asm.net/articles/fixed-point-arithmetic-and-tricks/\n\n    //@note: in the ui that would manage this component, the _distributionKeyKeccak should be the keccak256 of all of\n    // the addresses and distribution percentages, along with the current \"contermiousGeneration\", acting as a nonce.\n\n    //returns:\n    // 0 = all distribution percentages added together are over 100%\n    // 1 = set contermious distribution amounts\n\n    function setContermiousDistributionAmounts(address[] _contermiousAddresses,\n                                               uint256[] _contermiousDistributionPercentages_leftShifted24Bits,\n                                               bytes32 _distributionKeyKeccak) public checkForAdminMultisigPermissionsAtOrAboveThreshold(_distributionKeyKeccak)\n                                                                                      checkAddressAndValuesArrayLengthsAreEqual(_contermiousAddresses, _contermiousDistributionPercentages_leftShifted24Bits)\n                                                                                      returns (uint8 result) {\n        integrateAllContermiousDistributionsAndDeWhitelist();\n\n        uint256 totalPercentage_leftShifted24Bits;\n\n        for (uint16 i = 0; i < _contermiousAddresses.length; i++) {\n            totalPercentage_leftShifted24Bits = totalPercentage_leftShifted24Bits.add(_contermiousDistributionPercentages_leftShifted24Bits[i]);\n        }\n\n        if ((totalPercentage_leftShifted24Bits >> 24) <= 100) {\n            for (uint16 j = 0; j < _contermiousAddresses.length; j++) {\n                ContermiousInfo storage contermiousInfo = allContermiousInfo[_contermiousAddresses[j]];\n\n                contermiousInfo.whiteShyftedDistributionPercent_leftShifted24Bits = _contermiousDistributionPercentages_leftShifted24Bits[j];\n                contermiousInfo.whiteListed = true;\n\n                //@note: create a linked list of all the contermious linkages.\n                if (j < _contermiousAddresses.length - 1) {\n                    contermiousInfo.nextLink = _contermiousAddresses[j + 1];\n                } else {\n                    contermiousInfo.nextLink = address(0);\n                }\n            }\n\n            contermiousCount = uint16(_contermiousAddresses.length);\n            //@note: set first address for forward linked list.\n            contermiousZeldaAddress = _contermiousAddresses[0];\n\n            contermiousGeneration++;\n\n            adminResetPermissionsForMultisignKey(_distributionKeyKeccak);\n\n            // set contermious distribution amounts\n            return 1;\n        } else {\n            // all distribution percentages added together are over 100%\n            return 0;\n        }\n    }\n\n    // @note: helper function for \"setContermiousDistributionAmounts\".\n\n    function integrateAllContermiousDistributionsAndDeWhitelist() internal {\n        address contermiusAddress = contermiousZeldaAddress;\n\n        for (uint16 i = 0; i < contermiousCount; i++) {\n            ContermiousInfo storage contermiousInfo = allContermiousInfo[contermiusAddress];\n\n            uint256 numBlocksToProcess = block.number - contermiousInfo.lastBlockProcessed;\n\n            if (numBlocksToProcess > 0) {\n                contermiousInfo.whiteShyftedBalance.add(((contermiousInfo.whiteShyftedDistributionPercent_leftShifted24Bits * numBlocksToProcess * shyftBlockReward) >> 24) / 100);\n            }\n\n            contermiousInfo.whiteShyftedDistributionPercent_leftShifted24Bits = 0;\n\n            contermiousInfo.whiteListed = false;\n\n            contermiusAddress = contermiousInfo.nextLink;\n\n            contermiousInfo.nextLink = 0;\n        }\n    }\n\n    // @note: it's in everyone's best interest to run this function (or the \"integrateIndividual\" one) every block.\n\n    //returns:\n    // 0 = nothing to process\n    // 1 -> n = n blocks processed\n\n    function integrateAllContermiousDistributions() internal returns (uint256 result) {\n        uint256 highestNumberOfBlocksProcessed = 0;\n\n        address contermiusAddress = contermiousZeldaAddress;\n\n        for (uint16 i = 0; i < contermiousCount; i++) {\n            ContermiousInfo storage contermiousInfo = allContermiousInfo[contermiusAddress];\n\n            uint256 numBlocksToProcess = block.number - contermiousInfo.lastBlockProcessed;\n\n            if (numBlocksToProcess > 0) {\n                contermiousInfo.whiteShyftedBalance.add(((contermiousInfo.whiteShyftedDistributionPercent_leftShifted24Bits * numBlocksToProcess * shyftBlockReward) >> 24) / 100);\n\n                contermiousInfo.lastBlockProcessed = block.number;\n\n                if (contermiousInfo.lastBlockProcessed > highestNumberOfBlocksProcessed) {\n                    highestNumberOfBlocksProcessed = contermiousInfo.lastBlockProcessed;\n                }\n            }\n\n            contermiusAddress = contermiousInfo.nextLink;\n        }\n\n        return highestNumberOfBlocksProcessed;\n    }\n\n    //returns:\n    // 0 = nothing to process\n    // 1 -> n = n blocks processed\n\n    function integrateIndividualContermiousDistribution(address _contermiousAddress) public returns (uint256 result) {\n        ContermiousInfo storage contermiousInfo = allContermiousInfo[_contermiousAddress];\n        uint256 numBlocksToProcess = block.number - contermiousInfo.lastBlockProcessed;\n\n        if (contermiousInfo.whiteShyftedDistributionPercent_leftShifted24Bits > 0 && numBlocksToProcess > 0) {\n            contermiousInfo.whiteShyftedBalance.add(((contermiousInfo.whiteShyftedDistributionPercent_leftShifted24Bits * numBlocksToProcess * shyftBlockReward) >> 24) / 100);\n            contermiousInfo.lastBlockProcessed = block.number;\n\n            // n blocks processed\n            return numBlocksToProcess;\n        } else {\n            // nothing to process\n            return 0;\n        }\n    }\n\n    function withdrawIndividualContermiousDistribution(uint256 _value) public {\n        require(checkSelfBalance() >= _value);\n        require(checkContermiusWhiteShyftedBalance(msg.sender) >= _value);\n\n        allContermiousInfo[msg.sender].whiteShyftedBalance.sub(_value);\n\n        msg.sender.transfer(_value);\n    }\n\n    //returns:\n    // 0 -> n = this contract's balance\n\n    function checkSelfBalance() public view returns (uint256 value) {\n        // this contract's balance\n        return this.balance;\n    }\n\n    //returns:\n    // 0 = no shyft kyc contract set\n    // or\n    // 0 -> n = balance in shyft kyc contract for address\n\n    function checkContermiusWhiteShyftedBalance(address _address) public view returns (uint256 balance) {\n        return allContermiousInfo[_address].whiteShyftedBalance;\n    }\n\n    //returns:\n    // true/false = is whitelisted or not\n\n    function isValidContermiousAddress(address _contermiousAddress) public view returns (bool result) {\n        //is whitelisted or not\n        return allContermiousInfo[_contermiousAddress].whiteListed;\n    }\n\n    // ** prime revocation manager address management & retrieval ** //\n\n    //returns:\n    // 0 = not an administrator\n    // 1 = only one administrator has permissioned change\n    // 2 = prime revocation manager set\n\n    function setPrimeRevocationManagerAddress(address _primeRevocationManagerAddress) public returns (uint8 result) {\n        require(_primeRevocationManagerAddress != address(0));\n\n        if (isAdministrator(msg.sender)) {\n            bytes32 keyKeccak = keccak256(\"primeRevocationManagerAddress\", _primeRevocationManagerAddress);\n\n            uint16 numPermissions = adminGetPermissionsForMultisignKey(keyKeccak);\n\n            bool permittedToModify;\n\n            if (numPermissions >= maxThreshold) {\n                permittedToModify = true;\n            } else {\n                uint16 numConfirmedPermissions = adminApplyAndGetPermissionsForMultisignKey(keyKeccak);\n\n                if (numConfirmedPermissions >= maxThreshold) {\n                    permittedToModify = true;\n                }\n            }\n\n            if (permittedToModify == true) {\n                primeRevocationManagerAddress = _primeRevocationManagerAddress;\n\n                adminResetPermissionsForMultisignKey(keyKeccak);\n\n                // prime revocation manager set\n                return 2;\n\n            } else {\n                // not enough administrators have permissioned change\n                return 1;\n            }\n        } else {\n            // not an administrator\n            return 0;\n        }\n    }\n\n    //returns:\n    // false = is not prime revocation manager address\n    // true = is prime revocation manager address\n\n    function isPrimeRevocationManager(address _primeRevocationManagerAddress) public returns (bool result) {\n        if (primeRevocationManagerAddress == _primeRevocationManagerAddress) {\n            //is prime revocation manager address\n            return true;\n        } else {\n            //is not prime revocation manager address\n            return false;\n        }\n    }\n}",
  "sourcePath": "/Users/jaypersanchez/KYCAML/contracts/ShyftConduit.sol",
  "compiler": {
    "name": "solc",
    "version": "0.4.24+commit.e67f0147.Emscripten.clang"
  },
  "schemaVersion": "2.0.1",
  "updatedAt": "2018-10-11T00:10:45.178Z"
}