{
  "contractName": "ShyftBridgeSafeUtils",
  "abi": [
    {
      "constant": false,
      "inputs": [],
      "name": "shyftSafeProofProve",
      "outputs": [],
      "payable": false,
      "stateMutability": "nonpayable",
      "type": "function"
    }
  ],
  "bytecode": "0x6080604052348015600f57600080fd5b5060868061001e6000396000f300608060405260043610603f576000357c0100000000000000000000000000000000000000000000000000000000900463ffffffff168063571de87b146044575b600080fd5b348015604f57600080fd5b5060566058565b005b5600a165627a7a7230582084bc01d6ea8285f58c04f1dc69153428c8d6aad421ba777769302b44fcf6bb5c0029",
  "source": "pragma solidity ^0.4.19;\n\ncontract ShyftBridgeSafeUtils {\n\n//    function ShyftBridgeSafeUtils(){\n//\n//    }\n\n    function shyftSafeProofProve() public {\n\n    }\n}\n",
  "sourcePath": "/Users/jaypersanchez/KYCAML/contracts/ShyftBridgeSafeUtils.sol",
  "compiler": {
    "name": "solc",
    "version": "0.4.24+commit.e67f0147.Emscripten.clang"
  },
  "schemaVersion": "2.0.1",
  "updatedAt": "2018-10-11T00:10:45.096Z"
}