{
  "contractName": "ShyftBridge",
  "abi": [
    {
      "constant": false,
      "inputs": [
        {
          "name": "_newAdministratorAddress",
          "type": "address"
        }
      ],
      "name": "setPrimaryAdministrator",
      "outputs": [
        {
          "name": "result",
          "type": "uint8"
        }
      ],
      "payable": false,
      "stateMutability": "nonpayable",
      "type": "function"
    },
    {
      "constant": false,
      "inputs": [
        {
          "name": "_revokeAdministratorAddress",
          "type": "address"
        }
      ],
      "name": "revokeAdministrator",
      "outputs": [
        {
          "name": "result",
          "type": "uint8"
        }
      ],
      "payable": false,
      "stateMutability": "nonpayable",
      "type": "function"
    },
    {
      "constant": true,
      "inputs": [],
      "name": "owner",
      "outputs": [
        {
          "name": "",
          "type": "address"
        }
      ],
      "payable": false,
      "stateMutability": "view",
      "type": "function"
    },
    {
      "constant": false,
      "inputs": [
        {
          "name": "_newAdministratorAddress",
          "type": "address"
        }
      ],
      "name": "setAdministrator",
      "outputs": [
        {
          "name": "result",
          "type": "uint8"
        }
      ],
      "payable": false,
      "stateMutability": "nonpayable",
      "type": "function"
    },
    {
      "inputs": [],
      "payable": false,
      "stateMutability": "nonpayable",
      "type": "constructor"
    },
    {
      "constant": false,
      "inputs": [
        {
          "name": "_shyftSafeAddress",
          "type": "address"
        }
      ],
      "name": "setShyftSafeAddress",
      "outputs": [
        {
          "name": "result",
          "type": "uint8"
        }
      ],
      "payable": false,
      "stateMutability": "nonpayable",
      "type": "function"
    },
    {
      "constant": false,
      "inputs": [
        {
          "name": "_bip32X_type",
          "type": "uint32"
        },
        {
          "name": "_value",
          "type": "uint256"
        },
        {
          "name": "_toChainId",
          "type": "bytes32"
        }
      ],
      "name": "transitAsset",
      "outputs": [
        {
          "name": "result",
          "type": "uint8"
        }
      ],
      "payable": false,
      "stateMutability": "nonpayable",
      "type": "function"
    },
    {
      "constant": false,
      "inputs": [
        {
          "name": "proof",
          "type": "bytes"
        }
      ],
      "name": "prove",
      "outputs": [
        {
          "name": "proven",
          "type": "bool"
        }
      ],
      "payable": false,
      "stateMutability": "nonpayable",
      "type": "function"
    }
  ],
  "bytecode": "0x60806040526000600660006101000a81548173ffffffffffffffffffffffffffffffffffffffff021916908373ffffffffffffffffffffffffffffffffffffffff16021790555034801561005257600080fd5b50336000806101000a81548173ffffffffffffffffffffffffffffffffffffffff021916908373ffffffffffffffffffffffffffffffffffffffff160217905550610f52806100a26000396000f300608060405260043610610083576000357c0100000000000000000000000000000000000000000000000000000000900463ffffffff168063064ad7c214610088578063375bfa5d146100e55780634402bba31461016657806352513dcf146101c3578063676920ea146102285780638da5cb5b14610285578063df8089ef146102dc575b600080fd5b34801561009457600080fd5b506100c9600480360381019080803573ffffffffffffffffffffffffffffffffffffffff169060200190929190505050610339565b604051808260ff1660ff16815260200191505060405180910390f35b3480156100f157600080fd5b5061014c600480360381019080803590602001908201803590602001908080601f016020809104026020016040519081016040528093929190818152602001838380828437820191505050505050919291929050505061045a565b604051808215151515815260200191505060405180910390f35b34801561017257600080fd5b506101a7600480360381019080803573ffffffffffffffffffffffffffffffffffffffff169060200190929190505050610465565b604051808260ff1660ff16815260200191505060405180910390f35b3480156101cf57600080fd5b5061020c600480360381019080803563ffffffff1690602001909291908035906020019092919080356000191690602001909291905050506105f1565b604051808260ff1660ff16815260200191505060405180910390f35b34801561023457600080fd5b50610269600480360381019080803573ffffffffffffffffffffffffffffffffffffffff1690602001909291905050506105fa565b604051808260ff1660ff16815260200191505060405180910390f35b34801561029157600080fd5b5061029a610785565b604051808273ffffffffffffffffffffffffffffffffffffffff1673ffffffffffffffffffffffffffffffffffffffff16815260200191505060405180910390f35b3480156102e857600080fd5b5061031d600480360381019080803573ffffffffffffffffffffffffffffffffffffffff1690602001909291905050506107aa565b604051808260ff1660ff16815260200191505060405180910390f35b60008060009054906101000a900473ffffffffffffffffffffffffffffffffffffffff1673ffffffffffffffffffffffffffffffffffffffff163373ffffffffffffffffffffffffffffffffffffffff161415610450576000600360009054906101000a900460ff1660ff161415610447576001600260008473ffffffffffffffffffffffffffffffffffffffff1673ffffffffffffffffffffffffffffffffffffffff16815260200190815260200160002060006101000a81548160ff0219169083600281111561040757fe5b02179055506003600081819054906101000a900460ff168092919060010191906101000a81548160ff021916908360ff1602179055505060029050610455565b60019050610455565b600090505b919050565b600060019050919050565b6000806000610473336108d5565b156105e5576001600281111561048557fe5b600260008673ffffffffffffffffffffffffffffffffffffffff1673ffffffffffffffffffffffffffffffffffffffff16815260200190815260200160002060009054906101000a900460ff1660028111156104dd57fe5b14156105dc5760405180807f61646d696e697374726174696f6e5265766f636174696f6e566f746500000000815250601c0190506040518091039020915061052482610955565b9050600260ff168161ffff161015156105d35760028060008673ffffffffffffffffffffffffffffffffffffffff1673ffffffffffffffffffffffffffffffffffffffff16815260200190815260200160002060006101000a81548160ff0219169083600281111561059257fe5b02179055506003600081819054906101000a900460ff16809291906001900391906101000a81548160ff021916908360ff16021790555050600392506105ea565b600292506105ea565b600192506105ea565b600092505b5050919050565b60009392505050565b60008060008060008073ffffffffffffffffffffffffffffffffffffffff168673ffffffffffffffffffffffffffffffffffffffff161415151561063d57600080fd5b610646336108d5565b15610777578560405180807f73687966745361666541646472657373000000000000000000000000000000008152506010018273ffffffffffffffffffffffffffffffffffffffff1673ffffffffffffffffffffffffffffffffffffffff166c01000000000000000000000000028152601401915050604051809103902093506106cf84610cae565b9250600260ff168361ffff161015156106eb576001915061070d565b6106f484610955565b9050600260ff168161ffff1610151561070c57600191505b5b60011515821515141561076e5785600660006101000a81548173ffffffffffffffffffffffffffffffffffffffff021916908373ffffffffffffffffffffffffffffffffffffffff16021790555061076484610cfe565b506002945061077c565b6001945061077c565b600094505b50505050919050565b6000809054906101000a900473ffffffffffffffffffffffffffffffffffffffff1681565b60006107b5336108d5565b156108cb57600160028111156107c757fe5b600260008473ffffffffffffffffffffffffffffffffffffffff1673ffffffffffffffffffffffffffffffffffffffff16815260200190815260200160002060009054906101000a900460ff16600281111561081f57fe5b1415156108c2576001600260008473ffffffffffffffffffffffffffffffffffffffff1673ffffffffffffffffffffffffffffffffffffffff16815260200190815260200160002060006101000a81548160ff0219169083600281111561088257fe5b02179055506003600081819054906101000a900460ff168092919060010191906101000a81548160ff021916908360ff16021790555050600290506108d0565b600190506108d0565b600090505b919050565b6000600160028111156108e457fe5b600260008473ffffffffffffffffffffffffffffffffffffffff1673ffffffffffffffffffffffffffffffffffffffff16815260200190815260200160002060009054906101000a900460ff16600281111561093c57fe5b141561094b5760019050610950565b600090505b919050565b6000610960336108d5565b15610ca457600760ff1660046000846000191660001916815260200190815260200160002060020160009054906101000a900460ff1660ff16108015610aac5750600060038111156109ae57fe5b60046000846000191660001916815260200190815260200160002060000160003373ffffffffffffffffffffffffffffffffffffffff1673ffffffffffffffffffffffffffffffffffffffff16815260200190815260200160002060009054906101000a900460ff166003811115610a2257fe5b1480610aab5750600380811115610a3557fe5b60046000846000191660001916815260200190815260200160002060000160003373ffffffffffffffffffffffffffffffffffffffff1673ffffffffffffffffffffffffffffffffffffffff16815260200190815260200160002060009054906101000a900460ff166003811115610aa957fe5b145b5b15610c6e57600460008360001916600019168152602001908152602001600020600201600081819054906101000a900460ff168092919060010191906101000a81548160ff021916908360ff16021790555050600160046000846000191660001916815260200190815260200160002060000160003373ffffffffffffffffffffffffffffffffffffffff1673ffffffffffffffffffffffffffffffffffffffff16815260200190815260200160002060006101000a81548160ff02191690836003811115610b7757fe5b02179055506004600083600019166000191681526020019081526020016000206001013390806001815401808255809150509060018203906000526020600020016000909192909190916101000a81548173ffffffffffffffffffffffffffffffffffffffff021916908373ffffffffffffffffffffffffffffffffffffffff16021790555050600560003373ffffffffffffffffffffffffffffffffffffffff1673ffffffffffffffffffffffffffffffffffffffff1681526020019081526020016000208290806001815401808255809150509060018203906000526020600020016000909192909190915090600019169055505b60046000836000191660001916815260200190815260200160002060020160009054906101000a900460ff1660ff169050610ca9565b600090505b919050565b6000610cb9336108d5565b15610cf45760046000836000191660001916815260200190815260200160002060020160009054906101000a900460ff1660ff169050610cf9565b600090505b919050565b600080610d0a336108d5565b15610eca57600060046000856000191660001916815260200190815260200160002060020160009054906101000a900460ff1660ff16141515610ec157600090505b60046000846000191660001916815260200190815260200160002060010180549050811015610e54576003600460008560001916600019168152602001908152602001600020600001600060046000876000191660001916815260200190815260200160002060010184815481101515610dc257fe5b9060005260206000200160009054906101000a900473ffffffffffffffffffffffffffffffffffffffff1673ffffffffffffffffffffffffffffffffffffffff1673ffffffffffffffffffffffffffffffffffffffff16815260200190815260200160002060006101000a81548160ff02191690836003811115610e4257fe5b02179055508080600101915050610d4c565b600060046000856000191660001916815260200190815260200160002060010181610e7f9190610ed5565b50600060046000856000191660001916815260200190815260200160002060020160006101000a81548160ff021916908360ff16021790555060029150610ecf565b60019150610ecf565b600091505b50919050565b815481835581811115610efc57818360005260206000209182019101610efb9190610f01565b5b505050565b610f2391905b80821115610f1f576000816000905550600101610f07565b5090565b905600a165627a7a72305820ea8ac2044881791e29e66b9d521da7cf460504e88ba3fb989f56a089eb065e310029",
  "source": "pragma solidity ^0.4.19;\n\nimport \"./Interfaces/IShyftBridgeUtilsProver.sol\";\n\nimport \"./Administrable.sol\";\n\ncontract ShyftBridge is Administrable {\n\n    address shyftSafeAddress = address(0);\n\n    function ShyftBridge() public {\n        owner = msg.sender;\n    }\n\n    //returns:\n    // 0 = not an administrator\n    // 1 = only one administrator has permissioned change\n    // 2 = shyft safe set\n\n    function setShyftSafeAddress(address _shyftSafeAddress) public returns (uint8 result) {\n        require(_shyftSafeAddress != address(0));\n\n        if (isAdministrator(msg.sender)) {\n            bytes32 keyKeccak = keccak256(\"shyftSafeAddress\", _shyftSafeAddress);\n\n            uint16 numPermissions = adminGetPermissionsForMultisignKey(keyKeccak);\n\n            bool permittedToModify;\n\n            if (numPermissions >= maxThreshold) {\n                permittedToModify = true;\n            } else {\n                uint16 numConfirmedPermissions = adminApplyAndGetPermissionsForMultisignKey(keyKeccak);\n\n                if (numConfirmedPermissions >= maxThreshold) {\n                    permittedToModify = true;\n                }\n            }\n\n            if (permittedToModify == true) {\n                shyftSafeAddress = _shyftSafeAddress;\n\n                adminResetPermissionsForMultisignKey(keyKeccak);\n\n                // shyft safe set\n                return 2;\n\n            } else {\n                // not enough administrators have permissioned change\n                return 1;\n            }\n        } else {\n            // not an administrator\n            return 0;\n        }\n    }\n\n    //@note: a (wallet) user calls this function to begin the process of \"transiting\" (moving) their assets across\n    // blockchains.\n    //\n    // the user needs to have assets currently within their Safe hold(s). as long as the asset is with their Safe hold(s)\n    // it is guaranteed to be a balance they can transit. in order to induce a proper locking mechanism, the asset has a\n    // minimum block confirmation of 6 blocks\n\n    //returns:\n    //\n\n    function transitAsset(uint32 _bip32X_type, uint256 _value, bytes32 _toChainId) public returns (uint8 result) {\n\n    }\n\n    function prove(bytes proof) public returns (bool proven) {\n        return true;\n    }\n}\n",
  "sourcePath": "/Users/jaypersanchez/KYCAML/contracts/ShyftBridge.sol",
  "compiler": {
    "name": "solc",
    "version": "0.4.24+commit.e67f0147.Emscripten.clang"
  },
  "schemaVersion": "2.0.1",
  "updatedAt": "2018-10-11T00:10:45.123Z"
}