{
  "contractName": "ShyftCacheGraph",
  "abi": [
    {
      "constant": true,
      "inputs": [
        {
          "name": "i",
          "type": "uint32"
        }
      ],
      "name": "numberOfSetBits",
      "outputs": [
        {
          "name": "result",
          "type": "uint32"
        }
      ],
      "payable": false,
      "stateMutability": "pure",
      "type": "function"
    },
    {
      "constant": true,
      "inputs": [
        {
          "name": "b",
          "type": "uint32"
        }
      ],
      "name": "rightmost_index",
      "outputs": [
        {
          "name": "result",
          "type": "uint32"
        }
      ],
      "payable": false,
      "stateMutability": "view",
      "type": "function"
    },
    {
      "constant": false,
      "inputs": [],
      "name": "setupDebroujinTable",
      "outputs": [
        {
          "name": "result",
          "type": "bool"
        }
      ],
      "payable": false,
      "stateMutability": "nonpayable",
      "type": "function"
    },
    {
      "constant": true,
      "inputs": [
        {
          "name": "n",
          "type": "uint32"
        }
      ],
      "name": "reverse_bits",
      "outputs": [
        {
          "name": "result",
          "type": "uint32"
        }
      ],
      "payable": false,
      "stateMutability": "pure",
      "type": "function"
    },
    {
      "anonymous": false,
      "inputs": [
        {
          "indexed": false,
          "name": "_identifiedAddress",
          "type": "address"
        },
        {
          "indexed": false,
          "name": "updateLength",
          "type": "uint16"
        },
        {
          "indexed": false,
          "name": "oldAttestationKeccakArrayLength",
          "type": "uint16"
        },
        {
          "indexed": false,
          "name": "attestationKeccakArrayLength",
          "type": "uint16"
        }
      ],
      "name": "EVT_UpdatingCacheGraph",
      "type": "event"
    },
    {
      "anonymous": false,
      "inputs": [
        {
          "indexed": false,
          "name": "_identifiedAddress",
          "type": "address"
        },
        {
          "indexed": false,
          "name": "i",
          "type": "uint32"
        },
        {
          "indexed": false,
          "name": "idx",
          "type": "uint16"
        }
      ],
      "name": "EVT_DoCompileCacheGraph",
      "type": "event"
    },
    {
      "anonymous": false,
      "inputs": [
        {
          "indexed": false,
          "name": "_identifiedAddress",
          "type": "address"
        },
        {
          "indexed": false,
          "name": "trustAnchorIndex",
          "type": "uint32"
        },
        {
          "indexed": false,
          "name": "keccakHash",
          "type": "bytes32"
        }
      ],
      "name": "EVT_DoConditionallyRemoveTrustChannelEXBitFields",
      "type": "event"
    },
    {
      "anonymous": false,
      "inputs": [
        {
          "indexed": false,
          "name": "_identifiedAddress",
          "type": "address"
        },
        {
          "indexed": false,
          "name": "attestationStatusApproved",
          "type": "bool"
        },
        {
          "indexed": false,
          "name": "didChangeApprovedStatus",
          "type": "bool"
        },
        {
          "indexed": false,
          "name": "attestationIndex",
          "type": "uint16"
        },
        {
          "indexed": false,
          "name": "attestationHasAlreadyBeenProcessed",
          "type": "bool"
        }
      ],
      "name": "EVT_GotAttestationStatus",
      "type": "event"
    },
    {
      "anonymous": false,
      "inputs": [
        {
          "indexed": false,
          "name": "_effectiveTime",
          "type": "uint256"
        },
        {
          "indexed": false,
          "name": "blockTimestamp",
          "type": "uint256"
        },
        {
          "indexed": false,
          "name": "_expiryTime",
          "type": "uint256"
        },
        {
          "indexed": false,
          "name": "isActive",
          "type": "bool"
        }
      ],
      "name": "EVT_CompareTime",
      "type": "event"
    },
    {
      "anonymous": false,
      "inputs": [
        {
          "indexed": false,
          "name": "_identifiedAddress",
          "type": "address"
        },
        {
          "indexed": false,
          "name": "keccakHash",
          "type": "bytes32"
        },
        {
          "indexed": false,
          "name": "consentAvailable",
          "type": "bool"
        }
      ],
      "name": "EVT_DoCompileCacheGraphTrustChannelEXBitFields",
      "type": "event"
    },
    {
      "anonymous": false,
      "inputs": [
        {
          "indexed": false,
          "name": "senderLowestSubmapNumber",
          "type": "uint24"
        },
        {
          "indexed": false,
          "name": "senderHighestSubmapNumber",
          "type": "uint24"
        },
        {
          "indexed": false,
          "name": "receiverLowestSubmapNumber",
          "type": "uint24"
        },
        {
          "indexed": false,
          "name": "receiverHighestSubmapNumber",
          "type": "uint24"
        },
        {
          "indexed": false,
          "name": "senderBitfield",
          "type": "uint256"
        },
        {
          "indexed": false,
          "name": "receiverBitfield",
          "type": "uint256"
        },
        {
          "indexed": false,
          "name": "andedBitField",
          "type": "uint256"
        }
      ],
      "name": "EVT_GetActiveTrustChannelEXBitFieldLength",
      "type": "event"
    },
    {
      "anonymous": false,
      "inputs": [
        {
          "indexed": false,
          "name": "trustAnchorAddress",
          "type": "address"
        },
        {
          "indexed": false,
          "name": "trustAnchorIndex",
          "type": "uint32"
        },
        {
          "indexed": false,
          "name": "bitField",
          "type": "uint256"
        }
      ],
      "name": "EVT_GotBitFieldFromTrustAnchor",
      "type": "event"
    },
    {
      "anonymous": false,
      "inputs": [
        {
          "indexed": false,
          "name": "bitFieldWords",
          "type": "uint32"
        }
      ],
      "name": "EVT_TrustChannelBitFieldWords",
      "type": "event"
    },
    {
      "anonymous": false,
      "inputs": [
        {
          "indexed": false,
          "name": "trustChannelIndex",
          "type": "uint32"
        }
      ],
      "name": "EVT_TrustChannelBitFieldIndex",
      "type": "event"
    },
    {
      "anonymous": false,
      "inputs": [
        {
          "indexed": false,
          "name": "index",
          "type": "uint32"
        },
        {
          "indexed": false,
          "name": "shifter",
          "type": "uint32"
        },
        {
          "indexed": false,
          "name": "trustChannelBitFieldWord",
          "type": "uint32"
        },
        {
          "indexed": false,
          "name": "trustChannelBitField",
          "type": "uint256"
        },
        {
          "indexed": false,
          "name": "trustChannelIndex",
          "type": "uint32"
        }
      ],
      "name": "EVT_TrustChannelBitFieldIndexEXT",
      "type": "event"
    },
    {
      "anonymous": false,
      "inputs": [
        {
          "indexed": false,
          "name": "senderHighestSubmapNumber",
          "type": "uint24"
        },
        {
          "indexed": false,
          "name": "receiverHighestSubmapNumber",
          "type": "uint24"
        }
      ],
      "name": "EVT_GotHighestSubmapNumbers",
      "type": "event"
    },
    {
      "anonymous": false,
      "inputs": [
        {
          "indexed": false,
          "name": "lowestTrustChannelSubmapNumber",
          "type": "uint24"
        },
        {
          "indexed": false,
          "name": "highestTrustChannelSubmapNumber",
          "type": "uint24"
        }
      ],
      "name": "EVT_GotLowestAndHighestTrustChannelSubmapNumber",
      "type": "event"
    },
    {
      "anonymous": false,
      "inputs": [
        {
          "indexed": false,
          "name": "trustChannelIndex",
          "type": "uint32"
        },
        {
          "indexed": false,
          "name": "_senderIdentifiedAddress",
          "type": "address"
        },
        {
          "indexed": false,
          "name": "_receiverIdentifiedAddress",
          "type": "address"
        }
      ],
      "name": "EVT_TrustChannelRouted",
      "type": "event"
    },
    {
      "constant": false,
      "inputs": [
        {
          "name": "_trustAnchorStorageAddress",
          "type": "address"
        }
      ],
      "name": "setTrustAnchorStorageAddress",
      "outputs": [
        {
          "name": "result",
          "type": "uint8"
        }
      ],
      "payable": false,
      "stateMutability": "nonpayable",
      "type": "function"
    },
    {
      "constant": false,
      "inputs": [
        {
          "name": "_trustChannelManagerAddress",
          "type": "address"
        }
      ],
      "name": "setTrustChannelManagerAddress",
      "outputs": [
        {
          "name": "result",
          "type": "uint8"
        }
      ],
      "payable": false,
      "stateMutability": "nonpayable",
      "type": "function"
    },
    {
      "constant": false,
      "inputs": [
        {
          "name": "_identifiedAddress",
          "type": "address"
        }
      ],
      "name": "reconstructCacheGraph",
      "outputs": [
        {
          "name": "result",
          "type": "uint8"
        }
      ],
      "payable": false,
      "stateMutability": "nonpayable",
      "type": "function"
    },
    {
      "constant": false,
      "inputs": [
        {
          "name": "_identifiedAddress",
          "type": "address"
        },
        {
          "name": "_idx",
          "type": "uint16"
        }
      ],
      "name": "compileCacheGraph",
      "outputs": [],
      "payable": false,
      "stateMutability": "nonpayable",
      "type": "function"
    },
    {
      "constant": false,
      "inputs": [
        {
          "name": "trustChannelBitField",
          "type": "uint256"
        }
      ],
      "name": "getTrustChannelSubIndexFromBitField",
      "outputs": [
        {
          "name": "result",
          "type": "uint8"
        }
      ],
      "payable": false,
      "stateMutability": "nonpayable",
      "type": "function"
    },
    {
      "constant": false,
      "inputs": [
        {
          "name": "_senderIdentifiedAddress",
          "type": "address"
        },
        {
          "name": "_receiverIdentifiedAddress",
          "type": "address"
        }
      ],
      "name": "getActiveTrustChannelBitFieldForPair",
      "outputs": [
        {
          "name": "result",
          "type": "uint32"
        }
      ],
      "payable": false,
      "stateMutability": "nonpayable",
      "type": "function"
    }
  ],
  "bytecode": "0x608060405263077cb5316000806101000a81548163ffffffff021916908363ffffffff1602179055506020600560006101000a81548161ffff021916908361ffff1602179055506008600560026101000a81548161ffff021916908361ffff1602179055506000600760006101000a81548173ffffffffffffffffffffffffffffffffffffffff021916908373ffffffffffffffffffffffffffffffffffffffff1602179055506000600860006101000a81548173ffffffffffffffffffffffffffffffffffffffff021916908373ffffffffffffffffffffffffffffffffffffffff1602179055503480156100f457600080fd5b50612648806101046000396000f3006080604052600436106100a4576000357c0100000000000000000000000000000000000000000000000000000000900463ffffffff1680630a361678146100a95780633b23d423146100fc57806345e0972c1461014f578063714573971461017e578063b459b9de146101db578063b460b1a51461022e578063b7b559d914610275578063c62d30dc146102d2578063ce3b94d714610323578063d058df66146103a6575b600080fd5b3480156100b557600080fd5b506100da600480360381019080803563ffffffff169060200190929190505050610403565b604051808263ffffffff1663ffffffff16815260200191505060405180910390f35b34801561010857600080fd5b5061012d600480360381019080803563ffffffff16906020019092919050505061046f565b604051808263ffffffff1663ffffffff16815260200191505060405180910390f35b34801561015b57600080fd5b506101646104d8565b604051808215151515815260200191505060405180910390f35b34801561018a57600080fd5b506101bf600480360381019080803573ffffffffffffffffffffffffffffffffffffffff169060200190929190505050610571565b604051808260ff1660ff16815260200191505060405180910390f35b3480156101e757600080fd5b5061020c600480360381019080803563ffffffff169060200190929190505050610610565b604051808263ffffffff1663ffffffff16815260200191505060405180910390f35b34801561023a57600080fd5b50610259600480360381019080803590602001909291905050506106e2565b604051808260ff1660ff16815260200191505060405180910390f35b34801561028157600080fd5b506102b6600480360381019080803573ffffffffffffffffffffffffffffffffffffffff16906020019092919050505061088f565b604051808260ff1660ff16815260200191505060405180910390f35b3480156102de57600080fd5b50610321600480360381019080803573ffffffffffffffffffffffffffffffffffffffff169060200190929190803561ffff169060200190929190505050610aa7565b005b34801561032f57600080fd5b50610384600480360381019080803573ffffffffffffffffffffffffffffffffffffffff169060200190929190803573ffffffffffffffffffffffffffffffffffffffff1690602001909291905050506112c5565b604051808263ffffffff1663ffffffff16815260200191505060405180910390f35b3480156103b257600080fd5b506103e7600480360381019080803573ffffffffffffffffffffffffffffffffffffffff169060200190929190505050611943565b604051808260ff1660ff16815260200191505060405180910390f35b6000635555555560018363ffffffff169060020a90041682039150633333333360028363ffffffff169060020a9004166333333333831601915060186301010101630f0f0f0f60048563ffffffff169060020a90048501160263ffffffff169060020a90049050919050565b600081600003821691506000809054906101000a900463ffffffff1682029150601b8263ffffffff169060020a9004915060018263ffffffff166020811015156104b557fe5b600891828204019190066004029054906101000a900463ffffffff169050919050565b600080600090505b60208160ff161015610569578060ff166001601b8360ff166000809054906101000a900463ffffffff1663ffffffff169060020a0263ffffffff169060020a900463ffffffff1660208110151561053357fe5b600891828204019190066004026101000a81548163ffffffff021916908363ffffffff16021790555080806001019150506104e0565b600191505090565b600061057b6119e2565b1561060657600073ffffffffffffffffffffffffffffffffffffffff168273ffffffffffffffffffffffffffffffffffffffff16141515156105bc57600080fd5b81600760006101000a81548173ffffffffffffffffffffffffffffffffffffffff021916908373ffffffffffffffffffffffffffffffffffffffff1602179055506001905061060b565b600090505b919050565b6000635555555560018363ffffffff169060020a90041660016355555555841663ffffffff169060020a02179150633333333360028363ffffffff169060020a90041660026333333333841663ffffffff169060020a02179150630f0f0f0f60048363ffffffff169060020a9004166004630f0f0f0f841663ffffffff169060020a0217915060188263ffffffff169060020a02600861ff00841663ffffffff169060020a0261ff0060088563ffffffff169060020a90041660188563ffffffff169060020a90041717179050919050565b600080600080600080600063ffffffff955085881693507f3ad02d4cc2da46ae2d04fec4fb9c292715bbdd9a8d76b6eb3bc5ba165d7efcd084604051808263ffffffff1663ffffffff16815260200191505060405180910390a160008463ffffffff1614151561079c576107558461046f565b94507fd2b9662e76f66bcc5970a866051d4e87fc54d83d29ca786772e5cdf20dd718ef85604051808260ff1663ffffffff16815260200191505060405180910390a1610881565b600690505b60008160ff16101515610880578060070360200291508160ff168260ff16879060020a0289169060020a9004925060008363ffffffff16141515610872578160ff166107ec8461046f565b0194507f7da1a9ffbed2f72b97b5f596ff969a8f5b6d4da411183a6b7511455b83278f438183858b89604051808660ff1663ffffffff1681526020018560ff1663ffffffff1681526020018463ffffffff1663ffffffff1681526020018381526020018260ff1663ffffffff1681526020019550505050505060405180910390a1610880565b8080600190039150506107a1565b5b849650505050505050919050565b600080600080600080600080600760009054906101000a900473ffffffffffffffffffffffffffffffffffffffff1696508673ffffffffffffffffffffffffffffffffffffffff16637fd463ca8a6040518263ffffffff167c0100000000000000000000000000000000000000000000000000000000028152600401808273ffffffffffffffffffffffffffffffffffffffff1673ffffffffffffffffffffffffffffffffffffffff168152602001915050602060405180830381600087803b15801561095b57600080fd5b505af115801561096f573d6000803e3d6000fd5b505050506040513d602081101561098557600080fd5b810190808051906020019092919050505095506101008661ffff1611156109ac5761010095505b600660008a73ffffffffffffffffffffffffffffffffffffffff1673ffffffffffffffffffffffffffffffffffffffff1681526020019081526020016000206001016001018054905094508561ffff168561ffff16141515610a96578486039250600560009054906101000a900461ffff1661ffff168361ffff16101515610a4657600560009054906101000a900461ffff169250600193505b600091505b8261ffff168261ffff161015610a77578185019050610a6a8982610aa7565b8180600101925050610a4b565b600015158415151415610a8d5760029750610a9b565b60019750610a9b565b600097505b50505050505050919050565b600080600080600080600080600760009054906101000a900473ffffffffffffffffffffffffffffffffffffffff1697508773ffffffffffffffffffffffffffffffffffffffff1663589044638b8b6040518363ffffffff167c0100000000000000000000000000000000000000000000000000000000028152600401808373ffffffffffffffffffffffffffffffffffffffff1673ffffffffffffffffffffffffffffffffffffffff1681526020018260ff1661ffff16815260200192505050608060405180830381600087803b158015610b8257600080fd5b505af1158015610b96573d6000803e3d6000fd5b505050506040513d6080811015610bac57600080fd5b8101908080519060200190929190805190602001909291908051906020019092919080519060200190929190505050809750819850829950839a5050505050600660008b73ffffffffffffffffffffffffffffffffffffffff1673ffffffffffffffffffffffffffffffffffffffff1681526020019081526020016000206001019250600015158360000160009054906101000a900460ff1615151415610cd35760018360000160006101000a81548160ff02191690831515021790555062ffffff83600e0160006101000a81548162ffffff021916908362ffffff16021790555082600e0160039054906101000a90505062ffffff83600e0160066101000a81548162ffffff021916908362ffffff16021790555082600e0160099054906101000a9050505b6001151583600a0160008b61ffff1661ffff16815260200190815260200160002060009054906101000a900460ff1615151415610e55576000151583600b0160008b61ffff1661ffff16815260200190815260200160002060009054906101000a900460ff161515148015610d4c575060011515841515145b15610dae578260060160008763ffffffff1663ffffffff168152602001908152602001600020600081819054906101000a900461ffff168092919060010191906101000a81548161ffff021916908361ffff1602179055505060019150610e50565b6001151583600b0160008b61ffff1661ffff16815260200190815260200160002060009054906101000a900460ff161515148015610df0575060001515841515145b15610e4f578260060160008763ffffffff1663ffffffff168152602001908152602001600020600081819054906101000a900461ffff16809291906001900391906101000a81548161ffff021916908361ffff16021790555050600191505b5b6110bd565b60008360060160008863ffffffff1663ffffffff16815260200190815260200160002060009054906101000a900461ffff1661ffff161415610ed35762ffffff8360080160008863ffffffff1663ffffffff16815260200190815260200160002060006101000a81548162ffffff021916908362ffffff1602179055505b8260060160008763ffffffff1663ffffffff168152602001908152602001600020600081819054906101000a900461ffff168092919060010191906101000a81548161ffff021916908361ffff16021790555050600115158360030160008863ffffffff1663ffffffff16815260200190815260200160002060009054906101000a900460ff1615151415610f6757610fa2565b60018360030160008863ffffffff1663ffffffff16815260200190815260200160002060006101000a81548160ff0219169083151502179055505b60008360040160009054906101000a900461ffff1661ffff16141561100957858360040160026101000a81548163ffffffff021916908363ffffffff16021790555060018360040160006101000a81548161ffff021916908361ffff16021790555061105e565b858360020160008560040160069054906101000a900463ffffffff1663ffffffff1663ffffffff16815260200190815260200160002060006101000a81548163ffffffff021916908363ffffffff1602179055505b82600401600081819054906101000a900461ffff168092919060010191906101000a81548161ffff021916908361ffff16021790555050858360040160066101000a81548163ffffffff021916908363ffffffff160217905550600191505b60011515821515141561128457831561123b5760028873ffffffffffffffffffffffffffffffffffffffff16632192ca128c8c6040518363ffffffff167c0100000000000000000000000000000000000000000000000000000000028152600401808373ffffffffffffffffffffffffffffffffffffffff1673ffffffffffffffffffffffffffffffffffffffff1681526020018260ff1661ffff16815260200192505050602060405180830381600087803b15801561117c57600080fd5b505af1158015611190573d6000803e3d6000fd5b505050506040513d60208110156111a657600080fd5b810190808051906020019092919050505060ff161490506000151583600a0160008b61ffff1661ffff16815260200190815260200160002060009054906101000a900460ff161515141561123657600183600a0160008b61ffff1661ffff16815260200190815260200160002060006101000a81548160ff0219169083151502179055506112358a8883611a4b565b5b611283565b6001151583600a0160008b61ffff1661ffff16815260200190815260200160002060009054906101000a900460ff16151514156112815761127c8a876121c5565b611282565b5b5b5b8383600b0160008b61ffff1661ffff16815260200190815260200160002060006101000a81548160ff02191690831515021790555050505050505050505050565b600080600080600080600080600080600080600660008f73ffffffffffffffffffffffffffffffffffffffff1673ffffffffffffffffffffffffffffffffffffffff1681526020019081526020016000206001019a50600660008e73ffffffffffffffffffffffffffffffffffffffff1673ffffffffffffffffffffffffffffffffffffffff16815260200190815260200160002060010199508a600e0160009054906101000a900462ffffff1698508a600e0160039054906101000a900462ffffff16975089600e0160009054906101000a900462ffffff16965089600e0160039054906101000a900462ffffff1695507f07f6275d7dad831e42f6e758316b90cee393648ec62ae7ef9f56ab3ae15d24048887604051808362ffffff1662ffffff1681526020018262ffffff1662ffffff1681526020019250505060405180910390a160008862ffffff161480611423575060008662ffffff16145b1561164a578a600c0160008062ffffff16815260200190815260200160002054945089600c0160008062ffffff16815260200190815260200160002054851694507ffb2dc8d9c038dd0cda789c32872529ac904dcbcf76974751196f06574d5acde78b600e0160009054906101000a900462ffffff168c600e0160039054906101000a900462ffffff168c600e0160009054906101000a900462ffffff168d600e0160039054906101000a900462ffffff168f600c0160008062ffffff168152602001908152602001600020548f600c0160008062ffffff168152602001908152602001600020548b604051808862ffffff1662ffffff1681526020018762ffffff1662ffffff1681526020018662ffffff1662ffffff1681526020018562ffffff1662ffffff16815260200184815260200183815260200182815260200197505050505050505060405180910390a160008514151561163e57611586856106e2565b60ff1693507fd8bb054501cc3c8cc10a1f81a4238e6cbd2a627b470772755b256bf4626cddd6848f8f604051808463ffffffff1663ffffffff1681526020018373ffffffffffffffffffffffffffffffffffffffff1673ffffffffffffffffffffffffffffffffffffffff1681526020018273ffffffffffffffffffffffffffffffffffffffff1673ffffffffffffffffffffffffffffffffffffffff168152602001935050505060405180910390a1839b50611932565b63ffffffff9b50611932565b8892508791508262ffffff168762ffffff161015611666578692505b8162ffffff168662ffffff16111561167c578591505b7f8dae684b55df29d392637831aa4c43de04e31a51e4cdbaf80f6c9bc5e4824a9a8383604051808362ffffff1662ffffff1681526020018262ffffff1662ffffff1681526020019250505060405180910390a18290505b6001820162ffffff168162ffffff16101561192a578a600c0160008262ffffff1662ffffff16815260200190815260200160002054945089600c0160008262ffffff1662ffffff16815260200190815260200160002054851694507ffb2dc8d9c038dd0cda789c32872529ac904dcbcf76974751196f06574d5acde78b600e0160009054906101000a900462ffffff168c600e0160039054906101000a900462ffffff168c600e0160009054906101000a900462ffffff168d600e0160039054906101000a900462ffffff168f600c0160008762ffffff1662ffffff168152602001908152602001600020548f600c0160008862ffffff1662ffffff168152602001908152602001600020548b604051808862ffffff1662ffffff1681526020018762ffffff1662ffffff1681526020018662ffffff1662ffffff1681526020018562ffffff1662ffffff16815260200184815260200183815260200182815260200197505050505050505060405180910390a160008514151561191d57610100810261185f866106e2565b60ff160162ffffff1693507fd8bb054501cc3c8cc10a1f81a4238e6cbd2a627b470772755b256bf4626cddd6848f8f604051808463ffffffff1663ffffffff1681526020018373ffffffffffffffffffffffffffffffffffffffff1673ffffffffffffffffffffffffffffffffffffffff1681526020018273ffffffffffffffffffffffffffffffffffffffff1673ffffffffffffffffffffffffffffffffffffffff168152602001935050505060405180910390a1839b50611932565b80806001019150506116d3565b63ffffffff9b505b505050505050505050505092915050565b600061194d6119e2565b156119d857600073ffffffffffffffffffffffffffffffffffffffff168273ffffffffffffffffffffffffffffffffffffffff161415151561198e57600080fd5b81600860006101000a81548173ffffffffffffffffffffffffffffffffffffffff021916908373ffffffffffffffffffffffffffffffffffffffff160217905550600190506119dd565b600090505b919050565b6000600960009054906101000a900473ffffffffffffffffffffffffffffffffffffffff1673ffffffffffffffffffffffffffffffffffffffff163373ffffffffffffffffffffffffffffffffffffffff161415611a435760019050611a48565b600090505b90565b6000806000806000806000806000600760009054906101000a900473ffffffffffffffffffffffffffffffffffffffff169850600860009054906101000a900473ffffffffffffffffffffffffffffffffffffffff1697508873ffffffffffffffffffffffffffffffffffffffff1663b7500ac38c6040518263ffffffff167c0100000000000000000000000000000000000000000000000000000000028152600401808260001916600019168152602001915050602060405180830381600087803b158015611b1a57600080fd5b505af1158015611b2e573d6000803e3d6000fd5b505050506040513d6020811015611b4457600080fd5b810190808051906020019092919050505096508873ffffffffffffffffffffffffffffffffffffffff16633816d0328c6040518263ffffffff167c0100000000000000000000000000000000000000000000000000000000028152600401808260001916600019168152602001915050602060405180830381600087803b158015611bce57600080fd5b505af1158015611be2573d6000803e3d6000fd5b505050506040513d6020811015611bf857600080fd5b810190808051906020019092919050505095508773ffffffffffffffffffffffffffffffffffffffff166335544bcd876040518263ffffffff167c0100000000000000000000000000000000000000000000000000000000028152600401808263ffffffff1663ffffffff168152602001915050602060405180830381600087803b158015611c8657600080fd5b505af1158015611c9a573d6000803e3d6000fd5b505050506040513d6020811015611cb057600080fd5b810190808051906020019092919050505094508773ffffffffffffffffffffffffffffffffffffffff1663d086c0ae876040518263ffffffff167c0100000000000000000000000000000000000000000000000000000000028152600401808263ffffffff1663ffffffff168152602001915050602060405180830381600087803b158015611d3e57600080fd5b505af1158015611d52573d6000803e3d6000fd5b505050506040513d6020811015611d6857600080fd5b81019080805190602001909291905050509350600660008d73ffffffffffffffffffffffffffffffffffffffff1673ffffffffffffffffffffffffffffffffffffffff1681526020019081526020016000206001019250600560029054906101000a900461ffff1661ffff1685850362ffffff161115611dfc57600560029054906101000a900461ffff1661ffff16850193505b8490505b6001840162ffffff168162ffffff1610156121b7578773ffffffffffffffffffffffffffffffffffffffff1663dbdd977287836040518363ffffffff167c0100000000000000000000000000000000000000000000000000000000028152600401808363ffffffff1663ffffffff1681526020018262ffffff1662ffffff16815260200192505050602060405180830381600087803b158015611ea257600080fd5b505af1158015611eb6573d6000803e3d6000fd5b505050506040513d6020811015611ecc57600080fd5b810190808051906020019092919050505091506000821415156121aa578062ffffff168360080160008863ffffffff1663ffffffff16815260200190815260200160002060009054906101000a900462ffffff1662ffffff161115611f6a57808360080160008863ffffffff1663ffffffff16815260200190815260200160002060006101000a81548162ffffff021916908362ffffff1602179055505b8062ffffff168360090160008863ffffffff1663ffffffff16815260200190815260200160002060009054906101000a900462ffffff1662ffffff161115611feb57808360090160008863ffffffff1663ffffffff16815260200190815260200160002060006101000a81548162ffffff021916908362ffffff1602179055505b818360070160008863ffffffff1663ffffffff16815260200190815260200160002060008362ffffff1662ffffff168152602001908152602001600020819055508183600c0160008362ffffff1662ffffff168152602001908152602001600020600082825417925050819055508462ffffff1683600e0160009054906101000a900462ffffff1662ffffff1611156120a0578483600e0160006101000a81548162ffffff021916908362ffffff1602179055505b8362ffffff1683600e0160039054906101000a900462ffffff1662ffffff1610156120e7578383600e0160036101000a81548162ffffff021916908362ffffff1602179055505b89156121a9578183600d0160008362ffffff1662ffffff168152602001908152602001600020600082825417925050819055508462ffffff1683600e0160069054906101000a900462ffffff1662ffffff161115612161578483600e0160066101000a81548162ffffff021916908362ffffff1602179055505b8362ffffff1683600e0160099054906101000a900462ffffff1662ffffff1610156121a8578383600e0160096101000a81548162ffffff021916908362ffffff1602179055505b5b5b8080600101915050611e00565b505050505050505050505050565b600080600080600080600080600660008b73ffffffffffffffffffffffffffffffffffffffff1673ffffffffffffffffffffffffffffffffffffffff168152602001908152602001600020600101975060008860060160008b63ffffffff1663ffffffff16815260200190815260200160002060009054906101000a900461ffff1661ffff16141561260f578760080160008a63ffffffff1663ffffffff16815260200190815260200160002060009054906101000a900462ffffff1692505b60001515841515141561260a578760070160008a63ffffffff1663ffffffff16815260200190815260200160002060008462ffffff1662ffffff16815260200190815260200160002054965060008714156122df576125ad565b8760040160029054906101000a900463ffffffff169150600090505b8760040160009054906101000a900461ffff1661ffff168161ffff161015612503578863ffffffff168263ffffffff161415156124f5578760070160008363ffffffff1663ffffffff16815260200190815260200160002060008462ffffff1662ffffff16815260200190815260200160002054861795508863ffffffff168860020160008463ffffffff1663ffffffff16815260200190815260200160002060009054906101000a900463ffffffff1663ffffffff1614156124bc576001810361ffff168860040160009054906101000a900461ffff1661ffff16141561240557818860040160066101000a81548163ffffffff021916908363ffffffff160217905550612477565b8760020160008a63ffffffff1663ffffffff16815260200190815260200160002060009054906101000a900463ffffffff168860020160008463ffffffff1663ffffffff16815260200190815260200160002060006101000a81548163ffffffff021916908363ffffffff1602179055505b63ffffffff8860020160008b63ffffffff1663ffffffff16815260200190815260200160002060006101000a81548163ffffffff021916908363ffffffff1602179055505b8760020160008363ffffffff1663ffffffff16815260200190815260200160002060009054906101000a900463ffffffff1691506124f6565b5b80806001019150506122fb565b87600401600081819054906101000a900461ffff16809291906001900391906101000a81548161ffff021916908361ffff1602179055505086861687181994506000851415612551576125ac565b8488600c0160008562ffffff1662ffffff168152602001908152602001600020600082825416925050819055508488600d0160008562ffffff1662ffffff168152602001908152602001600020600082825416925050819055505b5b82806001019350508760090160008a63ffffffff1663ffffffff16815260200190815260200160002060009054906101000a900462ffffff1662ffffff168362ffffff1611156126005760019350612605565b612285565b612285565b612610565b5b505050505050505050505600a165627a7a7230582044708a1a6a43dac788d7efe563ba0bc07275ee7f2762aef43c1358a13b11f97e0029",
  "source": "pragma solidity ^0.4.19;\n\nimport \"./Interfaces/ITrustChannelManager.sol\";\nimport \"./Interfaces/ITrustAnchorStorage.sol\";\nimport \"./Interfaces/IShyftCacheGraph.sol\";\n\nimport \"./DebroujinBitUtils.sol\";\n\n/* ShyftCacheGraph.sol\n\n    further ideas for parallelization:\n\n    ex: 20 bits\n    if there were 5 parameters say\n    and the debroujin indexes were still the best way to find the items\n    but you wanted a specific set of searches (active, consented, biometric, insured,\n    reputation boundary condition reached)\n\n    01000011000100001000\n\n    bound. insur. biome. conse. active\n    0100 | 0011 | 0001 | 0110 | 1101\n\n    whatever the final result would be of the cache graph in this sense, the 256 bit word would only contain information\n    about the # trust channels / # of parameters. ie. 4 parameters and 256 / 4 = 64 trust channels.\n\n    obviously, the debroujin index would want to be a 64 bit version in that case.\n\n    in any case, assuming active is required, all of the bits are then AND'd with a repeating version of\n\n    1101 | 1101 | 1101 | 1101 | 1101\n  & 0100 | 0011 | 0001 | 0110 | 1101\n    --------------------------------\n  = 0100 | 0001 | 0001 | 0100 | 1101\n\n  the combined \"active and consented\" is within the (lower endian system) 6th index.\n\n  accounts would both do this procedure with their existing mappings depending on the parameters to be searched, what\n  the submap range tolerance would be (if any) for the combinations, and then the comparison would happen within a slice\n  of that data range.\n\n\n  this system would probably be the fastest equivalent of \"look up the parameters at runtime and also be able to\n  change the parameters without needing to revoke and recompile\".\n\n  not sure what the actual cost would look like however.\n\n*/\n\ncontract ShyftCacheGraph is DebroujinBitUtils, IShyftCacheGraph {\n    event EVT_UpdatingCacheGraph(address _identifiedAddress,\n        uint16 updateLength,\n        uint16 oldAttestationKeccakArrayLength,\n        uint16 attestationKeccakArrayLength);\n    event EVT_DoCompileCacheGraph(address _identifiedAddress,\n        uint32 i,\n        uint16 idx);\n    event EVT_DoConditionallyRemoveTrustChannelEXBitFields(address _identifiedAddress,\n        uint32 trustAnchorIndex,\n        bytes32 keccakHash);\n    event EVT_GotAttestationStatus(address _identifiedAddress,\n        bool attestationStatusApproved,\n        bool didChangeApprovedStatus,\n        uint16 attestationIndex,\n        bool attestationHasAlreadyBeenProcessed);\n    event EVT_CompareTime(uint256 _effectiveTime,\n        uint256 blockTimestamp,\n        uint256 _expiryTime,\n        bool isActive);\n    event EVT_DoCompileCacheGraphTrustChannelEXBitFields(address _identifiedAddress,\n        bytes32 keccakHash,\n        bool consentAvailable);\n    event EVT_GetActiveTrustChannelEXBitFieldLength(\n        uint24 senderLowestSubmapNumber,\n        uint24 senderHighestSubmapNumber,\n        uint24 receiverLowestSubmapNumber,\n        uint24 receiverHighestSubmapNumber,\n        uint256 senderBitfield,\n        uint256 receiverBitfield,\n        uint256 andedBitField);\n    event EVT_GotBitFieldFromTrustAnchor(address trustAnchorAddress,\n        uint32 trustAnchorIndex,\n        uint256 bitField);\n\n    event EVT_TrustChannelBitFieldWords(uint32 bitFieldWords);\n    event EVT_TrustChannelBitFieldIndex(uint32 trustChannelIndex);\n    event EVT_TrustChannelBitFieldIndexEXT(uint32 index,\n        uint32 shifter,\n        uint32 trustChannelBitFieldWord,\n        uint256 trustChannelBitField,\n        uint32 trustChannelIndex);\n\n    event EVT_GotHighestSubmapNumbers(uint24 senderHighestSubmapNumber,\n        uint24 receiverHighestSubmapNumber);\n\n    event EVT_GotLowestAndHighestTrustChannelSubmapNumber(uint24 lowestTrustChannelSubmapNumber,\n        uint24 highestTrustChannelSubmapNumber);\n\n    event EVT_TrustChannelRouted(uint32 trustChannelIndex,\n        address _senderIdentifiedAddress,\n        address _receiverIdentifiedAddress);\n\n    enum CacheGraphStatus { Unknown, Enabled, Dirty, Disabled }\n\n//    struct cacheGraphTrustAnchorListItem {\n//        uint16 trustAnchorIndex;\n//        //@note: forward linked list.\n//        address nextLink;\n//    }\n//\n    struct kycCacheGraph {\n        bool exists;\n\n        CacheGraphStatus graphStatus;\n        //a list of the keccak hashes that correspond to lookups within the main Trust Anchor Reference contract.\n        bytes32[] attestationKeccakArray;\n\n        //array to next link in the trust anchors linked list. items are added based on the trust anchor index.\n        mapping(uint32 => uint32) allTrustAnchorsThatHaveAttestedNextLinkMapping;\n\n        //mapping for checks of whether the trust anchor previously existing for this identifiedAddress.\n        mapping(uint32 => bool) allTrustAnchorIndexExistsMapping;\n\n        //@note: I'm using underscores because I want to have easily readability when the camel case variable names get\n        // this long.\n        uint16 currentTrustAnchorsLinkedList_length;\n        uint32 currentTrustAnchorLinkedList_zeldaIndex;\n        uint32 currentTrustAnchorLinkedList_finalIndex;\n\n        address[] allTrustAnchorsThatHaveAttested;\n\n        mapping(uint32 => uint16) trustAnchorIndexToCountMap;\n//        mapping(uint32 => mapping(uint32 => uint256)) trustAnchorEXBitField;\n\n        mapping(uint32 => mapping(uint24 => uint256)) trustAnchorTrustChannelIndexEXBitField;\n        mapping(uint32 => uint24) trustAnchorTrustChannelIndexEXBitFieldLowestSubmapNumber;\n        mapping(uint32 => uint24) trustAnchorTrustChannelIndexEXBitFieldHighestSubmapNumber;\n\n        //@note: for compilation processes.\n        mapping(uint16 => bool) attestationHasAlreadyBeenProcessed;\n        mapping(uint16 => bool) attestationPreviousApprovedStatus;\n\n        //@note: these are too heavy for processing at the moment. another solution is found with the EX bit fields.\n        //filters via keccak hash. *can be dirty*\n\n        //attestation jurisdictions.\n//        mapping(bytes32 => uint16) attestationJurisdictionMap;\n//        mapping(bytes32 => bytes32) attestationStatusActiveMap;\n//        mapping(bytes32 => bytes32) attestationStatusRevokedMap;\n//        mapping(bytes32 => address) attestationTrustAnchorAddressMap;\n//        mapping(bytes32 => bytes32) attestationTrustAnchorKeccakMap;\n\n        //bit fields for documents. *can be dirty*\n        // @note: hasJurisdictionBits is the bit field that contains whether the *indexable attestation space*\n        // contains an attestation at this address\n//        uint256 hasJurisdictionBits;\n//        uint256 activeBits;\n//        uint256 pendingBits;\n//        uint256 expiredBits;\n//        uint256 revokedBits;\n//        uint256 documentAvailabilityBits;\n\n        //note: these two bit fields record the active/active+consented status of that jurisdiction as the bit\n        //index, for comparison across trust channels.\n\n//        uint256 active_jurisdictionBits;\n//        uint256 active_consented_jurisdictionBits;\n\n//        mapping(uint16 => bytes32[]) activeJurisdictionAttestationArray;\n//        mapping(uint16 => bytes32[]) activeConsentedJurisdictionAttestationArray;\n\n\n        //extended bit fields (each 256-bit uint256 in the array is an index of 256 trust channels),\n        //we use DebroujinBitUtils later on to do calculations and quick searches of this bit field.\n        mapping(uint24 => uint256) activeTrustChannelEXBitField;\n        mapping(uint24 => uint256) activeConsentedTrustChannelEXBitField;\n\n        //we store the highest index as well for further quick calculations\n\n        uint24 activeTrustChannelLowestSubmapNumber;\n        uint24 activeTrustChannelHighestSubmapNumber;\n\n        uint24 activeConsentedTrustChannelLowestSubmapNumber;\n        uint24 activeConsentedTrustChannelHighestSubmapNumber;\n\n        //bit fields for signature status. *can be dirty*\n//        uint256 attestationValidityTrustAnchorSignatureAvailabilityBits;\n//        uint256 attestationValidityUserSignatureAvailabilityBits;\n\n        //maps out \"material changes\"\n//        uint256 materialChangeBitField;\n\n        //this is a bitwise or filter across all of the documents that are attested to this address.\n        //it enables the quick detection of whether an address contains the specific documents.\n//        bytes32 allDocumentsBitwiseOrFilter;\n//        bytes32 activeDocumentsBitwiseOrFilter;\n\n        //[@phase3] adds support for trust channels, where users can add multiple trust anchors and\n        //run aggregator functions to prove their access to other institutions in collaborating\n        //channels. 256 * 8 trust channels = 2048 total trust channels in map, probably a few bytes\n        //reserved for auxiliary purposes.\n//        bytes32[8] trustChannelMap;\n\n        //[@phase3] add support for constructing the local view of the kyc level through disclosure of previous\n        //activities on this trust channel.\n        int8 constructedLocalKycLevel;\n    }\n\n    struct kycIdentity {\n        // the kyc address keccak which is the hash of the corresponding look up table of the identity cache graph component of this struct.\n        bytes32 kycIdentityKeccak;\n        kycCacheGraph cacheGraph;\n    }\n\n    //@note: this comes into play when performing the cachegraph reconstruction phases.\n    uint16 maxAttestationProcessingLimit = 32;\n\n    //@note: this is the highest trust channel index (in this case a submap of such, each submap representing 256 trust channels) that\n    // can be mapped, based on the lowest submap returned from the trust channel manager.\n    uint16 maxNumberOfTrustChannelSubmapCompares = 8;\n\n    uint32 constant NoTrustChannel = 2 ** 32 - 1;\n\n    mapping(address => kycIdentity) identifiedAddress_to_kycIdentity;\n\n    address internal trustAnchorStorageAddress = address(0);\n    address internal trustChannelManagerAddress = address(0);\n\n    address owner;\n\n    //returns:\n    // false = not owner\n    // true = is owner\n\n    //@note:@todo:@next:@audit: should this contract have \"Administrable\" style multisig involved for the setting\n    // of the contract relationships?\n\n    function isOwner() internal view returns (bool result) {\n        if (msg.sender == owner) {\n            //is owner\n            return true;\n        } else {\n            //not owner\n            return false;\n        }\n    }\n\n    //returns:\n    // 0 = not owner\n    // 1 = set trustAnchorStorage\n\n    function setTrustAnchorStorageAddress(address _trustAnchorStorageAddress) public returns (uint8 result) {\n        if (isOwner()) {\n            require(_trustAnchorStorageAddress != address(0));\n\n            //@note:@todo:@next:@audit: what happens to the existing attestations when we change these relationships?\n            // example: 1) should they all be revoked?\n            //  or 2) should all of their consent be revoked?\n            //  etc.\n            trustAnchorStorageAddress = _trustAnchorStorageAddress;\n\n            //set trustAnchorStorageAddress\n            return 1;\n        } else {\n            //not owner\n            return 0;\n        }\n    }\n\n    //returns:\n    // 0 = not owner\n    // 1 = set trustChannelManagerAddress\n\n    function setTrustChannelManagerAddress(address _trustChannelManagerAddress) public returns (uint8 result) {\n        if (isOwner()) {\n            require(_trustChannelManagerAddress != address(0));\n\n            //@note:@todo:@next:@audit: what happens to the existing attestations when we change these relationships?\n            // example: 1) should they all be revoked?\n            //  or 2) should all of their consent be revoked?\n            //  etc.\n            trustChannelManagerAddress = _trustChannelManagerAddress;\n\n            //set trustChannelManagerAddress\n            return 1;\n        } else {\n            //not owner\n            return 0;\n        }\n    }\n\n    //@note:@safety: the worst that can happen is that a user clears their own\n    // cache graph and it's marked dirty.\n\n    //     function flashDeleteCacheGraph(address _identifiedAddress) internal {\n    //         if (msg.sender == _identifiedAddress) {\n    //             for (uint8 i = 0; i < identifiedAddress_to_kycIdentity[_identifiedAddress].cacheGraph.attestationKeccakArray.length; i++) {\n    //                 delete identifiedAddress_to_kycIdentity[_identifiedAddress].cacheGraph.attestationJurisdictionMap[identifiedAddress_to_kycIdentity[_identifiedAddress].cacheGraph.attestationKeccakArray[i]];\n    //                 delete identifiedAddress_to_kycIdentity[_identifiedAddress].cacheGraph.attestationStatusActiveMap[identifiedAddress_to_kycIdentity[_identifiedAddress].cacheGraph.attestationKeccakArray[i]];\n    //                 delete identifiedAddress_to_kycIdentity[_identifiedAddress].cacheGraph.attestationStatusRevokedMap[identifiedAddress_to_kycIdentity[_identifiedAddress].cacheGraph.attestationKeccakArray[i]];\n    //                 delete identifiedAddress_to_kycIdentity[_identifiedAddress].cacheGraph.attestationTrustAnchorAddressMap[identifiedAddress_to_kycIdentity[_identifiedAddress].cacheGraph.attestationKeccakArray[i]];\n    //                 delete identifiedAddress_to_kycIdentity[_identifiedAddress].cacheGraph.attestationTrustAnchorKeccakMap[identifiedAddress_to_kycIdentity[_identifiedAddress].cacheGraph.attestationKeccakArray[i]];\n    //             }\n\n    //             delete identifiedAddress_to_kycIdentity[_identifiedAddress].cacheGraph.attestationKeccakArray;\n\n    //             delete identifiedAddress_to_kycIdentity[_identifiedAddress].cacheGraph.hasJurisdictionBits;\n    //             delete identifiedAddress_to_kycIdentity[_identifiedAddress].cacheGraph.activeBits;\n    //             delete identifiedAddress_to_kycIdentity[_identifiedAddress].cacheGraph.pendingBits;\n    //             delete identifiedAddress_to_kycIdentity[_identifiedAddress].cacheGraph.expiredBits;\n    //             delete identifiedAddress_to_kycIdentity[_identifiedAddress].cacheGraph.revokedBits;\n    //             delete identifiedAddress_to_kycIdentity[_identifiedAddress].cacheGraph.documentAvailabilityBits;\n\n    //             delete identifiedAddress_to_kycIdentity[_identifiedAddress].cacheGraph.active_jurisdictionBits;\n    //             delete identifiedAddress_to_kycIdentity[_identifiedAddress].cacheGraph.active_consented_jurisdictionBits;\n\n    //             //@note:@todo:@here: iterate through jurisdictions and clear mapping?\n    //             //delete identifiedAddress_to_kycIdentity[_identifiedAddress].cacheGraph.jurisdictionAttestationArray;\n\n    //             //activeTrustChannelEXBitField\n\n    //             delete identifiedAddress_to_kycIdentity[_identifiedAddress].cacheGraph.attestationValidityTrustAnchorSignatureAvailabilityBits;\n    //             delete identifiedAddress_to_kycIdentity[_identifiedAddress].cacheGraph.attestationValidityUserSignatureAvailabilityBits;\n\n    //             delete identifiedAddress_to_kycIdentity[_identifiedAddress].cacheGraph.materialChangeBitField;\n\n    //             delete identifiedAddress_to_kycIdentity[_identifiedAddress].cacheGraph.allDocumentsBitwiseOrFilter;\n    //             delete identifiedAddress_to_kycIdentity[_identifiedAddress].cacheGraph.activeDocumentsBitwiseOrFilter;\n\n    //             delete identifiedAddress_to_kycIdentity[_identifiedAddress].cacheGraph.trustChannelMap;\n\n    //             delete identifiedAddress_to_kycIdentity[_identifiedAddress].cacheGraph.constructedLocalKycLevel;\n\n    //             identifiedAddress_to_kycIdentity[_identifiedAddress].cacheGraph.graphStatus = CacheGraphStatus.Dirty;\n    //         }\n    //     }\n\n    //returns:\n    // 0 = no updates needed\n    // 1 = compilation needs to be complete\n    // 2 = recompiled hash graph\n\n    function reconstructCacheGraph(address _identifiedAddress) public returns (uint8 result) {\n        ITrustAnchorStorage trustAnchorStorage = ITrustAnchorStorage(trustAnchorStorageAddress);\n\n        // bytes32[] storage attestationKeccakArray = trustAnchorStorage.identifiedAddress_to_attestationKeccakArray(_identifiedAddress);\n        // bytes32[] storage attestationKeccakArray = trustAnchorStorage.getAttestationKeccakArrayForIdentifiedAddress(_identifiedAddress);\n\n        uint16 attestationKeccakArrayLength = trustAnchorStorage.getAttestationKeccakArrayLengthForIdentifiedAddress(_identifiedAddress);\n\n        //@note: 256 bit bitfield max\n        if (attestationKeccakArrayLength > 2<<8 - 1) {\n            attestationKeccakArrayLength = 2<<8 - 1;\n        }\n\n        uint16 oldAttestationKeccakArrayLength = uint16(identifiedAddress_to_kycIdentity[_identifiedAddress].cacheGraph.attestationKeccakArray.length);\n\n\n        //@note:@here:@todo: I'm pretty sure this should be set to a linked list to be able to look through dirty attestations.\n\n        //check if it is required to append to the entire\n        //@note: currently will not update (pending, active, expired, revoked) statuses.\n        if (oldAttestationKeccakArrayLength != attestationKeccakArrayLength) {\n            //@note: @here: @todo: do progressive testing to see how this functions.\n            //changing this will make the hardcoded uintX values potentially incorrect.\n            bool requiresFurtherReconstruction;\n\n            //for the update here, since they are sequential attestations, the calculation is easy.\n            uint16 updateLength = uint16(attestationKeccakArrayLength - oldAttestationKeccakArrayLength);\n\n            if (updateLength >= maxAttestationProcessingLimit) {\n                updateLength = maxAttestationProcessingLimit;\n                requiresFurtherReconstruction = true;\n            }\n\n//            EVT_UpdatingCacheGraph(_identifiedAddress, updateLength, oldAttestationKeccakArrayLength, attestationKeccakArrayLength);\n\n            //@note: @here: @todo: check if a limit is necessary here. max inclusions should be explicitly guarded against.\n            for (uint16 i = 0; i < updateLength; i++) {\n                uint16 idx = oldAttestationKeccakArrayLength + i;\n\n//                EVT_DoCompileCacheGraph(_identifiedAddress, i, idx);\n                compileCacheGraph(_identifiedAddress, idx);\n            }\n\n            if (requiresFurtherReconstruction == false) {\n                //recompiled full hash graph\n                return 2;\n            } else {\n                //compilation needs to be complete\n                return 1;\n            }\n        } else {\n            //no updates needed\n            return 0;\n        }\n    }\n\n    function compileCacheGraphTrustChannelEXBitFieldsAdditive(address _identifiedAddress, bytes32 _keccakHash, bool _consentAvailable) internal {\n        ITrustAnchorStorage trustAnchorStorage = ITrustAnchorStorage(trustAnchorStorageAddress);\n        ITrustChannelManager trustChannelManager = ITrustChannelManager(trustChannelManagerAddress);\n\n        address trustAnchorAddress = trustAnchorStorage.getAttestationTrustAnchorAddress(_keccakHash);\n        uint32 trustAnchorIndex = trustAnchorStorage.getAttestationTrustAnchorIndex(_keccakHash);\n\n        uint24 lowestTrustChannelSubmapNumber = trustChannelManager.getTrustChannelLowestSubmapNumberForTrustAnchorIndex(trustAnchorIndex);\n        uint24 highestTrustChannelSubmapNumber = trustChannelManager.getTrustChannelHighestSubmapNumberForTrustAnchorIndex(trustAnchorIndex);\n\n        kycCacheGraph storage cacheGraph = identifiedAddress_to_kycIdentity[_identifiedAddress].cacheGraph;\n\n//        EVT_GotLowestAndHighestTrustChannelSubmapNumber(lowestTrustChannelSubmapNumber, highestTrustChannelSubmapNumber);\n\n        //@note:@todo:@next:@audit: this definitely needs to be bounds tested, as it corresponds to the numbers of loops below. upper end estimation\n        //could have to do with gas spent so far (msg.gas), though this might be difficult to test/suggest to users.\n\n        //cap number of compares of the trust channel submaps\n        if (highestTrustChannelSubmapNumber - lowestTrustChannelSubmapNumber > maxNumberOfTrustChannelSubmapCompares) {\n            highestTrustChannelSubmapNumber = lowestTrustChannelSubmapNumber + maxNumberOfTrustChannelSubmapCompares;\n        }\n\n        uint256 bitField;\n\n        //@note:@todo:@gas: do estimations here.. uint24 (2**24) is way too many to iterate through.\n        for (uint24 i = lowestTrustChannelSubmapNumber; i < highestTrustChannelSubmapNumber + 1; i++) {\n            bitField = trustChannelManager.getTrustChannelIndexBitFieldAtSubmapNumberForTrustAnchorIndex(trustAnchorIndex, i);\n\n//            EVT_GotBitFieldFromTrustAnchor(trustAnchorAddress, trustAnchorIndex, bitField);\n\n            if (bitField != 0) {\n                if (cacheGraph.trustAnchorTrustChannelIndexEXBitFieldLowestSubmapNumber[trustAnchorIndex] > i) {\n                    cacheGraph.trustAnchorTrustChannelIndexEXBitFieldLowestSubmapNumber[trustAnchorIndex] = i;\n                }\n\n                if (cacheGraph.trustAnchorTrustChannelIndexEXBitFieldHighestSubmapNumber[trustAnchorIndex] > i) {\n                    cacheGraph.trustAnchorTrustChannelIndexEXBitFieldHighestSubmapNumber[trustAnchorIndex] = i;\n                }\n\n                cacheGraph.trustAnchorTrustChannelIndexEXBitField[trustAnchorIndex][i] = bitField;\n\n                cacheGraph.activeTrustChannelEXBitField[i] |= bitField;\n                if (cacheGraph.activeTrustChannelLowestSubmapNumber > lowestTrustChannelSubmapNumber) {\n                    cacheGraph.activeTrustChannelLowestSubmapNumber = lowestTrustChannelSubmapNumber;\n                }\n                if (cacheGraph.activeTrustChannelHighestSubmapNumber < highestTrustChannelSubmapNumber) {\n                    cacheGraph.activeTrustChannelHighestSubmapNumber = highestTrustChannelSubmapNumber;\n                }\n\n                if (_consentAvailable) {\n                    cacheGraph.activeConsentedTrustChannelEXBitField[i] |= bitField;\n\n                    if (cacheGraph.activeConsentedTrustChannelLowestSubmapNumber > lowestTrustChannelSubmapNumber) {\n                        cacheGraph.activeConsentedTrustChannelLowestSubmapNumber = lowestTrustChannelSubmapNumber;\n                    }\n                    if (cacheGraph.activeConsentedTrustChannelHighestSubmapNumber < highestTrustChannelSubmapNumber) {\n                        cacheGraph.activeConsentedTrustChannelHighestSubmapNumber = highestTrustChannelSubmapNumber;\n                    }\n                }\n            }\n        }\n    }\n\n    //@note: the condition is that:\n    // 1) the trust anchor by index is no longer associated to this account.\n    // 2) there are no trust anchors that have attested to this account that share the trust channels associated to this trust anchor.\n\n    function conditionallyRemoveCacheGraphTrustChannelTrustAnchorIndexEXBitField(address _identifiedAddress, uint32 _sourceTrustAnchorIndex) internal {\n//        ITrustAnchorStorage trustAnchorStorage = ITrustAnchorStorage(trustAnchorStorageAddress);\n//        ITrustChannelManager trustChannelManager = ITrustChannelManager(trustChannelManagerAddress);\n        kycCacheGraph storage cacheGraph = identifiedAddress_to_kycIdentity[_identifiedAddress].cacheGraph;\n\n        //check that the trust anchor by index is no longer associated to this account.\n        if (cacheGraph.trustAnchorIndexToCountMap[_sourceTrustAnchorIndex] == 0) {\n\n            //amalgamated map for use in comparisons\n            uint256 baseTrustAnchorChannelMap;\n            uint256 amalgamatedTrustAnchorChannelMap;\n            uint256 comparisonTrustAnchorChannelMap;\n\n            bool submapsExhausted;\n\n            //get the lower bound of the trust channel map checks.\n            uint24 submapNumber = cacheGraph.trustAnchorTrustChannelIndexEXBitFieldLowestSubmapNumber[_sourceTrustAnchorIndex];\n\n            while (submapsExhausted == false) {\n\n                //get the trust anchor's channel map.\n                baseTrustAnchorChannelMap = cacheGraph.trustAnchorTrustChannelIndexEXBitField[_sourceTrustAnchorIndex][submapNumber];\n\n                //create a composite trust anchor channel map of all the trust anchors except this one.\n                if (baseTrustAnchorChannelMap == 0) {\n                    //skip this comparison because this submap has no trust channels within it.\n                } else {\n                    uint32 curTrustAnchorIndex = cacheGraph.currentTrustAnchorLinkedList_zeldaIndex;\n\n                    //create a composite trust anchor channel map of all the trust anchors except this one.\n                    for (uint16 i = 0; i < cacheGraph.currentTrustAnchorsLinkedList_length; i++) {\n                        if (curTrustAnchorIndex != _sourceTrustAnchorIndex) {\n                            //update the amalgamated trust channel map\n                            amalgamatedTrustAnchorChannelMap |= cacheGraph.trustAnchorTrustChannelIndexEXBitField[curTrustAnchorIndex][submapNumber];\n\n                            //reassociate the linked list.\n                            //@note:\n                            // 1) the case of currentTrustAnchorLinkedList_zeldaIndex == _sourceTrustAnchorIndex && currentTrustAnchorsLinkedList_length == 1\n                            //    will be taken care of because when currentTrustAnchorsLinkedList_length == 0, compileCacheGraph will set the currentTrustAnchorsLinkedList_length = 1\n                            //    and set the currentTrustAnchorLinkedList_zeldaIndex to the trustAnchorIndex at that point.\n                            // 2) the case of currentTrustAnchorLinkedList_finalIndex == _sourceTrustAnchorIndex, the length will simply be reduced by 1 and this is definitely\n                            //    the last link in the linked list.\n                            // 2) the case of currentTrustAnchorLinkedList_zeldaIndex != _sourceTrustAnchorIndex, the curTrustAnchorIndex != _sourceTrustAnchorIndex, so the\n                            //    allTrustAnchorsThatHaveAttestedNextLinkMapping[curTrustAnchorIndex] is set to allTrustAnchorsThatHaveAttestedNextLinkMapping[_sourceTrustAnchorIndex],\n                            //    which may or may not have been set up depending on whether currentTrustAnchorLinkedList_finalIndex == _sourceTrustAnchorIndex. if it has been set up,\n                            //    the _sourceTrustAnchorIndex is in middle of the linked list somewhere, and thus the allTrustAnchorsThatHaveAttestedNextLinkMapping[curTrustAnchorIndex] should\n                            //    now equal allTrustAnchorsThatHaveAttestedNextLinkMapping[_sourceTrustAnchorIndex]. otherwise, because the currentTrustAnchorsLinkedList_length is - 1 after\n                            //    everything, currentTrustAnchorLinkedList_finalIndex is also set to curTrustAnchorIndex.\n\n                            if (cacheGraph.allTrustAnchorsThatHaveAttestedNextLinkMapping[curTrustAnchorIndex] == _sourceTrustAnchorIndex) {\n                                if (cacheGraph.currentTrustAnchorsLinkedList_length == i - 1) {\n                                    cacheGraph.currentTrustAnchorLinkedList_finalIndex = curTrustAnchorIndex;\n                                } else {\n                                    cacheGraph.allTrustAnchorsThatHaveAttestedNextLinkMapping[curTrustAnchorIndex] = cacheGraph.allTrustAnchorsThatHaveAttestedNextLinkMapping[_sourceTrustAnchorIndex];\n                                }\n\n                                cacheGraph.allTrustAnchorsThatHaveAttestedNextLinkMapping[_sourceTrustAnchorIndex] = 2**32-1;\n                            }\n\n                            curTrustAnchorIndex = cacheGraph.allTrustAnchorsThatHaveAttestedNextLinkMapping[curTrustAnchorIndex];\n                        } else {\n                            //otherwise do nothing, as all the cases have been account for in the \"if\" corresponding to this \"else\".\n                        }\n                    }\n\n                    //@note:@todo:@next:@audit: is the allTrustAnchorsThatHaveAttestedNextLinkMapping[_sourceTrustAnchorIndex] always removed? what happens in the case of only this address being the source address?\n                    // I think this may be correct in the logic as the above \"reassociate the linked list.\" covers this.\n                    cacheGraph.currentTrustAnchorsLinkedList_length--;\n\n\n                    //for example 1000100101 as the trust channels associated to the base trust anchor.\n                    //            1101111011 as the amalgamated trust channels.\n                    //            0000000100 is trust channel that must be removed.\n\n                    //procedure:  1000100101\n                    //bitwise AND 1101111011\n                    //result is   1000100001, this is the trust channels that are the same from the base trust channel\n                    //                        and the amalgamated trust channels.\n                    //\n                    //then,       1000100101\n                    //bitwise XOR 1000100001\n                    //result is   0000000100, which is the trust channel that must be removed.\n\n                    //perform a bitwise AND on the amalgamated and base trust channel maps, and bitwise negate the result.\n                    comparisonTrustAnchorChannelMap = ~(baseTrustAnchorChannelMap ^ (amalgamatedTrustAnchorChannelMap & baseTrustAnchorChannelMap));\n\n                    //check if the comparison map is zero (no trust channels need to be removed)\n                    if (comparisonTrustAnchorChannelMap == 0) {\n\n                    } else {\n                        cacheGraph.activeTrustChannelEXBitField[submapNumber] &= comparisonTrustAnchorChannelMap;\n                        cacheGraph.activeConsentedTrustChannelEXBitField[submapNumber] &= comparisonTrustAnchorChannelMap;\n                    }\n                }\n\n                submapNumber++;\n\n                //see if the upper bound of the trust channel map check has been reached.\n                if (submapNumber > cacheGraph.trustAnchorTrustChannelIndexEXBitFieldHighestSubmapNumber[_sourceTrustAnchorIndex]) {\n                    submapsExhausted = true;\n                } else {\n                    continue;\n                }\n            }\n        } else {\n            //trust anchor still has a valid attestation to this account.\n//            return 0;\n        }\n    }\n//         //returns:\n//         // 0 = signatures do not have a matching address\n//         // 1 = signature does not have the attestor address\n//         // 2 = addresses match\n//\n//         function checkConsentSignatures(address _identifiedAddress, uint _idx, bytes32 _keccakHash) internal view returns (uint8 result) {\n//             ITrustAnchorStorage trustAnchorStorage = ITrustAnchorStorage(trustAnchorStorageAddress);\n//\n//             bytes32[2] memory attestationValidityTrustAnchorSignatureRS;\n//             uint8 attestationValidityTrustAnchorSignatureV;\n//             bytes32[2] memory attestationValidityUserSignatureRS;\n//             uint8 attestationValidityUserSignatureV;\n//\n//             (attestationValidityTrustAnchorSignatureV,\n//              attestationValidityTrustAnchorSignatureRS,\n//              attestationValidityUserSignatureV,\n//              attestationValidityUserSignatureRS) = trustAnchorStorage.getAttestationValiditySignaturesInKeccakArray(_identifiedAddress, uint8(_idx));\n//\n//             address recoveredAddressTrustAnchor = ecrecover(_keccakHash, attestationValidityTrustAnchorSignatureV, attestationValidityTrustAnchorSignatureRS[0], attestationValidityTrustAnchorSignatureRS[1]);\n//             address recoveredAddressUserSignature = ecrecover(_keccakHash, attestationValidityUserSignatureV, attestationValidityUserSignatureRS[0], attestationValidityUserSignatureRS[1]);\n//\n//             if (recoveredAddressTrustAnchor == recoveredAddressUserSignature) {\n//                 if (recoveredAddressTrustAnchor == trustAnchorStorage.getTrustAnchorAddressInKeccakArray(_identifiedAddress, uint8(_idx))) {\n//                     //addresses match\n//                     return 2;\n//                 } else {\n//                     //signature does not have the attestor address\n//                     return 1;\n//                 }\n//             } else {\n//                 //signatures do not have a matching address\n//                 return 0;\n//             }\n//         }\n\n//    //returns:\n//    // 0 = no complete consent available\n//    // 1 = consent available\n//\n//    function compileCacheGraphConsent(address _identifiedAddress, uint _idx, bytes32 _keccakHash, uint16 _jurisdiction) internal returns (bool result) {\n//        ITrustAnchorStorage trustAnchorStorage = ITrustAnchorStorage(trustAnchorStorageAddress);\n//\n//        kycCacheGraph storage cacheGraph = identifiedAddress_to_kycIdentity[_identifiedAddress].cacheGraph;\n//\n//        //if (checkConsentSignatures(_identifiedAddress, _idx, _keccakHash))\n//        //check for 2 signatures (trust anchor and user) for attestation\n//        if (trustAnchorStorage.getConsentAvailableInKeccakArray(_identifiedAddress, uint8(_idx)) == 2) {\n//            cacheGraph.active_consented_jurisdictionBits |= uint256(_jurisdiction);\n//            cacheGraph.activeConsentedJurisdictionAttestationArray[_jurisdiction].push(_keccakHash);\n//\n//            //consent available\n//            return true;\n//        }\n//\n//        //no complete consent available\n//        return true;\n//    }\n\n//    //returns:\n//    // isActive = effectiveTime <= now <= expiryTime;\n//\n//    function compileCacheGraphTime(address _identifiedAddress, uint256 _effectiveTime, uint256 _expiryTime, uint _idx) internal returns (bool result) {\n//        bool isActive;\n//\n//        kycCacheGraph storage cacheGraph = identifiedAddress_to_kycIdentity[_identifiedAddress].cacheGraph;\n//\n//        //@note: safeMath not required. (thurs feb 22 2018) = 01011010011100100101100010000000 in binary, which is still\n//        // which is 32 bits. #functionmaynotworkattheendoftimesoonlyuseitbeforethen.\n//        uint256 blockTime = block.timestamp * 1000;\n//\n//        if (_effectiveTime > blockTime) {\n//            cacheGraph.pendingBits |= uint256(_idx);\n//        } else if (_effectiveTime <= blockTime && (_expiryTime == 0 || _expiryTime > blockTime)) {\n//            isActive = true;\n//            cacheGraph.activeBits |= uint256(_idx);\n//        } else {\n//            cacheGraph.expiredBits |= uint256(_idx);\n//        }\n//\n//        EVT_CompareTime(_effectiveTime, blockTime, _expiryTime, isActive);\n//\n//        return isActive;\n//    }\n\n    //@note: this can be done for each index, and should help to compile lists.\n\n    function compileCacheGraph(address _identifiedAddress, uint16 _idx) public {\n        ITrustAnchorStorage trustAnchorStorage = ITrustAnchorStorage(trustAnchorStorageAddress);\n\n        bytes32 keccakHash;\n        uint32 trustAnchorIndex;\n        uint16 jurisdiction;\n        bool attestationStatusApproved;\n\n        (keccakHash,\n         trustAnchorIndex,\n         jurisdiction,\n         attestationStatusApproved) = trustAnchorStorage.getGraphConstructableAttestationInKeccakArray(_identifiedAddress, uint8(_idx));\n\n        kycCacheGraph storage cacheGraph = identifiedAddress_to_kycIdentity[_identifiedAddress].cacheGraph;\n\n        if (cacheGraph.exists == false) {\n            cacheGraph.exists = true;\n\n            cacheGraph.activeTrustChannelLowestSubmapNumber = 2**24-1;\n            cacheGraph.activeTrustChannelHighestSubmapNumber;\n\n            cacheGraph.activeConsentedTrustChannelLowestSubmapNumber = 2**24-1;\n            cacheGraph.activeConsentedTrustChannelHighestSubmapNumber;\n        }\n\n        bool didChangeApprovedStatus;\n\n        //check whether this attestation has already been processed.\n        if (cacheGraph.attestationHasAlreadyBeenProcessed[_idx] == true) {\n            //@note: if the attestation has already been processed and its status has changed, modify the counter.\n            // otherwise, don't modify the counter.\n            if (cacheGraph.attestationPreviousApprovedStatus[_idx] == false && attestationStatusApproved == true) {\n                cacheGraph.trustAnchorIndexToCountMap[trustAnchorIndex]++;\n                didChangeApprovedStatus = true;\n            } else if (cacheGraph.attestationPreviousApprovedStatus[_idx] == true && attestationStatusApproved == false) {\n                cacheGraph.trustAnchorIndexToCountMap[trustAnchorIndex]--;\n                didChangeApprovedStatus = true;\n            }\n        } else {\n            //if this is the first time this trustAnchorIndex has been included in this cache graph, set its lowest trust channel\n            // submap index to 2**24-1.\n            if (cacheGraph.trustAnchorIndexToCountMap[trustAnchorIndex] == 0) {\n                cacheGraph.trustAnchorTrustChannelIndexEXBitFieldLowestSubmapNumber[trustAnchorIndex] = 2**24 -1;\n            }\n\n            cacheGraph.trustAnchorIndexToCountMap[trustAnchorIndex]++;\n\n            //check whether this trust anchor has attested before.\n            if (cacheGraph.allTrustAnchorIndexExistsMapping[trustAnchorIndex] == true) {\n//                //get the current (soon to be previous) length of all the trust anchor that have ever attested to this contract.\n//                uint16 previousAllTrustAnchorNextLinkArrayLength = uint16(cacheGraph.allTrustAnchorsThatHaveAttestedNextLinkArray.length);\n//\n//                //increase that length because we're going to modify it next.\n//                cacheGraph.allTrustAnchorsThatHaveAttestedNextLinkArray.length++;\n//\n//                //set the next array index in the array to have the trust anchor's index.\n//                cacheGraph.allTrustAnchorsThatHaveAttestedNextLinkArray[previousAllTrustAnchorNextLinkArrayLength] = trustAnchorIndex;\n            } else {\n                cacheGraph.allTrustAnchorIndexExistsMapping[trustAnchorIndex] = true;\n            }\n\n            //if there are currently no members in the linked list, set this as the zelda index. there's no need to setup\n            //the allTrustAnchorsThatHaveAttestedNextLinkMapping array since this is the only item in the linked list.\n            if (cacheGraph.currentTrustAnchorsLinkedList_length == 0) {\n                cacheGraph.currentTrustAnchorLinkedList_zeldaIndex = trustAnchorIndex;\n\n                cacheGraph.currentTrustAnchorsLinkedList_length = 1;\n            } else {\n                //otherwise, set the previous final trust anchor in the linked list to have the next link as this trust anchor's index.\n                cacheGraph.allTrustAnchorsThatHaveAttestedNextLinkMapping[cacheGraph.currentTrustAnchorLinkedList_finalIndex] = trustAnchorIndex;\n            }\n\n            //increase the length of the list.\n            cacheGraph.currentTrustAnchorsLinkedList_length++;\n\n            //update the final index in the linked list.\n            cacheGraph.currentTrustAnchorLinkedList_finalIndex = trustAnchorIndex;\n\n            didChangeApprovedStatus = true;\n        }\n\n//        EVT_GotAttestationStatus(_identifiedAddress, attestationStatusApproved, didChangeApprovedStatus, _idx, cacheGraph.attestationHasAlreadyBeenProcessed[_idx]);\n\n        if (didChangeApprovedStatus == true) {\n            if (attestationStatusApproved) {\n                //@note: might be too expensive\n                // checkConsentSignatures(_identifiedAddress, _idx, keccakHash);\n//                bool consentAvailable = compileCacheGraphConsent(_identifiedAddress, _idx, keccakHash, jurisdiction);\n\n                //@note: full consent is from user + trust anchor.\n                bool consentAvailable = (trustAnchorStorage.getConsentAvailableInKeccakArray(_identifiedAddress, uint8(_idx)) == 2);\n\n//                EVT_DoCompileCacheGraphTrustChannelEXBitFields(_identifiedAddress, keccakHash, consentAvailable);\n\n                //check if this attestation index has already been processed.\n                if (cacheGraph.attestationHasAlreadyBeenProcessed[_idx] == false) {\n                    //set the attestationHasAlreadyBeenProcessed for this attestation index to true.\n                    cacheGraph.attestationHasAlreadyBeenProcessed[_idx] = true;\n\n                    //@note: this is additive-only.\n                    compileCacheGraphTrustChannelEXBitFieldsAdditive(_identifiedAddress, keccakHash, consentAvailable);\n                }\n            } else {\n                //@note: the removal of trust anchor's attestation may have changed the trust channels associated to\n                // this account. in this case, the trust channel itself may need to be removed from the previously\n                // compiled EX bits.\n                if (cacheGraph.attestationHasAlreadyBeenProcessed[_idx] == true) {\n//                    EVT_DoConditionallyRemoveTrustChannelEXBitFields(_identifiedAddress, trustAnchorIndex, keccakHash);\n\n                    conditionallyRemoveCacheGraphTrustChannelTrustAnchorIndexEXBitField(_identifiedAddress, trustAnchorIndex);\n                } else {\n                    //if it's false, there's nothing that needs to be done, since it wouldn't be in the compiled EX bits.\n                }\n            }\n        }\n\n        cacheGraph.attestationPreviousApprovedStatus[_idx] = attestationStatusApproved;\n    }\n\n\n    //@note:@here:@todo:@next@funtest1: this doesn't return the trust channel index.. not exactly. it returns...\n\n    //@note: any function calling this should be aware that it will return 0 in the case where there are no set bits.\n    //returns:\n    // 0->255 = trust channel sub index.\n\n    function getTrustChannelSubIndexFromBitField(uint256 trustChannelBitField) public returns (uint8 result) {\n        //@reference:@checkwhenupdating: from TrustChannelManager.sol's bit field creation process\n        //\n        // uint16 trustChannelIndex = trustChannelKeccakToTrustChannelIndex[trustChannelKeccak];\n        //\n        // //separate out the trust channel index number with the sub-mapping. this keeps alignment to 256 bits.\n        // uint8 submapNumber = uint8(trustChannelIndex >> 8);\n        // uint8 subIndex = uint8(trustChannelIndex % 256);\n        //\n        // bytes32 composedBitField = trustAnchorAddressToTrustChannelIndexBitField[_trustAnchorAddress][submapNumber];\n        //\n        //@reference: this is the general pattern.\n        // using least significant bit, the subindex\n        // 0100       0000        0000        0000       0000       0000       0000       0100\n        // 1's subIndex = 30                                                              1's subIndex = 3\n        //\n        //@reference: like so\n        // uint32 active32BitWord3 = uint32((activeJurisdictionBitField & (uint256(32 ** 2 - 1) << 128)) >> 128);\n        // uint32 active32BitWord4 = uint32((activeJurisdictionBitField & (uint256(32 ** 2 - 1) << 96)) >> 96);\n        // uint32 active32BitWord5 = uint32((activeJurisdictionBitField & (uint256(32 ** 2 - 1) << 64)) >> 64);\n        // uint32 active32BitWord6 = uint32((activeJurisdictionBitField & (uint256(32 ** 2 - 1) << 32)) >> 32);\n\n        uint256 bitMask = uint256(2 ** 32 - 1);\n        uint8 trustChannelSubIndex;\n\n        //@note: updating the first 32 bits immediately.. consider it as a L1 cache for the trust anchors, which assumes\n        // clustering around the primary initial trust channels.\n        uint32 trustChannelBitFieldWords_7 = uint32(trustChannelBitField & bitMask);\n\n        EVT_TrustChannelBitFieldWords(trustChannelBitFieldWords_7);\n        if (trustChannelBitFieldWords_7 != 0) {\n            trustChannelSubIndex = uint8(rightmost_index(trustChannelBitFieldWords_7));\n\n            EVT_TrustChannelBitFieldIndex(trustChannelSubIndex);\n        } else {\n            //compare the rest as required\n            uint32 trustChannelBitFieldWord;\n            uint8 shifter;\n\n            for (uint8 i = 6; i >= 0; i--) {\n                //@reference: when i = 0 (the first 32 bit word) the bitmask must be shifted by 224, AND'd with the trust channel bit field,\n                // and then shifted back to be referenced as a 32 bit index.\n                // Max value is 224 = 32 * (7-0)\n\n                shifter = (32 * (7 - i));\n\n                trustChannelBitFieldWord = uint32((trustChannelBitField & (bitMask << shifter)) >> shifter);\n\n                if (trustChannelBitFieldWord != 0) {\n                    trustChannelSubIndex = uint8(rightmost_index(trustChannelBitFieldWord) + shifter);\n\n                    EVT_TrustChannelBitFieldIndexEXT(i, shifter, trustChannelBitFieldWord, trustChannelBitField, trustChannelSubIndex);\n\n                    break;\n                }\n            }\n        }\n\n        return trustChannelSubIndex;\n    }\n\n    //@note: the following two functions (getActiveConsentedTrustChannelBitFieldForPair & getActiveTrustChannelBitFieldForPair) are very\n    // similarly structured, but as these functions will be called often, they are split out into two separate function calls to avoid\n    // \"stack too deep\" issues.\n\n    //@note:@here:@todo:@next@funtest1: this doesn't return the trust channel index.. not exactly. it returns...\n    // @funtest1: fix this function to return the proper trust channel index!\n\n    //returns:\n    // NoTrustChannel = no trust channel found\n    // 0->2**32 - 2 = trust channel found at index\n\n    function getActiveConsentedTrustChannelBitFieldForPair(address _senderIdentifiedAddress, address _receiverIdentifiedAddress) internal returns (uint32 result) {\n        kycCacheGraph storage senderCacheGraph = identifiedAddress_to_kycIdentity[_senderIdentifiedAddress].cacheGraph;\n        kycCacheGraph storage receiverCacheGraph = identifiedAddress_to_kycIdentity[_receiverIdentifiedAddress].cacheGraph;\n\n        uint24 senderLowestSubmapIndex = senderCacheGraph.activeConsentedTrustChannelLowestSubmapNumber;\n        uint24 senderHighestSubmapIndex = senderCacheGraph.activeConsentedTrustChannelHighestSubmapNumber;\n\n        uint24 receiverLowestSubmapIndex = receiverCacheGraph.activeConsentedTrustChannelLowestSubmapNumber;\n        uint24 receiverHighestSubmapIndex = receiverCacheGraph.activeConsentedTrustChannelHighestSubmapNumber;\n\n        uint256 trustChannelBitField;\n\n        uint32 trustChannelIndex;\n\n        //check for first index accessible to both parties.\n        //this is the most efficient form of trust channel matching.\n        if (senderHighestSubmapIndex == 0 || receiverHighestSubmapIndex == 0) {\n            //it is, so no need to loop,\n            trustChannelBitField = uint256(senderCacheGraph.activeConsentedTrustChannelEXBitField[0]);\n            trustChannelBitField &= uint256(receiverCacheGraph.activeConsentedTrustChannelEXBitField[0]);\n\n            if (trustChannelBitField != 0) {\n                trustChannelIndex = getTrustChannelSubIndexFromBitField(trustChannelBitField);\n\n                EVT_TrustChannelRouted(trustChannelIndex, _senderIdentifiedAddress, _receiverIdentifiedAddress);\n\n                //trust channel found at index\n                return trustChannelIndex;\n            } else {\n                //no trust channel found\n                return NoTrustChannel;\n            }\n        } else {\n            //get the lowest and highest index that both sender/receiver are party to.\n            uint24 lowestSearchableSubmapIndex = senderLowestSubmapIndex;\n            uint24 highestSearchableSubmapIndex = senderHighestSubmapIndex;\n\n            if (receiverLowestSubmapIndex < lowestSearchableSubmapIndex) {\n                lowestSearchableSubmapIndex = receiverLowestSubmapIndex;\n            }\n            if (receiverHighestSubmapIndex > highestSearchableSubmapIndex) {\n                highestSearchableSubmapIndex = receiverHighestSubmapIndex;\n            }\n\n            EVT_GotLowestAndHighestTrustChannelSubmapNumber(lowestSearchableSubmapIndex, highestSearchableSubmapIndex);\n\n            //search by pages\n            //@note:@here:@audit: if this overflows (the \"highestSearchableSubmapIndex + 1\") there could be an issue.\n            // however, at that point the submap is at 2**24-1, which means the entire trust channel mapping is completely\n            // filled. that's an enormous amount of gas to set up, and would either mean the network is completely\n            // massively operational, or there's been a serious breach of an administrator for the trust channel\n            // manager contract. this contract's owner can explicitly change this trust channel manager relationship.\n\n            for (uint24 i = lowestSearchableSubmapIndex; i < highestSearchableSubmapIndex + 1; i++) {\n                trustChannelBitField = uint256(senderCacheGraph.activeConsentedTrustChannelEXBitField[i]);\n                trustChannelBitField &= uint256(receiverCacheGraph.activeConsentedTrustChannelEXBitField[i]);\n\n                if (trustChannelBitField != 0) {\n                    trustChannelIndex = getTrustChannelSubIndexFromBitField(trustChannelBitField) + (i * 256);\n\n                    EVT_TrustChannelRouted(trustChannelIndex, _senderIdentifiedAddress, _receiverIdentifiedAddress);\n\n                    //trust channel found at index\n                    return trustChannelIndex;\n                }\n            }\n\n            //no trust channel found\n            return NoTrustChannel;\n        }\n    }\n\n    //@note:@here:@todo:@next@funtest1: this doesn't return the trust channel index.. not exactly. it returns...\n    // @funtest1: fix this function to return the proper trust channel index!\n\n    //returns:\n    // NoTrustChannel = no trust channel found\n    // 0->2**32 - 2 = trust channel found at index\n\n    function getActiveTrustChannelBitFieldForPair(address _senderIdentifiedAddress, address _receiverIdentifiedAddress) public returns (uint32 result) {\n        kycCacheGraph storage senderCacheGraph = identifiedAddress_to_kycIdentity[_senderIdentifiedAddress].cacheGraph;\n        kycCacheGraph storage receiverCacheGraph = identifiedAddress_to_kycIdentity[_receiverIdentifiedAddress].cacheGraph;\n\n        uint24 senderLowestSubmapIndex = senderCacheGraph.activeTrustChannelLowestSubmapNumber;\n        uint24 senderHighestSubmapIndex = senderCacheGraph.activeTrustChannelHighestSubmapNumber;\n\n        uint24 receiverLowestSubmapIndex = receiverCacheGraph.activeTrustChannelLowestSubmapNumber;\n        uint24 receiverHighestSubmapIndex = receiverCacheGraph.activeTrustChannelHighestSubmapNumber;\n\n        EVT_GotHighestSubmapNumbers(senderHighestSubmapIndex, receiverHighestSubmapIndex);\n\n        uint256 trustChannelBitField;\n\n        uint32 trustChannelIndex;\n\n        //check for first index accessible to both parties.\n        //this is the most efficient form of trust channel matching.\n        if (senderHighestSubmapIndex == 0 || receiverHighestSubmapIndex == 0) {\n            //it is, so no need to loop.\n            trustChannelBitField = senderCacheGraph.activeTrustChannelEXBitField[0];\n            trustChannelBitField &= receiverCacheGraph.activeTrustChannelEXBitField[0];\n\n            EVT_GetActiveTrustChannelEXBitFieldLength(\n                senderCacheGraph.activeTrustChannelLowestSubmapNumber,\n                senderCacheGraph.activeTrustChannelHighestSubmapNumber,\n                receiverCacheGraph.activeTrustChannelLowestSubmapNumber,\n                receiverCacheGraph.activeTrustChannelHighestSubmapNumber,\n                senderCacheGraph.activeTrustChannelEXBitField[0],\n                receiverCacheGraph.activeTrustChannelEXBitField[0],\n                trustChannelBitField);\n\n            if (trustChannelBitField != 0) {\n                trustChannelIndex = getTrustChannelSubIndexFromBitField(trustChannelBitField);\n\n                EVT_TrustChannelRouted(trustChannelIndex, _senderIdentifiedAddress, _receiverIdentifiedAddress);\n\n                //trust channel found at index\n                return trustChannelIndex;\n            } else {\n                //no trust channel found\n                return NoTrustChannel;\n            }\n        } else {\n            //get the lowest and highest index that both sender/receiver are party to.\n            uint24 lowestSearchableSubmapIndex = senderLowestSubmapIndex;\n            uint24 highestSearchableSubmapIndex = senderHighestSubmapIndex;\n\n            if (receiverLowestSubmapIndex < lowestSearchableSubmapIndex) {\n                lowestSearchableSubmapIndex = receiverLowestSubmapIndex;\n            }\n            if (receiverHighestSubmapIndex > highestSearchableSubmapIndex) {\n                highestSearchableSubmapIndex = receiverHighestSubmapIndex;\n            }\n\n            EVT_GotLowestAndHighestTrustChannelSubmapNumber(lowestSearchableSubmapIndex, highestSearchableSubmapIndex);\n\n            //search by pages\n            //@note:@here:@audit: if this overflows (the \"highestSearchableSubmapIndex + 1\") there could be an issue.\n            // however, at that point the submap is at 2**24-1, which means the entire trust channel mapping is completely\n            // filled. that's an enormous amount of gas to set up, and would either mean the network is completely\n            // massively operational, or there's been a serious breach of an administrator for the trust channel\n            // manager contract. this contract's owner can explicitly change this trust channel manager relationship.\n\n            for (uint24 i = lowestSearchableSubmapIndex; i < highestSearchableSubmapIndex + 1; i++) {\n                trustChannelBitField = senderCacheGraph.activeTrustChannelEXBitField[i];\n                trustChannelBitField &= receiverCacheGraph.activeTrustChannelEXBitField[i];\n\n                EVT_GetActiveTrustChannelEXBitFieldLength(\n                    senderCacheGraph.activeTrustChannelLowestSubmapNumber,\n                    senderCacheGraph.activeTrustChannelHighestSubmapNumber,\n                    receiverCacheGraph.activeTrustChannelLowestSubmapNumber,\n                    receiverCacheGraph.activeTrustChannelHighestSubmapNumber,\n                    senderCacheGraph.activeTrustChannelEXBitField[i],\n                    receiverCacheGraph.activeTrustChannelEXBitField[i],\n                    trustChannelBitField);\n\n                if (trustChannelBitField != 0) {\n                    trustChannelIndex = getTrustChannelSubIndexFromBitField(trustChannelBitField) + (i * 256);\n\n                    EVT_TrustChannelRouted(trustChannelIndex, _senderIdentifiedAddress, _receiverIdentifiedAddress);\n\n                    //trust channel found at index\n                    return trustChannelIndex;\n                }\n            }\n\n            //no trust channel found\n            return NoTrustChannel;\n        }\n    }\n\n//    //@note: because this function is set to public and having people's attestations marked to dirty on a whim is\n//    // bad news, we require this attestation's revocation call come from the Trust Anchor Storage itself.\n//\n//    //returns:\n//    // 0 = message does not originate trust anchor storage\n//    // 1 = attestation marked dirty\n//\n//    function markAttestationAsDirty(address _identifiedAddress, uint8 _idx) public returns (uint8 result) {\n//        if (msg.sender == trustAnchorStorageAddress) {\n//            kycCacheGraph storage cacheGraph = identifiedAddress_to_kycIdentity[_identifiedAddress].cacheGraph;\n//\n//            cacheGraph.graphStatus = CacheGraphStatus.Dirty;\n//\n////            trustAnchorStorage.getGraphConstructableAttestationInKeccakArray(_identifiedAddress, uint8(_idx));\n//\n//            //attestation marked dirty\n//            return 1;\n//        } else {\n//            //message does not originate trust anchor storage\n//            return 0;\n//        }\n//    }\n}\n",
  "sourcePath": "/Users/jaypersanchez/KYCAML/contracts/ShyftCacheGraph.sol",
  "compiler": {
    "name": "solc",
    "version": "0.4.24+commit.e67f0147.Emscripten.clang"
  },
  "schemaVersion": "2.0.1",
  "updatedAt": "2018-10-11T00:10:45.270Z"
}