{
  "contractName": "ShyftKycContract",
  "abi": [
    {
      "constant": false,
      "inputs": [
        {
          "name": "_identifiedAddress",
          "type": "address"
        },
        {
          "name": "_proofHash",
          "type": "bytes32"
        },
        {
          "name": "_proof",
          "type": "bytes"
        },
        {
          "name": "_publicMetadata",
          "type": "bytes"
        },
        {
          "name": "_encryptedMetadata",
          "type": "bytes"
        },
        {
          "name": "_amount",
          "type": "uint256"
        },
        {
          "name": "_bip32X_type",
          "type": "uint32"
        }
      ],
      "name": "addProof",
      "outputs": [
        {
          "name": "result",
          "type": "uint16"
        }
      ],
      "payable": false,
      "stateMutability": "nonpayable",
      "type": "function"
    },
    {
      "constant": true,
      "inputs": [
        {
          "name": "i",
          "type": "uint32"
        }
      ],
      "name": "numberOfSetBits",
      "outputs": [
        {
          "name": "result",
          "type": "uint32"
        }
      ],
      "payable": false,
      "stateMutability": "pure",
      "type": "function"
    },
    {
      "constant": false,
      "inputs": [
        {
          "name": "proof",
          "type": "bytes"
        }
      ],
      "name": "safeProofProver",
      "outputs": [
        {
          "name": "result",
          "type": "bool"
        }
      ],
      "payable": false,
      "stateMutability": "nonpayable",
      "type": "function"
    },
    {
      "constant": true,
      "inputs": [
        {
          "name": "b",
          "type": "uint32"
        }
      ],
      "name": "rightmost_index",
      "outputs": [
        {
          "name": "result",
          "type": "uint32"
        }
      ],
      "payable": false,
      "stateMutability": "view",
      "type": "function"
    },
    {
      "constant": false,
      "inputs": [],
      "name": "setupDebroujinTable",
      "outputs": [
        {
          "name": "result",
          "type": "bool"
        }
      ],
      "payable": false,
      "stateMutability": "nonpayable",
      "type": "function"
    },
    {
      "constant": false,
      "inputs": [
        {
          "name": "holdIndex",
          "type": "uint32"
        }
      ],
      "name": "freeSafeHold",
      "outputs": [
        {
          "name": "result",
          "type": "uint8"
        }
      ],
      "payable": false,
      "stateMutability": "nonpayable",
      "type": "function"
    },
    {
      "constant": false,
      "inputs": [
        {
          "name": "_trustAnchorStorageAddress",
          "type": "address"
        }
      ],
      "name": "setTrustAnchorStorageAddress",
      "outputs": [
        {
          "name": "result",
          "type": "uint8"
        }
      ],
      "payable": false,
      "stateMutability": "nonpayable",
      "type": "function"
    },
    {
      "constant": false,
      "inputs": [
        {
          "name": "_identifiedAddress",
          "type": "address"
        }
      ],
      "name": "updateSafe",
      "outputs": [
        {
          "name": "result",
          "type": "uint16"
        }
      ],
      "payable": false,
      "stateMutability": "nonpayable",
      "type": "function"
    },
    {
      "constant": true,
      "inputs": [
        {
          "name": "n",
          "type": "uint32"
        }
      ],
      "name": "reverse_bits",
      "outputs": [
        {
          "name": "result",
          "type": "uint32"
        }
      ],
      "payable": false,
      "stateMutability": "pure",
      "type": "function"
    },
    {
      "constant": false,
      "inputs": [
        {
          "name": "trustChannelBitField",
          "type": "uint256"
        }
      ],
      "name": "getTrustChannelSubIndexFromBitField",
      "outputs": [
        {
          "name": "result",
          "type": "uint8"
        }
      ],
      "payable": false,
      "stateMutability": "nonpayable",
      "type": "function"
    },
    {
      "constant": false,
      "inputs": [
        {
          "name": "_identifiedAddress",
          "type": "address"
        }
      ],
      "name": "reconstructCacheGraph",
      "outputs": [
        {
          "name": "result",
          "type": "uint8"
        }
      ],
      "payable": false,
      "stateMutability": "nonpayable",
      "type": "function"
    },
    {
      "constant": false,
      "inputs": [
        {
          "name": "_identifiedAddress",
          "type": "address"
        },
        {
          "name": "_idx",
          "type": "uint16"
        }
      ],
      "name": "compileCacheGraph",
      "outputs": [],
      "payable": false,
      "stateMutability": "nonpayable",
      "type": "function"
    },
    {
      "constant": false,
      "inputs": [
        {
          "name": "_senderIdentifiedAddress",
          "type": "address"
        },
        {
          "name": "_receiverIdentifiedAddress",
          "type": "address"
        }
      ],
      "name": "getActiveTrustChannelBitFieldForPair",
      "outputs": [
        {
          "name": "result",
          "type": "uint32"
        }
      ],
      "payable": false,
      "stateMutability": "nonpayable",
      "type": "function"
    },
    {
      "constant": false,
      "inputs": [
        {
          "name": "_trustChannelManagerAddress",
          "type": "address"
        }
      ],
      "name": "setTrustChannelManagerAddress",
      "outputs": [
        {
          "name": "result",
          "type": "uint8"
        }
      ],
      "payable": false,
      "stateMutability": "nonpayable",
      "type": "function"
    },
    {
      "constant": true,
      "inputs": [
        {
          "name": "_identifiedAddress",
          "type": "address"
        }
      ],
      "name": "getSafeBalance",
      "outputs": [
        {
          "name": "balance",
          "type": "uint256"
        }
      ],
      "payable": false,
      "stateMutability": "view",
      "type": "function"
    },
    {
      "constant": false,
      "inputs": [
        {
          "name": "_amount",
          "type": "uint256"
        },
        {
          "name": "_bip32X_type",
          "type": "uint32"
        },
        {
          "name": "_safeExpiryTime",
          "type": "uint256"
        }
      ],
      "name": "holdSafeBalanceForType",
      "outputs": [
        {
          "name": "holdIndex",
          "type": "uint256"
        }
      ],
      "payable": false,
      "stateMutability": "nonpayable",
      "type": "function"
    },
    {
      "constant": true,
      "inputs": [
        {
          "name": "_identifiedAddress",
          "type": "address"
        },
        {
          "name": "bip32X_type",
          "type": "uint32"
        }
      ],
      "name": "getSafeBalance",
      "outputs": [
        {
          "name": "balance",
          "type": "uint256"
        }
      ],
      "payable": false,
      "stateMutability": "view",
      "type": "function"
    },
    {
      "constant": true,
      "inputs": [],
      "name": "getShyftTokenType",
      "outputs": [
        {
          "name": "result",
          "type": "uint32"
        }
      ],
      "payable": false,
      "stateMutability": "view",
      "type": "function"
    },
    {
      "inputs": [],
      "payable": false,
      "stateMutability": "nonpayable",
      "type": "constructor"
    },
    {
      "payable": true,
      "stateMutability": "payable",
      "type": "fallback"
    },
    {
      "anonymous": false,
      "inputs": [
        {
          "indexed": false,
          "name": "_identifiedAddress",
          "type": "address"
        },
        {
          "indexed": false,
          "name": "updateLength",
          "type": "uint16"
        },
        {
          "indexed": false,
          "name": "oldAttestationKeccakArrayLength",
          "type": "uint16"
        },
        {
          "indexed": false,
          "name": "attestationKeccakArrayLength",
          "type": "uint16"
        }
      ],
      "name": "EVT_UpdatingCacheGraph",
      "type": "event"
    },
    {
      "anonymous": false,
      "inputs": [
        {
          "indexed": false,
          "name": "_identifiedAddress",
          "type": "address"
        },
        {
          "indexed": false,
          "name": "i",
          "type": "uint32"
        },
        {
          "indexed": false,
          "name": "idx",
          "type": "uint16"
        }
      ],
      "name": "EVT_DoCompileCacheGraph",
      "type": "event"
    },
    {
      "anonymous": false,
      "inputs": [
        {
          "indexed": false,
          "name": "_identifiedAddress",
          "type": "address"
        },
        {
          "indexed": false,
          "name": "trustAnchorIndex",
          "type": "uint32"
        },
        {
          "indexed": false,
          "name": "keccakHash",
          "type": "bytes32"
        }
      ],
      "name": "EVT_DoConditionallyRemoveTrustChannelEXBitFields",
      "type": "event"
    },
    {
      "anonymous": false,
      "inputs": [
        {
          "indexed": false,
          "name": "_identifiedAddress",
          "type": "address"
        },
        {
          "indexed": false,
          "name": "attestationStatusApproved",
          "type": "bool"
        },
        {
          "indexed": false,
          "name": "didChangeApprovedStatus",
          "type": "bool"
        },
        {
          "indexed": false,
          "name": "attestationIndex",
          "type": "uint16"
        },
        {
          "indexed": false,
          "name": "attestationHasAlreadyBeenProcessed",
          "type": "bool"
        }
      ],
      "name": "EVT_GotAttestationStatus",
      "type": "event"
    },
    {
      "anonymous": false,
      "inputs": [
        {
          "indexed": false,
          "name": "_effectiveTime",
          "type": "uint256"
        },
        {
          "indexed": false,
          "name": "blockTimestamp",
          "type": "uint256"
        },
        {
          "indexed": false,
          "name": "_expiryTime",
          "type": "uint256"
        },
        {
          "indexed": false,
          "name": "isActive",
          "type": "bool"
        }
      ],
      "name": "EVT_CompareTime",
      "type": "event"
    },
    {
      "anonymous": false,
      "inputs": [
        {
          "indexed": false,
          "name": "_identifiedAddress",
          "type": "address"
        },
        {
          "indexed": false,
          "name": "keccakHash",
          "type": "bytes32"
        },
        {
          "indexed": false,
          "name": "consentAvailable",
          "type": "bool"
        }
      ],
      "name": "EVT_DoCompileCacheGraphTrustChannelEXBitFields",
      "type": "event"
    },
    {
      "anonymous": false,
      "inputs": [
        {
          "indexed": false,
          "name": "senderLowestSubmapNumber",
          "type": "uint24"
        },
        {
          "indexed": false,
          "name": "senderHighestSubmapNumber",
          "type": "uint24"
        },
        {
          "indexed": false,
          "name": "receiverLowestSubmapNumber",
          "type": "uint24"
        },
        {
          "indexed": false,
          "name": "receiverHighestSubmapNumber",
          "type": "uint24"
        },
        {
          "indexed": false,
          "name": "senderBitfield",
          "type": "uint256"
        },
        {
          "indexed": false,
          "name": "receiverBitfield",
          "type": "uint256"
        },
        {
          "indexed": false,
          "name": "andedBitField",
          "type": "uint256"
        }
      ],
      "name": "EVT_GetActiveTrustChannelEXBitFieldLength",
      "type": "event"
    },
    {
      "anonymous": false,
      "inputs": [
        {
          "indexed": false,
          "name": "trustAnchorAddress",
          "type": "address"
        },
        {
          "indexed": false,
          "name": "trustAnchorIndex",
          "type": "uint32"
        },
        {
          "indexed": false,
          "name": "bitField",
          "type": "uint256"
        }
      ],
      "name": "EVT_GotBitFieldFromTrustAnchor",
      "type": "event"
    },
    {
      "anonymous": false,
      "inputs": [
        {
          "indexed": false,
          "name": "bitFieldWords",
          "type": "uint32"
        }
      ],
      "name": "EVT_TrustChannelBitFieldWords",
      "type": "event"
    },
    {
      "anonymous": false,
      "inputs": [
        {
          "indexed": false,
          "name": "trustChannelIndex",
          "type": "uint24"
        }
      ],
      "name": "EVT_TrustChannelBitFieldIndex",
      "type": "event"
    },
    {
      "anonymous": false,
      "inputs": [
        {
          "indexed": false,
          "name": "index",
          "type": "uint32"
        },
        {
          "indexed": false,
          "name": "shifter",
          "type": "uint32"
        },
        {
          "indexed": false,
          "name": "trustChannelBitFieldWord",
          "type": "uint32"
        },
        {
          "indexed": false,
          "name": "trustChannelBitField",
          "type": "uint256"
        },
        {
          "indexed": false,
          "name": "trustChannelIndex",
          "type": "uint24"
        }
      ],
      "name": "EVT_TrustChannelBitFieldIndexEXT",
      "type": "event"
    },
    {
      "anonymous": false,
      "inputs": [
        {
          "indexed": false,
          "name": "senderHighestSubmapNumber",
          "type": "uint24"
        },
        {
          "indexed": false,
          "name": "receiverHighestSubmapNumber",
          "type": "uint24"
        }
      ],
      "name": "EVT_GotHighestSubmapNumbers",
      "type": "event"
    },
    {
      "anonymous": false,
      "inputs": [
        {
          "indexed": false,
          "name": "lowestTrustChannelSubmapNumber",
          "type": "uint24"
        },
        {
          "indexed": false,
          "name": "highestTrustChannelSubmapNumber",
          "type": "uint24"
        }
      ],
      "name": "EVT_GotLowestAndHighestTrustChannelSubmapNumber",
      "type": "event"
    },
    {
      "anonymous": false,
      "inputs": [
        {
          "indexed": false,
          "name": "trustChannelIndex",
          "type": "uint24"
        },
        {
          "indexed": false,
          "name": "_senderIdentifiedAddress",
          "type": "address"
        },
        {
          "indexed": false,
          "name": "_receiverIdentifiedAddress",
          "type": "address"
        }
      ],
      "name": "EVT_TrustChannelRouted",
      "type": "event"
    },
    {
      "anonymous": false,
      "inputs": [
        {
          "indexed": false,
          "name": "_from",
          "type": "address"
        },
        {
          "indexed": false,
          "name": "_to",
          "type": "address"
        },
        {
          "indexed": false,
          "name": "_value",
          "type": "uint256"
        }
      ],
      "name": "EVT_WithdrawToAddress",
      "type": "event"
    },
    {
      "anonymous": false,
      "inputs": [
        {
          "indexed": false,
          "name": "_from",
          "type": "address"
        },
        {
          "indexed": false,
          "name": "_value",
          "type": "uint256"
        },
        {
          "indexed": false,
          "name": "_data",
          "type": "bytes"
        }
      ],
      "name": "EVT_ERC223TokenFallback",
      "type": "event"
    },
    {
      "anonymous": false,
      "inputs": [
        {
          "indexed": true,
          "name": "from",
          "type": "address"
        },
        {
          "indexed": true,
          "name": "to",
          "type": "address"
        },
        {
          "indexed": false,
          "name": "value",
          "type": "uint256"
        },
        {
          "indexed": true,
          "name": "data",
          "type": "bytes"
        }
      ],
      "name": "Transfer",
      "type": "event"
    },
    {
      "anonymous": false,
      "inputs": [
        {
          "indexed": true,
          "name": "from",
          "type": "address"
        },
        {
          "indexed": true,
          "name": "to",
          "type": "address"
        },
        {
          "indexed": false,
          "name": "tokens",
          "type": "uint256"
        }
      ],
      "name": "Transfer",
      "type": "event"
    },
    {
      "anonymous": false,
      "inputs": [
        {
          "indexed": true,
          "name": "tokenOwner",
          "type": "address"
        },
        {
          "indexed": true,
          "name": "spender",
          "type": "address"
        },
        {
          "indexed": false,
          "name": "tokens",
          "type": "uint256"
        }
      ],
      "name": "Approval",
      "type": "event"
    },
    {
      "anonymous": false,
      "inputs": [
        {
          "indexed": false,
          "name": "trustChannelIndex",
          "type": "uint32"
        }
      ],
      "name": "EVT_TrustChannelBitFieldIndex",
      "type": "event"
    },
    {
      "anonymous": false,
      "inputs": [
        {
          "indexed": false,
          "name": "index",
          "type": "uint32"
        },
        {
          "indexed": false,
          "name": "shifter",
          "type": "uint32"
        },
        {
          "indexed": false,
          "name": "trustChannelBitFieldWord",
          "type": "uint32"
        },
        {
          "indexed": false,
          "name": "trustChannelBitField",
          "type": "uint256"
        },
        {
          "indexed": false,
          "name": "trustChannelIndex",
          "type": "uint32"
        }
      ],
      "name": "EVT_TrustChannelBitFieldIndexEXT",
      "type": "event"
    },
    {
      "anonymous": false,
      "inputs": [
        {
          "indexed": false,
          "name": "trustChannelIndex",
          "type": "uint32"
        },
        {
          "indexed": false,
          "name": "_senderIdentifiedAddress",
          "type": "address"
        },
        {
          "indexed": false,
          "name": "_receiverIdentifiedAddress",
          "type": "address"
        }
      ],
      "name": "EVT_TrustChannelRouted",
      "type": "event"
    },
    {
      "anonymous": false,
      "inputs": [
        {
          "indexed": false,
          "name": "amount",
          "type": "uint256"
        },
        {
          "indexed": false,
          "name": "bip32X_type",
          "type": "uint32"
        },
        {
          "indexed": false,
          "name": "safeExpiryTime",
          "type": "uint256"
        },
        {
          "indexed": false,
          "name": "holdIndex",
          "type": "uint256"
        }
      ],
      "name": "EVT_heldSafeBalanceForType",
      "type": "event"
    },
    {
      "anonymous": false,
      "inputs": [
        {
          "indexed": false,
          "name": "holdIndex",
          "type": "uint256"
        },
        {
          "indexed": false,
          "name": "numRemainingHolds",
          "type": "uint256"
        },
        {
          "indexed": false,
          "name": "holdStatus",
          "type": "uint8"
        },
        {
          "indexed": false,
          "name": "freedAmount",
          "type": "uint256"
        },
        {
          "indexed": false,
          "name": "freedBip32X_type",
          "type": "uint256"
        },
        {
          "indexed": false,
          "name": "currentBlockTime",
          "type": "uint256"
        },
        {
          "indexed": false,
          "name": "safeExpiryTime",
          "type": "uint256"
        }
      ],
      "name": "EVT_freedSafeHold",
      "type": "event"
    },
    {
      "anonymous": false,
      "inputs": [
        {
          "indexed": false,
          "name": "holdIndex",
          "type": "uint256"
        },
        {
          "indexed": false,
          "name": "numRemainingHolds",
          "type": "uint256"
        },
        {
          "indexed": false,
          "name": "currentBlockTime",
          "type": "uint256"
        },
        {
          "indexed": false,
          "name": "safeExpiryTime",
          "type": "uint256"
        }
      ],
      "name": "EVT_safeHoldStillTimelocked",
      "type": "event"
    },
    {
      "constant": false,
      "inputs": [
        {
          "name": "_identifiedAddress",
          "type": "address"
        }
      ],
      "name": "getLocalKYCLevel",
      "outputs": [
        {
          "name": "result",
          "type": "int8"
        }
      ],
      "payable": false,
      "stateMutability": "nonpayable",
      "type": "function"
    },
    {
      "constant": false,
      "inputs": [
        {
          "name": "_amount",
          "type": "uint256"
        },
        {
          "name": "_senderIdentifiedAddress",
          "type": "address"
        },
        {
          "name": "_receiverIdentifiedAddress",
          "type": "address"
        },
        {
          "name": "_requiredConsentFromAllParties",
          "type": "bool"
        }
      ],
      "name": "getRelativeKYCLevelOnlyClean",
      "outputs": [
        {
          "name": "result",
          "type": "int16"
        }
      ],
      "payable": false,
      "stateMutability": "nonpayable",
      "type": "function"
    },
    {
      "constant": false,
      "inputs": [
        {
          "name": "_amount",
          "type": "uint256"
        },
        {
          "name": "_bip32X_type",
          "type": "uint32"
        },
        {
          "name": "_senderIdentifiedAddress",
          "type": "address"
        },
        {
          "name": "_receiverIdentifiedAddress",
          "type": "address"
        },
        {
          "name": "_payForDirty",
          "type": "bool"
        }
      ],
      "name": "getKycCanSend",
      "outputs": [
        {
          "name": "result",
          "type": "uint8"
        }
      ],
      "payable": false,
      "stateMutability": "nonpayable",
      "type": "function"
    },
    {
      "constant": true,
      "inputs": [
        {
          "name": "_identifiedAddress",
          "type": "address"
        },
        {
          "name": "_bip32X_type",
          "type": "uint32"
        }
      ],
      "name": "getBalanceBip32X",
      "outputs": [
        {
          "name": "balance",
          "type": "uint256"
        }
      ],
      "payable": false,
      "stateMutability": "view",
      "type": "function"
    },
    {
      "constant": false,
      "inputs": [
        {
          "name": "_amount",
          "type": "uint256"
        },
        {
          "name": "_bip32X_type",
          "type": "uint32"
        },
        {
          "name": "_identifiedAddress",
          "type": "address"
        },
        {
          "name": "_payForDirty",
          "type": "bool"
        }
      ],
      "name": "kycSend",
      "outputs": [
        {
          "name": "result",
          "type": "uint8"
        }
      ],
      "payable": false,
      "stateMutability": "nonpayable",
      "type": "function"
    },
    {
      "constant": false,
      "inputs": [
        {
          "name": "_to",
          "type": "address"
        },
        {
          "name": "_value",
          "type": "uint256"
        }
      ],
      "name": "withdraw",
      "outputs": [
        {
          "name": "ok",
          "type": "bool"
        }
      ],
      "payable": false,
      "stateMutability": "nonpayable",
      "type": "function"
    },
    {
      "constant": false,
      "inputs": [
        {
          "name": "_from",
          "type": "address"
        },
        {
          "name": "_value",
          "type": "uint256"
        },
        {
          "name": "_data",
          "type": "bytes"
        }
      ],
      "name": "tokenFallback",
      "outputs": [],
      "payable": false,
      "stateMutability": "nonpayable",
      "type": "function"
    },
    {
      "constant": true,
      "inputs": [
        {
          "name": "_who",
          "type": "address"
        }
      ],
      "name": "balanceOf",
      "outputs": [
        {
          "name": "",
          "type": "uint256"
        }
      ],
      "payable": false,
      "stateMutability": "view",
      "type": "function"
    },
    {
      "constant": true,
      "inputs": [],
      "name": "name",
      "outputs": [
        {
          "name": "_name",
          "type": "string"
        }
      ],
      "payable": false,
      "stateMutability": "view",
      "type": "function"
    },
    {
      "constant": true,
      "inputs": [],
      "name": "symbol",
      "outputs": [
        {
          "name": "_symbol",
          "type": "string"
        }
      ],
      "payable": false,
      "stateMutability": "view",
      "type": "function"
    },
    {
      "constant": true,
      "inputs": [],
      "name": "decimals",
      "outputs": [
        {
          "name": "_decimals",
          "type": "uint8"
        }
      ],
      "payable": false,
      "stateMutability": "view",
      "type": "function"
    },
    {
      "constant": true,
      "inputs": [],
      "name": "totalSupply",
      "outputs": [
        {
          "name": "_supply",
          "type": "uint256"
        }
      ],
      "payable": false,
      "stateMutability": "view",
      "type": "function"
    },
    {
      "constant": false,
      "inputs": [
        {
          "name": "_to",
          "type": "address"
        },
        {
          "name": "_value",
          "type": "uint256"
        }
      ],
      "name": "transfer",
      "outputs": [
        {
          "name": "ok",
          "type": "bool"
        }
      ],
      "payable": false,
      "stateMutability": "nonpayable",
      "type": "function"
    },
    {
      "constant": false,
      "inputs": [
        {
          "name": "_to",
          "type": "address"
        },
        {
          "name": "_value",
          "type": "uint256"
        },
        {
          "name": "data",
          "type": "bytes"
        }
      ],
      "name": "transfer",
      "outputs": [
        {
          "name": "ok",
          "type": "bool"
        }
      ],
      "payable": false,
      "stateMutability": "nonpayable",
      "type": "function"
    },
    {
      "constant": true,
      "inputs": [
        {
          "name": "_tokenOwner",
          "type": "address"
        },
        {
          "name": "_spender",
          "type": "address"
        }
      ],
      "name": "allowance",
      "outputs": [
        {
          "name": "remaining",
          "type": "uint256"
        }
      ],
      "payable": false,
      "stateMutability": "view",
      "type": "function"
    },
    {
      "constant": false,
      "inputs": [
        {
          "name": "_spender",
          "type": "address"
        },
        {
          "name": "_tokens",
          "type": "uint256"
        }
      ],
      "name": "approve",
      "outputs": [
        {
          "name": "success",
          "type": "bool"
        }
      ],
      "payable": false,
      "stateMutability": "nonpayable",
      "type": "function"
    },
    {
      "constant": false,
      "inputs": [
        {
          "name": "_from",
          "type": "address"
        },
        {
          "name": "_to",
          "type": "address"
        },
        {
          "name": "_tokens",
          "type": "uint256"
        }
      ],
      "name": "transferFrom",
      "outputs": [
        {
          "name": "success",
          "type": "bool"
        }
      ],
      "payable": false,
      "stateMutability": "nonpayable",
      "type": "function"
    }
  ],
  "bytecode": "0x6080604052610309600260036101000a81548163ffffffff021916908363ffffffff1602179055506000600260076101000a81548173ffffffffffffffffffffffffffffffffffffffff021916908373ffffffffffffffffffffffffffffffffffffffff16021790555063077cb5316002601b6101000a81548163ffffffff021916908363ffffffff1602179055506020600760006101000a81548161ffff021916908361ffff1602179055506008600760026101000a81548161ffff021916908361ffff1602179055506000600960006101000a81548173ffffffffffffffffffffffffffffffffffffffff021916908373ffffffffffffffffffffffffffffffffffffffff1602179055506000600a60006101000a81548173ffffffffffffffffffffffffffffffffffffffff021916908373ffffffffffffffffffffffffffffffffffffffff16021790555034801561015a57600080fd5b5033600b60006101000a81548173ffffffffffffffffffffffffffffffffffffffff021916908373ffffffffffffffffffffffffffffffffffffffff160217905550616f4580620001ac6000396000f3006080604052600436106101b7576000357c0100000000000000000000000000000000000000000000000000000000900463ffffffff16806303305146146102ac57806304d6a15f1461033f57806306fdde0314610498578063095ea7b3146105285780630a3616781461058d5780630e97d4c7146105e057806318160ddd1461066157806323b872dd1461068c578063313ce567146107115780633b23d423146107425780633b7b9e8f1461079557806340049b92146107f257806345e0972c14610875578063470413c8146108a45780634f9cf96f146108f157806370a082311461099457806371457397146109eb57806381bde12014610a4857806395d89b4114610aa7578063a9059cbb14610b37578063b459b9de14610b9c578063b460b1a514610bef578063b7b559d914610c36578063be45fd6214610c93578063c0ee0b8a14610d3e578063c62d30dc14610dd1578063ca37959514610e22578063ce3b94d714610e89578063d058df6614610f0c578063dd62ed3e14610f69578063df90225d14610fe0578063e3a8559314611037578063e8c5d84314611092578063f3fef3a3146110f9578063f8c2e26f1461115e575b61023834600d60003373ffffffffffffffffffffffffffffffffffffffff1673ffffffffffffffffffffffffffffffffffffffff1681526020019081526020016000206000600260039054906101000a900463ffffffff1663ffffffff1663ffffffff1681526020019081526020016000205461119590919063ffffffff16565b600d60003373ffffffffffffffffffffffffffffffffffffffff1673ffffffffffffffffffffffffffffffffffffffff1681526020019081526020016000206000600260039054906101000a900463ffffffff1663ffffffff1663ffffffff16815260200190815260200160002081905550005b3480156102b857600080fd5b5061032360048036038101908080359060200190929190803573ffffffffffffffffffffffffffffffffffffffff169060200190929190803573ffffffffffffffffffffffffffffffffffffffff1690602001909291908035151590602001909291905050506111b3565b604051808260010b60010b815260200191505060405180910390f35b34801561034b57600080fd5b5061047a600480360381019080803573ffffffffffffffffffffffffffffffffffffffff1690602001909291908035600019169060200190929190803590602001908201803590602001908080601f0160208091040260200160405190810160405280939291908181526020018383808284378201915050505050509192919290803590602001908201803590602001908080601f0160208091040260200160405190810160405280939291908181526020018383808284378201915050505050509192919290803590602001908201803590602001908080601f016020809104026020016040519081016040528093929190818152602001838380828437820191505050505050919291929080359060200190929190803563ffffffff169060200190929190505050611355565b604051808261ffff1661ffff16815260200191505060405180910390f35b3480156104a457600080fd5b506104ad6116d7565b6040518080602001828103825283818151815260200191508051906020019080838360005b838110156104ed5780820151818401526020810190506104d2565b50505050905090810190601f16801561051a5780820380516001836020036101000a031916815260200191505b509250505060405180910390f35b34801561053457600080fd5b50610573600480360381019080803573ffffffffffffffffffffffffffffffffffffffff16906020019092919080359060200190929190505050611714565b604051808215151515815260200191505060405180910390f35b34801561059957600080fd5b506105be600480360381019080803563ffffffff169060200190929190505050611835565b604051808263ffffffff1663ffffffff16815260200191505060405180910390f35b3480156105ec57600080fd5b50610647600480360381019080803590602001908201803590602001908080601f01602080910402602001604051908101604052809392919081815260200183838082843782019150505050505091929192905050506118a1565b604051808215151515815260200191505060405180910390f35b34801561066d57600080fd5b506106766119e0565b6040518082815260200191505060405180910390f35b34801561069857600080fd5b506106f7600480360381019080803573ffffffffffffffffffffffffffffffffffffffff169060200190929190803573ffffffffffffffffffffffffffffffffffffffff169060200190929190803590602001909291905050506119ea565b604051808215151515815260200191505060405180910390f35b34801561071d57600080fd5b50610726611ee7565b604051808260ff1660ff16815260200191505060405180910390f35b34801561074e57600080fd5b50610773600480360381019080803563ffffffff169060200190929190505050611ef0565b604051808263ffffffff1663ffffffff16815260200191505060405180910390f35b3480156107a157600080fd5b506107d6600480360381019080803573ffffffffffffffffffffffffffffffffffffffff169060200190929190505050611f5a565b604051808260000b60000b815260200191505060405180910390f35b3480156107fe57600080fd5b5061085960048036038101908080359060200190929190803563ffffffff169060200190929190803573ffffffffffffffffffffffffffffffffffffffff169060200190929190803515159060200190929190505050612106565b604051808260ff1660ff16815260200191505060405180910390f35b34801561088157600080fd5b5061088a6121b4565b604051808215151515815260200191505060405180910390f35b3480156108b057600080fd5b506108d5600480360381019080803563ffffffff16906020019092919050505061224e565b604051808260ff1660ff16815260200191505060405180910390f35b3480156108fd57600080fd5b5061097860048036038101908080359060200190929190803563ffffffff169060200190929190803573ffffffffffffffffffffffffffffffffffffffff169060200190929190803573ffffffffffffffffffffffffffffffffffffffff169060200190929190803515159060200190929190505050612787565b604051808260ff1660ff16815260200191505060405180910390f35b3480156109a057600080fd5b506109d5600480360381019080803573ffffffffffffffffffffffffffffffffffffffff1690602001909291905050506128c7565b6040518082815260200191505060405180910390f35b3480156109f757600080fd5b50610a2c600480360381019080803573ffffffffffffffffffffffffffffffffffffffff16906020019092919050505061293f565b604051808260ff1660ff16815260200191505060405180910390f35b348015610a5457600080fd5b50610a89600480360381019080803573ffffffffffffffffffffffffffffffffffffffff1690602001909291905050506129de565b604051808261ffff1661ffff16815260200191505060405180910390f35b348015610ab357600080fd5b50610abc612d34565b6040518080602001828103825283818151815260200191508051906020019080838360005b83811015610afc578082015181840152602081019050610ae1565b50505050905090810190601f168015610b295780820380516001836020036101000a031916815260200191505b509250505060405180910390f35b348015610b4357600080fd5b50610b82600480360381019080803573ffffffffffffffffffffffffffffffffffffffff16906020019092919080359060200190929190505050612d71565b604051808215151515815260200191505060405180910390f35b348015610ba857600080fd5b50610bcd600480360381019080803563ffffffff1690602001909291905050506131ed565b604051808263ffffffff1663ffffffff16815260200191505060405180910390f35b348015610bfb57600080fd5b50610c1a600480360381019080803590602001909291905050506132bf565b604051808260ff1660ff16815260200191505060405180910390f35b348015610c4257600080fd5b50610c77600480360381019080803573ffffffffffffffffffffffffffffffffffffffff16906020019092919050505061346c565b604051808260ff1660ff16815260200191505060405180910390f35b348015610c9f57600080fd5b50610d24600480360381019080803573ffffffffffffffffffffffffffffffffffffffff16906020019092919080359060200190929190803590602001908201803590602001908080601f0160208091040260200160405190810160405280939291908181526020018383808284378201915050505050509192919290505050613684565b604051808215151515815260200191505060405180910390f35b348015610d4a57600080fd5b50610dcf600480360381019080803573ffffffffffffffffffffffffffffffffffffffff16906020019092919080359060200190929190803590602001908201803590602001908080601f0160208091040260200160405190810160405280939291908181526020018383808284378201915050505050509192919290505050613afe565b005b348015610ddd57600080fd5b50610e20600480360381019080803573ffffffffffffffffffffffffffffffffffffffff169060200190929190803561ffff169060200190929190505050613bdb565b005b348015610e2e57600080fd5b50610e73600480360381019080803573ffffffffffffffffffffffffffffffffffffffff169060200190929190803563ffffffff1690602001909291905050506143f9565b6040518082815260200191505060405180910390f35b348015610e9557600080fd5b50610eea600480360381019080803573ffffffffffffffffffffffffffffffffffffffff169060200190929190803573ffffffffffffffffffffffffffffffffffffffff169060200190929190505050614460565b604051808263ffffffff1663ffffffff16815260200191505060405180910390f35b348015610f1857600080fd5b50610f4d600480360381019080803573ffffffffffffffffffffffffffffffffffffffff169060200190929190505050614ade565b604051808260ff1660ff16815260200191505060405180910390f35b348015610f7557600080fd5b50610fca600480360381019080803573ffffffffffffffffffffffffffffffffffffffff169060200190929190803573ffffffffffffffffffffffffffffffffffffffff169060200190929190505050614b7d565b6040518082815260200191505060405180910390f35b348015610fec57600080fd5b50611021600480360381019080803573ffffffffffffffffffffffffffffffffffffffff169060200190929190505050614c33565b6040518082815260200191505060405180910390f35b34801561104357600080fd5b5061107c60048036038101908080359060200190929190803563ffffffff16906020019092919080359060200190929190505050614cab565b6040518082815260200191505060405180910390f35b34801561109e57600080fd5b506110e3600480360381019080803573ffffffffffffffffffffffffffffffffffffffff169060200190929190803563ffffffff169060200190929190505050615086565b6040518082815260200191505060405180910390f35b34801561110557600080fd5b50611144600480360381019080803573ffffffffffffffffffffffffffffffffffffffff169060200190929190803590602001909291905050506150ed565b604051808215151515815260200191505060405180910390f35b34801561116a57600080fd5b5061117361557f565b604051808263ffffffff1663ffffffff16815260200191505060405180910390f35b60008082840190508381101515156111a957fe5b8091505092915050565b6000806000806001151585151514156111d7576111d08787615599565b91506111e4565b6111e18787614460565b91505b63ffffffff80168263ffffffff1614151561134757600a60009054906101000a900473ffffffffffffffffffffffffffffffffffffffff1690508073ffffffffffffffffffffffffffffffffffffffff16632966497c898989866040518563ffffffff167c0100000000000000000000000000000000000000000000000000000000028152600401808581526020018473ffffffffffffffffffffffffffffffffffffffff1673ffffffffffffffffffffffffffffffffffffffff1681526020018373ffffffffffffffffffffffffffffffffffffffff1673ffffffffffffffffffffffffffffffffffffffff1681526020018263ffffffff1663ffffffff168152602001945050505050602060405180830381600087803b15801561130957600080fd5b505af115801561131d573d6000803e3d6000fd5b505050506040513d602081101561133357600080fd5b810190808051906020019092919050505092505b829350505050949350505050565b60008060006113633361599c565b8061139957508973ffffffffffffffffffffffffffffffffffffffff163373ffffffffffffffffffffffffffffffffffffffff16145b156116c55760016000808c73ffffffffffffffffffffffffffffffffffffffff1673ffffffffffffffffffffffffffffffffffffffff168152602001908152602001600020600101805490500191508163ffffffff166000808c73ffffffffffffffffffffffffffffffffffffffff1673ffffffffffffffffffffffffffffffffffffffff1681526020019081526020016000206001018161143b9190616cb3565b506000808b73ffffffffffffffffffffffffffffffffffffffff1673ffffffffffffffffffffffffffffffffffffffff1681526020019081526020016000206001016001830363ffffffff1681548110151561149357fe5b9060005260206000209060060201905088816000018160001916905550878160010190805190602001906114c8929190616ce5565b50868160020190805190602001906114e1929190616ce5565b50858160030190805190602001906114fa929190616ce5565b50848160040181905550838160050160006101000a81548163ffffffff021916908363ffffffff16021790555060028081111561153357fe5b600260009054906101000a900460ff16600281111561154e57fe5b1415611641576001600260006101000a81548160ff0219169083600281111561157357fe5b0217905550600182036000808c73ffffffffffffffffffffffffffffffffffffffff1673ffffffffffffffffffffffffffffffffffffffff16815260200190815260200160002060020160006101000a81548163ffffffff021916908363ffffffff16021790555060016000808c73ffffffffffffffffffffffffffffffffffffffff1673ffffffffffffffffffffffffffffffffffffffff16815260200190815260200160002060020160046101000a81548163ffffffff021916908363ffffffff1602179055506116bc565b6000808b73ffffffffffffffffffffffffffffffffffffffff1673ffffffffffffffffffffffffffffffffffffffff168152602001908152602001600020600201600481819054906101000a900463ffffffff168092919060010191906101000a81548163ffffffff021916908363ffffffff160217905550505b600192506116ca565b600092505b5050979650505050505050565b60606040805190810160405280600581526020017f5368796674000000000000000000000000000000000000000000000000000000815250905090565b600081600e60003373ffffffffffffffffffffffffffffffffffffffff1673ffffffffffffffffffffffffffffffffffffffff16815260200190815260200160002060008573ffffffffffffffffffffffffffffffffffffffff1673ffffffffffffffffffffffffffffffffffffffff1681526020019081526020016000206000600260039054906101000a900463ffffffff1663ffffffff1663ffffffff168152602001908152602001600020819055508273ffffffffffffffffffffffffffffffffffffffff163373ffffffffffffffffffffffffffffffffffffffff167f8c5be1e5ebec7d5bd14f71427d1e84f3dd0314c0f7b2291e5b200ac8c7c3b925846040518082815260200191505060405180910390a36001905092915050565b6000635555555560018363ffffffff169060020a90041682039150633333333360028363ffffffff169060020a9004166333333333831601915060186301010101630f0f0f0f60048563ffffffff169060020a90048501160263ffffffff169060020a90049050919050565b600080600260079054906101000a900473ffffffffffffffffffffffffffffffffffffffff1690508073ffffffffffffffffffffffffffffffffffffffff1663375bfa5d846040518263ffffffff167c01000000000000000000000000000000000000000000000000000000000281526004018080602001828103825283818151815260200191508051906020019080838360005b83811015611951578082015181840152602081019050611936565b50505050905090810190601f16801561197e5780820380516001836020036101000a031916815260200191505b5092505050602060405180830381600087803b15801561199d57600080fd5b505af11580156119b1573d6000803e3d6000fd5b505050506040513d60208110156119c757600080fd5b8101908080519060200190929190505050915050919050565b6000600f54905090565b600081600e60008673ffffffffffffffffffffffffffffffffffffffff1673ffffffffffffffffffffffffffffffffffffffff16815260200190815260200160002060008573ffffffffffffffffffffffffffffffffffffffff1673ffffffffffffffffffffffffffffffffffffffff1681526020019081526020016000206000600260039054906101000a900463ffffffff1663ffffffff1663ffffffff1681526020019081526020016000205410158015611b15575081600d60008673ffffffffffffffffffffffffffffffffffffffff1673ffffffffffffffffffffffffffffffffffffffff1681526020019081526020016000206000600260039054906101000a900463ffffffff1663ffffffff1663ffffffff1681526020019081526020016000205410155b15611edb57611bd882600e60008773ffffffffffffffffffffffffffffffffffffffff1673ffffffffffffffffffffffffffffffffffffffff16815260200190815260200160002060008673ffffffffffffffffffffffffffffffffffffffff1673ffffffffffffffffffffffffffffffffffffffff1681526020019081526020016000206000600260039054906101000a900463ffffffff1663ffffffff1663ffffffff168152602001908152602001600020546159f690919063ffffffff16565b600e60008673ffffffffffffffffffffffffffffffffffffffff1673ffffffffffffffffffffffffffffffffffffffff16815260200190815260200160002060008573ffffffffffffffffffffffffffffffffffffffff1673ffffffffffffffffffffffffffffffffffffffff1681526020019081526020016000206000600260039054906101000a900463ffffffff1663ffffffff1663ffffffff16815260200190815260200160002081905550611d0882600d60008773ffffffffffffffffffffffffffffffffffffffff1673ffffffffffffffffffffffffffffffffffffffff1681526020019081526020016000206000600260039054906101000a900463ffffffff1663ffffffff1663ffffffff168152602001908152602001600020546159f690919063ffffffff16565b600d60008673ffffffffffffffffffffffffffffffffffffffff1673ffffffffffffffffffffffffffffffffffffffff1681526020019081526020016000206000600260039054906101000a900463ffffffff1663ffffffff1663ffffffff16815260200190815260200160002081905550611dfb82600d60008673ffffffffffffffffffffffffffffffffffffffff1673ffffffffffffffffffffffffffffffffffffffff1681526020019081526020016000206000600260039054906101000a900463ffffffff1663ffffffff1663ffffffff1681526020019081526020016000205461119590919063ffffffff16565b600d60008573ffffffffffffffffffffffffffffffffffffffff1673ffffffffffffffffffffffffffffffffffffffff1681526020019081526020016000206000600260039054906101000a900463ffffffff1663ffffffff1663ffffffff168152602001908152602001600020819055508273ffffffffffffffffffffffffffffffffffffffff168473ffffffffffffffffffffffffffffffffffffffff167fddf252ad1be2c89b69c2b068fc378daa952ba7f163c4a11628f55a4df523b3ef846040518082815260200191505060405180910390a360019050611ee0565b600090505b9392505050565b60006012905090565b600081600003821691506002601b9054906101000a900463ffffffff1682029150601b8263ffffffff169060020a9004915060038263ffffffff16602081101515611f3757fe5b600891828204019190066004029054906101000a900463ffffffff169050919050565b600060016003811115611f6957fe5b600860008473ffffffffffffffffffffffffffffffffffffffff1673ffffffffffffffffffffffffffffffffffffffff16815260200190815260200160002060010160000160019054906101000a900460ff166003811115611fc757fe5b141561202757600860008373ffffffffffffffffffffffffffffffffffffffff1673ffffffffffffffffffffffffffffffffffffffff168152602001908152602001600020600101600e01600c9054906101000a900460000b9050612101565b6002600381111561203457fe5b600860008473ffffffffffffffffffffffffffffffffffffffff1673ffffffffffffffffffffffffffffffffffffffff16815260200190815260200160002060010160000160019054906101000a900460ff16600381111561209257fe5b14156120fc576120a18261346c565b50600860008373ffffffffffffffffffffffffffffffffffffffff1673ffffffffffffffffffffffffffffffffffffffff168152602001908152602001600020600101600e01600c9054906101000a900460000b9050612101565b600090505b919050565b60008085600d60003373ffffffffffffffffffffffffffffffffffffffff1673ffffffffffffffffffffffffffffffffffffffff16815260200190815260200160002060008763ffffffff1663ffffffff168152602001908152602001600020541015156121a65761217b8686338787612787565b905060038160ff16141561219e5761219586863387615a0f565b600391506121ab565b8091506121ab565b600080fd5b50949350505050565b600080600090505b60208160ff161015612246578060ff166003601b8360ff166002601b9054906101000a900463ffffffff1663ffffffff169060020a0263ffffffff169060020a900463ffffffff1660208110151561221057fe5b600891828204019190066004026101000a81548163ffffffff021916908363ffffffff16021790555080806001019150506121bc565b600191505090565b6000806000806000806000803273ffffffffffffffffffffffffffffffffffffffff1673ffffffffffffffffffffffffffffffffffffffff16815260200190815260200160002094508663ffffffff1685600301805490501180156122ec575060011515856003018863ffffffff168154811015156122c957fe5b906000526020600020906004020160000160009054906101000a900460ff161515145b1561277857846003018763ffffffff1681548110151561230857fe5b906000526020600020906004020193504284600301541115156127005761234784600101548560020160009054906101000a900463ffffffff16615bda565b925060018360ff1614156126fb5784600601600081819054906101000a900461ffff16809291906001900391906101000a81548161ffff021916908361ffff160217905550506000856003018863ffffffff168154811015156123a657fe5b906000526020600020906004020160000160006101000a81548160ff0219169083151502179055508460060160029054906101000a900463ffffffff1663ffffffff168763ffffffff16141561247d578460060160069054906101000a900463ffffffff1663ffffffff168763ffffffff16141561242357612478565b8460040160008863ffffffff1663ffffffff16815260200190815260200160002060009054906101000a900463ffffffff168560060160026101000a81548163ffffffff021916908363ffffffff1602179055505b6125e8565b8460060160069054906101000a900463ffffffff1663ffffffff168763ffffffff1614156124fe578460050160008863ffffffff1663ffffffff16815260200190815260200160002060009054906101000a900463ffffffff168560060160066101000a81548163ffffffff021916908363ffffffff1602179055506125e7565b8460050160008863ffffffff1663ffffffff16815260200190815260200160002060009054906101000a900463ffffffff1691508460040160008863ffffffff1663ffffffff16815260200190815260200160002060009054906101000a900463ffffffff169050818560050160008363ffffffff1663ffffffff16815260200190815260200160002060006101000a81548163ffffffff021916908363ffffffff160217905550808560040160008463ffffffff1663ffffffff16815260200190815260200160002060006101000a81548163ffffffff021916908363ffffffff1602179055505b5b60008560060160009054906101000a900461ffff1661ffff16141561262e5760028560090160006101000a81548160ff0219169083600281111561262857fe5b02179055505b7f9136ca7e005ca6190ef2af52a750e62b7db169b0f696a9fa59eedce71c58cbdc878660060160009054906101000a900461ffff168760090160009054906101000a900460ff1687600101548860020160009054906101000a900463ffffffff16428a60030154604051808863ffffffff1681526020018761ffff1681526020018660028111156126bb57fe5b60ff1681526020018581526020018463ffffffff16815260200183815260200182815260200197505050505050505060405180910390a16003955061277d565b600080fd5b7f96e92bea059454ffd6caf596fce58c01caa1e03d961b12ad17c093f58492a242878660060160009054906101000a900461ffff16428760030154604051808563ffffffff1681526020018461ffff16815260200183815260200182815260200194505050505060405180910390a16001955061277d565b600095505b5050505050919050565b6000806002600381111561279757fe5b600860008773ffffffffffffffffffffffffffffffffffffffff1673ffffffffffffffffffffffffffffffffffffffff16815260200190815260200160002060010160000160019054906101000a900460ff1660038111156127f557fe5b148061286957506002600381111561280957fe5b600860008673ffffffffffffffffffffffffffffffffffffffff1673ffffffffffffffffffffffffffffffffffffffff16815260200190815260200160002060010160000160019054906101000a900460ff16600381111561286757fe5b145b1561287f5782151561287e57600491506128bd565b5b61288c87868660016111b3565b905060008160010b12156128b85760018160010b13156128af57600391506128bd565b600191506128bd565b600091505b5095945050505050565b6000600d60008373ffffffffffffffffffffffffffffffffffffffff1673ffffffffffffffffffffffffffffffffffffffff1681526020019081526020016000206000600260039054906101000a900463ffffffff1663ffffffff1663ffffffff168152602001908152602001600020549050919050565b6000612949615df3565b156129d457600073ffffffffffffffffffffffffffffffffffffffff168273ffffffffffffffffffffffffffffffffffffffff161415151561298a57600080fd5b81600960006101000a81548173ffffffffffffffffffffffffffffffffffffffff021916908373ffffffffffffffffffffffffffffffffffffffff160217905550600190506129d9565b600090505b919050565b6000806000806000806129f03361599c565b15612d2557600280811115612a0157fe5b600260009054906101000a900460ff166002811115612a1c57fe5b141515612d1c57600260079054906101000a900473ffffffffffffffffffffffffffffffffffffffff1694506000808873ffffffffffffffffffffffffffffffffffffffff1673ffffffffffffffffffffffffffffffffffffffff16815260200190815260200160002093508360020160049054906101000a900463ffffffff169150600260019054906101000a900461ffff1661ffff168263ffffffff161115612add57600260019054906101000a900461ffff1661ffff169150600192505b8360020160009054906101000a900463ffffffff1690505b8163ffffffff168163ffffffff161015612ca8578473ffffffffffffffffffffffffffffffffffffffff1663375bfa5d856001018363ffffffff16815481101515612b3c57fe5b90600052602060002090600602016001016040518263ffffffff167c01000000000000000000000000000000000000000000000000000000000281526004018080602001828103825283818154600181600116156101000203166002900481526020019150805460018160011615610100020316600290048015612c015780601f10612bd657610100808354040283529160200191612c01565b820191906000526020600020905b815481529060010190602001808311612be457829003601f168201915b505092505050602060405180830381600087803b158015612c2157600080fd5b505af1158015612c35573d6000803e3d6000fd5b505050506040513d6020811015612c4b57600080fd5b8101908080519060200190929190505050846001018263ffffffff16815481101515612c7357fe5b906000526020600020906006020160050160046101000a81548160ff0219169083151502179055508080600101915050612af5565b818460020160008282829054906101000a900463ffffffff160192506101000a81548163ffffffff021916908363ffffffff160217905550821515612d135760028060006101000a81548160ff02191690836002811115612d0557fe5b021790555060039550612d2a565b60029550612d2a565b60019550612d2a565b600095505b5050505050919050565b60606040805190810160405280600481526020017f5348465400000000000000000000000000000000000000000000000000000000815250905090565b6000806060600084600d60003373ffffffffffffffffffffffffffffffffffffffff1673ffffffffffffffffffffffffffffffffffffffff1681526020019081526020016000206000600260039054906101000a900463ffffffff1663ffffffff1663ffffffff168152602001908152602001600020541015156131df57853b9250612e7485600d60003373ffffffffffffffffffffffffffffffffffffffff1673ffffffffffffffffffffffffffffffffffffffff1681526020019081526020016000206000600260039054906101000a900463ffffffff1663ffffffff1663ffffffff168152602001908152602001600020546159f690919063ffffffff16565b600d60003373ffffffffffffffffffffffffffffffffffffffff1673ffffffffffffffffffffffffffffffffffffffff1681526020019081526020016000206000600260039054906101000a900463ffffffff1663ffffffff1663ffffffff16815260200190815260200160002081905550612f6785600d60008973ffffffffffffffffffffffffffffffffffffffff1673ffffffffffffffffffffffffffffffffffffffff1681526020019081526020016000206000600260039054906101000a900463ffffffff1663ffffffff1663ffffffff1681526020019081526020016000205461119590919063ffffffff16565b600d60008873ffffffffffffffffffffffffffffffffffffffff1673ffffffffffffffffffffffffffffffffffffffff1681526020019081526020016000206000600260039054906101000a900463ffffffff1663ffffffff1663ffffffff16815260200190815260200160002081905550600083111561310e578590508073ffffffffffffffffffffffffffffffffffffffff1663c0ee0b8a3387856040518463ffffffff167c0100000000000000000000000000000000000000000000000000000000028152600401808473ffffffffffffffffffffffffffffffffffffffff1673ffffffffffffffffffffffffffffffffffffffff16815260200183815260200180602001828103825283818151815260200191508051906020019080838360005b838110156130a757808201518184015260208101905061308c565b50505050905090810190601f1680156130d45780820380516001836020036101000a031916815260200191505b50945050505050600060405180830381600087803b1580156130f557600080fd5b505af1158015613109573d6000803e3d6000fd5b505050505b816040518082805190602001908083835b602083101515613144578051825260208201915060208101905060208303925061311f565b6001836020036101000a03801982511681845116808217855250505050505090500191505060405180910390208673ffffffffffffffffffffffffffffffffffffffff163373ffffffffffffffffffffffffffffffffffffffff167fe19260aff97b920c7df27010903aeb9c8d2be5d310a2c67824cf3f15396e4c16886040518082815260200191505060405180910390a4600193506131e4565b600093505b50505092915050565b6000635555555560018363ffffffff169060020a90041660016355555555841663ffffffff169060020a02179150633333333360028363ffffffff169060020a90041660026333333333841663ffffffff169060020a02179150630f0f0f0f60048363ffffffff169060020a9004166004630f0f0f0f841663ffffffff169060020a0217915060188263ffffffff169060020a02600861ff00841663ffffffff169060020a0261ff0060088563ffffffff169060020a90041660188563ffffffff169060020a90041717179050919050565b600080600080600080600063ffffffff955085881693507f3ad02d4cc2da46ae2d04fec4fb9c292715bbdd9a8d76b6eb3bc5ba165d7efcd084604051808263ffffffff1663ffffffff16815260200191505060405180910390a160008463ffffffff161415156133795761333284611ef0565b94507fd2b9662e76f66bcc5970a866051d4e87fc54d83d29ca786772e5cdf20dd718ef85604051808260ff1663ffffffff16815260200191505060405180910390a161345e565b600690505b60008160ff1610151561345d578060070360200291508160ff168260ff16879060020a0289169060020a9004925060008363ffffffff1614151561344f578160ff166133c984611ef0565b0194507f7da1a9ffbed2f72b97b5f596ff969a8f5b6d4da411183a6b7511455b83278f438183858b89604051808660ff1663ffffffff1681526020018560ff1663ffffffff1681526020018463ffffffff1663ffffffff1681526020018381526020018260ff1663ffffffff1681526020019550505050505060405180910390a161345d565b80806001900391505061337e565b5b849650505050505050919050565b600080600080600080600080600960009054906101000a900473ffffffffffffffffffffffffffffffffffffffff1696508673ffffffffffffffffffffffffffffffffffffffff16637fd463ca8a6040518263ffffffff167c0100000000000000000000000000000000000000000000000000000000028152600401808273ffffffffffffffffffffffffffffffffffffffff1673ffffffffffffffffffffffffffffffffffffffff168152602001915050602060405180830381600087803b15801561353857600080fd5b505af115801561354c573d6000803e3d6000fd5b505050506040513d602081101561356257600080fd5b810190808051906020019092919050505095506101008661ffff1611156135895761010095505b600860008a73ffffffffffffffffffffffffffffffffffffffff1673ffffffffffffffffffffffffffffffffffffffff1681526020019081526020016000206001016001018054905094508561ffff168561ffff16141515613673578486039250600760009054906101000a900461ffff1661ffff168361ffff1610151561362357600760009054906101000a900461ffff169250600193505b600091505b8261ffff168261ffff1610156136545781850190506136478982613bdb565b8180600101925050613628565b60001515841515141561366a5760029750613678565b60019750613678565b600097505b50505050505050919050565b600080600084600d60003373ffffffffffffffffffffffffffffffffffffffff1673ffffffffffffffffffffffffffffffffffffffff1681526020019081526020016000206000600260039054906101000a900463ffffffff1663ffffffff1663ffffffff16815260200190815260200160002054101515613af057853b915061378585600d60003373ffffffffffffffffffffffffffffffffffffffff1673ffffffffffffffffffffffffffffffffffffffff1681526020019081526020016000206000600260039054906101000a900463ffffffff1663ffffffff1663ffffffff168152602001908152602001600020546159f690919063ffffffff16565b600d60003373ffffffffffffffffffffffffffffffffffffffff1673ffffffffffffffffffffffffffffffffffffffff1681526020019081526020016000206000600260039054906101000a900463ffffffff1663ffffffff1663ffffffff1681526020019081526020016000208190555061387885600d60008973ffffffffffffffffffffffffffffffffffffffff1673ffffffffffffffffffffffffffffffffffffffff1681526020019081526020016000206000600260039054906101000a900463ffffffff1663ffffffff1663ffffffff1681526020019081526020016000205461119590919063ffffffff16565b600d60008873ffffffffffffffffffffffffffffffffffffffff1673ffffffffffffffffffffffffffffffffffffffff1681526020019081526020016000206000600260039054906101000a900463ffffffff1663ffffffff1663ffffffff168152602001908152602001600020819055506000821115613a1f578590508073ffffffffffffffffffffffffffffffffffffffff1663c0ee0b8a3387876040518463ffffffff167c0100000000000000000000000000000000000000000000000000000000028152600401808473ffffffffffffffffffffffffffffffffffffffff1673ffffffffffffffffffffffffffffffffffffffff16815260200183815260200180602001828103825283818151815260200191508051906020019080838360005b838110156139b857808201518184015260208101905061399d565b50505050905090810190601f1680156139e55780820380516001836020036101000a031916815260200191505b50945050505050600060405180830381600087803b158015613a0657600080fd5b505af1158015613a1a573d6000803e3d6000fd5b505050505b836040518082805190602001908083835b602083101515613a555780518252602082019150602081019050602083039250613a30565b6001836020036101000a03801982511681845116808217855250505050505090500191505060405180910390208673ffffffffffffffffffffffffffffffffffffffff163373ffffffffffffffffffffffffffffffffffffffff167fe19260aff97b920c7df27010903aeb9c8d2be5d310a2c67824cf3f15396e4c16886040518082815260200191505060405180910390a460019250613af5565b600092505b50509392505050565b7f17d1907ed8f339e70e06b7080a2d10e828a9b8ce6ebceccd2231c37434c4082d838383604051808473ffffffffffffffffffffffffffffffffffffffff1673ffffffffffffffffffffffffffffffffffffffff16815260200183815260200180602001828103825283818151815260200191508051906020019080838360005b83811015613b9a578082015181840152602081019050613b7f565b50505050905090810190601f168015613bc75780820380516001836020036101000a031916815260200191505b5094505050505060405180910390a1505050565b600080600080600080600080600960009054906101000a900473ffffffffffffffffffffffffffffffffffffffff1697508773ffffffffffffffffffffffffffffffffffffffff1663589044638b8b6040518363ffffffff167c0100000000000000000000000000000000000000000000000000000000028152600401808373ffffffffffffffffffffffffffffffffffffffff1673ffffffffffffffffffffffffffffffffffffffff1681526020018260ff1661ffff16815260200192505050608060405180830381600087803b158015613cb657600080fd5b505af1158015613cca573d6000803e3d6000fd5b505050506040513d6080811015613ce057600080fd5b8101908080519060200190929190805190602001909291908051906020019092919080519060200190929190505050809750819850829950839a5050505050600860008b73ffffffffffffffffffffffffffffffffffffffff1673ffffffffffffffffffffffffffffffffffffffff1681526020019081526020016000206001019250600015158360000160009054906101000a900460ff1615151415613e075760018360000160006101000a81548160ff02191690831515021790555062ffffff83600e0160006101000a81548162ffffff021916908362ffffff16021790555082600e0160039054906101000a90505062ffffff83600e0160066101000a81548162ffffff021916908362ffffff16021790555082600e0160099054906101000a9050505b6001151583600a0160008b61ffff1661ffff16815260200190815260200160002060009054906101000a900460ff1615151415613f89576000151583600b0160008b61ffff1661ffff16815260200190815260200160002060009054906101000a900460ff161515148015613e80575060011515841515145b15613ee2578260060160008763ffffffff1663ffffffff168152602001908152602001600020600081819054906101000a900461ffff168092919060010191906101000a81548161ffff021916908361ffff1602179055505060019150613f84565b6001151583600b0160008b61ffff1661ffff16815260200190815260200160002060009054906101000a900460ff161515148015613f24575060001515841515145b15613f83578260060160008763ffffffff1663ffffffff168152602001908152602001600020600081819054906101000a900461ffff16809291906001900391906101000a81548161ffff021916908361ffff16021790555050600191505b5b6141f1565b60008360060160008863ffffffff1663ffffffff16815260200190815260200160002060009054906101000a900461ffff1661ffff1614156140075762ffffff8360080160008863ffffffff1663ffffffff16815260200190815260200160002060006101000a81548162ffffff021916908362ffffff1602179055505b8260060160008763ffffffff1663ffffffff168152602001908152602001600020600081819054906101000a900461ffff168092919060010191906101000a81548161ffff021916908361ffff16021790555050600115158360030160008863ffffffff1663ffffffff16815260200190815260200160002060009054906101000a900460ff161515141561409b576140d6565b60018360030160008863ffffffff1663ffffffff16815260200190815260200160002060006101000a81548160ff0219169083151502179055505b60008360040160009054906101000a900461ffff1661ffff16141561413d57858360040160026101000a81548163ffffffff021916908363ffffffff16021790555060018360040160006101000a81548161ffff021916908361ffff160217905550614192565b858360020160008560040160069054906101000a900463ffffffff1663ffffffff1663ffffffff16815260200190815260200160002060006101000a81548163ffffffff021916908363ffffffff1602179055505b82600401600081819054906101000a900461ffff168092919060010191906101000a81548161ffff021916908361ffff16021790555050858360040160066101000a81548163ffffffff021916908363ffffffff160217905550600191505b6001151582151514156143b857831561436f5760028873ffffffffffffffffffffffffffffffffffffffff16632192ca128c8c6040518363ffffffff167c0100000000000000000000000000000000000000000000000000000000028152600401808373ffffffffffffffffffffffffffffffffffffffff1673ffffffffffffffffffffffffffffffffffffffff1681526020018260ff1661ffff16815260200192505050602060405180830381600087803b1580156142b057600080fd5b505af11580156142c4573d6000803e3d6000fd5b505050506040513d60208110156142da57600080fd5b810190808051906020019092919050505060ff161490506000151583600a0160008b61ffff1661ffff16815260200190815260200160002060009054906101000a900460ff161515141561436a57600183600a0160008b61ffff1661ffff16815260200190815260200160002060006101000a81548160ff0219169083151502179055506143698a8883615e5c565b5b6143b7565b6001151583600a0160008b61ffff1661ffff16815260200190815260200160002060009054906101000a900460ff16151514156143b5576143b08a876165d6565b6143b6565b5b5b5b8383600b0160008b61ffff1661ffff16815260200190815260200160002060006101000a81548160ff02191690831515021790555050505050505050505050565b6000600d60008473ffffffffffffffffffffffffffffffffffffffff1673ffffffffffffffffffffffffffffffffffffffff16815260200190815260200160002060008363ffffffff1663ffffffff16815260200190815260200160002054905092915050565b600080600080600080600080600080600080600860008f73ffffffffffffffffffffffffffffffffffffffff1673ffffffffffffffffffffffffffffffffffffffff1681526020019081526020016000206001019a50600860008e73ffffffffffffffffffffffffffffffffffffffff1673ffffffffffffffffffffffffffffffffffffffff16815260200190815260200160002060010199508a600e0160009054906101000a900462ffffff1698508a600e0160039054906101000a900462ffffff16975089600e0160009054906101000a900462ffffff16965089600e0160039054906101000a900462ffffff1695507f07f6275d7dad831e42f6e758316b90cee393648ec62ae7ef9f56ab3ae15d24048887604051808362ffffff1662ffffff1681526020018262ffffff1662ffffff1681526020019250505060405180910390a160008862ffffff1614806145be575060008662ffffff16145b156147e5578a600c0160008062ffffff16815260200190815260200160002054945089600c0160008062ffffff16815260200190815260200160002054851694507ffb2dc8d9c038dd0cda789c32872529ac904dcbcf76974751196f06574d5acde78b600e0160009054906101000a900462ffffff168c600e0160039054906101000a900462ffffff168c600e0160009054906101000a900462ffffff168d600e0160039054906101000a900462ffffff168f600c0160008062ffffff168152602001908152602001600020548f600c0160008062ffffff168152602001908152602001600020548b604051808862ffffff1662ffffff1681526020018762ffffff1662ffffff1681526020018662ffffff1662ffffff1681526020018562ffffff1662ffffff16815260200184815260200183815260200182815260200197505050505050505060405180910390a16000851415156147d957614721856132bf565b60ff1693507fd8bb054501cc3c8cc10a1f81a4238e6cbd2a627b470772755b256bf4626cddd6848f8f604051808463ffffffff1663ffffffff1681526020018373ffffffffffffffffffffffffffffffffffffffff1673ffffffffffffffffffffffffffffffffffffffff1681526020018273ffffffffffffffffffffffffffffffffffffffff1673ffffffffffffffffffffffffffffffffffffffff168152602001935050505060405180910390a1839b50614acd565b63ffffffff9b50614acd565b8892508791508262ffffff168762ffffff161015614801578692505b8162ffffff168662ffffff161115614817578591505b7f8dae684b55df29d392637831aa4c43de04e31a51e4cdbaf80f6c9bc5e4824a9a8383604051808362ffffff1662ffffff1681526020018262ffffff1662ffffff1681526020019250505060405180910390a18290505b6001820162ffffff168162ffffff161015614ac5578a600c0160008262ffffff1662ffffff16815260200190815260200160002054945089600c0160008262ffffff1662ffffff16815260200190815260200160002054851694507ffb2dc8d9c038dd0cda789c32872529ac904dcbcf76974751196f06574d5acde78b600e0160009054906101000a900462ffffff168c600e0160039054906101000a900462ffffff168c600e0160009054906101000a900462ffffff168d600e0160039054906101000a900462ffffff168f600c0160008762ffffff1662ffffff168152602001908152602001600020548f600c0160008862ffffff1662ffffff168152602001908152602001600020548b604051808862ffffff1662ffffff1681526020018762ffffff1662ffffff1681526020018662ffffff1662ffffff1681526020018562ffffff1662ffffff16815260200184815260200183815260200182815260200197505050505050505060405180910390a1600085141515614ab85761010081026149fa866132bf565b60ff160162ffffff1693507fd8bb054501cc3c8cc10a1f81a4238e6cbd2a627b470772755b256bf4626cddd6848f8f604051808463ffffffff1663ffffffff1681526020018373ffffffffffffffffffffffffffffffffffffffff1673ffffffffffffffffffffffffffffffffffffffff1681526020018273ffffffffffffffffffffffffffffffffffffffff1673ffffffffffffffffffffffffffffffffffffffff168152602001935050505060405180910390a1839b50614acd565b808060010191505061486e565b63ffffffff9b505b505050505050505050505092915050565b6000614ae8615df3565b15614b7357600073ffffffffffffffffffffffffffffffffffffffff168273ffffffffffffffffffffffffffffffffffffffff1614151515614b2957600080fd5b81600a60006101000a81548173ffffffffffffffffffffffffffffffffffffffff021916908373ffffffffffffffffffffffffffffffffffffffff16021790555060019050614b78565b600090505b919050565b6000600e60008473ffffffffffffffffffffffffffffffffffffffff1673ffffffffffffffffffffffffffffffffffffffff16815260200190815260200160002060008373ffffffffffffffffffffffffffffffffffffffff1673ffffffffffffffffffffffffffffffffffffffff1681526020019081526020016000206000600260039054906101000a900463ffffffff1663ffffffff1663ffffffff16815260200190815260200160002054905092915050565b6000600160008373ffffffffffffffffffffffffffffffffffffffff1673ffffffffffffffffffffffffffffffffffffffff1681526020019081526020016000206000600260039054906101000a900463ffffffff1663ffffffff1663ffffffff168152602001908152602001600020549050919050565b6000806000614cb8616d65565b600080614cc58989616a2d565b809550819650505060018560ff161415615075578883602001818152505087836040019063ffffffff16908163ffffffff16815250508683606001818152505060018360000190151590811515815250506000803273ffffffffffffffffffffffffffffffffffffffff1673ffffffffffffffffffffffffffffffffffffffff1681526020019081526020016000209150888260070160008a63ffffffff1663ffffffff16815260200190815260200160002060008282540192505081905550600182600301805490500190508063ffffffff168260030181614da89190616d96565b5082826003016001830363ffffffff16815481101515614dc457fe5b906000526020600020906004020160008201518160000160006101000a81548160ff0219169083151502179055506020820151816001015560408201518160020160006101000a81548163ffffffff021916908363ffffffff1602179055506060820151816003015590505060016002811115614e3d57fe5b8260090160009054906101000a900460ff166002811115614e5a57fe5b141515614ef85760018260090160006101000a81548160ff02191690836002811115614e8257fe5b0217905550600181038260060160026101000a81548163ffffffff021916908363ffffffff160217905550600181038260060160066101000a81548163ffffffff021916908363ffffffff16021790555060018260060160006101000a81548161ffff021916908361ffff160217905550615004565b8160060160069054906101000a900463ffffffff168260050160006001840363ffffffff1663ffffffff16815260200190815260200160002060006101000a81548163ffffffff021916908363ffffffff160217905550600181038260040160008460060160069054906101000a900463ffffffff1663ffffffff1663ffffffff16815260200190815260200160002060006101000a81548163ffffffff021916908363ffffffff160217905550600181038260060160066101000a81548163ffffffff021916908363ffffffff16021790555081600601600081819054906101000a900461ffff168092919060010191906101000a81548161ffff021916908361ffff160217905550505b7f1980675a7e914b5789d3d0060483518134b5ea7a0f484a4a2e9e0a2f7065273c8989898560030180549050604051808581526020018463ffffffff1663ffffffff16815260200183815260200182815260200194505050505060405180910390a18160030180549050955061507a565b600080fd5b50505050509392505050565b6000600160008473ffffffffffffffffffffffffffffffffffffffff1673ffffffffffffffffffffffffffffffffffffffff16815260200190815260200160002060008363ffffffff1663ffffffff16815260200190815260200160002054905092915050565b6000806060600084600d60003373ffffffffffffffffffffffffffffffffffffffff1673ffffffffffffffffffffffffffffffffffffffff1681526020019081526020016000206000600260039054906101000a900463ffffffff1663ffffffff1663ffffffff1681526020019081526020016000205410151561557157853b92506151f085600d60003373ffffffffffffffffffffffffffffffffffffffff1673ffffffffffffffffffffffffffffffffffffffff1681526020019081526020016000206000600260039054906101000a900463ffffffff1663ffffffff1663ffffffff168152602001908152602001600020546159f690919063ffffffff16565b600d60003373ffffffffffffffffffffffffffffffffffffffff1673ffffffffffffffffffffffffffffffffffffffff1681526020019081526020016000206000600260039054906101000a900463ffffffff1663ffffffff1663ffffffff1681526020019081526020016000208190555060008311156153e2578590508073ffffffffffffffffffffffffffffffffffffffff1663c0ee0b8a3387856040518463ffffffff167c0100000000000000000000000000000000000000000000000000000000028152600401808473ffffffffffffffffffffffffffffffffffffffff1673ffffffffffffffffffffffffffffffffffffffff16815260200183815260200180602001828103825283818151815260200191508051906020019080838360005b83811015615330578082015181840152602081019050615315565b50505050905090810190601f16801561535d5780820380516001836020036101000a031916815260200191505b50945050505050600060405180830381600087803b15801561537e57600080fd5b505af1158015615392573d6000803e3d6000fd5b505050508573ffffffffffffffffffffffffffffffffffffffff166108fc869081150290604051600060405180830381858888f193505050501580156153dc573d6000803e3d6000fd5b506154c9565b8573ffffffffffffffffffffffffffffffffffffffff166108fc869081150290604051600060405180830381858888f19350505050158015615428573d6000803e3d6000fd5b507f442f59271decdd708646c141272baa09d03c6f831aa19363239743105ecaf8d4338787604051808473ffffffffffffffffffffffffffffffffffffffff1673ffffffffffffffffffffffffffffffffffffffff1681526020018373ffffffffffffffffffffffffffffffffffffffff1673ffffffffffffffffffffffffffffffffffffffff168152602001828152602001935050505060405180910390a15b7f442f59271decdd708646c141272baa09d03c6f831aa19363239743105ecaf8d4338787604051808473ffffffffffffffffffffffffffffffffffffffff1673ffffffffffffffffffffffffffffffffffffffff1681526020018373ffffffffffffffffffffffffffffffffffffffff1673ffffffffffffffffffffffffffffffffffffffff168152602001828152602001935050505060405180910390a160019350615576565b600093505b50505092915050565b6000600260039054906101000a900463ffffffff16905090565b600080600080600080600080600080600080600860008f73ffffffffffffffffffffffffffffffffffffffff1673ffffffffffffffffffffffffffffffffffffffff1681526020019081526020016000206001019a50600860008e73ffffffffffffffffffffffffffffffffffffffff1673ffffffffffffffffffffffffffffffffffffffff16815260200190815260200160002060010199508a600e0160069054906101000a900462ffffff1698508a600e0160099054906101000a900462ffffff16975089600e0160069054906101000a900462ffffff16965089600e0160099054906101000a900462ffffff16955060008862ffffff1614806156a4575060008662ffffff16145b156157bc578a600d0160008062ffffff16815260200190815260200160002054945089600d0160008062ffffff16815260200190815260200160002054851694506000851415156157b0576156f8856132bf565b60ff1693507fd8bb054501cc3c8cc10a1f81a4238e6cbd2a627b470772755b256bf4626cddd6848f8f604051808463ffffffff1663ffffffff1681526020018373ffffffffffffffffffffffffffffffffffffffff1673ffffffffffffffffffffffffffffffffffffffff1681526020018273ffffffffffffffffffffffffffffffffffffffff1673ffffffffffffffffffffffffffffffffffffffff168152602001935050505060405180910390a1839b5061598b565b63ffffffff9b5061598b565b8892508791508262ffffff168762ffffff1610156157d8578692505b8162ffffff168662ffffff1611156157ee578591505b7f8dae684b55df29d392637831aa4c43de04e31a51e4cdbaf80f6c9bc5e4824a9a8383604051808362ffffff1662ffffff1681526020018262ffffff1662ffffff1681526020019250505060405180910390a18290505b6001820162ffffff168162ffffff161015615983578a600d0160008262ffffff1662ffffff16815260200190815260200160002054945089600d0160008262ffffff1662ffffff16815260200190815260200160002054851694506000851415156159765761010081026158b8866132bf565b60ff160162ffffff1693507fd8bb054501cc3c8cc10a1f81a4238e6cbd2a627b470772755b256bf4626cddd6848f8f604051808463ffffffff1663ffffffff1681526020018373ffffffffffffffffffffffffffffffffffffffff1673ffffffffffffffffffffffffffffffffffffffff1681526020018273ffffffffffffffffffffffffffffffffffffffff1673ffffffffffffffffffffffffffffffffffffffff168152602001935050505060405180910390a1839b5061598b565b8080600101915050615845565b63ffffffff9b505b505050505050505050505092915050565b60008173ffffffffffffffffffffffffffffffffffffffff16600260079054906101000a900473ffffffffffffffffffffffffffffffffffffffff1673ffffffffffffffffffffffffffffffffffffffff16149050919050565b6000828211151515615a0457fe5b818303905092915050565b600260039054906101000a900463ffffffff1663ffffffff168363ffffffff161415615bd457615aa484600d60008573ffffffffffffffffffffffffffffffffffffffff1673ffffffffffffffffffffffffffffffffffffffff16815260200190815260200160002060008663ffffffff1663ffffffff168152602001908152602001600020546159f690919063ffffffff16565b600d60008473ffffffffffffffffffffffffffffffffffffffff1673ffffffffffffffffffffffffffffffffffffffff16815260200190815260200160002060008563ffffffff1663ffffffff16815260200190815260200160002081905550615b7384600d60008473ffffffffffffffffffffffffffffffffffffffff1673ffffffffffffffffffffffffffffffffffffffff16815260200190815260200160002060008663ffffffff1663ffffffff1681526020019081526020016000205461119590919063ffffffff16565b600d60008373ffffffffffffffffffffffffffffffffffffffff1673ffffffffffffffffffffffffffffffffffffffff16815260200190815260200160002060008563ffffffff1663ffffffff168152602001908152602001600020819055505b50505050565b600082600160003273ffffffffffffffffffffffffffffffffffffffff1673ffffffffffffffffffffffffffffffffffffffff16815260200190815260200160002060008463ffffffff1663ffffffff16815260200190815260200160002054101515615de857615cb083600d60003273ffffffffffffffffffffffffffffffffffffffff1673ffffffffffffffffffffffffffffffffffffffff16815260200190815260200160002060008563ffffffff1663ffffffff1681526020019081526020016000205461119590919063ffffffff16565b600d60003273ffffffffffffffffffffffffffffffffffffffff1673ffffffffffffffffffffffffffffffffffffffff16815260200190815260200160002060008463ffffffff1663ffffffff16815260200190815260200160002081905550615d7f83600160003273ffffffffffffffffffffffffffffffffffffffff1673ffffffffffffffffffffffffffffffffffffffff16815260200190815260200160002060008563ffffffff1663ffffffff168152602001908152602001600020546159f690919063ffffffff16565b600160003273ffffffffffffffffffffffffffffffffffffffff1673ffffffffffffffffffffffffffffffffffffffff16815260200190815260200160002060008463ffffffff1663ffffffff1681526020019081526020016000208190555060019050615ded565b600090505b92915050565b6000600b60009054906101000a900473ffffffffffffffffffffffffffffffffffffffff1673ffffffffffffffffffffffffffffffffffffffff163373ffffffffffffffffffffffffffffffffffffffff161415615e545760019050615e59565b600090505b90565b6000806000806000806000806000600960009054906101000a900473ffffffffffffffffffffffffffffffffffffffff169850600a60009054906101000a900473ffffffffffffffffffffffffffffffffffffffff1697508873ffffffffffffffffffffffffffffffffffffffff1663b7500ac38c6040518263ffffffff167c0100000000000000000000000000000000000000000000000000000000028152600401808260001916600019168152602001915050602060405180830381600087803b158015615f2b57600080fd5b505af1158015615f3f573d6000803e3d6000fd5b505050506040513d6020811015615f5557600080fd5b810190808051906020019092919050505096508873ffffffffffffffffffffffffffffffffffffffff16633816d0328c6040518263ffffffff167c0100000000000000000000000000000000000000000000000000000000028152600401808260001916600019168152602001915050602060405180830381600087803b158015615fdf57600080fd5b505af1158015615ff3573d6000803e3d6000fd5b505050506040513d602081101561600957600080fd5b810190808051906020019092919050505095508773ffffffffffffffffffffffffffffffffffffffff166335544bcd876040518263ffffffff167c0100000000000000000000000000000000000000000000000000000000028152600401808263ffffffff1663ffffffff168152602001915050602060405180830381600087803b15801561609757600080fd5b505af11580156160ab573d6000803e3d6000fd5b505050506040513d60208110156160c157600080fd5b810190808051906020019092919050505094508773ffffffffffffffffffffffffffffffffffffffff1663d086c0ae876040518263ffffffff167c0100000000000000000000000000000000000000000000000000000000028152600401808263ffffffff1663ffffffff168152602001915050602060405180830381600087803b15801561614f57600080fd5b505af1158015616163573d6000803e3d6000fd5b505050506040513d602081101561617957600080fd5b81019080805190602001909291905050509350600860008d73ffffffffffffffffffffffffffffffffffffffff1673ffffffffffffffffffffffffffffffffffffffff1681526020019081526020016000206001019250600760029054906101000a900461ffff1661ffff1685850362ffffff16111561620d57600760029054906101000a900461ffff1661ffff16850193505b8490505b6001840162ffffff168162ffffff1610156165c8578773ffffffffffffffffffffffffffffffffffffffff1663dbdd977287836040518363ffffffff167c0100000000000000000000000000000000000000000000000000000000028152600401808363ffffffff1663ffffffff1681526020018262ffffff1662ffffff16815260200192505050602060405180830381600087803b1580156162b357600080fd5b505af11580156162c7573d6000803e3d6000fd5b505050506040513d60208110156162dd57600080fd5b810190808051906020019092919050505091506000821415156165bb578062ffffff168360080160008863ffffffff1663ffffffff16815260200190815260200160002060009054906101000a900462ffffff1662ffffff16111561637b57808360080160008863ffffffff1663ffffffff16815260200190815260200160002060006101000a81548162ffffff021916908362ffffff1602179055505b8062ffffff168360090160008863ffffffff1663ffffffff16815260200190815260200160002060009054906101000a900462ffffff1662ffffff1611156163fc57808360090160008863ffffffff1663ffffffff16815260200190815260200160002060006101000a81548162ffffff021916908362ffffff1602179055505b818360070160008863ffffffff1663ffffffff16815260200190815260200160002060008362ffffff1662ffffff168152602001908152602001600020819055508183600c0160008362ffffff1662ffffff168152602001908152602001600020600082825417925050819055508462ffffff1683600e0160009054906101000a900462ffffff1662ffffff1611156164b1578483600e0160006101000a81548162ffffff021916908362ffffff1602179055505b8362ffffff1683600e0160039054906101000a900462ffffff1662ffffff1610156164f8578383600e0160036101000a81548162ffffff021916908362ffffff1602179055505b89156165ba578183600d0160008362ffffff1662ffffff168152602001908152602001600020600082825417925050819055508462ffffff1683600e0160069054906101000a900462ffffff1662ffffff161115616572578483600e0160066101000a81548162ffffff021916908362ffffff1602179055505b8362ffffff1683600e0160099054906101000a900462ffffff1662ffffff1610156165b9578383600e0160096101000a81548162ffffff021916908362ffffff1602179055505b5b5b8080600101915050616211565b505050505050505050505050565b600080600080600080600080600860008b73ffffffffffffffffffffffffffffffffffffffff1673ffffffffffffffffffffffffffffffffffffffff168152602001908152602001600020600101975060008860060160008b63ffffffff1663ffffffff16815260200190815260200160002060009054906101000a900461ffff1661ffff161415616a20578760080160008a63ffffffff1663ffffffff16815260200190815260200160002060009054906101000a900462ffffff1692505b600015158415151415616a1b578760070160008a63ffffffff1663ffffffff16815260200190815260200160002060008462ffffff1662ffffff16815260200190815260200160002054965060008714156166f0576169be565b8760040160029054906101000a900463ffffffff169150600090505b8760040160009054906101000a900461ffff1661ffff168161ffff161015616914578863ffffffff168263ffffffff16141515616906578760070160008363ffffffff1663ffffffff16815260200190815260200160002060008462ffffff1662ffffff16815260200190815260200160002054861795508863ffffffff168860020160008463ffffffff1663ffffffff16815260200190815260200160002060009054906101000a900463ffffffff1663ffffffff1614156168cd576001810361ffff168860040160009054906101000a900461ffff1661ffff16141561681657818860040160066101000a81548163ffffffff021916908363ffffffff160217905550616888565b8760020160008a63ffffffff1663ffffffff16815260200190815260200160002060009054906101000a900463ffffffff168860020160008463ffffffff1663ffffffff16815260200190815260200160002060006101000a81548163ffffffff021916908363ffffffff1602179055505b63ffffffff8860020160008b63ffffffff1663ffffffff16815260200190815260200160002060006101000a81548163ffffffff021916908363ffffffff1602179055505b8760020160008363ffffffff1663ffffffff16815260200190815260200160002060009054906101000a900463ffffffff169150616907565b5b808060010191505061670c565b87600401600081819054906101000a900461ffff16809291906001900391906101000a81548161ffff021916908361ffff1602179055505086861687181994506000851415616962576169bd565b8488600c0160008562ffffff1662ffffff168152602001908152602001600020600082825416925050819055508488600d0160008562ffffff1662ffffff168152602001908152602001600020600082825416925050819055505b5b82806001019350508760090160008a63ffffffff1663ffffffff16815260200190815260200160002060009054906101000a900462ffffff1662ffffff168362ffffff161115616a115760019350616a16565b616696565b616696565b616a21565b5b50505050505050505050565b60008083600d60003273ffffffffffffffffffffffffffffffffffffffff1673ffffffffffffffffffffffffffffffffffffffff16815260200190815260200160002060008563ffffffff1663ffffffff16815260200190815260200160002054101515616c9e57616b0484600d60003273ffffffffffffffffffffffffffffffffffffffff1673ffffffffffffffffffffffffffffffffffffffff16815260200190815260200160002060008663ffffffff1663ffffffff168152602001908152602001600020546159f690919063ffffffff16565b600d60003273ffffffffffffffffffffffffffffffffffffffff1673ffffffffffffffffffffffffffffffffffffffff16815260200190815260200160002060008563ffffffff1663ffffffff16815260200190815260200160002081905550616bd384600160003273ffffffffffffffffffffffffffffffffffffffff1673ffffffffffffffffffffffffffffffffffffffff16815260200190815260200160002060008663ffffffff1663ffffffff1681526020019081526020016000205461119590919063ffffffff16565b600160003273ffffffffffffffffffffffffffffffffffffffff1673ffffffffffffffffffffffffffffffffffffffff16815260200190815260200160002060008563ffffffff1663ffffffff168152602001908152602001600020819055506001600d60003273ffffffffffffffffffffffffffffffffffffffff1673ffffffffffffffffffffffffffffffffffffffff16815260200190815260200160002060008563ffffffff1663ffffffff1681526020019081526020016000205481915091509150616cac565b600080819150809050915091505b9250929050565b815481835581811115616ce057600602816006028360005260206000209182019101616cdf9190616dc8565b5b505050565b828054600181600116156101000203166002900490600052602060002090601f016020900481019282601f10616d2657805160ff1916838001178555616d54565b82800160010185558215616d54579182015b82811115616d53578251825591602001919060010190616d38565b5b509050616d619190616e52565b5090565b60806040519081016040528060001515815260200160008152602001600063ffffffff168152602001600081525090565b815481835581811115616dc357600402816004028360005260206000209182019101616dc29190616e77565b5b505050565b616e4f91905b80821115616e4b57600080820160009055600182016000616def9190616ed1565b600282016000616dff9190616ed1565b600382016000616e0f9190616ed1565b60048201600090556005820160006101000a81549063ffffffff02191690556005820160046101000a81549060ff021916905550600601616dce565b5090565b90565b616e7491905b80821115616e70576000816000905550600101616e58565b5090565b90565b616ece91905b80821115616eca57600080820160006101000a81549060ff021916905560018201600090556002820160006101000a81549063ffffffff0219169055600382016000905550600401616e7d565b5090565b90565b50805460018160011615610100020316600290046000825580601f10616ef75750616f16565b601f016020900490600052602060002090810190616f159190616e52565b5b505600a165627a7a72305820a9fb47163a32fceec83a07312d1a5544436fc8947997f536d248283160432ce30029",
  "source": "// pragma experimental ABIEncoderV2;\n\npragma solidity ^0.4.19;\n\nimport './Libraries/SafeMath.sol';\n\nimport \"./Interfaces/IShyftKycContract.sol\";\n\nimport \"./ShyftCacheGraph.sol\";\nimport \"./ShyftSafe.sol\";\n\n// the size of the bloom filters below will determine the probability of any particular attestation bitmap to\n// be present in the filter at that location.\n\n// the attestations are mapped by the keccak hash of the totality of the attestation (thus there are only ever\n// one or zero elements set at the keccak hash'd map).\n// this is creating a correspondence between the attestation itself and another independant variable (the\n// keccak hash of the attestation) with a much lower cost of deletion (described below). This cost can even be\n// mitigated by keeping a uint8 as the result space of type of this mapping. hence enum {unknown, enabled, disabled}\n// can be used to change the remove the kyc record.\n\n//https://ethereum.stackexchange.com/questions/594/what-are-the-limits-to-gas-refunds\n\n// this lowered cost is found within the context of the attestation creation continuum. as the cost to add\n// an attestation with all of the resultant lookups (CAL) is much higher than the cost to removed a kyc record\n// from this lookup procedure (RAKL), the total expense is always RAKL - CAL. (R)\n// this R \"value store\" can be used to assist in the half-expense of creating new kyc records.\n// by deleting members en-mass (through a routing scheme within an enumerated listing for \"disabled\" records,\n// externally from the smart contract), the initial store can be performed with the deletion of other members,\n// the number of which deletions corresponding to the maximum gas refund that can be obtained from the creation\n// contract.\n\n// this can be handled in the trust anchor machinery itself, correlating to a \"smart\" update strategy\n// similarly this strategy can be applied to the Shyft Bridge, enabling cheaper bridging with other blockchains\n// that follow the same evm/evm cost specification.\n// similarly this strategy can applied to the cross blockchain attestation formats that Shyft may want to apply\n// to say, PolyMath tokens on the Ethereum blockchain.\n\n\n// common questions:\n// q: \"why do you use weird return orders what is your ocd miss\"\n// a: \"in order to produce the most legible return orders within the code, everything is documented and cross referenced.\n//    tldr; \"deal w/ it\"\n\n// it should be noted that all payable functions should utilize revert, as they are dealing with assets.\n\n\ncontract ShyftKycContract is DMTrustAnchorAttestation, ShyftSafe, ShyftCacheGraph, IShyftKycContract {\n    //@note: due to https://github.com/trufflesuite/truffle-contract/issues/8\n    // events will not log from called contracts (in the attestation revocation call for instance).\n    // this allows for debugging internally.\n\n    event EVT_UpdatingCacheGraph(address _identifiedAddress,\n        uint16 updateLength,\n        uint16 oldAttestationKeccakArrayLength,\n        uint16 attestationKeccakArrayLength);\n    event EVT_DoCompileCacheGraph(address _identifiedAddress,\n        uint32 i,\n        uint16 idx);\n    event EVT_DoConditionallyRemoveTrustChannelEXBitFields(address _identifiedAddress,\n        uint32 trustAnchorIndex,\n        bytes32 keccakHash);\n    event EVT_GotAttestationStatus(address _identifiedAddress,\n        bool attestationStatusApproved,\n        bool didChangeApprovedStatus,\n        uint16 attestationIndex,\n        bool attestationHasAlreadyBeenProcessed);\n    event EVT_CompareTime(uint256 _effectiveTime,\n        uint256 blockTimestamp,\n        uint256 _expiryTime,\n        bool isActive);\n    event EVT_DoCompileCacheGraphTrustChannelEXBitFields(address _identifiedAddress,\n        bytes32 keccakHash,\n        bool consentAvailable);\n    event EVT_GetActiveTrustChannelEXBitFieldLength(\n        uint24 senderLowestSubmapNumber,\n        uint24 senderHighestSubmapNumber,\n        uint24 receiverLowestSubmapNumber,\n        uint24 receiverHighestSubmapNumber,\n        uint256 senderBitfield,\n        uint256 receiverBitfield,\n        uint256 andedBitField);\n    event EVT_GotBitFieldFromTrustAnchor(address trustAnchorAddress,\n        uint32 trustAnchorIndex,\n        uint256 bitField);\n\n    event EVT_TrustChannelBitFieldWords(uint32 bitFieldWords);\n    event EVT_TrustChannelBitFieldIndex(uint24 trustChannelIndex);\n    event EVT_TrustChannelBitFieldIndexEXT(uint32 index,\n        uint32 shifter,\n        uint32 trustChannelBitFieldWord,\n        uint256 trustChannelBitField,\n        uint24 trustChannelIndex);\n\n    event EVT_GotHighestSubmapNumbers(uint24 senderHighestSubmapNumber,\n        uint24 receiverHighestSubmapNumber);\n\n    event EVT_GotLowestAndHighestTrustChannelSubmapNumber(uint24 lowestTrustChannelSubmapNumber,\n        uint24 highestTrustChannelSubmapNumber);\n\n    event EVT_TrustChannelRouted(uint24 trustChannelIndex,\n        address _senderIdentifiedAddress,\n        address _receiverIdentifiedAddress);\n\n\n    //@note:@todo:@next: define \"user attested identity\" into specs\n    // it would be good to research the use of dynamic forward contracts.. another contract that has specifications\n    // internal to itself (via an interface for example) and could run arbitrary code based on a user supplying the\n    // address with the function call. might need to have 1 2 3 4 variable overloads on it for a variety of purposes\n    // this could be useful on the front end as another database could have the function names as strings and a\n    // web3 interface could inject that into the dynamic call structure.\n    //\n    // the rationale behind this is that other forms of attestation may rely on things like merkle tree proof\n    // equivalents of other blockchains, and custom code might need to be ran in order to compactify the available\n    // data into the users cache graph.\n    //\n    // #hassomethingtodowithshyftbridge\n\n    using SafeMath for uint256;\n\n    event EVT_WithdrawToAddress(address _from, address _to, uint256 _value);\n\n    /* ERC223 events */\n    event EVT_ERC223TokenFallback(address _from, uint256 _value, bytes _data);\n\n    // function remove(uint[] array, uint index) internal returns(uint[] value) {\n    //     if (index >= array.length) return;\n\n    //     uint[] memory arrayNew = new uint[](array.length-1);\n    //     for (uint i = 0; i<arrayNew.length; i++){\n    //         if(i != index && i<index){\n    //             arrayNew[i] = array[i];\n    //         } else {\n    //             arrayNew[i] = array[i+1];\n    //         }\n    //     }\n    //     delete array;\n    //     return arrayNew;\n    // }\n\n    //@note:@here:@todo: this is erc20/223 compatible balances\n    // system should be backwards compatible, basic table:\n    // 0 = Bitcoin\n    //  ..\n    //  ..\n    // ShyftTokenType = SHYFT\n\n    mapping(address => mapping(uint32 => uint256)) balances;\n    mapping(address => mapping(address => mapping(uint32 => uint256))) allowed;\n\n    function ShyftKycContract() public {\n        owner = msg.sender;\n    }\n\n    /**************** Cache Graph Utilization ****************/\n\n    //return:\n    // 0 : no kyc'd address found\n    // -1 : no kyc level determined\n    // 1 -> 128: local kyc level found\n\n    //@note: assumes \"active\" attestations\n    // also assumes that \"dirty\" graphs will be rectified in-situ.\n    function getLocalKYCLevel(address _identifiedAddress) public returns (int8 result) {\n        if (identifiedAddress_to_kycIdentity[_identifiedAddress].cacheGraph.graphStatus == CacheGraphStatus.Enabled) {\n            //local kyc level found\n            return identifiedAddress_to_kycIdentity[_identifiedAddress].cacheGraph.constructedLocalKycLevel;\n        } else if (identifiedAddress_to_kycIdentity[_identifiedAddress].cacheGraph.graphStatus == CacheGraphStatus.Dirty) {\n            reconstructCacheGraph(_identifiedAddress);\n\n            //@note:@todo:@next: return the proper data\n            return identifiedAddress_to_kycIdentity[_identifiedAddress].cacheGraph.constructedLocalKycLevel;\n        } else {\n            //     //no kyc'd address found\n            return 0;\n        }\n\n        // //@note: here's the bloom filter in action, acting as a global aggregate of the whole. checks for\n        // // zero value mean absolutely zero active attestations, without needing to check any external\n        // // arrays.\n\n        // if (documentActiveAggregateBloomFilter > 0) {\n        //     //no bits set in \"active\" bloom filter, hence no valid KYC level.\n        //     return 0;\n        // } else {\n\n        // }\n    }\n\n    //returns:\n    //@note:@todo:@next: update.\n    // 0 : no kyc'd address found\n    // -1 : no kyc level determined\n    // 1-128: relative kyc level found\n\n    //@note: assumes \"active\" and \"active+consented\", trust channel routes\n    // also assumes that \"dirty\" graphs will not be passed in.\n    function getRelativeKYCLevelOnlyClean(uint256 _amount,\n    //                                    uint256 _senderSafeAmount,\n                                          address _senderIdentifiedAddress,\n                                          address _receiverIdentifiedAddress,\n    //                                    bool _requireMinimumAssets,\n    //                                    bool _requireBiometrics,\n    //                                    uint256 _senderSafeAmount,\n                                          bool _requiredConsentFromAllParties) public returns (int16 result) {\n        //we avoid this check due to the \"only clean\" status, which is two compares and two storage reads\n        // if (identifiedAddress_to_kycIdentity[_senderIdentifiedAddress].cacheGraph.graphStatus == CacheGraphStatus.Enabled\n        // && identifiedAddress_to_kycIdentity[_receiverIdentifiedAddress].cacheGraph.graphStatus == CacheGraphStatus.Enabled) {\n\n        int16 relativeKycLevel;\n\n        uint32 trustChannelIndex;\n\n        if (_requiredConsentFromAllParties == true) {\n            trustChannelIndex = getActiveConsentedTrustChannelBitFieldForPair(_senderIdentifiedAddress, _receiverIdentifiedAddress);\n        } else {\n            trustChannelIndex = getActiveTrustChannelBitFieldForPair(_senderIdentifiedAddress, _receiverIdentifiedAddress);\n        }\n\n        if (trustChannelIndex != NoTrustChannel) {\n            ITrustChannelManager trustChannelManager = ITrustChannelManager(trustChannelManagerAddress);\n\n            relativeKycLevel = trustChannelManager.route(_amount, _senderIdentifiedAddress, _receiverIdentifiedAddress, trustChannelIndex);\n        }\n\n//        ITrustAnchorStorage trustAnchorStorage = ITrustAnchorStorage(trustAnchorStorageAddress);\n\n        return relativeKycLevel;//identifiedAddress_to_kycIdentity[_identifiedAddress].cacheGraph.constructedLocalKycLevel;\n\n        // //@note: here's the bloom filter in action, acting as a global aggregate of the whole. checks for\n        // // zero value mean absolutely zero active attestations, without needing to check any external\n        // // arrays.\n\n        // if (documentActiveAggregateBloomFilter > 0) {\n        //     //no bits set in \"active\" bloom filter, hence no valid KYC level.\n        //     return 0;\n        // } else {\n\n        // }\n    }\n\n    //results:\n    // 0 = zero kyc detected or error with kyc level\n    // 1 = not enough kyc to transfer\n    // 2 = not enough balance\n    // 3 = can transfer successfully\n    // 4 = won't pay for dirty cache cleaning\n\n    function getKycCanSend(uint256 _amount, uint32 _bip32X_type, address _senderIdentifiedAddress, address _receiverIdentifiedAddress, bool _payForDirty) public returns (uint8 result) {\n        if (identifiedAddress_to_kycIdentity[_senderIdentifiedAddress].cacheGraph.graphStatus == CacheGraphStatus.Dirty ||\n        identifiedAddress_to_kycIdentity[_receiverIdentifiedAddress].cacheGraph.graphStatus == CacheGraphStatus.Dirty) {\n            if (!_payForDirty) {\n                //won't pay for dirty cache cleaning\n                return 4;\n            }\n\n            //@note:@todo:@next: add cleaning step.. this could be prohibitively expensive, and so should be watched for. similarly, work could be done\n            // to only check attestations from certain jurisdictions. the dirty flags could be made to be easier to process using floating indexes\n            // with dirty elements. passing compacted trust channels across with dirty flags would be able to be AND'd effectively.\n        }\n\n        //@note: @todo:\n        // add favourable jurisdiction checks here ([@phase3: trust channel optimizations])\n        // add IEV checks here.. relative KYC level must be above _X_?\n\n        //this is used to check for minimum reserves when transacting across blockchains. This can create a de-facto \"accredited investor\" status if there\n        // is enough crypto and/or crypto assets held in the Safe balance of the sender.\n\n        //other sources of confirmation: external data from the blockchain\n        //                               immediate biometric signature\n        //                               other user behaviours (local ai)\n        //                               conservator concierge (cloud ai)\n\n        int16 relativeKYCLevel = getRelativeKYCLevelOnlyClean(_amount, _senderIdentifiedAddress, _receiverIdentifiedAddress, true);\n        // int8 kycSenderAddressLevel = getKYCLevel(_senderIdentifiedAddress);\n        // int8 kycReceiverAddressLevel = getKYCLevel(_receiverIdentifiedAddress);\n\n//        uint256 safeBalanceSender = getSafeBalance(_senderIdentifiedAddress, _bip32X_type);\n\n        //@note:@todo:@next: updated and fix return codes.\n        if (relativeKYCLevel < 0) {\n            if (relativeKYCLevel > 1) {\n//                if (safeBalanceSender != 0 && safeBalanceSender > _amount) {\n\n                    //can transfer successfully\n                return 3;\n//                } else {\n//                    //not enough balance\n//                    return 2;\n//                }\n            } else {\n                //not enough kyc to transfer\n                return 1;\n            }\n        } else {\n            //error with kyc level\n            return 0;\n        }\n    }\n\n    /**************** Shyft Safe ****************/\n\n    //@note:@todo:@next: check whether tx.origin is actually the best way to do this...\n\n    //@note:@here: this is from ShyftSafe.sol inheritance\n    // basic rules are: if you have it, and you're asked to hold it, remove it from your supply and place it into safe's.\n\n    //returns\n    // 0 = could not hold : 0\n    // 1 = held : balance of this contract\n    function child_overload_doHoldSafe(uint256 amount, uint32 bip32X_type) internal returns (uint8 result, uint256 balanceResult) {\n        //@note: using tx.origin here.. might be an issue in serenity.\n        if (balances[tx.origin][bip32X_type] >= amount) {\n            balances[tx.origin][bip32X_type] = balances[tx.origin][bip32X_type].sub(amount);\n            safeBalances[tx.origin][bip32X_type] = safeBalances[tx.origin][bip32X_type].add(amount);\n            //held : balance of this contract\n            return (1, balances[tx.origin][bip32X_type]);\n        } else {\n            //could not hold : 0\n            return (0, 0);\n        }\n    }\n\n    //@note:@here: this is from ShyftSafe.sol inheritance\n    // basic rules are: if you have it, and you're asked to hold it, remove it from your safe and place it into free supply.\n\n    //returns:\n    // 0 = could not free\n    // 1 = freed\n    function child_overload_doFreeSafe(uint256 amount, uint32 bip32X_type) internal returns (uint8 result) {\n        //@note: using tx.origin here.. might be an issue in serenity.\n        if (safeBalances[tx.origin][bip32X_type] >= amount) {\n            balances[tx.origin][bip32X_type] = balances[tx.origin][bip32X_type].add(amount);\n            safeBalances[tx.origin][bip32X_type] = safeBalances[tx.origin][bip32X_type].sub(amount);\n            //freed\n            return 1;\n        } else {\n            //could not free\n            return 0;\n        }\n    }\n\n    /**************** Shyft KYC balances, fallback, send, receive, and withdrawal ****************/\n\n    //gets balance for Shyft KYC token type & synthetics\n    function getBalanceBip32X(address _identifiedAddress, uint32 _bip32X_type) public view returns (uint256 balance)  {\n        return balances[_identifiedAddress][_bip32X_type];\n    }\n\n    //fallback function applies value to Shyft KYC token type\n    function () public payable {\n        balances[msg.sender][ShyftTokenType] = balances[msg.sender][ShyftTokenType].add(msg.value);\n    }\n\n    //returns\n    // 3 = successful transfer (from getKycCanSend)\n    // kycCanSendResult = transfer cannot be processed due to incorrect kyc levels or insufficient balance. (from getKycCanSend)\n\n    function kycSend(uint _amount, uint32 _bip32X_type, address _identifiedAddress, bool _payForDirty) public returns (uint8 result) {\n        if (balances[msg.sender][_bip32X_type] >= _amount) {\n            uint8 kycCanSendResult = getKycCanSend(_amount, _bip32X_type, msg.sender, _identifiedAddress, _payForDirty);\n\n            //getKycCanSend return 3 = can transfer successfully\n            if (kycCanSendResult == 3) {\n                transferFunds(_amount, _bip32X_type, msg.sender, _identifiedAddress);\n                //successful transfer (from getKycCanSend)\n                return 3;\n            }\n\n            //transfer cannot be processed due to incorrect kyc levels or insufficient balance. (from getKycCanSend)\n            return kycCanSendResult;\n        } else {\n            //must revert here because of the transactional nature of this function.\n            revert();\n        }\n    }\n\n    function transferFunds(uint _amount, uint32 _bip32X_type, address _from, address _to) internal {\n        if (_bip32X_type == ShyftTokenType) {\n            balances[_from][_bip32X_type] = balances[_from][_bip32X_type].sub(_amount);\n            balances[_to][_bip32X_type] = balances[_to][_bip32X_type].add(_amount);\n        }\n    }\n\n\n    //@note: this function withdraws the native fuel (Shyft fuel, Ether, et al) to an address.\n    // because of the transactional nature, this contract may \"revert\".\n\n    //returns:\n    // true = success\n\n    function withdraw(address _to, uint256 _value) public returns (bool ok) {\n        if (balances[msg.sender][ShyftTokenType] >= _value) {\n            uint codeLength;\n            bytes memory empty;\n\n            //retrieve the size of the code on target address, this needs assembly\n            assembly {\n                codeLength := extcodesize(_to)\n            }\n\n            balances[msg.sender][ShyftTokenType] = balances[msg.sender][ShyftTokenType].sub(_value);\n\n            if (codeLength > 0) {\n\n                //@note:@research:\n                //@note:@todo:@next: what I'd like to do here is have a check for a built-in registry maintained\n                // by Shyft et all, with the ability to trigger the fallback of that function.\n                //\n                // this fallback function would check for this contract's (or others that Shyft's KYC Contract\n                // are updated to support) address, and allow for the tokens in this contract to burnt\n                // (synthetics only), and throwing in the event that this is not supported, and adding those\n                // synthetics to the receiving contract.\n                //\n                // this would allow for users to upgrade their *tokens*, not the contract itself; this should\n                // work well since the protocol base address structures are never going to encounter this,\n                // and withdrawing to an account will function indefinitely (allowing sending those native fuel\n                // tokens to new Shyft KYC Contract addresses.)\n\n                IERC223ReceivingContract receiver = IERC223ReceivingContract(_to);\n                receiver.tokenFallback(msg.sender, _value, empty);\n\n                //@note: @here: @todo: this will need to be updated. currently auto-sending the fuel itself to\n                // the destination contract address to support contracts like the Shyft Conduit.\n                _to.transfer(_value);\n            } else {\n                //@note: this is going to a regular account. the existing balance has already been reduced,\n                // and as such the only thing to do is to send the actual Shyft fuel (or Ether, etc) to the\n                // target address.\n\n                 _to.transfer(_value);\n\n                //event... this is not named EVT_xyz because of the inheritance requirement.\n                EVT_WithdrawToAddress(msg.sender, _to, _value);\n            }\n\n            //event... this is not named EVT_xyz because of the inheritance requirement.\n            EVT_WithdrawToAddress(msg.sender, _to, _value);\n\n            return true;\n        } else {\n            return false;\n        }\n    }\n\n    /**************** ERC 223 reciever ****************/\n\n    function tokenFallback(address _from, uint _value, bytes _data) public {\n        //@note:@research:\n        //@note:@todo:@next: what I'd like to do here is have a check for a built-in registry maintained\n        // by Shyft et all, with the ability to trigger the fallback of that function.\n        //\n        // this fallback function would check for this contract's (or others that Shyft's KYC Contract\n        // are updated to support) address, and allow for the tokens in this contract to burnt\n        // (synthetics only), and throwing in the event that this is not supported, and adding those\n        // synthetics to the receiving contract.\n        //\n        // this would allow for users to upgrade their *tokens*, not the contract itself; this should\n        // work well since the protocol base address structures are never going to encounter this,\n        // and withdrawing to an account will function indefinitely (allowing sending those native fuel\n        // tokens to new Shyft KYC Contract addresses.)\n\n        EVT_ERC223TokenFallback(_from, _value, _data);\n    }\n\n    /**************** ERC 223/20 ****************/\n\n    uint public totalSupply;\n\n    //gets balance for Shyft KYC token type\n    function balanceOf(address _who) public view returns (uint) {\n        return balances[_who][ShyftTokenType];\n    }\n\n    function name() public view returns (string _name) {\n        return \"Shyft\";\n    }\n\n    function symbol() public view returns (string _symbol) {\n        //@note: \"SFT\" is the 3 letter variant\n        return \"SHFT\";\n    }\n\n    function decimals() public view returns (uint8 _decimals) {\n        return 18;\n    }\n\n    function totalSupply() public view returns (uint256 _supply) {\n        return totalSupply;\n    }\n\n    //for the following, we assume the transfer is only for [ShyftTokenType] tokens.\n    function transfer(address _to, uint256 _value) public returns (bool ok) {\n        if (balances[msg.sender][ShyftTokenType] >= _value) {\n            uint codeLength;\n            bytes memory empty;\n\n            //retrieve the size of the code on target address, this needs assembly\n            assembly {\n                codeLength := extcodesize(_to)\n            }\n\n            balances[msg.sender][ShyftTokenType] = balances[msg.sender][ShyftTokenType].sub(_value);\n\n            balances[_to][ShyftTokenType] = balances[_to][ShyftTokenType].add(_value);\n\n\n            if (codeLength > 0) {\n\n                //a vm error will occur if this index is accessed without setting the length first.\n                //@note:@todo:@next: explicit check for contract format?\n                IERC223ReceivingContract receiver = IERC223ReceivingContract(_to);\n                receiver.tokenFallback(msg.sender, _value, empty);\n            }\n\n            //event... this is not named EVT_xyz because of the inheritance requirement.\n            Transfer(msg.sender, _to, _value, empty);\n\n            return true;\n        } else {\n            return false;\n        }\n    }\n\n    function transfer(address _to, uint _value, bytes data) public returns (bool ok) {\n        if (balances[msg.sender][ShyftTokenType] >= _value) {\n            uint codeLength;\n\n            //retrieve the size of the code on target address, this needs assembly\n            assembly {\n                codeLength := extcodesize(_to)\n            }\n\n            balances[msg.sender][ShyftTokenType] = balances[msg.sender][ShyftTokenType].sub(_value);\n\n            balances[_to][ShyftTokenType] = balances[_to][ShyftTokenType].add(_value);\n\n\n            if (codeLength > 0) {\n\n                //a vm error will occur if this index is accessed without setting the length first.\n                //@note:@todo:@next: explicit check for contract format?\n                IERC223ReceivingContract receiver = IERC223ReceivingContract(_to);\n                receiver.tokenFallback(msg.sender, _value, data);\n            }\n\n            //event... this is not named EVT_xyz because of the inheritance requirement.\n            Transfer(msg.sender, _to, _value, data);\n\n            return true;\n        } else {\n            return false;\n        }\n    }\n\n    function allowance(address _tokenOwner, address _spender) public constant returns (uint remaining) {\n       return allowed[_tokenOwner][_spender][ShyftTokenType];\n    }\n\n    function approve(address _spender, uint _tokens) public returns (bool success) {\n        allowed[msg.sender][_spender][ShyftTokenType] = _tokens;\n\n        Approval(msg.sender, _spender, _tokens);\n\n        return true;\n    }\n\n    function transferFrom(address _from, address _to, uint _tokens) public returns (bool success) {\n        if (allowed[_from][_to][ShyftTokenType] >= _tokens && balances[_from][ShyftTokenType] >= _tokens) {\n            allowed[_from][_to][ShyftTokenType] = allowed[_from][_to][ShyftTokenType].sub(_tokens);\n\n            balances[_from][ShyftTokenType] = balances[_from][ShyftTokenType].sub(_tokens);\n            balances[_to][ShyftTokenType] = balances[_to][ShyftTokenType].add(_tokens);\n\n            Transfer(_from, _to, _tokens);\n\n            return true;\n        } else {\n            return false;\n        }\n    }\n\n}\n",
  "sourcePath": "/Users/jaypersanchez/KYCAML/contracts/ShyftKycContract.sol",
  "compiler": {
    "name": "solc",
    "version": "0.4.24+commit.e67f0147.Emscripten.clang"
  },
  "schemaVersion": "2.0.1",
  "updatedAt": "2018-10-11T00:10:45.232Z"
}