{
  "contractName": "TrustChannelManager",
  "abi": [
    {
      "constant": false,
      "inputs": [
        {
          "name": "_newAdministratorAddress",
          "type": "address"
        }
      ],
      "name": "setPrimaryAdministrator",
      "outputs": [
        {
          "name": "result",
          "type": "uint8"
        }
      ],
      "payable": false,
      "stateMutability": "nonpayable",
      "type": "function"
    },
    {
      "constant": false,
      "inputs": [
        {
          "name": "_revokeAdministratorAddress",
          "type": "address"
        }
      ],
      "name": "revokeAdministrator",
      "outputs": [
        {
          "name": "result",
          "type": "uint8"
        }
      ],
      "payable": false,
      "stateMutability": "nonpayable",
      "type": "function"
    },
    {
      "constant": true,
      "inputs": [],
      "name": "owner",
      "outputs": [
        {
          "name": "",
          "type": "address"
        }
      ],
      "payable": false,
      "stateMutability": "view",
      "type": "function"
    },
    {
      "constant": false,
      "inputs": [
        {
          "name": "_newAdministratorAddress",
          "type": "address"
        }
      ],
      "name": "setAdministrator",
      "outputs": [
        {
          "name": "result",
          "type": "uint8"
        }
      ],
      "payable": false,
      "stateMutability": "nonpayable",
      "type": "function"
    },
    {
      "inputs": [],
      "payable": false,
      "stateMutability": "nonpayable",
      "type": "constructor"
    },
    {
      "anonymous": false,
      "inputs": [
        {
          "indexed": false,
          "name": "jurisdiction",
          "type": "uint16"
        },
        {
          "indexed": false,
          "name": "trustAnchorAddress",
          "type": "address"
        },
        {
          "indexed": false,
          "name": "trustChannelAddress",
          "type": "address"
        }
      ],
      "name": "EVT_ReceivedJurisdictionFromTrustAnchor",
      "type": "event"
    },
    {
      "anonymous": false,
      "inputs": [
        {
          "indexed": false,
          "name": "composedBitField",
          "type": "uint256"
        },
        {
          "indexed": false,
          "name": "trustAnchorIndex",
          "type": "uint32"
        },
        {
          "indexed": false,
          "name": "trustChannelIndex",
          "type": "uint32"
        },
        {
          "indexed": false,
          "name": "_trustAnchorAddress",
          "type": "address"
        },
        {
          "indexed": false,
          "name": "_trustChannelAddress",
          "type": "address"
        }
      ],
      "name": "EVT_ComposedTrustChannelWithTrustAnchor",
      "type": "event"
    },
    {
      "anonymous": false,
      "inputs": [
        {
          "indexed": false,
          "name": "ruleStorageIndex",
          "type": "uint256"
        },
        {
          "indexed": false,
          "name": "trustChannelLowestSubmapNumber",
          "type": "uint24"
        },
        {
          "indexed": false,
          "name": "trustChannelHighestSubmapNumber",
          "type": "uint24"
        },
        {
          "indexed": false,
          "name": "_trustAnchorAddress",
          "type": "address"
        },
        {
          "indexed": false,
          "name": "_trustChannelAddress",
          "type": "address"
        }
      ],
      "name": "EVT_AddedTrustAnchorToTrustChannel",
      "type": "event"
    },
    {
      "anonymous": false,
      "inputs": [
        {
          "indexed": false,
          "name": "_senderIdentifiedAddress",
          "type": "address"
        },
        {
          "indexed": false,
          "name": "_receiverIdentifiedAddress",
          "type": "address"
        },
        {
          "indexed": false,
          "name": "_amount",
          "type": "uint256"
        },
        {
          "indexed": false,
          "name": "_trustChannelIndex",
          "type": "uint32"
        }
      ],
      "name": "EVT_Route",
      "type": "event"
    },
    {
      "constant": false,
      "inputs": [
        {
          "name": "_trustAnchorManagerAddress",
          "type": "address"
        }
      ],
      "name": "setTrustAnchorManagerAddress",
      "outputs": [
        {
          "name": "result",
          "type": "uint8"
        }
      ],
      "payable": false,
      "stateMutability": "nonpayable",
      "type": "function"
    },
    {
      "constant": false,
      "inputs": [
        {
          "name": "_trustAnchorStorageAddress",
          "type": "address"
        }
      ],
      "name": "setTrustAnchorStorageAddress",
      "outputs": [
        {
          "name": "result",
          "type": "uint8"
        }
      ],
      "payable": false,
      "stateMutability": "nonpayable",
      "type": "function"
    },
    {
      "constant": false,
      "inputs": [
        {
          "name": "_trustChannelAddress",
          "type": "address"
        }
      ],
      "name": "adminSetupTrustChannel",
      "outputs": [
        {
          "name": "result",
          "type": "uint8"
        }
      ],
      "payable": false,
      "stateMutability": "nonpayable",
      "type": "function"
    },
    {
      "constant": false,
      "inputs": [
        {
          "name": "_trustChannelAddress",
          "type": "address"
        }
      ],
      "name": "adminRemoveTrustChannel",
      "outputs": [
        {
          "name": "result",
          "type": "uint16"
        }
      ],
      "payable": false,
      "stateMutability": "nonpayable",
      "type": "function"
    },
    {
      "constant": false,
      "inputs": [
        {
          "name": "_trustAnchorAddress",
          "type": "address"
        },
        {
          "name": "_trustChannelAddress",
          "type": "address"
        }
      ],
      "name": "adminAddTrustAnchorToTrustChannel",
      "outputs": [
        {
          "name": "result",
          "type": "uint8"
        }
      ],
      "payable": false,
      "stateMutability": "nonpayable",
      "type": "function"
    },
    {
      "constant": true,
      "inputs": [
        {
          "name": "_trustAnchorIndex",
          "type": "uint32"
        }
      ],
      "name": "getTrustChannelLowestSubmapNumberForTrustAnchorIndex",
      "outputs": [
        {
          "name": "result",
          "type": "uint24"
        }
      ],
      "payable": false,
      "stateMutability": "view",
      "type": "function"
    },
    {
      "constant": true,
      "inputs": [
        {
          "name": "_trustAnchorIndex",
          "type": "uint32"
        }
      ],
      "name": "getTrustChannelHighestSubmapNumberForTrustAnchorIndex",
      "outputs": [
        {
          "name": "result",
          "type": "uint24"
        }
      ],
      "payable": false,
      "stateMutability": "view",
      "type": "function"
    },
    {
      "constant": true,
      "inputs": [
        {
          "name": "_trustAnchorIndex",
          "type": "uint32"
        },
        {
          "name": "submapNumber",
          "type": "uint24"
        }
      ],
      "name": "getTrustChannelIndexBitFieldAtSubmapNumberForTrustAnchorIndex",
      "outputs": [
        {
          "name": "result",
          "type": "uint256"
        }
      ],
      "payable": false,
      "stateMutability": "view",
      "type": "function"
    },
    {
      "constant": false,
      "inputs": [
        {
          "name": "_amount",
          "type": "uint256"
        },
        {
          "name": "_senderIdentifiedAddress",
          "type": "address"
        },
        {
          "name": "_receiverIdentifiedAddress",
          "type": "address"
        },
        {
          "name": "_trustChannelIndex",
          "type": "uint32"
        }
      ],
      "name": "route",
      "outputs": [
        {
          "name": "result",
          "type": "int16"
        }
      ],
      "payable": false,
      "stateMutability": "nonpayable",
      "type": "function"
    }
  ],
  "bytecode": "0x60806040526000600660006101000a81548160ff021916908360ff1602179055506001600660016101000a81548160ff021916908360ff1602179055506002600660026101000a81548160ff021916908360ff1602179055506003600660036101000a81548160ff021916908360ff16021790555034801561008057600080fd5b50336000806101000a81548173ffffffffffffffffffffffffffffffffffffffff021916908373ffffffffffffffffffffffffffffffffffffffff160217905550612174806100d06000396000f3006080604052600436106100c5576000357c0100000000000000000000000000000000000000000000000000000000900463ffffffff168063064ad7c2146100ca5780632966497c1461012757806335544bcd146101be5780634402bba31461020f5780635c2484741461026c57806371457397146102cb5780638a8b9bd7146103285780638da5cb5b146103a5578063d086c0ae146103fc578063d534d0271461044d578063db4032e0146104aa578063dbdd977214610507578063df8089ef1461055d575b600080fd5b3480156100d657600080fd5b5061010b600480360381019080803573ffffffffffffffffffffffffffffffffffffffff1690602001909291905050506105ba565b604051808260ff1660ff16815260200191505060405180910390f35b34801561013357600080fd5b506101a260048036038101908080359060200190929190803573ffffffffffffffffffffffffffffffffffffffff169060200190929190803573ffffffffffffffffffffffffffffffffffffffff169060200190929190803563ffffffff1690602001909291905050506106db565b604051808260010b60010b815260200191505060405180910390f35b3480156101ca57600080fd5b506101ef600480360381019080803563ffffffff16906020019092919050505061082c565b604051808262ffffff1662ffffff16815260200191505060405180910390f35b34801561021b57600080fd5b50610250600480360381019080803573ffffffffffffffffffffffffffffffffffffffff169060200190929190505050610864565b604051808260ff1660ff16815260200191505060405180910390f35b34801561027857600080fd5b506102ad600480360381019080803573ffffffffffffffffffffffffffffffffffffffff1690602001909291905050506109f0565b604051808261ffff1661ffff16815260200191505060405180910390f35b3480156102d757600080fd5b5061030c600480360381019080803573ffffffffffffffffffffffffffffffffffffffff169060200190929190505050610b8b565b604051808260ff1660ff16815260200191505060405180910390f35b34801561033457600080fd5b50610389600480360381019080803573ffffffffffffffffffffffffffffffffffffffff169060200190929190803573ffffffffffffffffffffffffffffffffffffffff169060200190929190505050610c2b565b604051808260ff1660ff16815260200191505060405180910390f35b3480156103b157600080fd5b506103ba6115a9565b604051808273ffffffffffffffffffffffffffffffffffffffff1673ffffffffffffffffffffffffffffffffffffffff16815260200191505060405180910390f35b34801561040857600080fd5b5061042d600480360381019080803563ffffffff1690602001909291905050506115ce565b604051808262ffffff1662ffffff16815260200191505060405180910390f35b34801561045957600080fd5b5061048e600480360381019080803573ffffffffffffffffffffffffffffffffffffffff169060200190929190505050611606565b604051808260ff1660ff16815260200191505060405180910390f35b3480156104b657600080fd5b506104eb600480360381019080803573ffffffffffffffffffffffffffffffffffffffff1690602001909291905050506116a6565b604051808260ff1660ff16815260200191505060405180910390f35b34801561051357600080fd5b50610547600480360381019080803563ffffffff169060200190929190803562ffffff169060200190929190505050611987565b6040518082815260200191505060405180910390f35b34801561056957600080fd5b5061059e600480360381019080803573ffffffffffffffffffffffffffffffffffffffff1690602001909291905050506119cc565b604051808260ff1660ff16815260200191505060405180910390f35b60008060009054906101000a900473ffffffffffffffffffffffffffffffffffffffff1673ffffffffffffffffffffffffffffffffffffffff163373ffffffffffffffffffffffffffffffffffffffff1614156106d1576000600360009054906101000a900460ff1660ff1614156106c8576001600260008473ffffffffffffffffffffffffffffffffffffffff1673ffffffffffffffffffffffffffffffffffffffff16815260200190815260200160002060006101000a81548160ff0219169083600281111561068857fe5b02179055506003600081819054906101000a900460ff168092919060010191906101000a81548160ff021916908360ff16021790555050600290506106d6565b600190506106d6565b600090505b919050565b60008060086000600e60008663ffffffff1663ffffffff168152602001908152602001600020546000191660001916815260200190815260200160002060030190507fb0a0372537bb33a148e2e531c76b834ba0f134c757928e55a34f441e75e851ec85858886604051808573ffffffffffffffffffffffffffffffffffffffff1673ffffffffffffffffffffffffffffffffffffffff1681526020018473ffffffffffffffffffffffffffffffffffffffff1673ffffffffffffffffffffffffffffffffffffffff1681526020018381526020018263ffffffff1663ffffffff16815260200194505050505060405180910390a16001151581600301600660029054906101000a900460ff1660ff166008811015156107f757fe5b602091828204019190069054906101000a900460ff161515141561081e5760019150610823565b600191505b50949350505050565b6000600c60008363ffffffff1663ffffffff16815260200190815260200160002060009054906101000a900462ffffff169050919050565b600080600061087233611af7565b156109e4576001600281111561088457fe5b600260008673ffffffffffffffffffffffffffffffffffffffff1673ffffffffffffffffffffffffffffffffffffffff16815260200190815260200160002060009054906101000a900460ff1660028111156108dc57fe5b14156109db5760405180807f61646d696e697374726174696f6e5265766f636174696f6e566f746500000000815250601c0190506040518091039020915061092382611b77565b9050600260ff168161ffff161015156109d25760028060008673ffffffffffffffffffffffffffffffffffffffff1673ffffffffffffffffffffffffffffffffffffffff16815260200190815260200160002060006101000a81548160ff0219169083600281111561099157fe5b02179055506003600081819054906101000a900460ff16809291906001900391906101000a81548160ff021916908360ff16021790555050600392506109e9565b600292506109e9565b600192506109e9565b600092505b5050919050565b600080600080600080610a0233611af7565b15610b7c578660405180807f72656d6f766554727573744368616e6e656c00000000000000000000000000008152506012018273ffffffffffffffffffffffffffffffffffffffff1673ffffffffffffffffffffffffffffffffffffffff166c0100000000000000000000000002815260140191505060405180910390209450610a8b85611ed0565b9350600260ff168461ffff16101515610aa75760019250610ac9565b610ab085611b77565b9150600260ff168261ffff16101515610ac857600192505b5b600115158315151415610b735786604051808273ffffffffffffffffffffffffffffffffffffffff1673ffffffffffffffffffffffffffffffffffffffff166c0100000000000000000000000002815260140191505060405180910390209050600060086000836000191660001916815260200190815260200160002060000160006101000a81548160ff021916908315150217905550610b6985611f20565b5060029550610b81565b60019550610b81565b600095505b5050505050919050565b6000610b9633611af7565b15610c2157600073ffffffffffffffffffffffffffffffffffffffff168273ffffffffffffffffffffffffffffffffffffffff1614151515610bd757600080fd5b81601160006101000a81548173ffffffffffffffffffffffffffffffffffffffff021916908373ffffffffffffffffffffffffffffffffffffffff16021790555060019050610c26565b600090505b919050565b600080600080600080600080600080610c4333611af7565b1561159557600760008c73ffffffffffffffffffffffffffffffffffffffff1673ffffffffffffffffffffffffffffffffffffffff168152602001908152602001600020549850600860008a600019166000191681526020019081526020016000209750600115158860000160009054906101000a900460ff161515141561158c57600015158860010160008e73ffffffffffffffffffffffffffffffffffffffff1673ffffffffffffffffffffffffffffffffffffffff16815260200190815260200160002060009054906101000a900460ff161515141561158357601060009054906101000a900473ffffffffffffffffffffffffffffffffffffffff1696508673ffffffffffffffffffffffffffffffffffffffff166325b953b38d6040518263ffffffff167c0100000000000000000000000000000000000000000000000000000000028152600401808273ffffffffffffffffffffffffffffffffffffffff1673ffffffffffffffffffffffffffffffffffffffff168152602001915050602060405180830381600087803b158015610de057600080fd5b505af1158015610df4573d6000803e3d6000fd5b505050506040513d6020811015610e0a57600080fd5b810190808051906020019092919050505095508673ffffffffffffffffffffffffffffffffffffffff16636efc25c88d6040518263ffffffff167c0100000000000000000000000000000000000000000000000000000000028152600401808273ffffffffffffffffffffffffffffffffffffffff1673ffffffffffffffffffffffffffffffffffffffff168152602001915050602060405180830381600087803b158015610eb857600080fd5b505af1158015610ecc573d6000803e3d6000fd5b505050506040513d6020811015610ee257600080fd5b810190808051906020019092919050505094507f1908c596ed8b427f6cb6af6c89233b2a49493ec730d9f9bb2a4ec6b21cba17cf868d8d604051808461ffff1661ffff1681526020018373ffffffffffffffffffffffffffffffffffffffff1673ffffffffffffffffffffffffffffffffffffffff1681526020018273ffffffffffffffffffffffffffffffffffffffff1673ffffffffffffffffffffffffffffffffffffffff168152602001935050505060405180910390a161ffff80168661ffff1614151561157a57600f60008a6000191660001916815260200190815260200160002060009054906101000a900463ffffffff16935060088463ffffffff169060020a900492506101008463ffffffff16811515610fff57fe5b0691508160ff1660020a600a60008763ffffffff1663ffffffff16815260200190815260200160002060008562ffffff1662ffffff168152602001908152602001600020600082825417925050819055507feec9a6ab967fbe92e35468f046e39abc7c0e55421fdc3714872c5afb8d04b5a5600a60008763ffffffff1663ffffffff16815260200190815260200160002060008562ffffff1662ffffff1681526020019081526020016000205486868f8f604051808681526020018563ffffffff1663ffffffff1681526020018463ffffffff1663ffffffff1681526020018373ffffffffffffffffffffffffffffffffffffffff1673ffffffffffffffffffffffffffffffffffffffff1681526020018273ffffffffffffffffffffffffffffffffffffffff1673ffffffffffffffffffffffffffffffffffffffff1681526020019550505050505060405180910390a160001515600b60008763ffffffff1663ffffffff16815260200190815260200160002060009054906101000a900460ff1615151415611203576001600b60008763ffffffff1663ffffffff16815260200190815260200160002060006101000a81548160ff02191690831515021790555082600c60008763ffffffff1663ffffffff16815260200190815260200160002060006101000a81548162ffffff021916908362ffffff160217905550611281565b8262ffffff16600c60008763ffffffff1663ffffffff16815260200190815260200160002060009054906101000a900462ffffff1662ffffff1611156112805782600c60008763ffffffff1663ffffffff16815260200190815260200160002060006101000a81548162ffffff021916908362ffffff1602179055505b5b8262ffffff16600d60008763ffffffff1663ffffffff16815260200190815260200160002060009054906101000a900462ffffff1662ffffff1610156112fe5782600d60008763ffffffff1663ffffffff16815260200190815260200160002060006101000a81548162ffffff021916908362ffffff1602179055505b6001886003016003016002600481111561131457fe5b60ff1660088110151561132357fe5b602091828204019190066101000a81548160ff02191690831515021790555060088661ffff169060020a900460ff1692506101008661ffff1681151561136557fe5b0691508260ff16600660029054906101000a900460ff1660ff1660020a0190508160ff1660020a6001028860030160020160008361ffff1661ffff168152602001908152602001600020600082825417925050816000191690555060018860010160008e73ffffffffffffffffffffffffffffffffffffffff1673ffffffffffffffffffffffffffffffffffffffff16815260200190815260200160002060006101000a81548160ff02191690831515021790555087600201600081819054906101000a900460ff168092919060010191906101000a81548160ff021916908360ff160217905550507fddf7264f7f8b6a56d067ba5808b08e744705140eed9341c2159b07f212f7ec4d81600c60008863ffffffff1663ffffffff16815260200190815260200160002060009054906101000a900462ffffff16600d60008963ffffffff1663ffffffff16815260200190815260200160002060009054906101000a900462ffffff168f8f604051808661ffff1681526020018562ffffff1662ffffff1681526020018462ffffff1662ffffff1681526020018373ffffffffffffffffffffffffffffffffffffffff1673ffffffffffffffffffffffffffffffffffffffff1681526020018273ffffffffffffffffffffffffffffffffffffffff1673ffffffffffffffffffffffffffffffffffffffff1681526020019550505050505060405180910390a16004995061159a565b6003995061159a565b6002995061159a565b6001995061159a565b600099505b50505050505050505092915050565b6000809054906101000a900473ffffffffffffffffffffffffffffffffffffffff1681565b6000600d60008363ffffffff1663ffffffff16815260200190815260200160002060009054906101000a900462ffffff169050919050565b600061161133611af7565b1561169c57600073ffffffffffffffffffffffffffffffffffffffff168273ffffffffffffffffffffffffffffffffffffffff161415151561165257600080fd5b81601060006101000a81548173ffffffffffffffffffffffffffffffffffffffff021916908373ffffffffffffffffffffffffffffffffffffffff160217905550600190506116a1565b600090505b919050565b60008060006116b433611af7565b1561197b5783604051808273ffffffffffffffffffffffffffffffffffffffff1673ffffffffffffffffffffffffffffffffffffffff166c01000000000000000000000000028152601401915050604051809103902091506008600083600019166000191681526020019081526020016000209050600015158160000160009054906101000a900460ff16151514156119725760018160000160006101000a81548160ff02191690831515021790555060018160030160000160006101000a81548160ff02191690831515021790555081816003016001018160001916905550600181600301600301600060048111156117aa57fe5b60ff166008811015156117b957fe5b602091828204019190066101000a81548160ff021916908315150217905550600081600301600301600160048111156117ee57fe5b60ff166008811015156117fd57fe5b602091828204019190066101000a81548160ff0219169083151502179055506000816003016003016002600481111561183257fe5b60ff1660088110151561184157fe5b602091828204019190066101000a81548160ff02191690831515021790555081600760008673ffffffffffffffffffffffffffffffffffffffff1673ffffffffffffffffffffffffffffffffffffffff1681526020019081526020016000208160001916905550600960009054906101000a900463ffffffff16600f6000846000191660001916815260200190815260200160002060006101000a81548163ffffffff021916908363ffffffff16021790555081600e6000600960009054906101000a900463ffffffff1663ffffffff1663ffffffff16815260200190815260200160002081600019169055506009600081819054906101000a900463ffffffff168092919060010191906101000a81548163ffffffff021916908363ffffffff1602179055505060029250611980565b60019250611980565b600092505b5050919050565b6000600a60008463ffffffff1663ffffffff16815260200190815260200160002060008362ffffff1662ffffff16815260200190815260200160002054905092915050565b60006119d733611af7565b15611aed57600160028111156119e957fe5b600260008473ffffffffffffffffffffffffffffffffffffffff1673ffffffffffffffffffffffffffffffffffffffff16815260200190815260200160002060009054906101000a900460ff166002811115611a4157fe5b141515611ae4576001600260008473ffffffffffffffffffffffffffffffffffffffff1673ffffffffffffffffffffffffffffffffffffffff16815260200190815260200160002060006101000a81548160ff02191690836002811115611aa457fe5b02179055506003600081819054906101000a900460ff168092919060010191906101000a81548160ff021916908360ff1602179055505060029050611af2565b60019050611af2565b600090505b919050565b600060016002811115611b0657fe5b600260008473ffffffffffffffffffffffffffffffffffffffff1673ffffffffffffffffffffffffffffffffffffffff16815260200190815260200160002060009054906101000a900460ff166002811115611b5e57fe5b1415611b6d5760019050611b72565b600090505b919050565b6000611b8233611af7565b15611ec657600760ff1660046000846000191660001916815260200190815260200160002060020160009054906101000a900460ff1660ff16108015611cce575060006003811115611bd057fe5b60046000846000191660001916815260200190815260200160002060000160003373ffffffffffffffffffffffffffffffffffffffff1673ffffffffffffffffffffffffffffffffffffffff16815260200190815260200160002060009054906101000a900460ff166003811115611c4457fe5b1480611ccd5750600380811115611c5757fe5b60046000846000191660001916815260200190815260200160002060000160003373ffffffffffffffffffffffffffffffffffffffff1673ffffffffffffffffffffffffffffffffffffffff16815260200190815260200160002060009054906101000a900460ff166003811115611ccb57fe5b145b5b15611e9057600460008360001916600019168152602001908152602001600020600201600081819054906101000a900460ff168092919060010191906101000a81548160ff021916908360ff16021790555050600160046000846000191660001916815260200190815260200160002060000160003373ffffffffffffffffffffffffffffffffffffffff1673ffffffffffffffffffffffffffffffffffffffff16815260200190815260200160002060006101000a81548160ff02191690836003811115611d9957fe5b02179055506004600083600019166000191681526020019081526020016000206001013390806001815401808255809150509060018203906000526020600020016000909192909190916101000a81548173ffffffffffffffffffffffffffffffffffffffff021916908373ffffffffffffffffffffffffffffffffffffffff16021790555050600560003373ffffffffffffffffffffffffffffffffffffffff1673ffffffffffffffffffffffffffffffffffffffff1681526020019081526020016000208290806001815401808255809150509060018203906000526020600020016000909192909190915090600019169055505b60046000836000191660001916815260200190815260200160002060020160009054906101000a900460ff1660ff169050611ecb565b600090505b919050565b6000611edb33611af7565b15611f165760046000836000191660001916815260200190815260200160002060020160009054906101000a900460ff1660ff169050611f1b565b600090505b919050565b600080611f2c33611af7565b156120ec57600060046000856000191660001916815260200190815260200160002060020160009054906101000a900460ff1660ff161415156120e357600090505b60046000846000191660001916815260200190815260200160002060010180549050811015612076576003600460008560001916600019168152602001908152602001600020600001600060046000876000191660001916815260200190815260200160002060010184815481101515611fe457fe5b9060005260206000200160009054906101000a900473ffffffffffffffffffffffffffffffffffffffff1673ffffffffffffffffffffffffffffffffffffffff1673ffffffffffffffffffffffffffffffffffffffff16815260200190815260200160002060006101000a81548160ff0219169083600381111561206457fe5b02179055508080600101915050611f6e565b6000600460008560001916600019168152602001908152602001600020600101816120a191906120f7565b50600060046000856000191660001916815260200190815260200160002060020160006101000a81548160ff021916908360ff160217905550600291506120f1565b600191506120f1565b600091505b50919050565b81548183558181111561211e5781836000526020600020918201910161211d9190612123565b5b505050565b61214591905b80821115612141576000816000905550600101612129565b5090565b905600a165627a7a7230582032a7230d24f7f9ea79f68278eca3b543f923e23017138f96d8a9ffdf5347d5320029",
  "source": "pragma solidity ^0.4.19;\n\nimport \"./Interfaces/ITrustAnchorManager.sol\";\n\nimport \"./Administrable.sol\";\n\n//The Trust Channel Manager is an interface for Trust Anchors to collaborate and share directed\n//financial communications channels in as closee to a friction free way as possible.\n//\n//Trust Anchors sign up to collaborate on the Trust Channel, assigning rules that must be in place\n//to allow for the interface to function. Verifiability of documentation is a key differentiating\n//factor from other identity solutions.\n//\n//Technically, the Trust Channel contract acts as a service-interface aggregator, relying heavily\n//on bit-field manipulation to associate the DCG (directed cyclic graph) relations of the\n//participating trust anchor efficiently.\n//\n//This creates bounds on logic, as lookup tables increase linearly. Bloom filters could theoretically\n//be utilized to allow a probablistic pathing that might need to have heavier lookups in the future.\n\n\n//@note:@todo:@next: examine the use of a de-facto \"global id type\" section, with Shyft running the\n// attestor component via reading certificate-equivalents from signed messages having a valid\n// certificate from some third-party entity.\n//\n// second forms of identity may be used and collected like PGP methods.\n\ncontract TrustChannelManager is Administrable {\n    // ** trust channel management ** //\n\n    event EVT_ReceivedJurisdictionFromTrustAnchor( uint16 jurisdiction,\n        address trustAnchorAddress,\n        address trustChannelAddress );\n\n    event EVT_ComposedTrustChannelWithTrustAnchor( uint256 composedBitField,\n        uint32 trustAnchorIndex,\n        uint32 trustChannelIndex,\n        address _trustAnchorAddress,\n        address _trustChannelAddress );\n\n    event EVT_AddedTrustAnchorToTrustChannel( uint256 ruleStorageIndex,\n        uint24 trustChannelLowestSubmapNumber,\n        uint24 trustChannelHighestSubmapNumber,\n        address _trustAnchorAddress,\n        address _trustChannelAddress );\n\n    event EVT_Route(address _senderIdentifiedAddress,\n        address _receiverIdentifiedAddress,\n        uint256 _amount,\n        uint32 _trustChannelIndex);\n\n    enum TrustChannelRules { VerificationPolicyEnforced,\n        AllowTransitAcrossOtherChannels,\n        AllowTransitAcrossJurisdictions,\n        rules_MinimumSyntheticKycLevelRequired,\n        NumberOfRules}\n\n    uint8 rules_VerificationPolicyEnforced = 0;\n    uint8 rules_AllowTransitAcrossOtherChannels = 1;\n    uint8 rules_AllowTransitAcrossJurisdictions = 2;\n    uint8 rules_MinimumSyntheticKycLevelRequired = 3;\n\n    //\"rulesStorage\" keys below substructured such that there are:\n    // for every rule type (index R):\n    //\n    // 0 -> generalized storage\n    // R * 2**8 + N = Rule storage N, where N < 256.\n    //\n    // [0]: must have verification policy\n    // [1]: allow transit across other channels\n    //  .   [1 * 2**8 + 0] [#256-bit bit field#]: trust channel map A\n    //  .   [1 * 2**8 + 1] [#256-bit bit field#]: trust channel map B\n    //  .   [1 * 2**8 + 2] [#256-bit bit field#]: trust channel map C\n    //  .   [1 * 2**8 + 3] [#256-bit bit field#]: trust channel map D\n    //      ...    note: > 2048 possible trust channels, it is not limited in this contract.\n    // [2]: allow transit across jurisdiction\n    //  .   [2 * 2**8 + 0] [#256-bit bitfield] for jurisdictions allowed under this bit field (0 -> 255)\n    //  .   [2 * 2**8 + 1] [#256-bit bitfield] for jurisdictions allowed under this bit field (255 -> 511)\n    //  .   [2 * 2**8 + 2] [#256-bit bitfield] for jurisdictions allowed under this bit field (511 -> 767)\n    //  .   [2 * 2**8 + 3] [#256-bit bitfield] for jurisdictions allowed under this bit field (767 -> 1023)\n    //      ...    note: > 2048 possible jurisdictions, it is not limited in this contract.\n    // [3]: minimum synthetic kyc level required\n    //  .   [3 * 2**8 + 0] [#16-bit signed integer] kyc level required minimum across all jurisdictions\n\n    //@note: bloom filters aren't considered for the moment while the bit field allows direct comparison.\n    //  .   [0] [#256-bit bloom filter#] bloom filter for jurisdiction phase A << within rulesStorage keccack256(trustChannelKeccak, TrustChannelRules.AllowTransitAcrossJurisdiction, \"A\")\n    //          1 in 256**2 chance of collision\n    //  .   [1] [#256-bit bloom filter#] bloom filter for jurisdiction phase B << within rulesStorage keccack256(trustChannelKeccak, TrustChannelRules.AllowTransitAcrossJurisdiction, \"B\")\n    //          1 in 256**3 chance of collision\n    //  .   [2] [#256-bit bloom filter#] bloom filter for jurisdiction phase C << within rulesStorage keccack256(trustChannelKeccak, TrustChannelRules.AllowTransitAcrossJurisdiction, \"C\")\n    //          1 in 256**4 chance of collision\n    //  .   [3] [#256-bit bloom filter#] bloom filter for jurisdiction phase D << within rulesStorage keccack256(trustChannelKeccak, TrustChannelRules.AllowTransitAcrossJurisdiction, \"D\")\n\n    //minimumSyntheticKyLevelRequired\n    struct trustChannelRules {\n        bool isActive;\n        bytes32 trustChannelKeccak;\n        mapping(uint16 => bytes32) rulesStorage;\n        bool[8] rulesActive;\n    }\n\n    struct trustChannelMap {\n        bool isActive;\n        mapping(address => bool) trustAnchorAddressExists;\n//        uint256[] trustAnchorIndexMapEXBitField;\n        uint8 numMembers;\n\n        trustChannelRules channelRules;\n    }\n\n    mapping(address => bytes32) trustChannelAddressToTrustChannelKeccak;\n    mapping(bytes32 => trustChannelMap) trustChannelKeccakToTrustChannelMap;\n    uint32 numTrustChannels;\n\n    //@note: this mapping is a bit different than the others.. it is a\n    //trust anchor address to bitfield*s* that make up a practically unlimited\n    //data addressing space. ex:\n    //\n    //trustAnchorIndexToTrustChannelIndexBitField[0] = 256-bit bit field\n    //representing the first 256 trust channels.\n\n    mapping(uint32 => mapping(uint24 => uint256)) trustAnchorIndexToTrustChannelIndexBitField;\n\n    mapping(uint32 => bool) trustAnchorIndexAssociatedToAnyTrustChannels;\n    mapping(uint32 => uint24) trustAnchorIndexToTrustChannelLowestSubmapNumber;\n    mapping(uint32 => uint24) trustAnchorIndexToTrustChannelHighestSubmapNumber;\n\n    mapping(uint32 => bytes32) trustChannelIndexToTrustChannelKeccak;\n    mapping(bytes32 => uint32) trustChannelKeccakToTrustChannelIndex;\n\n    uint16 constant NoJurisdiction = 2 ** 16 - 1;\n\n    address trustAnchorManagerAddress;\n    address trustAnchorStorageAddress;\n\n    function TrustChannelManager() public {\n        owner = msg.sender;\n    }\n\n\n    //@note:@here:@todo:@next: setup the following two functions to be multisig through Administrable, and write tests\n    // to match.\n\n    //returns:\n    // 0 = not owner\n    // 1 = set trust anchor storage address\n\n    function setTrustAnchorManagerAddress(address _trustAnchorManagerAddress) public returns (uint8 result) {\n        if (isAdministrator(msg.sender)) {\n            //@note:@here:@todo: stabilize on whether 1 or 2 admins are required to set up, figure out\n            //what to do if the storage address is replaced (this would be a \"big deal\" re: the user's kyc cache graphs)\n\n            require(_trustAnchorManagerAddress != address(0));\n\n            trustAnchorManagerAddress = _trustAnchorManagerAddress;\n\n            //set trust anchor storage address\n            return 1;\n        } else {\n            //not owner\n            return 0;\n        }\n    }\n\n    //returns:\n    // 0 = not owner\n    // 1 = set trust anchor storage address\n\n    function setTrustAnchorStorageAddress(address _trustAnchorStorageAddress) public returns (uint8 result) {\n        if (isAdministrator(msg.sender)) {\n            //@note:@here:@todo: stabilize on whether 1 or 2 admins are required to set up, figure out\n            //what to do if the storage address is replaced (this would be a \"big deal\" re: the user's kyc cache graphs)\n\n            require(_trustAnchorStorageAddress != address(0));\n\n            trustAnchorStorageAddress = _trustAnchorStorageAddress;\n\n            //set trust anchor storage address\n            return 1;\n        } else {\n            //not owner\n            return 0;\n        }\n    }\n\n    //returns:\n    // 0 = not administrator\n    // 1 = trust channel already exists\n    // 2 = added trust channel\n\n    function adminSetupTrustChannel(address _trustChannelAddress) public returns (uint8 result) {\n        if (isAdministrator(msg.sender)) {\n\n            //@note: @here: @future this should be modified so that an address can own multiple trust channels.\n            bytes32 trustChannelKeccak = keccak256(_trustChannelAddress);\n            trustChannelMap storage channelMap = trustChannelKeccakToTrustChannelMap[trustChannelKeccak];\n\n\n            if (channelMap.isActive == false) {\n                channelMap.isActive = true;\n                channelMap.channelRules.isActive = true;\n                channelMap.channelRules.trustChannelKeccak = trustChannelKeccak;\n                channelMap.channelRules.rulesActive[uint8(TrustChannelRules.VerificationPolicyEnforced)] = true;\n                channelMap.channelRules.rulesActive[uint8(TrustChannelRules.AllowTransitAcrossOtherChannels)] = false;\n                //keccack256(trustChannelKeccak, TrustChannelRules.AllowTransitAcrossOtherChannels, \"A\")\n                channelMap.channelRules.rulesActive[uint8(TrustChannelRules.AllowTransitAcrossJurisdictions)] = false;\n                //keccack256(trustChannelKeccak, TrustChannelRules.AllowTransitAcrossJurisdiction, \"A\")\n\n                trustChannelAddressToTrustChannelKeccak[_trustChannelAddress] = trustChannelKeccak;\n\n                trustChannelKeccakToTrustChannelIndex[trustChannelKeccak] = numTrustChannels;\n                trustChannelIndexToTrustChannelKeccak[numTrustChannels] = trustChannelKeccak;\n\n                numTrustChannels++;\n\n                //added trust channel\n                return 2;\n            } else {\n                //trust channel already exists\n                return 1;\n            }\n        } else {\n            //not administrator\n            return 0;\n        }\n    }\n\n    //returns:\n    // 0 = not administrator\n    // 1 = not enough administrators have permissioned change\n    // 2 = trust channel removed\n\n    //@note:@here:@todo:@next:@audit:@critical: what happens to the trust channel mappings when a trust channel is removed.\n    function adminRemoveTrustChannel(address _trustChannelAddress) public returns (uint16 result) {\n        if (isAdministrator(msg.sender)) {\n            bytes32 keyKeccak = keccak256(\"removeTrustChannel\", _trustChannelAddress);\n\n            uint16 numPermissions = adminGetPermissionsForMultisignKey(keyKeccak);\n\n            bool permittedToModify;\n\n            if (numPermissions >= maxThreshold) {\n                permittedToModify = true;\n            } else {\n                uint16 numConfirmedPermissions = adminApplyAndGetPermissionsForMultisignKey(keyKeccak);\n\n                if (numConfirmedPermissions >= maxThreshold) {\n                    permittedToModify = true;\n                }\n            }\n\n            if (permittedToModify == true) {\n                bytes32 trustChannelKeccak = keccak256(_trustChannelAddress);\n                trustChannelKeccakToTrustChannelMap[trustChannelKeccak].isActive = false;\n\n                //@note:@here:@security if this function is ill-used by a\n                // malicious admin, the worst they can do is reset the permissions\n                // of the keys, and they have to be the one to execute a key\n                // permissioning to get this far in the stack.\n                adminResetPermissionsForMultisignKey(keyKeccak);\n\n                //trust channel removed\n                return 2;\n\n            } else {\n                //not enough administrators have permissioned change\n                return 1;\n            }\n        } else {\n            //not an administrator\n            return 0;\n        }\n    }\n\n    //returns:\n    // 0 = not administrator\n    // 1 = trust channel not active\n    // 2 = trust anchor already within mapping\n    // 3 = no trust anchor jurisdiction set\n    // 4 = trust anchor added to trust channel\n\n    //@note:@next:@todo:@audit: what happens to the existing users of the trust anchor (w / prior attestations) when the\n    // trust anchor is associated to this new trust channel. ie are new attestations required?\n\n    function adminAddTrustAnchorToTrustChannel(address _trustAnchorAddress, address _trustChannelAddress) public returns (uint8 result) {\n        if (isAdministrator(msg.sender)) {\n            bytes32 trustChannelKeccak = trustChannelAddressToTrustChannelKeccak[_trustChannelAddress];\n            trustChannelMap storage channelMap = trustChannelKeccakToTrustChannelMap[trustChannelKeccak];\n\n\n            if (channelMap.isActive == true) {\n                if (channelMap.trustAnchorAddressExists[_trustAnchorAddress] == false) {\n\n                    //@note: need to check trust anchor jurisdiction in trust anchor manager lookup\n                    ITrustAnchorManager trustAnchorManager = ITrustAnchorManager(trustAnchorManagerAddress);\n                    uint16 jurisdiction = trustAnchorManager.getTrustAnchorJurisdiction(_trustAnchorAddress);\n                    uint32 trustAnchorIndex = trustAnchorManager.getTrustAnchorIndex(_trustAnchorAddress);\n\n                    EVT_ReceivedJurisdictionFromTrustAnchor(jurisdiction, _trustAnchorAddress, _trustChannelAddress);\n\n                    if (jurisdiction != NoJurisdiction) {\n                        uint32 trustChannelIndex = trustChannelKeccakToTrustChannelIndex[trustChannelKeccak];\n\n                        //separate out the trust channel index number with the sub-mapping. this keeps alignment to 256 bits.\n                        //uint24 because the maximum value is the trustChannelIndex (a uint32) shifted over 8 bits.\n                        uint24 submapNumber = uint24(trustChannelIndex >> 8);\n                        uint8 subIndex = uint8(trustChannelIndex % 256);\n\n                        //when the mapping is done, it is OR'd with the 2(to the power of)trustChannelIndex, subIndex being bounded between 0->2**24-1.\n                        //this indicates the trust channel index in a (bounded, but still very very high) address space.\n\n                        trustAnchorIndexToTrustChannelIndexBitField[trustAnchorIndex][submapNumber] |= uint256(2 ** uint256(subIndex));\n\n                        EVT_ComposedTrustChannelWithTrustAnchor(trustAnchorIndexToTrustChannelIndexBitField[trustAnchorIndex][submapNumber], trustAnchorIndex, trustChannelIndex, _trustAnchorAddress, _trustChannelAddress);\n\n                        //                        //@note: necessary for trust anchor revocations, and attestation revocation.\n//\n//                        //separate out the trust anchor submap index with the sub-mapping. this keeps alignment to 256 bits.\n//                        uint24 submapNumber = uint24(trustAnchorIndex >> 8);\n//                        uint8 subIndex = uint8(trustAnchorIndex % 256);\n//\n//                        if (channelMap.trustAnchorIndexMapEXBitField.length < (submapNumber + 1)) {\n//                            channelMap.trustAnchorIndexMapEXBitField = submapNumber + 1;\n//                        }\n//                        //@note:@todo:@next: consider the additional complexity if the trust anchor itself is revoked.\n//                        channelMap.trustAnchorIndexMapEXBitField[submapNumber] |= (2 ** uint256(subIndex));\n\n                        //and we keep track of the highest channel index for later high-speed compares. for example larger systems\n                        //might require more 256 bit table lookup/compares.\n                        if (trustAnchorIndexAssociatedToAnyTrustChannels[trustAnchorIndex] == false) {\n                            trustAnchorIndexAssociatedToAnyTrustChannels[trustAnchorIndex] = true;\n                            trustAnchorIndexToTrustChannelLowestSubmapNumber[trustAnchorIndex] = submapNumber;\n                        } else {\n                            if (trustAnchorIndexToTrustChannelLowestSubmapNumber[trustAnchorIndex] > submapNumber) {\n                                trustAnchorIndexToTrustChannelLowestSubmapNumber[trustAnchorIndex] = submapNumber;\n                            }\n                        }\n\n                        if (trustAnchorIndexToTrustChannelHighestSubmapNumber[trustAnchorIndex] < submapNumber) {\n                            trustAnchorIndexToTrustChannelHighestSubmapNumber[trustAnchorIndex] = submapNumber;\n                        }\n\n\n                        channelMap.channelRules.rulesActive[uint8(TrustChannelRules.AllowTransitAcrossJurisdictions)] = true;\n\n                        //separate out the jurisdiction number with the sub-mapping. this keeps alignment to 256 bits.\n                        //@note: reusing \"submapNumber\" which is uint24, casting to uint8 in further.\n                        submapNumber = uint8(jurisdiction >> 8);\n                        subIndex = uint8(jurisdiction % 256);\n                        //when the mapping is done, it is OR'd with the 2(to the power of)subIndex, subIndex being bounded between 0->255.\n                        //this indicates the jurisdiction in a (bounded, but still very very high) address space.\n\n                        uint16 ruleStorageIndex = uint16(2 ** uint256(rules_AllowTransitAcrossJurisdictions)) + uint8(submapNumber);\n\n                        channelMap.channelRules.rulesStorage[ruleStorageIndex] |= bytes32(2 ** uint256(subIndex));\n\n                        channelMap.trustAnchorAddressExists[_trustAnchorAddress] = true;\n                        channelMap.numMembers++;\n\n                        EVT_AddedTrustAnchorToTrustChannel( ruleStorageIndex,\n                                                            trustAnchorIndexToTrustChannelLowestSubmapNumber[trustAnchorIndex],\n                                                            trustAnchorIndexToTrustChannelHighestSubmapNumber[trustAnchorIndex],\n                                                            _trustAnchorAddress,\n                                                            _trustChannelAddress);\n\n                        //trust anchor added to trust channel\n                        return 4;\n                    } else {\n\n                        //no trust anchor jurisdiction set\n                        return 3;\n                    }\n                } else {\n                    //trust anchor already within mapping\n                    return 2;\n                }\n            } else {\n                //trust channel not active\n                return 1;\n            }\n        } else {\n            //not administrator\n            return 0;\n        }\n    }\n\n    //@note:@here:@todo:@next:@test: write tests for this.\n    function getTrustChannelLowestSubmapNumberForTrustAnchorIndex(uint32 _trustAnchorIndex) public view returns (uint24 result) {\n        return trustAnchorIndexToTrustChannelLowestSubmapNumber[_trustAnchorIndex];\n    }\n\n    //@note:@here:@todo:@next:@test: write tests for this.\n    function getTrustChannelHighestSubmapNumberForTrustAnchorIndex(uint32 _trustAnchorIndex) public view returns (uint24 result) {\n        return trustAnchorIndexToTrustChannelHighestSubmapNumber[_trustAnchorIndex];\n    }\n\n    function getTrustChannelIndexBitFieldAtSubmapNumberForTrustAnchorIndex(uint32 _trustAnchorIndex, uint24 submapNumber) public view returns (uint256 result) {\n        return trustAnchorIndexToTrustChannelIndexBitField[_trustAnchorIndex][submapNumber];\n    }\n\n\n    //@note: this function performs any necessary notifications across the trust channel routing indicies. If there are event subscribers, most of the logistics can\n    // be handled on the app layer instead of the dapp layer. However, automated blockchain accounts, reporting, etc. could do with having specific event subscription\n    // calls.\n\n    //returns:\n    // 1 -> 2**15 - 1 = kyc levels authorized\n    // 0: no routing possible (@note: is this even possible)\n    // -1: pseudonymous only\n    // -2: bridged kyc only (Civic etc)\n    // -3 -> -(2**15 - 1) = bridged kyc modes (@note:@here:@todo:@next: defined these)\n\n    //@note:@todo:@next\n\n\n    //the routing function is only called when the fully identified trust channel indexes are aligned from a KYC'd user's cache graph.\n    //the trust anchors on both the sender and receiver side are guaranteed to exist within this trust channel.\n    //\n    //if any further rules are required by this trust channel, this function might return false.\n    //@note:@todo: other variances such as reporting restrictions might be returned as well from overloaded versions of route.\n\n    //returns:\n    // 0 =\n    // 1 =\n\n    //@note:@here:@todo:@next:@critical: maybe have this function do a lookup to see if the trust channel has been removed. this would be sorta\n    // hacky and I'd prefer if route never got called for invalidated trust channels in the first place (since then the send function\n    // needs to perform another lookup)\n\n    function route(uint256 _amount, address _senderIdentifiedAddress, address _receiverIdentifiedAddress, uint32 _trustChannelIndex) public returns (int16 result) {\n        trustChannelRules storage channelRules = trustChannelKeccakToTrustChannelMap[trustChannelIndexToTrustChannelKeccak[_trustChannelIndex]].channelRules;\n\n        EVT_Route(_senderIdentifiedAddress, _receiverIdentifiedAddress, _amount, _trustChannelIndex);\n\n        if (channelRules.rulesActive[rules_AllowTransitAcrossJurisdictions] == true) {\n            // channelRules.rulesActive[rules_AllowTransitAcrossJurisdictions];\n            return 1;\n        }\n\n        return 1;\n    }\n}\n\n",
  "sourcePath": "/Users/jaypersanchez/KYCAML/contracts/TrustChannelManager.sol",
  "compiler": {
    "name": "solc",
    "version": "0.4.24+commit.e67f0147.Emscripten.clang"
  },
  "schemaVersion": "2.0.1",
  "updatedAt": "2018-10-11T00:10:45.206Z"
}