{
  "contractName": "TrustAnchorManager",
  "abi": [
    {
      "constant": false,
      "inputs": [
        {
          "name": "_newAdministratorAddress",
          "type": "address"
        }
      ],
      "name": "setPrimaryAdministrator",
      "outputs": [
        {
          "name": "result",
          "type": "uint8"
        }
      ],
      "payable": false,
      "stateMutability": "nonpayable",
      "type": "function"
    },
    {
      "constant": false,
      "inputs": [
        {
          "name": "_revokeAdministratorAddress",
          "type": "address"
        }
      ],
      "name": "revokeAdministrator",
      "outputs": [
        {
          "name": "result",
          "type": "uint8"
        }
      ],
      "payable": false,
      "stateMutability": "nonpayable",
      "type": "function"
    },
    {
      "constant": true,
      "inputs": [],
      "name": "owner",
      "outputs": [
        {
          "name": "",
          "type": "address"
        }
      ],
      "payable": false,
      "stateMutability": "view",
      "type": "function"
    },
    {
      "constant": false,
      "inputs": [
        {
          "name": "_newAdministratorAddress",
          "type": "address"
        }
      ],
      "name": "setAdministrator",
      "outputs": [
        {
          "name": "result",
          "type": "uint8"
        }
      ],
      "payable": false,
      "stateMutability": "nonpayable",
      "type": "function"
    },
    {
      "inputs": [],
      "payable": false,
      "stateMutability": "nonpayable",
      "type": "constructor"
    },
    {
      "anonymous": false,
      "inputs": [
        {
          "indexed": false,
          "name": "trustAnchorAddress",
          "type": "address"
        }
      ],
      "name": "EVT_JurisdictionDoesRequireChange",
      "type": "event"
    },
    {
      "anonymous": false,
      "inputs": [
        {
          "indexed": false,
          "name": "jurisdiction",
          "type": "uint16"
        },
        {
          "indexed": false,
          "name": "trustAnchorAddress",
          "type": "address"
        }
      ],
      "name": "EVT_GettingJurisdictionFromTrustAnchor",
      "type": "event"
    },
    {
      "constant": false,
      "inputs": [
        {
          "name": "_trustAnchorAddress",
          "type": "address"
        }
      ],
      "name": "onboardTrustAnchor",
      "outputs": [
        {
          "name": "result",
          "type": "uint8"
        }
      ],
      "payable": false,
      "stateMutability": "nonpayable",
      "type": "function"
    },
    {
      "constant": false,
      "inputs": [
        {
          "name": "_trustAnchorAddress",
          "type": "address"
        }
      ],
      "name": "verifyTrustAnchor",
      "outputs": [
        {
          "name": "result",
          "type": "uint8"
        }
      ],
      "payable": false,
      "stateMutability": "nonpayable",
      "type": "function"
    },
    {
      "constant": false,
      "inputs": [
        {
          "name": "_trustAnchorAddress",
          "type": "address"
        }
      ],
      "name": "demoteTrustAnchor",
      "outputs": [
        {
          "name": "result",
          "type": "uint8"
        }
      ],
      "payable": false,
      "stateMutability": "nonpayable",
      "type": "function"
    },
    {
      "constant": true,
      "inputs": [
        {
          "name": "_trustAnchorAddress",
          "type": "address"
        }
      ],
      "name": "isTrustAnchorVerified",
      "outputs": [
        {
          "name": "result",
          "type": "bool"
        }
      ],
      "payable": false,
      "stateMutability": "view",
      "type": "function"
    },
    {
      "constant": true,
      "inputs": [
        {
          "name": "_trustAnchorAddress",
          "type": "address"
        }
      ],
      "name": "getTrustAnchorIndex",
      "outputs": [
        {
          "name": "result",
          "type": "uint32"
        }
      ],
      "payable": false,
      "stateMutability": "view",
      "type": "function"
    },
    {
      "constant": false,
      "inputs": [
        {
          "name": "_newJurisdiction",
          "type": "uint16"
        }
      ],
      "name": "setupTrustAnchorJurisdiction",
      "outputs": [
        {
          "name": "result",
          "type": "uint8"
        }
      ],
      "payable": false,
      "stateMutability": "nonpayable",
      "type": "function"
    },
    {
      "constant": false,
      "inputs": [
        {
          "name": "_trustAnchorAddress",
          "type": "address"
        }
      ],
      "name": "approveChange",
      "outputs": [
        {
          "name": "result",
          "type": "uint8"
        }
      ],
      "payable": false,
      "stateMutability": "nonpayable",
      "type": "function"
    },
    {
      "constant": false,
      "inputs": [
        {
          "name": "_trustAnchorAddress",
          "type": "address"
        }
      ],
      "name": "getTrustAnchorJurisdiction",
      "outputs": [
        {
          "name": "result",
          "type": "uint16"
        }
      ],
      "payable": false,
      "stateMutability": "nonpayable",
      "type": "function"
    },
    {
      "constant": false,
      "inputs": [
        {
          "name": "_primeRevocationManagerAddress",
          "type": "address"
        }
      ],
      "name": "isPrimeRevocationManager",
      "outputs": [
        {
          "name": "result",
          "type": "bool"
        }
      ],
      "payable": false,
      "stateMutability": "nonpayable",
      "type": "function"
    }
  ],
  "bytecode": "0x6080604052739db76b4bbaea76dfda4552b7b9d4e9d43abc55fd600b60006101000a81548173ffffffffffffffffffffffffffffffffffffffff021916908373ffffffffffffffffffffffffffffffffffffffff16021790555034801561006557600080fd5b50336000806101000a81548173ffffffffffffffffffffffffffffffffffffffff021916908373ffffffffffffffffffffffffffffffffffffffff160217905550611921806100b56000396000f3006080604052600436106100c5576000357c0100000000000000000000000000000000000000000000000000000000900463ffffffff168063064ad7c2146100ca57806325b953b3146101275780634402bba31461018657806350a91018146101e3578063512f3d651461024057806368878cde1461029b5780636efc25c8146102e65780637899320f1461034957806389e81ee7146103a65780638da5cb5b146104035780639528d2701461045a578063df8089ef146104b7578063f3fc05f414610514575b600080fd5b3480156100d657600080fd5b5061010b600480360381019080803573ffffffffffffffffffffffffffffffffffffffff16906020019092919050505061056f565b604051808260ff1660ff16815260200191505060405180910390f35b34801561013357600080fd5b50610168600480360381019080803573ffffffffffffffffffffffffffffffffffffffff169060200190929190505050610690565b604051808261ffff1661ffff16815260200191505060405180910390f35b34801561019257600080fd5b506101c7600480360381019080803573ffffffffffffffffffffffffffffffffffffffff1690602001909291905050506107a7565b604051808260ff1660ff16815260200191505060405180910390f35b3480156101ef57600080fd5b50610224600480360381019080803573ffffffffffffffffffffffffffffffffffffffff169060200190929190505050610933565b604051808260ff1660ff16815260200191505060405180910390f35b34801561024c57600080fd5b50610281600480360381019080803573ffffffffffffffffffffffffffffffffffffffff169060200190929190505050610bfd565b604051808215151515815260200191505060405180910390f35b3480156102a757600080fd5b506102ca600480360381019080803561ffff169060200190929190505050610d1b565b604051808260ff1660ff16815260200191505060405180910390f35b3480156102f257600080fd5b50610327600480360381019080803573ffffffffffffffffffffffffffffffffffffffff169060200190929190505050610ec2565b604051808263ffffffff1663ffffffff16815260200191505060405180910390f35b34801561035557600080fd5b5061038a600480360381019080803573ffffffffffffffffffffffffffffffffffffffff169060200190929190505050610f1b565b604051808260ff1660ff16815260200191505060405180910390f35b3480156103b257600080fd5b506103e7600480360381019080803573ffffffffffffffffffffffffffffffffffffffff16906020019092919050505061115b565b604051808260ff1660ff16815260200191505060405180910390f35b34801561040f57600080fd5b50610418611254565b604051808273ffffffffffffffffffffffffffffffffffffffff1673ffffffffffffffffffffffffffffffffffffffff16815260200191505060405180910390f35b34801561046657600080fd5b5061049b600480360381019080803573ffffffffffffffffffffffffffffffffffffffff169060200190929190505050611279565b604051808260ff1660ff16815260200191505060405180910390f35b3480156104c357600080fd5b506104f8600480360381019080803573ffffffffffffffffffffffffffffffffffffffff169060200190929190505050611371565b604051808260ff1660ff16815260200191505060405180910390f35b34801561052057600080fd5b50610555600480360381019080803573ffffffffffffffffffffffffffffffffffffffff16906020019092919050505061149c565b604051808215151515815260200191505060405180910390f35b60008060009054906101000a900473ffffffffffffffffffffffffffffffffffffffff1673ffffffffffffffffffffffffffffffffffffffff163373ffffffffffffffffffffffffffffffffffffffff161415610686576000600360009054906101000a900460ff1660ff16141561067d576001600260008473ffffffffffffffffffffffffffffffffffffffff1673ffffffffffffffffffffffffffffffffffffffff16815260200190815260200160002060006101000a81548160ff0219169083600281111561063d57fe5b02179055506003600081819054906101000a900460ff168092919060010191906101000a81548160ff021916908360ff160217905550506002905061068b565b6001905061068b565b600090505b919050565b60007f6f09dfd97060366f89eddd6c6d9673457fed4f97f4da23994acbb845bdb32d53600960008473ffffffffffffffffffffffffffffffffffffffff1673ffffffffffffffffffffffffffffffffffffffff16815260200190815260200160002060009054906101000a900461ffff1683604051808361ffff1661ffff1681526020018273ffffffffffffffffffffffffffffffffffffffff1673ffffffffffffffffffffffffffffffffffffffff1681526020019250505060405180910390a1600960008373ffffffffffffffffffffffffffffffffffffffff1673ffffffffffffffffffffffffffffffffffffffff16815260200190815260200160002060009054906101000a900461ffff169050919050565b60008060006107b53361151c565b1561092757600160028111156107c757fe5b600260008673ffffffffffffffffffffffffffffffffffffffff1673ffffffffffffffffffffffffffffffffffffffff16815260200190815260200160002060009054906101000a900460ff16600281111561081f57fe5b141561091e5760405180807f61646d696e697374726174696f6e5265766f636174696f6e566f746500000000815250601c019050604051809103902091506108668261159c565b9050600260ff168161ffff161015156109155760028060008673ffffffffffffffffffffffffffffffffffffffff1673ffffffffffffffffffffffffffffffffffffffff16815260200190815260200160002060006101000a81548160ff021916908360028111156108d457fe5b02179055506003600081819054906101000a900460ff16809291906001900391906101000a81548160ff021916908360ff160217905550506003925061092c565b6002925061092c565b6001925061092c565b600092505b5050919050565b600061093e3361151c565b15610bf3576001600381111561095057fe5b600660008473ffffffffffffffffffffffffffffffffffffffff1673ffffffffffffffffffffffffffffffffffffffff16815260200190815260200160002060009054906101000a900460ff1660038111156109a857fe5b1480610a1557506003808111156109bb57fe5b600660008473ffffffffffffffffffffffffffffffffffffffff1673ffffffffffffffffffffffffffffffffffffffff16815260200190815260200160002060009054906101000a900460ff166003811115610a1357fe5b145b15610bea576002600660008473ffffffffffffffffffffffffffffffffffffffff1673ffffffffffffffffffffffffffffffffffffffff16815260200190815260200160002060006101000a81548160ff02191690836003811115610a7657fe5b021790555061ffff600960008473ffffffffffffffffffffffffffffffffffffffff1673ffffffffffffffffffffffffffffffffffffffff16815260200190815260200160002060006101000a81548161ffff021916908361ffff1602179055506000600760008473ffffffffffffffffffffffffffffffffffffffff1673ffffffffffffffffffffffffffffffffffffffff16815260200190815260200160002060009054906101000a900463ffffffff1663ffffffff161415610be157600860009054906101000a900463ffffffff16600760008473ffffffffffffffffffffffffffffffffffffffff1673ffffffffffffffffffffffffffffffffffffffff16815260200190815260200160002060006101000a81548163ffffffff021916908363ffffffff1602179055506008600081819054906101000a900463ffffffff168092919060010191906101000a81548163ffffffff021916908363ffffffff160217905550505b60029050610bf8565b60019050610bf8565b600090505b919050565b600080600b60009054906101000a900473ffffffffffffffffffffffffffffffffffffffff169050600115158173ffffffffffffffffffffffffffffffffffffffff1663512f3d65856040518263ffffffff167c0100000000000000000000000000000000000000000000000000000000028152600401808273ffffffffffffffffffffffffffffffffffffffff1673ffffffffffffffffffffffffffffffffffffffff168152602001915050602060405180830381600087803b158015610cc457600080fd5b505af1158015610cd8573d6000803e3d6000fd5b505050506040513d6020811015610cee57600080fd5b810190808051906020019092919050505015151415610d105760019150610d15565b600091505b50919050565b600060011515610d2a3361149c565b15151415610eb85761ffff8016600960003373ffffffffffffffffffffffffffffffffffffffff1673ffffffffffffffffffffffffffffffffffffffff16815260200190815260200160002060009054906101000a900461ffff1661ffff161415610df25781600960003373ffffffffffffffffffffffffffffffffffffffff1673ffffffffffffffffffffffffffffffffffffffff16815260200190815260200160002060006101000a81548161ffff021916908361ffff16021790555060029050610ebd565b81600a60003373ffffffffffffffffffffffffffffffffffffffff1673ffffffffffffffffffffffffffffffffffffffff16815260200190815260200160002060006101000a81548161ffff021916908361ffff1602179055507f84548859412b54336f26dc5c85182cd2a4328a6203d88a9d259944c80f90328e33604051808273ffffffffffffffffffffffffffffffffffffffff1673ffffffffffffffffffffffffffffffffffffffff16815260200191505060405180910390a160019050610ebd565b600090505b919050565b6000600760008373ffffffffffffffffffffffffffffffffffffffff1673ffffffffffffffffffffffffffffffffffffffff16815260200190815260200160002060009054906101000a900463ffffffff169050919050565b6000610f263361151c565b15611151576000600960008473ffffffffffffffffffffffffffffffffffffffff1673ffffffffffffffffffffffffffffffffffffffff16815260200190815260200160002060009054906101000a900461ffff1661ffff16141515611148576000600a60008473ffffffffffffffffffffffffffffffffffffffff1673ffffffffffffffffffffffffffffffffffffffff16815260200190815260200160002060009054906101000a900461ffff1661ffff161415801561108a5750600960008373ffffffffffffffffffffffffffffffffffffffff1673ffffffffffffffffffffffffffffffffffffffff16815260200190815260200160002060009054906101000a900461ffff1661ffff16600a60008473ffffffffffffffffffffffffffffffffffffffff1673ffffffffffffffffffffffffffffffffffffffff16815260200190815260200160002060009054906101000a900461ffff1661ffff1614155b1561113f57600a60008373ffffffffffffffffffffffffffffffffffffffff1673ffffffffffffffffffffffffffffffffffffffff16815260200190815260200160002060009054906101000a900461ffff16600960008473ffffffffffffffffffffffffffffffffffffffff1673ffffffffffffffffffffffffffffffffffffffff16815260200190815260200160002060006101000a81548161ffff021916908361ffff16021790555060039050611156565b60029050611156565b60019050611156565b600090505b919050565b60006111663361151c565b1561124a576002600381111561117857fe5b600660008473ffffffffffffffffffffffffffffffffffffffff1673ffffffffffffffffffffffffffffffffffffffff16815260200190815260200160002060009054906101000a900460ff1660038111156111d057fe5b141515611241576003600660008473ffffffffffffffffffffffffffffffffffffffff1673ffffffffffffffffffffffffffffffffffffffff16815260200190815260200160002060006101000a81548160ff0219169083600381111561123357fe5b02179055506002905061124f565b6001905061124f565b600090505b919050565b6000809054906101000a900473ffffffffffffffffffffffffffffffffffffffff1681565b60006112843361151c565b15611367576000600381111561129657fe5b600660008473ffffffffffffffffffffffffffffffffffffffff1673ffffffffffffffffffffffffffffffffffffffff16815260200190815260200160002060009054906101000a900460ff1660038111156112ee57fe5b141561135e576001600660008473ffffffffffffffffffffffffffffffffffffffff1673ffffffffffffffffffffffffffffffffffffffff16815260200190815260200160002060006101000a81548160ff0219169083600381111561135057fe5b02179055506002905061136c565b6001905061136c565b600090505b919050565b600061137c3361151c565b15611492576001600281111561138e57fe5b600260008473ffffffffffffffffffffffffffffffffffffffff1673ffffffffffffffffffffffffffffffffffffffff16815260200190815260200160002060009054906101000a900460ff1660028111156113e657fe5b141515611489576001600260008473ffffffffffffffffffffffffffffffffffffffff1673ffffffffffffffffffffffffffffffffffffffff16815260200190815260200160002060006101000a81548160ff0219169083600281111561144957fe5b02179055506003600081819054906101000a900460ff168092919060010191906101000a81548160ff021916908360ff1602179055505060029050611497565b60019050611497565b600090505b919050565b6000600260038111156114ab57fe5b600660008473ffffffffffffffffffffffffffffffffffffffff1673ffffffffffffffffffffffffffffffffffffffff16815260200190815260200160002060009054906101000a900460ff16600381111561150357fe5b14156115125760019050611517565b600090505b919050565b60006001600281111561152b57fe5b600260008473ffffffffffffffffffffffffffffffffffffffff1673ffffffffffffffffffffffffffffffffffffffff16815260200190815260200160002060009054906101000a900460ff16600281111561158357fe5b14156115925760019050611597565b600090505b919050565b60006115a73361151c565b156118eb57600760ff1660046000846000191660001916815260200190815260200160002060020160009054906101000a900460ff1660ff161080156116f35750600060038111156115f557fe5b60046000846000191660001916815260200190815260200160002060000160003373ffffffffffffffffffffffffffffffffffffffff1673ffffffffffffffffffffffffffffffffffffffff16815260200190815260200160002060009054906101000a900460ff16600381111561166957fe5b14806116f2575060038081111561167c57fe5b60046000846000191660001916815260200190815260200160002060000160003373ffffffffffffffffffffffffffffffffffffffff1673ffffffffffffffffffffffffffffffffffffffff16815260200190815260200160002060009054906101000a900460ff1660038111156116f057fe5b145b5b156118b557600460008360001916600019168152602001908152602001600020600201600081819054906101000a900460ff168092919060010191906101000a81548160ff021916908360ff16021790555050600160046000846000191660001916815260200190815260200160002060000160003373ffffffffffffffffffffffffffffffffffffffff1673ffffffffffffffffffffffffffffffffffffffff16815260200190815260200160002060006101000a81548160ff021916908360038111156117be57fe5b02179055506004600083600019166000191681526020019081526020016000206001013390806001815401808255809150509060018203906000526020600020016000909192909190916101000a81548173ffffffffffffffffffffffffffffffffffffffff021916908373ffffffffffffffffffffffffffffffffffffffff16021790555050600560003373ffffffffffffffffffffffffffffffffffffffff1673ffffffffffffffffffffffffffffffffffffffff1681526020019081526020016000208290806001815401808255809150509060018203906000526020600020016000909192909190915090600019169055505b60046000836000191660001916815260200190815260200160002060020160009054906101000a900460ff1660ff1690506118f0565b600090505b9190505600a165627a7a72305820727101a0528f879727f5a7077d1e846e8327e7389b9c1e09f4f34a14c942bd930029",
  "source": "// pragma experimental ABIEncoderV2;\n\npragma solidity ^0.4.19;\n\nimport \"./Interfaces/ITrustAnchorManager.sol\";\nimport \"./Interfaces/IShyftConduit.sol\";\n\nimport \"./ECRecovery.sol\";\nimport \"./Administrable.sol\";\n\n// ** TrustAnchorReference.sol ** //\n// 2018 Shyft. all rights reserved.\n// Author Chris Forrester\n\n// context:\n// TrustAnchorReference is the basic building block for the trust anchor referencing in the logical kyc caching within the Shyft blockchain.\n// This generally relates to a series of map reductions and lists, however in this case we're doing an O(n) lookup within a technically massive\n// address space. So to return the proper data we simply do a series of hash comparisons, one per lookup field, and see if a value within this\n// space is nonzero, thus indicating a membership class. Further requirements for queries can utilize this format for lookups.\n\n// Admins of this contract are able to be set in order to allow for better management practices.\n// Bounties are set on http://www.shyft.network/bounties/TrustAnchorReference.sol for any glitches. Please do literally all the work and send a\n// pull request with your divine salvation. #<3s\n\n\n// patterns used:\n// owner pattern.\n// administrator pattern.\n\n// irregular usages:\n//\n// (1) structure:\n// hash table based mirrored data accessors for maximum read with a bit of write overhead.\n// (1) rationale:\n// most contracts depend on this and keeping two hash tables in memory constantly when > 90% of transactions should eventually be using the kyc\n// database to at least trigger friendly events re: reputation token is a useful thing.\n\n// compatibility:\n// fully ethereum EVM compliant.\n\n// future work:\n// research into cost/benefit of upgradability.\n// further caching and improvement of read performance/cost.\n\n//@note:@todo:@next: add multisig to the onboard/approve/demotions?\n\ncontract TrustAnchorManager is Administrable, ITrustAnchorManager {\n    //Events for Trust Anchor-specific metadata updates. This does not necessarily affect the active status or the jurisdiction fields in the\n    //Trust Anchors' attestations.\n    event EVT_JurisdictionDoesRequireChange( address trustAnchorAddress );\n    event EVT_GettingJurisdictionFromTrustAnchor( uint16 jurisdiction, address trustAnchorAddress );\n\n    enum TrustAnchorAccess { Unknown, Onboarded, Verified, Demoted }\n\n    //trust anchors\n    mapping (address => TrustAnchorAccess) trustAnchorAccess;\n    mapping (address => uint32) trustAnchorIndexes;\n\n    uint32 numTrustAnchors;\n\n    //jurisdictions\n    mapping (address => uint16) jurisdictions;\n    mapping (address => uint16) jurisdictionsRequiringChange;\n\n    uint16 constant NoJurisdiction = 2 ** 16 - 1;\n\n    //@note:@here:@genesis: this address is hardcoded based on the shyft conduit address which can be\n    // pre-generated when a known genesis block and/or creator address of a shyft conduit is known.\n\n    address shyftConduitAddress = address(0x9DB76b4BbAEa76dfdA4552B7B9d4e9D43aBC55FD);\n\n    function TrustAnchorManager() public {\n        owner = msg.sender;\n    }\n    \n    // ** trust anchor primary management ** //\n\n    //result:\n    // 0 = not administrator\n    // 1 = trust anchor not unknown state\n    // 2 = trust anchor onboarded\n\n    function onboardTrustAnchor(address _trustAnchorAddress) public returns (uint8 result) {\n        if (isAdministrator(msg.sender)) {\n            if (trustAnchorAccess[_trustAnchorAddress] == TrustAnchorAccess.Unknown) {\n                trustAnchorAccess[_trustAnchorAddress] = TrustAnchorAccess.Onboarded;\n                //trust anchor onboarded\n                return 2;\n            } else {\n                //trust anchor not unknown state\n                return 1;\n            }\n        } else {\n            //not administrator\n            return 0;\n        }\n    }\n    \n    //result:\n    // 0 = not administrator\n    // 1 = trust anchor not onboarded\n    // 2 = trust anchor verified\n\n    function verifyTrustAnchor(address _trustAnchorAddress) public returns (uint8 result) {\n        if (isAdministrator(msg.sender)) {\n            if (trustAnchorAccess[_trustAnchorAddress] == TrustAnchorAccess.Onboarded ||\n                trustAnchorAccess[_trustAnchorAddress] == TrustAnchorAccess.Demoted) {\n                trustAnchorAccess[_trustAnchorAddress] = TrustAnchorAccess.Verified;\n                jurisdictions[_trustAnchorAddress] = NoJurisdiction;\n\n                if (trustAnchorIndexes[_trustAnchorAddress] == 0) {\n                    trustAnchorIndexes[_trustAnchorAddress] = numTrustAnchors;\n                    numTrustAnchors++;\n                }\n\n                //trust anchor verified\n                return 2;\n            } else {\n                //trust anchor not onboarded;\n                return 1;\n            }\n        } else {\n            //not administrator\n            return 0;\n        }\n    }\n    \n    //other magic\n    \n    //result:\n    // 0 = not administrator\n    // 1 = trust anchor not verified status\n    // 2 = trust anchor successfully demoted\n\n    function demoteTrustAnchor(address _trustAnchorAddress) public returns (uint8 result) {\n        if (isAdministrator(msg.sender)) {\n            if (trustAnchorAccess[_trustAnchorAddress] != TrustAnchorAccess.Verified) {\n                trustAnchorAccess[_trustAnchorAddress] = TrustAnchorAccess.Demoted;\n\n                //trust anchor successfully demoted\n                return 2;\n            } else {\n                //trust anchor not verified status\n                return 1;\n            }\n        } else {\n            //not administrator\n            return 0;\n        }\n\n    }\n\n    //result:\n    // false = not verified\n    // true = is verified\n\n    function isTrustAnchorVerified(address _trustAnchorAddress) public view returns (bool result) {\n        if (trustAnchorAccess[_trustAnchorAddress] == TrustAnchorAccess.Verified) {\n            //is verified\n            return true;\n        } else {\n            //not verified\n            return false;\n        }\n    }\n\n    //result:\n    // 0 -> 2^32-1 = index of trust anchor\n    function getTrustAnchorIndex(address _trustAnchorAddress) public view returns (uint32 result) {\n        return trustAnchorIndexes[_trustAnchorAddress];\n    }\n\n\n    // ** jurisdictions management ** //\n\n    // @note: by default, jurisdictions can be set once by the Trust Anchor using\n    // their private key, then subsequent attempts to change require\n    // verification from the contract administrators.\n\n    //result:\n    // 0 = not verified\n    // 1 = jurisdiction already set, now waiting for approval\n    // 2 = trust anchor jurisdiction has been set up first time\n\n    function setupTrustAnchorJurisdiction(uint16 _newJurisdiction) public returns (uint8 result) {\n        if (isTrustAnchorVerified(msg.sender) == true) {\n            if (jurisdictions[msg.sender] == NoJurisdiction) {\n                jurisdictions[msg.sender] = _newJurisdiction;\n\n                //trust anchor jurisdiction has been set up first time\n                return 2;\n            } else {\n                jurisdictionsRequiringChange[msg.sender] = _newJurisdiction;\n                EVT_JurisdictionDoesRequireChange(msg.sender);\n\n                //jurisdiction already set, now waiting for approval\n                return 1;\n            }\n        } else {\n            //not verified\n            return 0;\n        }\n    }\n\n    //result:\n    // 0 = not administrator\n    // 1 = no trust anchor found\n    // 2 = no jurisdiction change necessary\n    // 3 = jurisdiction change occurred\n\n    function approveChange(address _trustAnchorAddress) public returns (uint8 result) {\n        if (isAdministrator(msg.sender)) {\n            //@note:@here:@next:@todo: set up a multi-signature requirement for approval?\n            if (jurisdictions[_trustAnchorAddress] != 0) {\n                if (jurisdictionsRequiringChange[_trustAnchorAddress] != 0 &&\n                    jurisdictionsRequiringChange[_trustAnchorAddress] != jurisdictions[_trustAnchorAddress]) {\n                    jurisdictions[_trustAnchorAddress] = jurisdictionsRequiringChange[_trustAnchorAddress];\n                    //@note: @here: this would cause this call to fail with a \"Error: base fee exceeds gas limit\" error.\n                    //not sure why.\n                    //delete jurisdictionsRequiringChange[_trustAnchor];\n\n                    //jurisdiction change occurred\n                    return 3;\n                } else {\n                    //no jurisdiction change necessary\n                    return 2;\n                }\n            } else {\n                //no trust anchor found\n                return 1;\n            }\n        } else {\n            //not administrator\n            return 0;\n        }\n    }\n\n    //@note: only for valid trust anchors, this will return 0 for invalid trust anchors due to the storage\n    // characteristics of the ethereum virtual machine.\n\n    //result:\n    // 0 -> 2 ** 16 - 2 = jurisdiction found\n    // 2 ** 16 - 1 = no jurisdiction found\n\n    function getTrustAnchorJurisdiction(address _trustAnchorAddress) public returns (uint16 result) {\n        //jurisdiction found, or 2 ** 31 - 1 is no jurisdiction set\n        \n        EVT_GettingJurisdictionFromTrustAnchor(jurisdictions[_trustAnchorAddress], _trustAnchorAddress);\n\n        return jurisdictions[_trustAnchorAddress];\n    }\n\n    // ** prime revocation manager address retrieval ** //\n\n    function isPrimeRevocationManager(address _primeRevocationManagerAddress) public returns (bool result) {\n        IShyftConduit shyftConduit = IShyftConduit(shyftConduitAddress);\n\n        if (shyftConduit.isPrimeRevocationManager(_primeRevocationManagerAddress) == true) {\n            return true;\n        } else {\n            return false;\n        }\n    }\n}\n",
  "sourcePath": "/Users/jaypersanchez/KYCAML/contracts/TrustAnchorManager.sol",
  "compiler": {
    "name": "solc",
    "version": "0.4.24+commit.e67f0147.Emscripten.clang"
  },
  "schemaVersion": "2.0.1",
  "updatedAt": "2018-10-11T00:10:45.146Z"
}