{
  "contractName": "TrustAnchorStorage",
  "abi": [
    {
      "constant": false,
      "inputs": [
        {
          "name": "_newAdministratorAddress",
          "type": "address"
        }
      ],
      "name": "setPrimaryAdministrator",
      "outputs": [
        {
          "name": "result",
          "type": "uint8"
        }
      ],
      "payable": false,
      "stateMutability": "nonpayable",
      "type": "function"
    },
    {
      "constant": false,
      "inputs": [
        {
          "name": "_revokeAdministratorAddress",
          "type": "address"
        }
      ],
      "name": "revokeAdministrator",
      "outputs": [
        {
          "name": "result",
          "type": "uint8"
        }
      ],
      "payable": false,
      "stateMutability": "nonpayable",
      "type": "function"
    },
    {
      "constant": true,
      "inputs": [],
      "name": "owner",
      "outputs": [
        {
          "name": "",
          "type": "address"
        }
      ],
      "payable": false,
      "stateMutability": "view",
      "type": "function"
    },
    {
      "constant": false,
      "inputs": [
        {
          "name": "_newAdministratorAddress",
          "type": "address"
        }
      ],
      "name": "setAdministrator",
      "outputs": [
        {
          "name": "result",
          "type": "uint8"
        }
      ],
      "payable": false,
      "stateMutability": "nonpayable",
      "type": "function"
    },
    {
      "inputs": [],
      "payable": false,
      "stateMutability": "nonpayable",
      "type": "constructor"
    },
    {
      "anonymous": false,
      "inputs": [
        {
          "indexed": false,
          "name": "bitFieldWords",
          "type": "uint32"
        }
      ],
      "name": "EVT_TrustChannelBitFieldWords",
      "type": "event"
    },
    {
      "anonymous": false,
      "inputs": [
        {
          "indexed": false,
          "name": "trustChannelIndex",
          "type": "uint16"
        }
      ],
      "name": "EVT_TrustChannelBitFieldIndex",
      "type": "event"
    },
    {
      "anonymous": false,
      "inputs": [
        {
          "indexed": false,
          "name": "index",
          "type": "uint32"
        },
        {
          "indexed": false,
          "name": "shifter",
          "type": "uint32"
        },
        {
          "indexed": false,
          "name": "trustChannelBitFieldWord",
          "type": "uint32"
        },
        {
          "indexed": false,
          "name": "trustChannelBitField",
          "type": "uint256"
        },
        {
          "indexed": false,
          "name": "trustChannelIndex",
          "type": "uint16"
        }
      ],
      "name": "EVT_TrustChannelBitFieldIndexEXT",
      "type": "event"
    },
    {
      "anonymous": false,
      "inputs": [
        {
          "indexed": false,
          "name": "senderHighestSubmapNumber",
          "type": "uint24"
        },
        {
          "indexed": false,
          "name": "receiverHighestSubmapNumber",
          "type": "uint24"
        }
      ],
      "name": "EVT_GotHighestSubmapNumbers",
      "type": "event"
    },
    {
      "anonymous": false,
      "inputs": [
        {
          "indexed": false,
          "name": "lowestTrustChannelSubmapNumber",
          "type": "uint24"
        },
        {
          "indexed": false,
          "name": "highestTrustChannelSubmapNumber",
          "type": "uint24"
        }
      ],
      "name": "EVT_GotLowestAndHighestTrustChannelSubmapNumber",
      "type": "event"
    },
    {
      "anonymous": false,
      "inputs": [
        {
          "indexed": false,
          "name": "trustChannelIndex",
          "type": "uint24"
        },
        {
          "indexed": false,
          "name": "_senderIdentifiedAddress",
          "type": "address"
        },
        {
          "indexed": false,
          "name": "_receiverIdentifiedAddress",
          "type": "address"
        }
      ],
      "name": "EVT_TrustChannelRouted",
      "type": "event"
    },
    {
      "anonymous": false,
      "inputs": [
        {
          "indexed": false,
          "name": "attestationKeccak",
          "type": "bytes32"
        },
        {
          "indexed": false,
          "name": "msg_sender",
          "type": "address"
        },
        {
          "indexed": false,
          "name": "_identifiedAddress",
          "type": "address"
        },
        {
          "indexed": false,
          "name": "_jurisdiction",
          "type": "uint16"
        },
        {
          "indexed": false,
          "name": "_effectiveTime",
          "type": "uint256"
        },
        {
          "indexed": false,
          "name": "_expiryTime",
          "type": "uint256"
        },
        {
          "indexed": false,
          "name": "_publicData_0",
          "type": "bytes32"
        },
        {
          "indexed": false,
          "name": "_documentsEncrypted_0",
          "type": "bytes32"
        },
        {
          "indexed": false,
          "name": "_documentAvailabilityEncrypted",
          "type": "bytes32"
        }
      ],
      "name": "EVT_setAttestation",
      "type": "event"
    },
    {
      "anonymous": false,
      "inputs": [
        {
          "indexed": false,
          "name": "_attestationKeccak",
          "type": "bytes32"
        }
      ],
      "name": "EVT_REQ_revokeAttestation",
      "type": "event"
    },
    {
      "anonymous": false,
      "inputs": [
        {
          "indexed": false,
          "name": "_attestationKeccak",
          "type": "bytes32"
        },
        {
          "indexed": false,
          "name": "trustAnchorAddress",
          "type": "address"
        },
        {
          "indexed": false,
          "name": "keccakArrayIndex",
          "type": "uint16"
        }
      ],
      "name": "EVT_revokeAttestation",
      "type": "event"
    },
    {
      "anonymous": false,
      "inputs": [
        {
          "indexed": false,
          "name": "shyftCacheGraphAddress",
          "type": "address"
        }
      ],
      "name": "EVT_revokeAttestationDoRecompile",
      "type": "event"
    },
    {
      "constant": false,
      "inputs": [
        {
          "name": "_trustAnchorManagerAddress",
          "type": "address"
        }
      ],
      "name": "setTrustAnchorManagerAddress",
      "outputs": [
        {
          "name": "result",
          "type": "uint8"
        }
      ],
      "payable": false,
      "stateMutability": "nonpayable",
      "type": "function"
    },
    {
      "constant": false,
      "inputs": [
        {
          "name": "_shyftCacheGraphAddress",
          "type": "address"
        }
      ],
      "name": "setShyftCacheGraphAddress",
      "outputs": [
        {
          "name": "result",
          "type": "uint8"
        }
      ],
      "payable": false,
      "stateMutability": "nonpayable",
      "type": "function"
    },
    {
      "constant": true,
      "inputs": [],
      "name": "getTrustAnchorManagerAddress",
      "outputs": [
        {
          "name": "result",
          "type": "address"
        }
      ],
      "payable": false,
      "stateMutability": "view",
      "type": "function"
    },
    {
      "constant": false,
      "inputs": [
        {
          "name": "_identifiedAddress",
          "type": "address"
        },
        {
          "name": "_jurisdiction",
          "type": "uint16"
        },
        {
          "name": "_effectiveTime",
          "type": "uint64"
        },
        {
          "name": "_expiryTime",
          "type": "uint64"
        },
        {
          "name": "_publicData",
          "type": "bytes"
        },
        {
          "name": "_documentsEncrypted",
          "type": "bytes"
        },
        {
          "name": "_documentAvailabilityEncrypted",
          "type": "bytes32"
        }
      ],
      "name": "setAttestation",
      "outputs": [
        {
          "name": "result",
          "type": "uint8"
        }
      ],
      "payable": false,
      "stateMutability": "nonpayable",
      "type": "function"
    },
    {
      "constant": false,
      "inputs": [
        {
          "name": "_attestationKeccak",
          "type": "bytes32"
        },
        {
          "name": "_attestationValidityTrustAnchorSignatureV",
          "type": "uint8"
        },
        {
          "name": "_attestationValidityTrustAnchorSignatureRS",
          "type": "bytes32[2]"
        }
      ],
      "name": "signAttestationTrustAnchorSignature",
      "outputs": [
        {
          "name": "result",
          "type": "uint8"
        }
      ],
      "payable": false,
      "stateMutability": "nonpayable",
      "type": "function"
    },
    {
      "constant": false,
      "inputs": [
        {
          "name": "_attestationKeccak",
          "type": "bytes32"
        },
        {
          "name": "_attestationValidityUserSignatureV",
          "type": "uint8"
        },
        {
          "name": "_attestationValidityUserSignatureRS",
          "type": "bytes32[2]"
        }
      ],
      "name": "signAttestationUserSignature",
      "outputs": [
        {
          "name": "result",
          "type": "uint8"
        }
      ],
      "payable": false,
      "stateMutability": "nonpayable",
      "type": "function"
    },
    {
      "constant": false,
      "inputs": [
        {
          "name": "_attestationKeccak",
          "type": "bytes32"
        }
      ],
      "name": "revokeAttestation",
      "outputs": [
        {
          "name": "result",
          "type": "uint8"
        }
      ],
      "payable": false,
      "stateMutability": "nonpayable",
      "type": "function"
    },
    {
      "constant": false,
      "inputs": [
        {
          "name": "_attestationKeccak",
          "type": "bytes32"
        },
        {
          "name": "_dataRetrievalTarget",
          "type": "address"
        }
      ],
      "name": "addDataRetrievalTarget",
      "outputs": [
        {
          "name": "result",
          "type": "uint8"
        }
      ],
      "payable": false,
      "stateMutability": "nonpayable",
      "type": "function"
    },
    {
      "constant": false,
      "inputs": [
        {
          "name": "_attestationKeccak",
          "type": "bytes32"
        }
      ],
      "name": "dataRetrievalEntityValidateAttestation",
      "outputs": [
        {
          "name": "result",
          "type": "uint8"
        }
      ],
      "payable": false,
      "stateMutability": "nonpayable",
      "type": "function"
    },
    {
      "constant": true,
      "inputs": [
        {
          "name": "_identifiedAddress",
          "type": "address"
        }
      ],
      "name": "getAttestationKeccakArrayLengthForIdentifiedAddress",
      "outputs": [
        {
          "name": "keccakArrayLength",
          "type": "uint16"
        }
      ],
      "payable": false,
      "stateMutability": "view",
      "type": "function"
    },
    {
      "constant": true,
      "inputs": [
        {
          "name": "_attestationKeccak",
          "type": "bytes32"
        }
      ],
      "name": "getAttestationTrustAnchorAddress",
      "outputs": [
        {
          "name": "trustAnchorAddress",
          "type": "address"
        }
      ],
      "payable": false,
      "stateMutability": "view",
      "type": "function"
    },
    {
      "constant": true,
      "inputs": [
        {
          "name": "_attestationKeccak",
          "type": "bytes32"
        }
      ],
      "name": "getAttestationTrustAnchorIndex",
      "outputs": [
        {
          "name": "trustAnchorIndex",
          "type": "uint32"
        }
      ],
      "payable": false,
      "stateMutability": "view",
      "type": "function"
    },
    {
      "constant": true,
      "inputs": [
        {
          "name": "_identifiedAddress",
          "type": "address"
        }
      ],
      "name": "getAttestationKeccakArrayForIdentifiedAddress",
      "outputs": [
        {
          "name": "keccakArray",
          "type": "bytes32[]"
        }
      ],
      "payable": false,
      "stateMutability": "view",
      "type": "function"
    },
    {
      "constant": true,
      "inputs": [
        {
          "name": "_identifiedAddress",
          "type": "address"
        },
        {
          "name": "_index",
          "type": "uint16"
        }
      ],
      "name": "getIndexedAttestationKeccakHashForIdentifiedUser",
      "outputs": [
        {
          "name": "keccakHash",
          "type": "bytes32"
        }
      ],
      "payable": false,
      "stateMutability": "view",
      "type": "function"
    },
    {
      "constant": true,
      "inputs": [
        {
          "name": "_identifiedAddress",
          "type": "address"
        },
        {
          "name": "_index",
          "type": "uint16"
        }
      ],
      "name": "getIndexedAttestationJurisdictionForIdentifiedUser",
      "outputs": [
        {
          "name": "jurisdiction",
          "type": "uint16"
        }
      ],
      "payable": false,
      "stateMutability": "view",
      "type": "function"
    },
    {
      "constant": true,
      "inputs": [
        {
          "name": "_identifiedAddress",
          "type": "address"
        },
        {
          "name": "_index",
          "type": "uint16"
        }
      ],
      "name": "getIndexedAttestationEffectiveTimeForIdentifiedUser",
      "outputs": [
        {
          "name": "effectiveTime",
          "type": "uint256"
        }
      ],
      "payable": false,
      "stateMutability": "view",
      "type": "function"
    },
    {
      "constant": true,
      "inputs": [
        {
          "name": "_identifiedAddress",
          "type": "address"
        },
        {
          "name": "_index",
          "type": "uint16"
        }
      ],
      "name": "getIndexedAttestationExpiryTimeForIdentifiedUser",
      "outputs": [
        {
          "name": "expiryTime",
          "type": "uint256"
        }
      ],
      "payable": false,
      "stateMutability": "view",
      "type": "function"
    },
    {
      "constant": true,
      "inputs": [
        {
          "name": "_identifiedAddress",
          "type": "address"
        },
        {
          "name": "_index",
          "type": "uint16"
        }
      ],
      "name": "getIndexedAttestationDocumentAvailabilityEncryptedForIdentifiedUser",
      "outputs": [
        {
          "name": "documentAvailabilityEncrypted",
          "type": "bytes32"
        }
      ],
      "payable": false,
      "stateMutability": "view",
      "type": "function"
    },
    {
      "constant": true,
      "inputs": [
        {
          "name": "_identifiedAddress",
          "type": "address"
        },
        {
          "name": "_index",
          "type": "uint16"
        }
      ],
      "name": "getGraphConstructableAttestationInKeccakArray",
      "outputs": [
        {
          "name": "keccakHash",
          "type": "bytes32"
        },
        {
          "name": "trustAnchorIndex",
          "type": "uint32"
        },
        {
          "name": "jurisdiction",
          "type": "uint16"
        },
        {
          "name": "attestationStatusApproved",
          "type": "bool"
        }
      ],
      "payable": false,
      "stateMutability": "view",
      "type": "function"
    },
    {
      "constant": true,
      "inputs": [
        {
          "name": "_identifiedAddress",
          "type": "address"
        },
        {
          "name": "_index",
          "type": "uint16"
        }
      ],
      "name": "getAttestationStatusApprovedInKeccakArray",
      "outputs": [
        {
          "name": "attestationStatusApproved",
          "type": "bool"
        }
      ],
      "payable": false,
      "stateMutability": "view",
      "type": "function"
    },
    {
      "constant": true,
      "inputs": [
        {
          "name": "_identifiedAddress",
          "type": "address"
        },
        {
          "name": "_index",
          "type": "uint16"
        }
      ],
      "name": "getConsentAvailableInKeccakArray",
      "outputs": [
        {
          "name": "consentAvailable",
          "type": "uint8"
        }
      ],
      "payable": false,
      "stateMutability": "view",
      "type": "function"
    },
    {
      "constant": true,
      "inputs": [
        {
          "name": "_identifiedAddress",
          "type": "address"
        },
        {
          "name": "_index",
          "type": "uint16"
        }
      ],
      "name": "getTrustAnchorAddressInKeccakArray",
      "outputs": [
        {
          "name": "trustAnchorAddress",
          "type": "address"
        }
      ],
      "payable": false,
      "stateMutability": "view",
      "type": "function"
    },
    {
      "constant": true,
      "inputs": [
        {
          "name": "_identifiedAddress",
          "type": "address"
        },
        {
          "name": "_index",
          "type": "uint16"
        }
      ],
      "name": "getAttestationValiditySignaturesInKeccakArray",
      "outputs": [
        {
          "name": "validityTrustAnchorSignatureV",
          "type": "uint8"
        },
        {
          "name": "validityTrustSignatureRS",
          "type": "bytes32[2]"
        },
        {
          "name": "validityUserSignatureV",
          "type": "uint8"
        },
        {
          "name": "validityUserSignatureRS",
          "type": "bytes32[2]"
        }
      ],
      "payable": false,
      "stateMutability": "view",
      "type": "function"
    },
    {
      "constant": true,
      "inputs": [
        {
          "name": "_identifiedAddress",
          "type": "address"
        },
        {
          "name": "_index",
          "type": "uint16"
        }
      ],
      "name": "getAttestationValidationsArrayLengthInKeccakArray",
      "outputs": [
        {
          "name": "arrayLength",
          "type": "uint16"
        }
      ],
      "payable": false,
      "stateMutability": "view",
      "type": "function"
    },
    {
      "constant": true,
      "inputs": [
        {
          "name": "_identifiedAddress",
          "type": "address"
        },
        {
          "name": "_index",
          "type": "uint16"
        }
      ],
      "name": "getAttestationDataRetrievalsArrayLengthInKeccakArray",
      "outputs": [
        {
          "name": "arrayLength",
          "type": "uint16"
        }
      ],
      "payable": false,
      "stateMutability": "view",
      "type": "function"
    }
  ],
  "bytecode": "0x60806040526000600b60006101000a81548173ffffffffffffffffffffffffffffffffffffffff021916908373ffffffffffffffffffffffffffffffffffffffff1602179055506000600c60006101000a81548173ffffffffffffffffffffffffffffffffffffffff021916908373ffffffffffffffffffffffffffffffffffffffff16021790555034801561009457600080fd5b50336000806101000a81548173ffffffffffffffffffffffffffffffffffffffff021916908373ffffffffffffffffffffffffffffffffffffffff16021790555061417f806100e46000396000f300608060405260043610610175576000357c0100000000000000000000000000000000000000000000000000000000900463ffffffff168063063668c81461017a578063064ad7c21461020157806310ccdd881461025e578063160abcac146102f65780632192ca121461035357806324150c29146103be578063363e8af6146104295780633816d032146104b05780633bb03d69146105015780634402bba31461059257806347c8c172146105ef5780634ce72a131461065c5780634d5e1da6146106c9578063589044631461071457806376106e5e146107ae5780637f639be4146108175780637fd463ca1461088457806383eef820146108e357806388316f49146109485780638da5cb5b146109b5578063951538c914610a0c578063b7500ac314610a71578063ba0d746f14610ae2578063bd36590c14610b2d578063d534d02714610b84578063df8089ef14610be1578063e8de4baf14610c3e578063f167e57714610d6b578063f4bbdfb714610dd8575b600080fd5b34801561018657600080fd5b506101e56004803603810190808035600019169060200190929190803560ff1690602001909291908060400190600280602002604051908101604052809291908260026020028082843782019150505050509192919290505050610eae565b604051808260ff1660ff16815260200191505060405180910390f35b34801561020d57600080fd5b50610242600480360381019080803573ffffffffffffffffffffffffffffffffffffffff16906020019092919050505061111c565b604051808260ff1660ff16815260200191505060405180910390f35b34801561026a57600080fd5b5061029f600480360381019080803573ffffffffffffffffffffffffffffffffffffffff16906020019092919050505061123d565b6040518080602001828103825283818151815260200191508051906020019060200280838360005b838110156102e25780820151818401526020810190506102c7565b505050509050019250505060405180910390f35b34801561030257600080fd5b50610337600480360381019080803573ffffffffffffffffffffffffffffffffffffffff1690602001909291905050506112d8565b604051808260ff1660ff16815260200191505060405180910390f35b34801561035f57600080fd5b506103a2600480360381019080803573ffffffffffffffffffffffffffffffffffffffff169060200190929190803561ffff169060200190929190505050611463565b604051808260ff1660ff16815260200191505060405180910390f35b3480156103ca57600080fd5b5061040d6004803603810190808035600019169060200190929190803573ffffffffffffffffffffffffffffffffffffffff1690602001909291905050506114f3565b604051808260ff1660ff16815260200191505060405180910390f35b34801561043557600080fd5b506104946004803603810190808035600019169060200190929190803560ff16906020019092919080604001906002806020026040519081016040528092919082600260200280828437820191505050505091929192905050506116be565b604051808260ff1660ff16815260200191505060405180910390f35b3480156104bc57600080fd5b506104df600480360381019080803560001916906020019092919050505061192c565b604051808263ffffffff1663ffffffff16815260200191505060405180910390f35b34801561050d57600080fd5b50610550600480360381019080803573ffffffffffffffffffffffffffffffffffffffff169060200190929190803561ffff169060200190929190505050611964565b604051808273ffffffffffffffffffffffffffffffffffffffff1673ffffffffffffffffffffffffffffffffffffffff16815260200191505060405180910390f35b34801561059e57600080fd5b506105d3600480360381019080803573ffffffffffffffffffffffffffffffffffffffff169060200190929190505050611a07565b604051808260ff1660ff16815260200191505060405180910390f35b3480156105fb57600080fd5b5061063e600480360381019080803573ffffffffffffffffffffffffffffffffffffffff169060200190929190803561ffff169060200190929190505050611b93565b604051808261ffff1661ffff16815260200191505060405180910390f35b34801561066857600080fd5b506106ab600480360381019080803573ffffffffffffffffffffffffffffffffffffffff169060200190929190803561ffff169060200190929190505050611c19565b604051808261ffff1661ffff16815260200191505060405180910390f35b3480156106d557600080fd5b506106f86004803603810190808035600019169060200190929190505050611caa565b604051808260ff1660ff16815260200191505060405180910390f35b34801561072057600080fd5b50610763600480360381019080803573ffffffffffffffffffffffffffffffffffffffff169060200190929190803561ffff169060200190929190505050612052565b6040518085600019166000191681526020018463ffffffff1663ffffffff1681526020018361ffff1661ffff1681526020018215151515815260200194505050505060405180910390f35b3480156107ba57600080fd5b506107fd600480360381019080803573ffffffffffffffffffffffffffffffffffffffff169060200190929190803561ffff169060200190929190505050612123565b604051808215151515815260200191505060405180910390f35b34801561082357600080fd5b50610866600480360381019080803573ffffffffffffffffffffffffffffffffffffffff169060200190929190803561ffff1690602001909291905050506121b3565b604051808261ffff1661ffff16815260200191505060405180910390f35b34801561089057600080fd5b506108c5600480360381019080803573ffffffffffffffffffffffffffffffffffffffff169060200190929190505050612239565b604051808261ffff1661ffff16815260200191505060405180910390f35b3480156108ef57600080fd5b50610932600480360381019080803573ffffffffffffffffffffffffffffffffffffffff169060200190929190803561ffff169060200190929190505050612285565b6040518082815260200191505060405180910390f35b34801561095457600080fd5b50610997600480360381019080803573ffffffffffffffffffffffffffffffffffffffff169060200190929190803561ffff169060200190929190505050612326565b60405180826000191660001916815260200191505060405180910390f35b3480156109c157600080fd5b506109ca6123a9565b604051808273ffffffffffffffffffffffffffffffffffffffff1673ffffffffffffffffffffffffffffffffffffffff16815260200191505060405180910390f35b348015610a1857600080fd5b50610a5b600480360381019080803573ffffffffffffffffffffffffffffffffffffffff169060200190929190803561ffff1690602001909291905050506123ce565b6040518082815260200191505060405180910390f35b348015610a7d57600080fd5b50610aa0600480360381019080803560001916906020019092919050505061246f565b604051808273ffffffffffffffffffffffffffffffffffffffff1673ffffffffffffffffffffffffffffffffffffffff16815260200191505060405180910390f35b348015610aee57600080fd5b50610b1160048036038101908080356000191690602001909291905050506124b7565b604051808260ff1660ff16815260200191505060405180910390f35b348015610b3957600080fd5b50610b426126d9565b604051808273ffffffffffffffffffffffffffffffffffffffff1673ffffffffffffffffffffffffffffffffffffffff16815260200191505060405180910390f35b348015610b9057600080fd5b50610bc5600480360381019080803573ffffffffffffffffffffffffffffffffffffffff169060200190929190505050612703565b604051808260ff1660ff16815260200191505060405180910390f35b348015610bed57600080fd5b50610c22600480360381019080803573ffffffffffffffffffffffffffffffffffffffff16906020019092919050505061288e565b604051808260ff1660ff16815260200191505060405180910390f35b348015610c4a57600080fd5b50610d4f600480360381019080803573ffffffffffffffffffffffffffffffffffffffff169060200190929190803561ffff169060200190929190803567ffffffffffffffff169060200190929190803567ffffffffffffffff169060200190929190803590602001908201803590602001908080601f0160208091040260200160405190810160405280939291908181526020018383808284378201915050505050509192919290803590602001908201803590602001908080601f016020809104026020016040519081016040528093929190818152602001838380828437820191505050505050919291929080356000191690602001909291905050506129b9565b604051808260ff1660ff16815260200191505060405180910390f35b348015610d7757600080fd5b50610dba600480360381019080803573ffffffffffffffffffffffffffffffffffffffff169060200190929190803561ffff1690602001909291905050506136a5565b60405180826000191660001916815260200191505060405180910390f35b348015610de457600080fd5b50610e27600480360381019080803573ffffffffffffffffffffffffffffffffffffffff169060200190929190803561ffff16906020019092919050505061370a565b604051808560ff1660ff16815260200184600260200280838360005b83811015610e5e578082015181840152602081019050610e43565b505050509050018360ff1660ff16815260200182600260200280838360005b83811015610e98578082015181840152602081019050610e7d565b5050505090500194505050505060405180910390f35b60008060008060066000886000191660001916815260200190815260200160002092503373ffffffffffffffffffffffffffffffffffffffff168360020160009054906101000a900473ffffffffffffffffffffffffffffffffffffffff1673ffffffffffffffffffffffffffffffffffffffff16141561110d576000600102836008016000600281101515610f4057fe5b0154600019161415156111045786336040518083600019166000191681526020018273ffffffffffffffffffffffffffffffffffffffff1673ffffffffffffffffffffffffffffffffffffffff166c01000000000000000000000000028152601401925050506040518091039020915060018287876000600281101515610fc357fe5b6020020151886001600281101515610fd757fe5b6020020151604051600081526020016040526040518085600019166000191681526020018460ff1660ff1681526020018360001916600019168152602001826000191660001916815260200194505050505060206040516020810390808403906000865af115801561104d573d6000803e3d6000fd5b5050506020604051035190503373ffffffffffffffffffffffffffffffffffffffff168173ffffffffffffffffffffffffffffffffffffffff1614156110fb578583600a0160006101000a81548160ff021916908360ff16021790555084836008019060026110bd929190613ff5565b5082600d01600181819054906101000a900460ff168092919060010191906101000a81548160ff021916908360ff1602179055505060039350611112565b60029350611112565b60019350611112565b600093505b5050509392505050565b60008060009054906101000a900473ffffffffffffffffffffffffffffffffffffffff1673ffffffffffffffffffffffffffffffffffffffff163373ffffffffffffffffffffffffffffffffffffffff161415611233576000600360009054906101000a900460ff1660ff16141561122a576001600260008473ffffffffffffffffffffffffffffffffffffffff1673ffffffffffffffffffffffffffffffffffffffff16815260200190815260200160002060006101000a81548160ff021916908360028111156111ea57fe5b02179055506003600081819054906101000a900460ff168092919060010191906101000a81548160ff021916908360ff1602179055505060029050611238565b60019050611238565b600090505b919050565b6060600960008373ffffffffffffffffffffffffffffffffffffffff1673ffffffffffffffffffffffffffffffffffffffff1681526020019081526020016000208054806020026020016040519081016040528092919081815260200182805480156112cc57602002820191906000526020600020905b815460001916815260200190600101908083116112b4575b50505050509050919050565b60008060008060008073ffffffffffffffffffffffffffffffffffffffff168673ffffffffffffffffffffffffffffffffffffffff161415151561131b57600080fd5b6113243361385b565b15611455578560405180807f73687966744361636865477261706841646472657373000000000000000000008152506016018273ffffffffffffffffffffffffffffffffffffffff1673ffffffffffffffffffffffffffffffffffffffff166c01000000000000000000000000028152601401915050604051809103902093506113ad846138db565b9250600260ff168361ffff161015156113c957600191506113eb565b6113d28461392b565b9050600260ff168161ffff161015156113ea57600191505b5b60011515821515141561144c5785600c60006101000a81548173ffffffffffffffffffffffffffffffffffffffff021916908373ffffffffffffffffffffffffffffffffffffffff16021790555061144284613c84565b506002945061145a565b6001945061145a565b600094505b50505050919050565b600060066000600960008673ffffffffffffffffffffffffffffffffffffffff1673ffffffffffffffffffffffffffffffffffffffff1681526020019081526020016000208461ffff168154811015156114b957fe5b906000526020600020015460001916600019168152602001908152602001600020600d0160019054906101000a900460ff16905092915050565b6000806114ff33613e5b565b156116b25760066000856000191660001916815260200190815260200160002090503373ffffffffffffffffffffffffffffffffffffffff168160020160009054906101000a900473ffffffffffffffffffffffffffffffffffffffff1673ffffffffffffffffffffffffffffffffffffffff1614156116a957600015158160100160008573ffffffffffffffffffffffffffffffffffffffff1673ffffffffffffffffffffffffffffffffffffffff16815260200190815260200160002060009054906101000a900460ff1615151415156116a05760018160100160008573ffffffffffffffffffffffffffffffffffffffff1673ffffffffffffffffffffffffffffffffffffffff16815260200190815260200160002060006101000a81548160ff021916908315150217905550806011018390806001815401808255809150509060018203906000526020600020016000909192909190916101000a81548173ffffffffffffffffffffffffffffffffffffffff021916908373ffffffffffffffffffffffffffffffffffffffff16021790555050600391506116b7565b600291506116b7565b600191506116b7565b600091505b5092915050565b60008060008060066000886000191660001916815260200190815260200160002092503373ffffffffffffffffffffffffffffffffffffffff168360030160009054906101000a900473ffffffffffffffffffffffffffffffffffffffff1673ffffffffffffffffffffffffffffffffffffffff16141561191d57600060010283600b01600060028110151561175057fe5b0154600019161415156119145786336040518083600019166000191681526020018273ffffffffffffffffffffffffffffffffffffffff1673ffffffffffffffffffffffffffffffffffffffff166c010000000000000000000000000281526014019250505060405180910390209150600182878760006002811015156117d357fe5b60200201518860016002811015156117e757fe5b6020020151604051600081526020016040526040518085600019166000191681526020018460ff1660ff1681526020018360001916600019168152602001826000191660001916815260200194505050505060206040516020810390808403906000865af115801561185d573d6000803e3d6000fd5b5050506020604051035190503373ffffffffffffffffffffffffffffffffffffffff168173ffffffffffffffffffffffffffffffffffffffff16141561190b578583600d0160006101000a81548160ff021916908360ff1602179055508483600b019060026118cd929190613ff5565b5082600d01600181819054906101000a900460ff168092919060010191906101000a81548160ff021916908360ff1602179055505060039350611922565b60029350611922565b60019350611922565b600093505b5050509392505050565b600060066000836000191660001916815260200190815260200160002060020160149054906101000a900463ffffffff169050919050565b600060066000600960008673ffffffffffffffffffffffffffffffffffffffff1673ffffffffffffffffffffffffffffffffffffffff1681526020019081526020016000208461ffff168154811015156119ba57fe5b90600052602060002001546000191660001916815260200190815260200160002060020160009054906101000a900473ffffffffffffffffffffffffffffffffffffffff16905092915050565b6000806000611a153361385b565b15611b875760016002811115611a2757fe5b600260008673ffffffffffffffffffffffffffffffffffffffff1673ffffffffffffffffffffffffffffffffffffffff16815260200190815260200160002060009054906101000a900460ff166002811115611a7f57fe5b1415611b7e5760405180807f61646d696e697374726174696f6e5265766f636174696f6e566f746500000000815250601c01905060405180910390209150611ac68261392b565b9050600260ff168161ffff16101515611b755760028060008673ffffffffffffffffffffffffffffffffffffffff1673ffffffffffffffffffffffffffffffffffffffff16815260200190815260200160002060006101000a81548160ff02191690836002811115611b3457fe5b02179055506003600081819054906101000a900460ff16809291906001900391906101000a81548160ff021916908360ff1602179055505060039250611b8c565b60029250611b8c565b60019250611b8c565b600092505b5050919050565b600060066000600960008673ffffffffffffffffffffffffffffffffffffffff1673ffffffffffffffffffffffffffffffffffffffff1681526020019081526020016000208461ffff16815481101515611be957fe5b90600052602060002001546000191660001916815260200190815260200160002060110180549050905092915050565b600060066000600960008673ffffffffffffffffffffffffffffffffffffffff1673ffffffffffffffffffffffffffffffffffffffff1681526020019081526020016000208461ffff16815481101515611c6f57fe5b90600052602060002001546000191660001916815260200190815260200160002060030160149054906101000a900461ffff16905092915050565b600080600080600b60009054906101000a900473ffffffffffffffffffffffffffffffffffffffff16925060066000866000191660001916815260200190815260200160002091507fc7d6b261fc8a1b1253134c883933ff47099918f6c1ef9c35f874c31fc3d214008560405180826000191660001916815260200191505060405180910390a13373ffffffffffffffffffffffffffffffffffffffff168260020160009054906101000a900473ffffffffffffffffffffffffffffffffffffffff1673ffffffffffffffffffffffffffffffffffffffff161480611e6157508273ffffffffffffffffffffffffffffffffffffffff1663512f3d65336040518263ffffffff167c0100000000000000000000000000000000000000000000000000000000028152600401808273ffffffffffffffffffffffffffffffffffffffff1673ffffffffffffffffffffffffffffffffffffffff168152602001915050602060405180830381600087803b158015611e2557600080fd5b505af1158015611e39573d6000803e3d6000fd5b505050506040513d6020811015611e4f57600080fd5b81019080805190602001909291905050505b1561204557600073ffffffffffffffffffffffffffffffffffffffff168260030160009054906101000a900473ffffffffffffffffffffffffffffffffffffffff1673ffffffffffffffffffffffffffffffffffffffff1614158015611edc5750600115158260000160009054906101000a900460ff161515145b1561203c5760008260000160006101000a81548160ff021916908315150217905550600c60009054906101000a900473ffffffffffffffffffffffffffffffffffffffff1690508073ffffffffffffffffffffffffffffffffffffffff1663c62d30dc8360030160009054906101000a900473ffffffffffffffffffffffffffffffffffffffff16600a6000896000191660001916815260200190815260200160002060009054906101000a900461ffff166040518363ffffffff167c0100000000000000000000000000000000000000000000000000000000028152600401808373ffffffffffffffffffffffffffffffffffffffff1673ffffffffffffffffffffffffffffffffffffffff1681526020018261ffff1661ffff16815260200192505050600060405180830381600087803b15801561201b57600080fd5b505af115801561202f573d6000803e3d6000fd5b505050506002935061204a565b6001935061204a565b600093505b505050919050565b600080600080600080600960008973ffffffffffffffffffffffffffffffffffffffff1673ffffffffffffffffffffffffffffffffffffffff1681526020019081526020016000208761ffff168154811015156120ab57fe5b906000526020600020015491506006600083600019166000191681526020019081526020016000209050818160020160149054906101000a900463ffffffff168260030160149054906101000a900461ffff168360000160009054906101000a900460ff169550955095509550505092959194509250565b600060066000600960008673ffffffffffffffffffffffffffffffffffffffff1673ffffffffffffffffffffffffffffffffffffffff1681526020019081526020016000208461ffff1681548110151561217957fe5b90600052602060002001546000191660001916815260200190815260200160002060000160009054906101000a900460ff16905092915050565b600060066000600960008673ffffffffffffffffffffffffffffffffffffffff1673ffffffffffffffffffffffffffffffffffffffff1681526020019081526020016000208461ffff1681548110151561220957fe5b906000526020600020015460001916600019168152602001908152602001600020600f0180549050905092915050565b6000600960008373ffffffffffffffffffffffffffffffffffffffff1673ffffffffffffffffffffffffffffffffffffffff168152602001908152602001600020805490509050919050565b600060066000600960008673ffffffffffffffffffffffffffffffffffffffff1673ffffffffffffffffffffffffffffffffffffffff1681526020019081526020016000208461ffff168154811015156122db57fe5b90600052602060002001546000191660001916815260200190815260200160002060040160009054906101000a900467ffffffffffffffff1667ffffffffffffffff16905092915050565b600060066000600960008673ffffffffffffffffffffffffffffffffffffffff1673ffffffffffffffffffffffffffffffffffffffff1681526020019081526020016000208461ffff1681548110151561237c57fe5b90600052602060002001546000191660001916815260200190815260200160002060070154905092915050565b6000809054906101000a900473ffffffffffffffffffffffffffffffffffffffff1681565b600060066000600960008673ffffffffffffffffffffffffffffffffffffffff1673ffffffffffffffffffffffffffffffffffffffff1681526020019081526020016000208461ffff1681548110151561242457fe5b90600052602060002001546000191660001916815260200190815260200160002060030160169054906101000a900467ffffffffffffffff1667ffffffffffffffff16905092915050565b600060066000836000191660001916815260200190815260200160002060020160009054906101000a900473ffffffffffffffffffffffffffffffffffffffff169050919050565b6000806006600084600019166000191681526020019081526020016000209050600073ffffffffffffffffffffffffffffffffffffffff168160020160009054906101000a900473ffffffffffffffffffffffffffffffffffffffff1673ffffffffffffffffffffffffffffffffffffffff161415156126ce573373ffffffffffffffffffffffffffffffffffffffff168160020160009054906101000a900473ffffffffffffffffffffffffffffffffffffffff1673ffffffffffffffffffffffffffffffffffffffff161415156126c557600015158160100160003373ffffffffffffffffffffffffffffffffffffffff1673ffffffffffffffffffffffffffffffffffffffff16815260200190815260200160002060009054906101000a900460ff1615151415156126bc576000151581600e0160003373ffffffffffffffffffffffffffffffffffffffff1673ffffffffffffffffffffffffffffffffffffffff16815260200190815260200160002060009054906101000a900460ff1615151415156126b35780600f013390806001815401808255809150509060018203906000526020600020016000909192909190916101000a81548173ffffffffffffffffffffffffffffffffffffffff021916908373ffffffffffffffffffffffffffffffffffffffff16021790555050600491506126d3565b600391506126d3565b600291506126d3565b600191506126d3565b600091505b50919050565b6000600b60009054906101000a900473ffffffffffffffffffffffffffffffffffffffff16905090565b60008060008060008073ffffffffffffffffffffffffffffffffffffffff168673ffffffffffffffffffffffffffffffffffffffff161415151561274657600080fd5b61274f3361385b565b15612880578560405180807f7472757374416e63686f724d616e6167657241646472657373000000000000008152506019018273ffffffffffffffffffffffffffffffffffffffff1673ffffffffffffffffffffffffffffffffffffffff166c01000000000000000000000000028152601401915050604051809103902093506127d8846138db565b9250600260ff168361ffff161015156127f45760019150612816565b6127fd8461392b565b9050600260ff168161ffff1610151561281557600191505b5b6001151582151514156128775785600b60006101000a81548173ffffffffffffffffffffffffffffffffffffffff021916908373ffffffffffffffffffffffffffffffffffffffff16021790555061286d84613c84565b5060029450612885565b60019450612885565b600094505b50505050919050565b60006128993361385b565b156129af57600160028111156128ab57fe5b600260008473ffffffffffffffffffffffffffffffffffffffff1673ffffffffffffffffffffffffffffffffffffffff16815260200190815260200160002060009054906101000a900460ff16600281111561290357fe5b1415156129a6576001600260008473ffffffffffffffffffffffffffffffffffffffff1673ffffffffffffffffffffffffffffffffffffffff16815260200190815260200160002060006101000a81548160ff0219169083600281111561296657fe5b02179055506003600081819054906101000a900460ff168092919060010191906101000a81548160ff021916908360ff16021790555050600290506129b4565b600190506129b4565b600090505b919050565b60008060008060006129ca33613e5b565b1561368c57600088511180156129e1575060008751115b15612c4657338c8c8c8c8c60008151811015156129fa57fe5b9060200101517f010000000000000000000000000000000000000000000000000000000000000090047f0100000000000000000000000000000000000000000000000000000000000000027effffffffffffffffffffffffffffffffffffffffffffffffffffffffffffff19168c6000815181101515612a7657fe5b9060200101517f010000000000000000000000000000000000000000000000000000000000000090047f0100000000000000000000000000000000000000000000000000000000000000027effffffffffffffffffffffffffffffffffffffffffffffffffffffffffffff19168c604051808973ffffffffffffffffffffffffffffffffffffffff1673ffffffffffffffffffffffffffffffffffffffff166c010000000000000000000000000281526014018873ffffffffffffffffffffffffffffffffffffffff1673ffffffffffffffffffffffffffffffffffffffff166c010000000000000000000000000281526014018761ffff1661ffff167e010000000000000000000000000000000000000000000000000000000000000281526002018667ffffffffffffffff1667ffffffffffffffff1678010000000000000000000000000000000000000000000000000281526008018567ffffffffffffffff1667ffffffffffffffff1678010000000000000000000000000000000000000000000000000281526008018460001916600019168152602001836000191660001916815260200182600019166000191681526020019850505050505050505060405180910390209350612f6c565b600087511115612e2557338c8c8c8c8b6000815181101515612c6457fe5b9060200101517f010000000000000000000000000000000000000000000000000000000000000090047f0100000000000000000000000000000000000000000000000000000000000000027effffffffffffffffffffffffffffffffffffffffffffffffffffffffffffff19168b604051808873ffffffffffffffffffffffffffffffffffffffff1673ffffffffffffffffffffffffffffffffffffffff166c010000000000000000000000000281526014018773ffffffffffffffffffffffffffffffffffffffff1673ffffffffffffffffffffffffffffffffffffffff166c010000000000000000000000000281526014018661ffff1661ffff167e010000000000000000000000000000000000000000000000000000000000000281526002018567ffffffffffffffff1667ffffffffffffffff1678010000000000000000000000000000000000000000000000000281526008018467ffffffffffffffff1667ffffffffffffffff1678010000000000000000000000000000000000000000000000000281526008018360001916600019168152602001826000191660001916815260200197505050505050505060405180910390209350612f6b565b338c8c8c8c8a604051808773ffffffffffffffffffffffffffffffffffffffff1673ffffffffffffffffffffffffffffffffffffffff166c010000000000000000000000000281526014018673ffffffffffffffffffffffffffffffffffffffff1673ffffffffffffffffffffffffffffffffffffffff166c010000000000000000000000000281526014018561ffff1661ffff167e010000000000000000000000000000000000000000000000000000000000000281526002018467ffffffffffffffff1667ffffffffffffffff1678010000000000000000000000000000000000000000000000000281526008018367ffffffffffffffff1667ffffffffffffffff16780100000000000000000000000000000000000000000000000002815260080182600019166000191681526020019650505050505050604051809103902093505b5b612f78848d8989613f72565b92507f9357811624cca035c844c2f384ee7fdfb2b3af1faca8cadb261dc6390d80f15184338e8e8e8e8e6000815181101515612fb057fe5b9060200101517f010000000000000000000000000000000000000000000000000000000000000090047f0100000000000000000000000000000000000000000000000000000000000000027effffffffffffffffffffffffffffffffffffffffffffffffffffffffffffff19168e600081518110151561302c57fe5b9060200101517f010000000000000000000000000000000000000000000000000000000000000090047f0100000000000000000000000000000000000000000000000000000000000000027effffffffffffffffffffffffffffffffffffffffffffffffffffffffffffff19168e604051808a600019166000191681526020018973ffffffffffffffffffffffffffffffffffffffff1673ffffffffffffffffffffffffffffffffffffffff1681526020018873ffffffffffffffffffffffffffffffffffffffff1673ffffffffffffffffffffffffffffffffffffffff1681526020018761ffff1661ffff1681526020018667ffffffffffffffff1681526020018567ffffffffffffffff168152602001846000191660001916815260200183600019166000191681526020018260001916600019168152602001995050505050505050505060405180910390a160018360ff16141561367257600060086000866000191660001916815260200190815260200160002060009054906101000a900473ffffffffffffffffffffffffffffffffffffffff1673ffffffffffffffffffffffffffffffffffffffff16141561366957600b60009054906101000a900473ffffffffffffffffffffffffffffffffffffffff16915060066000856000191660001916815260200190815260200160002090506103e842028a67ffffffffffffffff1611158015613263575060008967ffffffffffffffff16148061326257506103e842028967ffffffffffffffff16115b5b8160000160006101000a81548160ff021916908315150217905550338160020160006101000a81548173ffffffffffffffffffffffffffffffffffffffff021916908373ffffffffffffffffffffffffffffffffffffffff1602179055508173ffffffffffffffffffffffffffffffffffffffff16636efc25c8336040518263ffffffff167c0100000000000000000000000000000000000000000000000000000000028152600401808273ffffffffffffffffffffffffffffffffffffffff1673ffffffffffffffffffffffffffffffffffffffff168152602001915050602060405180830381600087803b15801561335c57600080fd5b505af1158015613370573d6000803e3d6000fd5b505050506040513d602081101561338657600080fd5b81019080805190602001909291905050508160020160146101000a81548163ffffffff021916908363ffffffff1602179055508b8160030160006101000a81548173ffffffffffffffffffffffffffffffffffffffff021916908373ffffffffffffffffffffffffffffffffffffffff1602179055508a8160030160146101000a81548161ffff021916908361ffff160217905550898160030160166101000a81548167ffffffffffffffff021916908367ffffffffffffffff160217905550888160040160006101000a81548167ffffffffffffffff021916908367ffffffffffffffff1602179055508781600501908051906020019061348992919061403b565b50868160060190805190602001906134a292919061403b565b5085816007018160001916905550600760003373ffffffffffffffffffffffffffffffffffffffff1673ffffffffffffffffffffffffffffffffffffffff1681526020019081526020016000208490806001815401808255809150509060018203906000526020600020016000909192909190915090600019169055508b60086000866000191660001916815260200190815260200160002060006101000a81548173ffffffffffffffffffffffffffffffffffffffff021916908373ffffffffffffffffffffffffffffffffffffffff160217905550600960008d73ffffffffffffffffffffffffffffffffffffffff1673ffffffffffffffffffffffffffffffffffffffff16815260200190815260200160002080549050600a6000866000191660001916815260200190815260200160002060006101000a81548161ffff021916908361ffff160217905550600960008d73ffffffffffffffffffffffffffffffffffffffff1673ffffffffffffffffffffffffffffffffffffffff16815260200190815260200160002084908060018154018082558091505090600182039060005260206000200160009091929091909150906000191690555060039450613696565b60029450613696565b60008360ff1614156136875760019450613696565b613695565b60009450613696565b5b50505050979650505050505050565b6000600960008473ffffffffffffffffffffffffffffffffffffffff1673ffffffffffffffffffffffffffffffffffffffff1681526020019081526020016000208261ffff168154811015156136f757fe5b9060005260206000200154905092915050565b60006137146140bb565b600061371e6140bb565b600060066000600960008a73ffffffffffffffffffffffffffffffffffffffff1673ffffffffffffffffffffffffffffffffffffffff1681526020019081526020016000208861ffff1681548110151561377457fe5b906000526020600020015460001916600019168152602001908152602001600020905080600a0160009054906101000a900460ff168160080182600d0160009054906101000a900460ff1683600b01826002806020026040519081016040528092919082600280156137ff576020028201915b815460001916815260200190600101908083116137e7575b5050505050925080600280602002604051908101604052809291908260028015613842576020028201915b8154600019168152602001906001019080831161382a575b5050505050905094509450945094505092959194509250565b60006001600281111561386a57fe5b600260008473ffffffffffffffffffffffffffffffffffffffff1673ffffffffffffffffffffffffffffffffffffffff16815260200190815260200160002060009054906101000a900460ff1660028111156138c257fe5b14156138d157600190506138d6565b600090505b919050565b60006138e63361385b565b156139215760046000836000191660001916815260200190815260200160002060020160009054906101000a900460ff1660ff169050613926565b600090505b919050565b60006139363361385b565b15613c7a57600760ff1660046000846000191660001916815260200190815260200160002060020160009054906101000a900460ff1660ff16108015613a8257506000600381111561398457fe5b60046000846000191660001916815260200190815260200160002060000160003373ffffffffffffffffffffffffffffffffffffffff1673ffffffffffffffffffffffffffffffffffffffff16815260200190815260200160002060009054906101000a900460ff1660038111156139f857fe5b1480613a815750600380811115613a0b57fe5b60046000846000191660001916815260200190815260200160002060000160003373ffffffffffffffffffffffffffffffffffffffff1673ffffffffffffffffffffffffffffffffffffffff16815260200190815260200160002060009054906101000a900460ff166003811115613a7f57fe5b145b5b15613c4457600460008360001916600019168152602001908152602001600020600201600081819054906101000a900460ff168092919060010191906101000a81548160ff021916908360ff16021790555050600160046000846000191660001916815260200190815260200160002060000160003373ffffffffffffffffffffffffffffffffffffffff1673ffffffffffffffffffffffffffffffffffffffff16815260200190815260200160002060006101000a81548160ff02191690836003811115613b4d57fe5b02179055506004600083600019166000191681526020019081526020016000206001013390806001815401808255809150509060018203906000526020600020016000909192909190916101000a81548173ffffffffffffffffffffffffffffffffffffffff021916908373ffffffffffffffffffffffffffffffffffffffff16021790555050600560003373ffffffffffffffffffffffffffffffffffffffff1673ffffffffffffffffffffffffffffffffffffffff1681526020019081526020016000208290806001815401808255809150509060018203906000526020600020016000909192909190915090600019169055505b60046000836000191660001916815260200190815260200160002060020160009054906101000a900460ff1660ff169050613c7f565b600090505b919050565b600080613c903361385b565b15613e5057600060046000856000191660001916815260200190815260200160002060020160009054906101000a900460ff1660ff16141515613e4757600090505b60046000846000191660001916815260200190815260200160002060010180549050811015613dda576003600460008560001916600019168152602001908152602001600020600001600060046000876000191660001916815260200190815260200160002060010184815481101515613d4857fe5b9060005260206000200160009054906101000a900473ffffffffffffffffffffffffffffffffffffffff1673ffffffffffffffffffffffffffffffffffffffff1673ffffffffffffffffffffffffffffffffffffffff16815260200190815260200160002060006101000a81548160ff02191690836003811115613dc857fe5b02179055508080600101915050613cd2565b600060046000856000191660001916815260200190815260200160002060010181613e0591906140dd565b50600060046000856000191660001916815260200190815260200160002060020160006101000a81548160ff021916908360ff16021790555060029150613e55565b60019150613e55565b600091505b50919050565b600080600b60009054906101000a900473ffffffffffffffffffffffffffffffffffffffff1690508073ffffffffffffffffffffffffffffffffffffffff1663f3fc05f4846040518263ffffffff167c0100000000000000000000000000000000000000000000000000000000028152600401808273ffffffffffffffffffffffffffffffffffffffff1673ffffffffffffffffffffffffffffffffffffffff168152602001915050602060405180830381600087803b158015613f1e57600080fd5b505af1158015613f32573d6000803e3d6000fd5b505050506040513d6020811015613f4857600080fd5b810190808051906020019092919050505015613f675760019150613f6c565b600091505b50919050565b600080600102856000191614158015613fb85750600073ffffffffffffffffffffffffffffffffffffffff168473ffffffffffffffffffffffffffffffffffffffff1614155b8015613fc657506000835114155b8015613fda57506000600102826000191614155b15613fe85760019050613fed565b600090505b949350505050565b826002810192821561402a579160200282015b82811115614029578251829060001916905591602001919060010190614008565b5b5090506140379190614109565b5090565b828054600181600116156101000203166002900490600052602060002090601f016020900481019282601f1061407c57805160ff19168380011785556140aa565b828001600101855582156140aa579182015b828111156140a957825182559160200191906001019061408e565b5b5090506140b7919061412e565b5090565b6040805190810160405280600290602082028038833980820191505090505090565b81548183558181111561410457818360005260206000209182019101614103919061412e565b5b505050565b61412b91905b8082111561412757600081600090555060010161410f565b5090565b90565b61415091905b8082111561414c576000816000905550600101614134565b5090565b905600a165627a7a72305820b97d106ce8b4677aed2651b1973e11cb5e22114e119245c4bb7c234eca4489c50029",
  "source": "pragma solidity ^0.4.19;\n\nimport \"./Interfaces/ITrustAnchorStorage.sol\";\nimport \"./Interfaces/ITrustAnchorManager.sol\";\nimport \"./Interfaces/IShyftCacheGraph.sol\";\n\nimport \"./ECRecovery.sol\";\nimport \"./Administrable.sol\";\n\ncontract TrustAnchorStorage is DMTrustAnchorAttestation, Administrable, ITrustAnchorStorage {\n    //@note: due to https://github.com/trufflesuite/truffle-contract/issues/8\n    // events will not log from called contracts (in the attestation revocation call for instance).\n    // this allows for debugging internally.\n//    event EVT_UpdatingCacheGraph(address _identifiedAddress,\n//        uint16 updateLength,\n//        uint16 oldAttestationKeccakArrayLength,\n//        uint16 attestationKeccakArrayLength);\n//    event EVT_DoCompileCacheGraph(address _identifiedAddress,\n//        uint32 i,\n//        uint16 idx);\n//    event EVT_DoConditionallyRemoveTrustChannelEXBitFields(address _identifiedAddress,\n//        uint32 trustAnchorIndex,\n//        bytes32 keccakHash);\n//    event EVT_GotAttestationStatus(address _identifiedAddress,\n//        bool attestationStatusApproved,\n//        bool didChangeApprovedStatus,\n//        uint16 attestationIndex,\n//        bool attestationHasAlreadyBeenProcessed);\n//    event EVT_CompareTime(uint256 _effectiveTime,\n//        uint256 blockTimestamp,\n//        uint256 _expiryTime,\n//        bool isActive);\n//    event EVT_DoCompileCacheGraphTrustChannelEXBitFields(address _identifiedAddress,\n//        bytes32 keccakHash,\n//        bool consentAvailable);\n//    event EVT_GetActiveTrustChannelEXBitFieldLength(uint24 senderHighestSubmapNumber,\n//        uint24 receiverHighestSubmapNumber,\n//        uint256 senderBitfield,\n//        uint256 receiverBitfield,\n//        uint256 andedBitField);\n//    event EVT_GotBitFieldFromTrustAnchor(address trustAnchorAddress,\n//        uint32 trustAnchorIndex,\n//        uint256 bitField);\n\n    event EVT_TrustChannelBitFieldWords(uint32 bitFieldWords);\n    event EVT_TrustChannelBitFieldIndex(uint16 trustChannelIndex);\n    event EVT_TrustChannelBitFieldIndexEXT(uint32 index,\n        uint32 shifter,\n        uint32 trustChannelBitFieldWord,\n        uint256 trustChannelBitField,\n        uint16 trustChannelIndex);\n\n    event EVT_GotHighestSubmapNumbers(uint24 senderHighestSubmapNumber,\n        uint24 receiverHighestSubmapNumber);\n\n    event EVT_GotLowestAndHighestTrustChannelSubmapNumber(uint24 lowestTrustChannelSubmapNumber,\n        uint24 highestTrustChannelSubmapNumber);\n\n    event EVT_TrustChannelRouted(uint24 trustChannelIndex,\n        address _senderIdentifiedAddress,\n        address _receiverIdentifiedAddress);\n\n    event EVT_setAttestation(bytes32 attestationKeccak,\n        address msg_sender,\n        address _identifiedAddress,\n        uint16 _jurisdiction,\n        uint256 _effectiveTime,\n        uint256 _expiryTime,\n        bytes32 _publicData_0,\n        bytes32 _documentsEncrypted_0,\n        bytes32 _documentAvailabilityEncrypted);\n\n    event EVT_REQ_revokeAttestation(bytes32 _attestationKeccak);\n\n    event EVT_revokeAttestation(bytes32 _attestationKeccak,\n        address trustAnchorAddress,\n        uint16 keccakArrayIndex);\n\n    event EVT_revokeAttestationDoRecompile(address shyftCacheGraphAddress);\n\n    //get/set attestation keccak hash to storage of the attestation\n    mapping(bytes32 => trustAnchorAttestation) attestationKeccak_to_attestation;\n    //add/remove attestation keccak hash array to trust anchor's list\n    mapping(address => bytes32[]) trustAnchorAddress_to_attestationKeccakArray;\n\n    //get/set attestation keccak hash to identified address\n    mapping(bytes32 => address) attestationKeccak_to_identifiedAddress;\n    //add/remove attestation keccak hash array to user's list\n    mapping(address => bytes32[]) identifiedAddress_to_attestationKeccakArray;\n\n    mapping(bytes32 => uint16) attestationKeccak_to_identifiedAddressAttestationKeccakArrayIndex;\n\n    //@note:@checkwhenupdating: this is inside of the TrustAnchorReferenceCompatible contract, as to allow access to the struct via inheritance.\n    // struct trustAnchorAttestation {\n    //     address attestorAddress;\n\n    //     address identifiedAddress;\n    //     uint16 jurisdiction;\n    //     uint64 effectiveTime;\n    //     uint64 expiryTime;\n    //     bytes publicData;\n\n    //     bytes documentsEncrypted;\n    //     bytes32 documentAvailabilityEncrypted;\n\n    //     bytes32 trustAnchorPublicAddressEncrypted;\n\n    //     bytes attestationValidityTrustAnchorSignature;\n    //     bytes attestationValidityUserSignature;\n\n    //     uint16 fieldsDirtyBitMap;\n    // }\n\n    address internal trustAnchorManagerAddress = address(0);\n    address internal shyftCacheGraphAddress = address(0);\n\n    function TrustAnchorStorage() public {\n        owner = msg.sender;\n    }\n    \n    //returns:\n    // 0 = not an administrator\n    // 1 = only one administrator has permissioned change\n    // 2 = trust anchor set\n    \n    function setTrustAnchorManagerAddress(address _trustAnchorManagerAddress) public returns (uint8 result) {\n        require(_trustAnchorManagerAddress != address(0));\n\n        if (isAdministrator(msg.sender)) {\n            bytes32 keyKeccak = keccak256(\"trustAnchorManagerAddress\", _trustAnchorManagerAddress);\n            \n            uint16 numPermissions = adminGetPermissionsForMultisignKey(keyKeccak);\n            \n            bool permittedToModify;\n            \n            if (numPermissions >= maxThreshold) {\n                permittedToModify = true;\n            } else {\n                uint16 numConfirmedPermissions = adminApplyAndGetPermissionsForMultisignKey(keyKeccak);\n                \n                if (numConfirmedPermissions >= maxThreshold) {\n                    permittedToModify = true;\n                } \n            }\n            \n            if (permittedToModify == true) {\n                trustAnchorManagerAddress = _trustAnchorManagerAddress;\n\n                adminResetPermissionsForMultisignKey(keyKeccak);\n                \n                // trust anchor set\n                return 2;\n\n            } else {\n                // not enough administrators have permissioned change\n                return 1;\n            }\n        } else {\n            // not an administrator\n            return 0;\n        }\n    }\n\n    //returns:\n    // 0 = not an administrator\n    // 1 = only one administrator has permissioned change\n    // 2 = trust anchor set\n\n    function setShyftCacheGraphAddress(address _shyftCacheGraphAddress) public returns (uint8 result) {\n        require(_shyftCacheGraphAddress != address(0));\n\n        if (isAdministrator(msg.sender)) {\n            bytes32 keyKeccak = keccak256(\"shyftCacheGraphAddress\", _shyftCacheGraphAddress);\n\n            uint16 numPermissions = adminGetPermissionsForMultisignKey(keyKeccak);\n\n            bool permittedToModify;\n\n            if (numPermissions >= maxThreshold) {\n                permittedToModify = true;\n            } else {\n                uint16 numConfirmedPermissions = adminApplyAndGetPermissionsForMultisignKey(keyKeccak);\n\n                if (numConfirmedPermissions >= maxThreshold) {\n                    permittedToModify = true;\n                }\n            }\n\n            if (permittedToModify == true) {\n                shyftCacheGraphAddress = _shyftCacheGraphAddress;\n\n                adminResetPermissionsForMultisignKey(keyKeccak);\n\n                // trust anchor set\n                return 2;\n\n            } else {\n                // not enough administrators have permissioned change\n                return 1;\n            }\n        } else {\n            // not an administrator\n            return 0;\n        }\n    }\n\n    //returns:\n    // 0 = no trust anchor manager address set\n    // !0 = trust anchor manager address\n\n    function getTrustAnchorManagerAddress() public view returns (address result) {\n        return trustAnchorManagerAddress;\n    }\n\n\n    // ** attestations caching and management ** //\n\n    //results:\n    // false = address not verified\n    // true = verified address\n    \n    function isTrustAnchorVerified(address _trustAnchorAddress) internal view returns (bool result){\n        ITrustAnchorManager trustAnchorManager = ITrustAnchorManager(trustAnchorManagerAddress);\n\n        if (trustAnchorManager.isTrustAnchorVerified(_trustAnchorAddress)) {\n            //verified address\n            return true;\n        } else {\n            //address not verified\n            return false;\n        }\n    }\n\n    //results: (notes: the attestation can never be overwritten due to it being a sha3 hash, so the validity(sanity component) check simply saves gas.)\n    // 0 = trust anchor is not verified\n    // 1 = attestation not valid\n    // 2 = attestation already exists\n    // 3 = attestation set\n\n    //@reference: for remix input\n    //\"0x405346187a971f064f33a8e1368bb86dbf054368\", \"0x85d14957f6d70b3b3921a460e12b5c88186e44ef\", 12, 0, 0, \"gdageagsgc\", \"rtryrturuyrt\", \"0xe0b59a365a026b8ce1524e5b1f293effd626b380\", \"0xe0b59a365a026b8ce1524e5b1f293effd626b380\"\n    //\"0x405346187a971f064f33a8e1368bb86dbf054368\", \"0x85d14957f6d70b3b3921a460e12b5c88186e44ef\", 12, 0, 0, \"\", \"\", \"0xe0b59a365a026b8ce1524e5b1f293effd626b380\", \"0xe0b59a365a026b8ce1524e5b1f293effd626b380\"\n    function setAttestation(address _identifiedAddress,\n                            uint16 _jurisdiction,\n                            uint64 _effectiveTime,\n                            uint64 _expiryTime,\n                            bytes _publicData,\n                            bytes _documentsEncrypted,\n                            bytes32 _documentAvailabilityEncrypted) public returns (uint8 result) {\n        if (isTrustAnchorVerified(msg.sender)) {\n            // Notes on Keccak hash:\n            // the bitmap from the _documents is used\n            // so is the nonce (first 8 bit unsigned int) from the publicData field.\n\n            bytes32 attestationKeccak;\n\n            if (_publicData.length > 0 && _documentsEncrypted.length > 0) {\n                attestationKeccak = keccak256(  msg.sender,\n                                                _identifiedAddress,\n                                                _jurisdiction,\n                                                _effectiveTime,\n                                                _expiryTime,\n                                                bytes32(_publicData[0]),\n                                                bytes32(_documentsEncrypted[0]),\n                                                _documentAvailabilityEncrypted);\n            } else {\n                if (_documentsEncrypted.length > 0) {\n                    attestationKeccak = keccak256(  msg.sender,\n                                                    _identifiedAddress,\n                                                    _jurisdiction,\n                                                    _effectiveTime,\n                                                    _expiryTime,\n                                                    bytes32(_documentsEncrypted[0]),\n                                                    _documentAvailabilityEncrypted);\n                } else {\n                    attestationKeccak = keccak256(  msg.sender,\n                                                    _identifiedAddress,\n                                                    _jurisdiction,\n                                                    _effectiveTime,\n                                                    _expiryTime,\n                                                    _documentAvailabilityEncrypted);\n                }\n            }\n\n            uint8 verificationStatus = verifyAttestationValidity(attestationKeccak,\n                                                                _identifiedAddress,\n                                                                _documentsEncrypted,\n                                                                _documentAvailabilityEncrypted);\n            // uint8 verificationStatus = 1;\n\n            EVT_setAttestation(attestationKeccak,\n                msg.sender,\n                _identifiedAddress,\n                _jurisdiction,\n                _effectiveTime,\n                _expiryTime,\n                bytes32(_publicData[0]),\n                bytes32(_documentsEncrypted[0]),\n                _documentAvailabilityEncrypted);\n\n            if (verificationStatus == 1) {\n                //@note: @checkwhenupdating: for reference\n                // address attestorAddress;\n\n                // address identifiedAddress;\n                // uint16 jurisdiction;\n                // uint64 effectiveTime;\n                // uint64 expiryTime;\n                // bytes publicData;\n\n                // bytes documentsEncrypted;\n                // bytes32 documentAvailabilityEncrypted;\n\n                // bytes32 trustAnchorPublicAddressEncrypted;\n\n                if (attestationKeccak_to_identifiedAddress[attestationKeccak] == 0) {\n                    //set the main attestation in storage\n                    ITrustAnchorManager trustAnchorManager = ITrustAnchorManager(trustAnchorManagerAddress);\n\n                    trustAnchorAttestation storage newAttestation = attestationKeccak_to_attestation[attestationKeccak];\n                    newAttestation.attestationStatusApproved = (_effectiveTime <= (block.timestamp * 1000) && (_expiryTime == 0 || _expiryTime > (block.timestamp * 1000)));\n\n                    newAttestation.trustAnchorAddress = msg.sender;\n                    newAttestation.trustAnchorIndex = trustAnchorManager.getTrustAnchorIndex(msg.sender);\n                    newAttestation.identifiedAddress = _identifiedAddress;\n                    newAttestation.jurisdiction = _jurisdiction;\n                    newAttestation.effectiveTime = _effectiveTime;\n                    newAttestation.expiryTime = _expiryTime;\n                    newAttestation.publicData = _publicData;\n\n                    newAttestation.documentsEncrypted = _documentsEncrypted;\n                    newAttestation.documentAvailabilityEncrypted = _documentAvailabilityEncrypted;\n\n                    //add the attestation keccak to the trust anchor's list\n                    //@note:@here:@todo: not checking bounds.. will this be an issue?\n                    trustAnchorAddress_to_attestationKeccakArray[msg.sender].push(attestationKeccak);\n                    //create a attestation keccak to end-user mapping\n                    attestationKeccak_to_identifiedAddress[attestationKeccak] = _identifiedAddress;\n                    //add the attestation keccak to the users's list\n                    //@note:@here:@todo: not checking bounds.. will this be an issue?\n                    attestationKeccak_to_identifiedAddressAttestationKeccakArrayIndex[attestationKeccak] = uint16(identifiedAddress_to_attestationKeccakArray[_identifiedAddress].length);\n                    identifiedAddress_to_attestationKeccakArray[_identifiedAddress].push(attestationKeccak);\n\n                    //attestation set\n                    return 3;\n                } else {\n                    // attestation already exists\n                    return 2;\n                }\n            } else {\n                //attestation validity/signature mapping [from verifyAttestationValidity :: 0 = not valid: 2 = invalid signature]\n                if (verificationStatus == 0) {\n                    //attestation not valid\n                    return 1;\n                }\n            }\n        } else {\n            //trust anchor is not verified\n            return 0;\n        }\n    }\n\n    //@note:@here:@todo:@next: in the case where consent has changed, there should be a method of updating (appending to the \"consented\" trust channel mappings for instance) the associated attestations.\n    // otherwise, compiling a non-consented (yet) attestation will prevent the compilation to the consented channels.\n\n    //results:\n    // 0 = not the trust anchor address that created this attestation\n    // 0 = already signed\n    // 1 = invalid signature\n    // 2 = stored valid signature\n\n    function signAttestationTrustAnchorSignature(bytes32 _attestationKeccak, uint8 _attestationValidityTrustAnchorSignatureV, bytes32[2] _attestationValidityTrustAnchorSignatureRS) public returns (uint8 result) {\n        trustAnchorAttestation storage attestation = attestationKeccak_to_attestation[_attestationKeccak];\n\n        if (attestation.trustAnchorAddress == msg.sender) {\n            if (attestation.attestationValidityTrustAnchorSignatureRS[0] != 0) {\n                bytes32 attestationAndTrustAnchorAddressKeccak = keccak256(_attestationKeccak, msg.sender);\n                \n                address recoveredAddress = ecrecover(attestationAndTrustAnchorAddressKeccak, _attestationValidityTrustAnchorSignatureV, _attestationValidityTrustAnchorSignatureRS[0], _attestationValidityTrustAnchorSignatureRS[1]);\n                // address recoveredAddress = ECRecovery.recover(_attestationKeccak, _attestationValidityTrustAnchorSignature);\n                // this should recover the trust anchor's address, but this is encrypted...\n                if (recoveredAddress == msg.sender) {\n                    attestation.attestationValidityTrustAnchorSignatureV = _attestationValidityTrustAnchorSignatureV;\n                    attestation.attestationValidityTrustAnchorSignatureRS = _attestationValidityTrustAnchorSignatureRS;\n\n                    attestation.consentAvailable++;\n                    \n                    //stored valid signature\n                    return 3;\n                } else {\n                    //invalid signature\n                    return 2;\n                }\n            } else {\n                //already signed\n                return 1;\n            }\n        } else {\n            //not the trust anchor address that created this attestation\n            return 0;\n        }\n    }\n\n    //results:\n    // 0 = not the user address that is associated with this attestation\n    // 0 = already signed\n    // 1 = invalid signature\n    // 2 = stored valid signature\n\n    function signAttestationUserSignature(bytes32 _attestationKeccak, uint8 _attestationValidityUserSignatureV, bytes32[2] _attestationValidityUserSignatureRS) public returns (uint8 result) {\n        trustAnchorAttestation storage attestation = attestationKeccak_to_attestation[_attestationKeccak];\n\n        if (attestation.identifiedAddress == msg.sender) {\n            if (attestation.attestationValidityUserSignatureRS[0] != 0) {\n                bytes32 attestationAndUserAddressKeccak = keccak256(_attestationKeccak, msg.sender);\n\n                address recoveredAddress = ecrecover(attestationAndUserAddressKeccak, _attestationValidityUserSignatureV, _attestationValidityUserSignatureRS[0], _attestationValidityUserSignatureRS[1]);\n                // address recoveredAddress = ECRecovery.recover(_attestationKeccak, _attestationValidityTrustAnchorSignature);\n                // this should recover the trust anchor's address, but this is encrypted...\n                if (recoveredAddress == msg.sender) {\n                    attestation.attestationValidityUserSignatureV = _attestationValidityUserSignatureV;\n                    attestation.attestationValidityUserSignatureRS = _attestationValidityUserSignatureRS;\n\n                    attestation.consentAvailable++;\n\n                    //stored valid signature\n                    return 3;\n                } else {\n                    //invalid signature\n                    return 2;\n                }\n            } else {\n                //already signed\n                return 1;\n            }\n        } else {\n            //not the user address that is associated with this attestation\n            return 0;\n        }\n    }\n\n    //@note: @here: @todo: @optimization: should build a function to clear (only by admin access) data by previous (offchain) computation of dirty objects.\n    // this should only be used however once we know what the cost (and thus the gas savings of the storage) would look like to rebuild identifiedAddress graph caches.\n    // function clearAttestationNoCheck(bytes32 _attestationKeccak) public returns (uint8 result) {\n    //     if (isTrustAnchorVerified(msg.sender)) {\n    //         trustAnchorAttestation storage attestation = attestationKeccak_to_attestation[_attestationKeccak];\n    //         if (msg.sender == attestation.attestorAddress) {\n    //             delete attestation.identifiedAddress;\n    //             delete attestation.jurisdiction;\n    //             delete attestation.effectiveTime;\n    //             delete attestation.expiryTime;\n    //             delete attestation.documentsEncrypted;\n    //             delete attestation.documentAvailabilityEncrypted;\n    //             delete attestation.publicData;\n    //         }\n    //         return 1;\n    //     }\n\n    //     //trust anchor not verified\n    //     return 0;\n    // }\n\n    //results:\n    // 0 = not valid\n    // 1 = valid attestation\n\n    function verifyAttestationValidity( bytes32 _attestationKeccak,\n                                        address _identifiedAddress,\n                                        bytes _documentsEncrypted,\n                                        bytes32 _documentAvailabilityEncrypted) internal pure returns (uint8 result) {\n        if (_attestationKeccak != 0 &&\n            _identifiedAddress != address(0) &&\n            _documentsEncrypted.length != 0 &&\n            _documentAvailabilityEncrypted != 0) {\n            //valid attestation\n            return 1;\n        } else {\n            //not valid\n            return 0;\n        }\n    }\n\n    //@note: revokes attestations. can be used by Shyft's prime revocation manager.\n    //@note:@todo:@audit:@review: what happens when a TA's attestation key is revoked.. should they still be allowed\n    // to revoke attestations?\n\n    //results:\n    // 0 = trust anchor not verified\n    // 1 = no non-revoked attestation found\n    // 2 = attestation revoked\n\n    function revokeAttestation(bytes32 _attestationKeccak) public returns (uint8 result) {\n        ITrustAnchorManager trustAnchorManager = ITrustAnchorManager(trustAnchorManagerAddress);\n\n        trustAnchorAttestation storage attestation = attestationKeccak_to_attestation[_attestationKeccak];\n\n        EVT_REQ_revokeAttestation(_attestationKeccak);\n//        EVT_revokeAttestation(_attestationKeccak, attestation.trustAnchorAddress, attestationKeccak_to_identifiedAddressAttestationKeccakArrayIndex[_attestationKeccak]);\n\n        //@note:@todo:@audit: should trust anchors that have been revoked be able to revoke previously signed\n        // messages?\n\n//        if (isTrustAnchorVerified(msg.sender)) {\n        if (attestation.trustAnchorAddress == msg.sender || trustAnchorManager.isPrimeRevocationManager(msg.sender)) {\n            if (attestation.identifiedAddress != address(0) &&\n                attestation.attestationStatusApproved == true) {\n                attestation.attestationStatusApproved = false;\n\n//                EVT_revokeAttestationDoRecompile(shyftCacheGraphAddress);\n\n                //recompile cache graph of the identifiedAddress that would depend on this attestation.\n                IShyftCacheGraph shyftCacheGraph = IShyftCacheGraph(shyftCacheGraphAddress);\n\n                shyftCacheGraph.compileCacheGraph(attestation.identifiedAddress,\n                    attestationKeccak_to_identifiedAddressAttestationKeccakArrayIndex[_attestationKeccak]);\n\n                //attestation revoked\n                return 2;\n            } else {\n                //no non-revoked attestation found\n                return 1;\n            }\n        } else {\n            //trust anchor not verified\n            return 0;\n        }\n    }\n\n    // ** data retrieval entities management and validation ** //\n\n    //returns:\n    // 0 = trust anchor is not verified\n    // 1 = not the trust anchor address that created this attestation\n    // 2 = attestation already has this data retrieval target\n    // 3 = data retrieval target set\n\n    //@note:@here:@todo:@next: add the ability for the identifiedAddress specified in an attestation to allow a data\n    // retrieval target (possibly a 2 stage process, where the user adds their consent to this transfer, and then the\n    // Trust Anchor initiates the transference through this interface).\n    //\n    //@note:@todo:@next: Also required is a time limit to this data retrieval event. (1 week, 1 month, etc).\n    // also, should this have a bitfield to scope the data retrieval allowed? being on the blockchain, this might\n    // require an encryption pass with the result being a public key encrypted from the TA to the user.\n    // If this is required, a registering TA should provide a public key to perform the RSA-like encryption of small\n    // messages. PGP-like.\n\n    function addDataRetrievalTarget(bytes32 _attestationKeccak, address _dataRetrievalTarget) public returns (uint8 result) {\n        if (isTrustAnchorVerified(msg.sender)) {\n            trustAnchorAttestation storage attestation = attestationKeccak_to_attestation[_attestationKeccak];\n            if (attestation.trustAnchorAddress == msg.sender) {\n                if (attestation.dataRetrievalTargets[_dataRetrievalTarget] != false) {\n                    attestation.dataRetrievalTargets[_dataRetrievalTarget] = true;\n                    attestation.dataRetrievalTargetsArray.push(_dataRetrievalTarget);\n\n                    //data retrieval target set\n                    return 3;\n                } else {\n                    //attestation already has this data retrieval target\n                    return 2;\n                }\n            } else {\n                //not the trust anchor address that created this attestation\n                return 1;\n            }\n        } else {\n            //trust anchor is not verified\n            return 0;\n        }\n    }\n\n\n    //@note: validates an existing attestation with another trust anchor. useful step after validating out-of-band\n    // data source(s).\n\n    //results:\n    // 0 = attestation does not exist\n    // 1 = attestation cannot be signed by the trust anchor that set the attestation\n    // 2 = attestation data source(s) have not been sent to this entity\n    // 3 = attestation already validated by this entity\n    // 4 = attestation validated\n\n    function dataRetrievalEntityValidateAttestation(bytes32 _attestationKeccak) public returns (uint8 result) {\n        trustAnchorAttestation storage attestation = attestationKeccak_to_attestation[_attestationKeccak];\n\n        if (attestation.trustAnchorAddress != address(0)) {\n            if (attestation.trustAnchorAddress != msg.sender) {\n                if (attestation.dataRetrievalTargets[msg.sender] != false) {\n                    if (attestation.validations[msg.sender] != false) {\n                        attestation.validationsArray.push(msg.sender);\n\n                        //attestation validated\n                        return 4;\n                    } else {\n                        //attestation already validated by this entity\n                        return 3;\n                    }\n                } else {\n                    //attestation data source(s) have not been sent to this entity\n                    return 2;\n                }\n            } else {\n                //attestation cannot be signed by the trust anchor that set the attestation\n                return 1;\n            }\n        } else {\n            //attestation does not exist\n            return 0;\n        }\n    }\n\n//    function getAttestation(bytes32 _attestationKeccak) public view returns (trustAnchorAttestation attestation) {\n//        return attestationKeccak_to_attestation[_attestationKeccak];\n//    }\n\n    function getAttestationKeccakArrayLengthForIdentifiedAddress(address _identifiedAddress) public view returns (uint16 keccakArrayLength) {\n        //@note:@here:256 attestations maximum for current bitfield size, however it's not useful for overflows to be blocked\n        return uint16(identifiedAddress_to_attestationKeccakArray[_identifiedAddress].length);\n    }\n\n    function getAttestationTrustAnchorAddress(bytes32 _attestationKeccak) public view returns (address trustAnchorAddress) {\n        return attestationKeccak_to_attestation[_attestationKeccak].trustAnchorAddress;\n    }\n\n    function getAttestationTrustAnchorIndex(bytes32 _attestationKeccak) public view returns (uint32 trustAnchorIndex) {\n        return attestationKeccak_to_attestation[_attestationKeccak].trustAnchorIndex;\n    }\n\n    //@note:@here:@todo: this will copy the memory if it's not passed as storage\n    function getAttestationKeccakArrayForIdentifiedAddress(address _identifiedAddress) public view returns (bytes32[] keccakArray) {\n        return identifiedAddress_to_attestationKeccakArray[_identifiedAddress];\n    }\n    \n    function getIndexedAttestationKeccakHashForIdentifiedUser(address _identifiedAddress, uint16 _index) public view returns (bytes32 keccakHash) {\n        //@note:@here:@todo: not checking bounds.. most likely this will return a VM error if out of bounds on the check.\n        return identifiedAddress_to_attestationKeccakArray[_identifiedAddress][_index];\n    }\n\n    function getIndexedAttestationJurisdictionForIdentifiedUser(address _identifiedAddress, uint16 _index) public view returns (uint16 jurisdiction) {\n        //@note:@here:@todo: not checking bounds.. most likely this will return a VM error if out of bounds on the check.\n        return attestationKeccak_to_attestation[identifiedAddress_to_attestationKeccakArray[_identifiedAddress][_index]].jurisdiction;\n    }\n\n    function getIndexedAttestationEffectiveTimeForIdentifiedUser(address _identifiedAddress, uint16 _index) public view returns (uint256 effectiveTime) {\n        //@note:@here:@todo: not checking bounds.. most likely this will return a VM error if out of bounds on the check.\n        return attestationKeccak_to_attestation[identifiedAddress_to_attestationKeccakArray[_identifiedAddress][_index]].effectiveTime;\n    }\n\n    function getIndexedAttestationExpiryTimeForIdentifiedUser(address _identifiedAddress, uint16 _index) public view returns (uint256 expiryTime) {\n        //@note:@here:@todo: not checking bounds.. most likely this will return a VM error if out of bounds on the check.\n        return attestationKeccak_to_attestation[identifiedAddress_to_attestationKeccakArray[_identifiedAddress][_index]].expiryTime;\n    }\n\n    function getIndexedAttestationDocumentAvailabilityEncryptedForIdentifiedUser(address _identifiedAddress, uint16 _index) public view returns (bytes32 documentAvailabilityEncrypted) {\n        //@note:@here:@todo: not checking bounds.. most likely this will return a VM error if out of bounds on the check.\n        return attestationKeccak_to_attestation[identifiedAddress_to_attestationKeccakArray[_identifiedAddress][_index]].documentAvailabilityEncrypted;\n    }\n\n    function getGraphConstructableAttestationInKeccakArray(address _identifiedAddress, uint16 _index) public view returns ( bytes32 keccakHash,\n                                                                                                                            uint32 trustAnchorIndex,\n                                                                                                                            uint16 jurisdiction,\n//                                                                                                                            uint256 effectiveTime,\n//                                                                                                                            uint256 expiryTime,\n                                                                                                                            bool attestationStatusApproved) {\n//                                                                                                                            bytes32 documentAvailabilityEncrypted) {\n        //@note:@here:@todo: not checking bounds.. most likely this will return a VM error if out of bounds on the check.\n        bytes32 attestationKeccakHash = identifiedAddress_to_attestationKeccakArray[_identifiedAddress][_index];\n        trustAnchorAttestation storage attestation = attestationKeccak_to_attestation[attestationKeccakHash];\n\n        return (attestationKeccakHash,\n                attestation.trustAnchorIndex,\n                attestation.jurisdiction,\n//                attestation.effectiveTime,\n//                attestation.expiryTime,\n                attestation.attestationStatusApproved);\n//                attestation.documentAvailabilityEncrypted);\n    }\n    \n    function getAttestationStatusApprovedInKeccakArray(address _identifiedAddress, uint16 _index) public view returns (bool attestationStatusApproved) {\n        //@note:@here:@todo: not checking bounds.. most likely this will return a VM error if out of bounds on the check.\n        return attestationKeccak_to_attestation[identifiedAddress_to_attestationKeccakArray[_identifiedAddress][_index]].attestationStatusApproved;\n    }\n    \n    function getConsentAvailableInKeccakArray(address _identifiedAddress, uint16 _index) public view returns (uint8 consentAvailable) {\n        //@note: return number of signatures for this attestation (currently user and trust anchor)\n        //@note:@here:@todo: not checking bounds.. most likely this will return a VM error if out of bounds on the check.\n        return attestationKeccak_to_attestation[identifiedAddress_to_attestationKeccakArray[_identifiedAddress][_index]].consentAvailable;\n    }\n\n    function getTrustAnchorAddressInKeccakArray(address _identifiedAddress, uint16 _index) public view returns (address trustAnchorAddress) {\n        //@note:@here:@todo: not checking bounds.. most likely this will return a VM error if out of bounds on the check.\n        return attestationKeccak_to_attestation[identifiedAddress_to_attestationKeccakArray[_identifiedAddress][_index]].trustAnchorAddress;\n    }\n    \n    function getAttestationValiditySignaturesInKeccakArray(address _identifiedAddress, uint16 _index) public view returns ( uint8 validityTrustAnchorSignatureV,\n                                                                                                                            bytes32[2] validityTrustSignatureRS,\n                                                                                                                            uint8 validityUserSignatureV,\n                                                                                                                            bytes32[2] validityUserSignatureRS) {\n        trustAnchorAttestation storage attestation = attestationKeccak_to_attestation[identifiedAddress_to_attestationKeccakArray[_identifiedAddress][_index]];\n        //@note:@here:@todo: not checking bounds.. most likely this will return a VM error if out of bounds on the check.\n        return (attestation.attestationValidityTrustAnchorSignatureV,\n                attestation.attestationValidityTrustAnchorSignatureRS,\n                attestation.attestationValidityUserSignatureV,\n                attestation.attestationValidityUserSignatureRS);\n    }\n\n    function getAttestationValidationsArrayLengthInKeccakArray(address _identifiedAddress, uint16 _index) public view returns (uint16 arrayLength) {\n        return uint16(attestationKeccak_to_attestation[identifiedAddress_to_attestationKeccakArray[_identifiedAddress][_index]].validationsArray.length);\n    }\n\n    function getAttestationDataRetrievalsArrayLengthInKeccakArray(address _identifiedAddress, uint16 _index) public view returns (uint16 arrayLength) {\n        return uint16(attestationKeccak_to_attestation[identifiedAddress_to_attestationKeccakArray[_identifiedAddress][_index]].dataRetrievalTargetsArray.length);\n    }\n}",
  "sourcePath": "/Users/jaypersanchez/KYCAML/contracts/TrustAnchorStorage.sol",
  "compiler": {
    "name": "solc",
    "version": "0.4.24+commit.e67f0147.Emscripten.clang"
  },
  "schemaVersion": "2.0.1",
  "updatedAt": "2018-10-11T00:10:45.249Z"
}